:10000000E02001209142030043190100531901002F
:100010006319010073190100831901000000000039
:100020000000000000000000000000009319010023
:10003000A319010000000000B3190100C319010059
:10004000D3190100E3190100F3190100031A01009B
:10005000131A0100231A0100331A0100431A010088
:10006000531A0100631A0100731A0100831A010078
:10007000931A0100A31A0100B31A0100C31A010068
:10008000D31A0100E31A0100F31A0100031B010057
:10009000131B0100231B0100331B0100431B010044
:1000A000531B0100631B0100731B0100831B010034
:1000B000931B0100A31B0100B31B0100C31B010024
:1000C000D31B0100E31B0100F31B0100031C010013
:1000D000131C0100231C0100331C0100431C010000
:1000E000531C0100511D0100631C0100511D010042
:1000F000731C0100831C0100931C0100A31C010060
:10010000B31C0100F11C0100011D0100111D0100C3
:10011000211D0100311D0100411D0100511D010083
:1001200080B5DFF8EC0A0078002808D10021DFF85C
:10013000E40A02F03CFCDFF8D80A01210170DFF884
:10014000D80A0078002808D10021DFF8D00A02F090
:100150002EFCDFF8C40A01210170DFF8C40A007820
:10016000002808D10021DFF8BC0A02F020FCDFF8EB
:10017000B00A01210170DFF8B00A0078002808D128
:100180000021DFF8A80A02F012FCDFF89C0A012126
:10019000017001BD7047F0B5B7B004000D002560D7
:1001A000206803F006F80600206803F009F807004D
:1001B000206802F0F2FF03003A00310014F1080059
:1001C00003F0EEF814F1080114F1480002F005FB09
:1001D000206802F0E5FF0600C8200D900DA803F08E
:1001E00077FDCDE90201002001904FF4C870009026
:1001F0000E230022310014F1500004F0ACF800236B
:10020000002214F1500104F2681005F0ECFA4FF4EA
:100210008060C4F86C0A206802F0BFFF0600206806
:1002200002F0D1FF0200310014F52760FFF7B2FFA2
:10023000206802F0B2FF0600206802F0C4FF070049
:1002400001200C900CA805F039FBCDE904014020F9
:1002500002900020019001200090D4F86C3A3A00FE
:10026000310004F6782006F011FF0020C4F8D80B06
:1002700004F6D833002204F6782104F6DC3006F0C8
:1002800057FFD4F8D80B0090D4F86C3A04F6DC325F
:1002900004F6782104F6247002F042FA206802F095
:1002A0007CFF0600206802F075FF14F5F963020078
:1002B000310004F6287002F0FBFA14F5F96104F637
:1002C0003C7002F0B4FA280002F067FF0600280034
:1002D00002F05AFF04F6FC31019104F63C710091E2
:1002E00004F240330268310004F6687006F0F0FF53
:1002F000280002F052FF0600280002F045FF04F635
:100300008441019104F64471009114F585634268BB
:10031000310004F59850703006F0DAFF280002F042
:100320003CFF0600280002F02FFF04F60C5101915B
:1003300004F64C71009114F5A2638268310004F553
:10034000B850783006F0C4FF280002F026FF0600FF
:10035000280002F019FF04F69451019104F654713B
:10036000009114F5BF63C268310014F5DC5006F04B
:10037000AFFF280002F011FF0600280002F004FF82
:1003800004F61C61019104F65C71009114F5DC63C4
:100390000269310004F5F850883006F099FF42F206
:1003A00090300021015542F29130002101550A2080
:1003B0000B900BA803F08CFCCDE91C011CA904F5E3
:1003C0000C50983008F080F904F2881008F06AFAAE
:1003D000002801D0012000E0002042F2B031085591
:1003E00004F2941008F05EFA002801D0012000E029
:1003F000002042F2B131085504F2A01008F052FA80
:10040000002801D0012000E0002042F2B23108555E
:1004100004F2AC1008F046FA002801D0012000E0F8
:10042000002042F2B331085504F2DC1008F03AFA29
:10043000002801D0012000E0002042F2B43108552C
:1004400001200A900AA805F039FACDE91A011AA983
:1004500004F50C50B83008F037F9DFF8D437DFF87E
:10046000D42704F2383104F50C50D03008F030FABB
:10047000DFF8C437002204F2E82104F50C50E03024
:1004800008F026FADFF8B037002204F2F02104F574
:100490000C50F03008F01CFADFF89C37002204F210
:1004A000283114F5105008F013FADFF88C370022C9
:1004B00004F2303104F51050103008F009FADFF87A
:1004C0007C37DFF87C2704F2F82104F51050203047
:1004D00008F0FEF9DFF86437DFF8642704F218311A
:1004E00004F51050303008F0F3F9DFF85837DFF832
:1004F000582704F2203114F5115008F0E9F9DFF81B
:100500004C37DFF8442704F2083104F5105050301E
:1005100008F0DEF9DFF83837DFF8382704F2003169
:1005200004F51050603008F0D3F9DFF82C37DFF80D
:100530002C2704F2103104F51050703008F0C8F97F
:10054000DFF81C37DFF8EC2604F2C02114F5125056
:1005500008F0BEF9DFF80837DFF8D82604F2C82122
:1005600004F51050903008F0B3F9DFF8F436DFF8F6
:10057000C42604F2D02104F51050A03008F0A8F9E8
:10058000DFF8DC36DFF8AC2604F2D82104F5105091
:10059000B03008F09DF9DFF8C836DFF8982604F28D
:1005A000E02114F5135008F093F9DFF8B836DFF8BE
:1005B000842604F2C83104F51050D03008F088F9D0
:1005C000DFF8A036DFF86C2614F5836104F51050CF
:1005D000E03008F07DF9DFF88C36DFF8582614F5A6
:1005E000966104F51050F03008F072F9DFF87436B7
:1005F000DFF8402614F5A06114F5145008F068F9EE
:10060000DFF86036DFF82C2614F5B36104F51450DA
:10061000103008F05DF9DFF84C36DFF8182614F5D5
:10062000BD6104F51450203008F052F9DFF834367B
:10063000DFF8002614F5D06104F51450303008F0CE
:1006400047F9DFF82036DFF8EC2514F5DA6114F508
:10065000155008F03DF9DFF81036DFF8D82514F50D
:10066000ED6104F51450503008F032F9DFF8FC3534
:10067000DFF8C02514F5F76104F51450603008F078
:1006800027F96420099009A803F022FBCDE918019D
:1006900018A904F51450703008F057F80520089098
:1006A00008A805F00BF9CDE9160116A914F51650A6
:1006B00008F00AF80520079007A805F0FFF8CDE933
:1006C000140114A904F51450983007F0FDFF42F20C
:1006D000B0500221015542F2B4500021015142F2C2
:1006E000B8500021015542F2B950002101550120B6
:1006F000069006A805F0E2F8CDE9120112A914F55A
:10070000175007F0E1FF052104F51450D83008F028
:10071000E5F84FF49670059005A803F0D9FACDE9F5
:10072000100110A904F51450E03008F00EF842F260
:10073000F0500021015540F6B830049004A803F0B1
:10074000C7FACDE90E010EA904F51450F83007F0F0
:10075000BBFF206802F021FD0500206802F026FDA5
:1007600014F51D61019104F6B861009104F2C023F3
:100770000200290004F51850103001F081FD00201E
:10078000009004F2482304F2242214F1080104F535
:100790002050703003F078F804F6C46304F2542259
:1007A00014F1080104F52050B83001F05CFF206816
:1007B00002F001FD0500206802F0FFFC0600206841
:1007C00002F0E8FC03003200290004F52050C83094
:1007D00002F0E6FD0020009004F2A82304F2842237
:1007E00004F52051C83104F52450083003F04CF8CA
:1007F00014F56D6304F2B42204F52051C83104F5F8
:100800002450503001F02FFFDFF86404D0E90023BA
:10081000210004F52450603008F07CF842F67C108A
:100820000021015114F526500021016042F6841088
:100830000021015104F52450883000220023C0E932
:10084000002304F52450903000220023C0E9002347
:10085000206808F073F8010004F60C2008F071F825
:10086000206808F06BF8011D04F6142008F076F8F3
:10087000206808F063F810F1080104F61C2008F065
:1008800060F8206808F05AF810F10A0104F62420F4
:1008900008F057F804F50C50B83007F02DFF206829
:1008A00002F081FCC06A0168C968884704F6DC313F
:1008B00004F2681008F05FF804F6E43104F27010F6
:1008C00008F059F804F6EC3104F2781008F053F807
:1008D00004F6F43104F2801008F04DF808F05CF8EA
:1008E000009003A800A9042208F05CF804F6DC30AC
:1008F00008F093F88DF80C0004F6E43008F08DF859
:100900008DF80D0004F6EC3008F087F88DF80E0035
:1009100004F6F43008F081F88DF80F0003A92EA832
:1009200008F08CF808F02DF9D24908F06FF92EA9DB
:1009300008F060FAD04908F067FA04F6DC6104F6C2
:100940002C2008F018F804F6E46104F6342008F0CE
:1009500012F804F6EC6104F63C2008F00CF804F6FA
:10096000F46104F6442008F006F804F6FC6104F68D
:100970004C2008F000F804F6047104F6542007F047
:10098000FAFF04F60C7104F65C2007F0F4FF04F69D
:10099000147104F6642007F0EEFF07F0FDFF0090ED
:1009A00002A800A9042207F0FDFF04F6DC6008F0AD
:1009B00034F88DF8080004F6E46008F02EF88DF89D
:1009C000090004F6EC6008F028F88DF80A0004F637
:1009D000F46008F022F88DF80B0007F0DDFF0090BE
:1009E00001A800A9042207F0DDFF04F6FC6008F06E
:1009F00014F88DF8040004F6047008F00EF88DF871
:100A0000050004F60C7008F008F88DF8060004F6EE
:100A1000147008F002F88DF8070002A926A808F063
:100A20000DF808F0AEF8954908F0F0F826A908F09E
:100A3000E1F9914908F0E8F901A91EA807F0FEFFC5
:100A400008F09FF88E4908F0E1F81EA908F0D2F9E5
:100A5000894908F0D9F90020C0B20090019B029AA0
:100A60000399206802F0D0FB002104F6141008F06E
:100A7000CEF904F51450703007F07AFE14F51650D4
:100A800007F03AFE04F6AC6114F51A6008F0D5F9E7
:100A900004F5F850883007F0DFFD04F51450D83025
:100AA00008F0EAF9C0B2010004F6B81008F0AFF996
:100AB00004F51450D83008F0E9F90D2204F2F411CD
:100AC00004F52050703002F025FF092204F2FC11D9
:100AD00004F52050703002F01DFF052204F20421BD
:100AE00004F52050703002F015FF0023042204F2B8
:100AF0000C2104F52050703002F01EFF0023032269
:100B000004F2182104F52050703002F015FF012383
:100B1000022204F2302104F52050703002F00CFF64
:100B2000002204F23C2104F52050703002F01EFF38
:100B300004F52050703002F027FF0E2204F26021ED
:100B400004F52450083002F0E5FE0A2204F2682180
:100B500004F52450083002F0DDFE062204F2702174
:100B600004F52450083002F0D5FE0023052204F2DB
:100B7000782104F52450083002F0DEFE0123022221
:100B800004F2902104F52450083002F0D5FE002232
:100B900004F29C2104F52450083002F0E7FE04F52D
:100BA0002450083002F0F0FE1EA808F09BF926A899
:100BB00008F098F92EA808F095F9200037B0F0BD9C
:100BC00010B5040008F006FA04F524529032C2E988
:100BD0000001206802F0FDFA016889688847C0B208
:100BE000002807D042F67C100059401C42F67C11C8
:100BF000085106E014F526500068401C14F52651F3
:100C000008602048006850F040001E49086010BD90
:100C1000C880002010800020C9800020188000209B
:100C2000CA80002014800020C2800020DC7F0020C9
:100C30000000484200009041C3F5A83E0000C841B2
:100C40000000B8410000B040000090400000D040DB
:100C5000CDCC5C409A9949406666A63FCDCC8C3F8E
:100C6000000034420000AA420000B4420000F042FA
:100C70002044030010440300790F030018440300CC
:100C8000744003001CD403402DE9F0438DB00600EE
:100C900016F1080002F078FC06F52050703002F0E2
:100CA00087FE06F52050B83001F0F0FC06F5205024
:100CB000C83002F069FC06F52450083002F078FED6
:100CC00006F52450503001F0E1FC06F6687006F09D
:100CD000DFFD06F59850703006F0DAFD06F5B850E5
:100CE000783006F0D5FD16F5DC5006F0D1FD06F59E
:100CF000F850883006F0CCFD306802F048FA016800
:100D0000C96B8847306802F067FA06F51850103052
:100D100001F086FB16F1500004F07FF906F678200A
:100D200006F028F806F6782006F0E3F9C0B20028AD
:100D300032D007F026FF070008F04CF904000D0040
:100D4000254AD2E9000108F0B3F98046894620001F
:100D5000290008F0ADF942464B4608F0D7F90400E7
:100D60000D001E4AD2E9000108F0A2F902000B00B2
:100D70002000290008F0A0FA02000B00380008F05B
:100D8000BEFB07F0FEFE164907F040FF154908F0CC
:100D90003BF8300001F043F806F51450F83007F046
:100DA000B6FCC0B2002808D042F2F05000218155B4
:100DB000002106F6E81008F02AF842F2F050805DB3
:100DC000002840F0D08006F6E81007F06BFD0128FF
:100DD0000AD1012009E000BFA0000020587F0020B8
:100DE0003C2E0300790F03000020C0B2002800F061
:100DF000BA8042F2F0500121815506F51450F830C6
:100E000007F07AFC06F2681106F6DC3007F0B3FD55
:100E100006F2701106F6E43007F0ADFD06F2781127
:100E200006F6EC3007F0A7FD06F2801106F6F43066
:100E300007F0A1FD07F0B0FD009003A800A904226F
:100E400007F0B0FD06F2681007F0E7FD8DF80C0022
:100E500006F2701007F0E1FD8DF80D0006F2781033
:100E600007F0DBFD8DF80E0006F2801007F0D5FDCF
:100E70008DF80F0006F62C2106F6DC6007F07BFDEE
:100E800006F6342106F6E46007F075FD06F63C210F
:100E900006F6EC6007F06FFD06F6442106F6F460F6
:100EA00007F069FD06F64C2106F6FC6007F063FDCD
:100EB00006F6542106F6047007F05DFD06F65C2187
:100EC00006F60C7007F057FD06F6642106F614705E
:100ED00007F051FD07F060FD009002A800A9042270
:100EE00007F060FD06F62C2007F097FD8DF808004E
:100EF00006F6342007F091FD8DF8090006F63C2037
:100F000007F08BFD8DF80A0006F6442007F085FDFA
:100F10008DF80B0007F040FD009001A800A9042205
:100F200007F040FD06F64C2007F077FD8DF8040031
:100F300006F6542007F071FD8DF8050006F65C20DA
:100F400007F06BFD8DF8060006F6642007F065FDDE
:100F50008DF807000020C0B20090019B029A03990F
:100F6000306802F051F906F50C50B83007F0CFFBAD
:100F7000C0B200280BD0306802F015F9806A016811
:100F8000C9688847012106F2D01007F040FF42F2FD
:100F90009130805D002803D0012800F08C82D2E2DD
:100FA00006F2881007F07EFC002801D0012000E046
:100FB000002042F2B031895DC0B2814201D00120EF
:100FC00000E00020C0B2002840D042F2B430805D82
:100FD000002809D042F2B03000218155002106F2EC
:100FE000881007F014FF31E042F290300121815562
:100FF00006F2881007F056FC002801D0012000E01E
:10100000002042F2B031885542F2B030805D0028B5
:101010000ED0306802F0C7F800680168C9688847D8
:10102000306802F0C0F840680168096988470DE03F
:10103000306802F0B8F800680168096988473068CC
:1010400002F0B1F840680168C968884706F2941058
:1010500007F028FC002801D0012000E0002042F227
:10106000B131895DC0B2814201D0012000E0002091
:10107000C0B2002840D042F2B430805D002809D0D0
:1010800042F2B13000218155002106F2941007F0A0
:10109000BEFE31E042F290300121815506F29410FB
:1010A00007F000FC002801D0012000E0002042F2FF
:1010B000B131885542F2B130805D00280ED03068E1
:1010C00002F071F880680168C9688847306802F0EA
:1010D0006AF8C0680168096988470DE0306802F065
:1010E00062F88068016809698847306802F05BF837
:1010F000C0680168C968884706F2A01007F0D2FBF3
:10110000002801D0012000E0002042F2B231895DC8
:10111000C0B2814201D0012000E00020C0B200280E
:1011200040D042F2B430805D002809D042F2B230A3
:1011300000218155002106F2A01007F068FE31E081
:1011400042F290300121815506F2A01007F0AAFB6F
:10115000002801D0012000E0002042F2B231885581
:1011600042F2B230805D00280ED0306802F01BF8E9
:1011700000690168C9688847306802F014F840695E
:101180000168096988470DE0306802F00CF80069D1
:10119000016809698847306802F005F8406901680C
:1011A000C968884706F2AC1007F07CFB002801D024
:1011B000012000E0002042F2B331895DC0B28142DB
:1011C00001D0012000E00020C0B2002840D042F24F
:1011D000B430805D002809D042F2B330002181553F
:1011E000002106F2AC1007F012FE31E042F290301E
:1011F0000121815506F2AC1007F054FB002801D004
:10120000012000E0002042F2B331885542F2B330B1
:10121000805D00280ED0306801F0C5FF806901684C
:10122000C9688847306801F0BEFFC0690168096974
:1012300088470DE0306801F0B6FF806901680969F0
:101240008847306801F0AFFFC0690168C968884706
:1012500006F2B81007F026FB002801D0012000E0BC
:101260000020C0B2002807D0306801F09CFF006A5F
:101270000168C968884706E0306801F094FF006A99
:1012800001680969884706F2C41007F00BFB0028C3
:1012900001D0012000E00020C0B2002807D0306853
:1012A00001F081FF406A0168C968884706E030683C
:1012B00001F079FF406A01680969884706F2D01099
:1012C00007F0F0FA002801D0012000E00020C0B2B1
:1012D000002807D0306801F066FF806A0168C9689D
:1012E000884706E0306801F05EFF806A016809699E
:1012F000884706F2DC1007F0D5FA002801D001205B
:1013000000E0002042F2B431895DC0B2884201D0D1
:10131000012000E00020C0B2002800F0BD8006F2ED
:10132000DC1007F0BFFA002801D0012000E0002007
:1013300042F2B431885542F2B430805D002800F0AA
:10134000A480306801F02FFFC06A016809698847EE
:10135000306801F028FF0068016809698847306833
:1013600001F021FF4068016809698847306801F091
:101370001AFF8068016809698847306801F013FF27
:10138000C068016809698847306801F00CFF00698E
:10139000016809698847306801F005FF4069016804
:1013A00009698847306801F0FEFE806901680969B3
:1013B0008847306801F0F7FEC0690168096988470D
:1013C00042F2B33000218155002106F2AC1007F043
:1013D0001EFD42F2B03000218155002106F2881036
:1013E00007F015FD42F2B13000218155002106F2CF
:1013F000941007F00CFD42F2B2300021815500211B
:1014000006F2A01007F003FD306801F0CCFE806901
:10141000016809698847306801F0C5FEC069016844
:1014200009698847306801F0BEFE006801680969F3
:101430008847306801F0B7FE40680168096988474D
:10144000306801F0B0FE806801680969884730683B
:1014500001F0A9FEC068016809698847306801F099
:10146000A2FE0069016809698847306801F09BFEA7
:10147000406901680969884742F29030002181552E
:1014800042F291300021815506E0306801F08BFE78
:10149000C06A0168C968884742F29030805D0028C0
:1014A00008D006F50C50983007F026F942F291303A
:1014B0000121815547E006F50C50983007F027F9D7
:1014C000C0B200283FD042F29030002181553068F0
:1014D00001F069FE0068016809698847306801F019
:1014E00062FE4068016809698847306801F05BFE68
:1014F0008068016809698847306801F054FEC06857
:10150000016809698847306801F04DFE006901688B
:1015100009698847306801F046FE40690168096939
:101520008847306801F03FFE806901680969884793
:10153000306801F038FEC06901680969884742F2E5
:10154000913000218155306801F02DFE006B01685B
:10155000896888470100C9B206F2E81007F057FC15
:1015600006F51450703007F009F9C0B2002800F0F9
:10157000F582002106F6042008F020F806F628700F
:1015800001F0ADF942F2B950805D00282BD106F68A
:10159000AC1007F087F9012801D1012000E00020FC
:1015A000C0B200282FD006F6687007F016F806F5CE
:1015B0009850703007F011F806F5B850783007F001
:1015C0000CF816F5DC5007F008F806F5F8508830EE
:1015D00007F003F842F2B9500121815516F5175072
:1015E00007F08AF80FE016F5175007F090F8C0B230
:1015F000002808D0002106F6AC1007F008FC42F2E3
:10160000B9500021815542F2B050805D022800F0AF
:101610001F8106F50C50D03007F0ECFFC0B201007E
:1016200016F5FA6007F0F3FB06F50C50E03007F012
:10163000E1FFC0B2010006F2DC7007F0E8FB06F53E
:101640000C50F03007F0D6FFC0B2010016F5FD6077
:1016500007F0DDFB16F5105007F0CCFFC0B201001B
:1016600006F2F47007F0D3FB06F51050103007F0C7
:10167000C1FFC0B2010016F5006007F0C8FB06F517
:101680001050203007F0B6FFC0B2010006F60C0083
:1016900007F0BDFB06F51050303007F0ABFFC0B2CD
:1016A000010006F6180007F0B2FB16F5115007F01E
:1016B000A1FFC0B2010006F6240007F0A8FB06F562
:1016C0001050503007F096FFC0B2010016F50360CD
:1016D00007F09DFB06F51050603007F08BFFC0B29D
:1016E000010006F63C0007F092FB06F51050703042
:1016F00007F080FFC0B2010006F6480007F087FB44
:1017000006F51850103007F09DFF002834D016F56C
:10171000125007F06FFFC0B2010006F6540007F048
:1017200076FB06F51050903007F064FFC0B2010060
:1017300016F5066007F06BFB06F51050A03007F0B9
:1017400059FFC0B2010006F66C0007F060FB06F519
:101750001050B03007F04EFFC0B2010006F678001E
:1017600007F055FB16F5135007F044FFC0B2010017
:1017700006F6840007F04BFB06F51050D03007F05A
:1017800039FFC0B2010016F5096007F040FB06F50D
:101790001050E03007F02EFFC0B2010006F69C00AA
:1017A00007F035FB06F51050F03007F023FFC0B20C
:1017B000010006F6A80007F02AFB16F5145007F002
:1017C00019FFC0B2010006F6B40007F020FB06F5D1
:1017D0001450103007F00EFFC0B2010016F50C6077
:1017E00007F015FB06F51450203007F003FFC0B2D8
:1017F000010006F6CC0007F00AFB06F51450303065
:1018000007F0F8FEC0B2010006F6D80007F0FFFAB4
:1018100016F5155007F0EEFEC0B2010006F6E40022
:1018200007F0F5FA06F51450503007F0E3FEC0B2A9
:10183000010016F50F6007F0EAFA06F51450603063
:1018400007F0D8FEC0B2010006F6FC0007F0DFFA90
:1018500042F2B850815D06F6081007F0D8FA16F586
:10186000F96007F0F6FE009042F2B050805D00286B
:1018700039D0022802D0C0F08980E0E016F5165079
:1018800006F045FFC0B200282CD0300000F044FA2A
:1018900042F2B05001218155012106F6141007F0E3
:1018A000B6FA06F52450083002F06EF806F520501E
:1018B000703002F069F806F6687006F0FFFD06F574
:1018C0009850703006F0FAFD06F5B850783006F002
:1018D000F5FD16F5DC5006F0F1FD06F5F850883000
:1018E00006F0ECFDABE016F5F96007F0B2FE400142
:1018F0000CD016F5126007F090F8C0B2742801D031
:10190000012000E0002090F0010000E00120C0B2C2
:10191000002829D042F2B05001218155012106F65C
:10192000141007F074FA06F52450083002F02CF871
:1019300006F52050703002F027F806F6687006F0C1
:10194000BDFD06F59850703006F0B8FD06F5B850AC
:10195000783006F0B3FD16F5DC5006F0AFFD06F565
:10196000F850883006F0AAFD06F6141006F09AFF2B
:10197000002801D0012000E00020C0B2002804D0DF
:10198000002106F6141007F042FA58E016F5F96047
:1019900007F05FFE40010CD016F5126007F03DF82D
:1019A000C0B2742801D1012000E0002090F00100B5
:1019B00000E00020C0B2002830D042F2B050002138
:1019C0008155002106F6141007F021FA06F524507F
:1019D000083001F0E3FF06F52050703001F0DEFF23
:1019E00006F6687006F0A3FD06F59850703006F014
:1019F0009EFD06F5B850783006F099FD16F5DC50DE
:101A000006F095FD06F5F850883006F090FD0020B0
:101A10000C900CA916F5EF6007F02AFE06F61410DC
:101A200006F040FF002801D1012000E00020C0B2F4
:101A3000002804D0012106F6141007F0E8F916F585
:101A4000126006F0EAFFC0B2CF2801D1012000E009
:101A50000020C0B200280AD000208DF8000000A9A4
:101A600016F5126007F011FE300000F055F916F57A
:101A70001A6006F017FF040006F6AC6006F012FFCD
:101A8000844201D0012000E00020C0B2002821D013
:101A900016F51A6106F6AC6007F0CFF916F51A6074
:101AA00006F000FF002801D0012000E00020C0B2B5
:101AB00000280FD006F6F41007F0CBFD42F2B45127
:101AC000885142F2B8500021815506F514509830E3
:101AD00006F012FE06F6AC6006F0E4FE002801D027
:101AE000012000E00020C0B2002826D006F6F41045
:101AF00007F0AFFD42F2B4518959814201D0012073
:101B000000E00020C0B200280BD006F6F41007F069
:101B1000A0FD42F2B451885106F51450983006F0F9
:101B2000EBFD06F51450983006F0F1FDC0B2002828
:101B300003D042F2B8500121815506F6C41006F0D8
:101B4000B1FE002801D1012000E00020C0B2002831
:101B500004D006F51450D83007F0A4FD06F5145053
:101B6000E03006F00BFEC0B2002800F0B180306813
:101B700001F00DFB09210268526B90470B900BA9F5
:101B800006F2E82007F074FD306801F000FB082140
:101B90000268526B90470A900AA906F2F02007F0FB
:101BA00067FD306801F0F3FA07210268526B904735
:101BB0000100DFF8FC0B07F087FD099009A906F288
:101BC000F82007F055FD306801F0E1FA06210268BF
:101BD000526B90470100DFF8DC0B07F075FD0890B1
:101BE00008A906F2003007F043FD306801F0CFFA93
:101BF00005210268526B90470100DFF8BC0B07F02B
:101C000063FD079007A906F2083007F031FD306840
:101C100001F0BDFA04210268526B904707F0C0FD45
:101C2000DFF8982BDFF8983B07F070FA07F0E2FD39
:101C3000069006A906F2103007F01AFD306801F090
:101C4000A6FA03210268526B90470100DFF8740B7B
:101C500007F03AFD059005A906F2183007F008FDD7
:101C6000306801F094FA02210268526B904701003B
:101C7000DFF8540B07F028FD049004A906F2203089
:101C800007F0F6FC306801F082FA01210268526B1D
:101C90009047039003A906F2283007F0E9FC30686A
:101CA00001F075FA00210268526B9047029002A978
:101CB00006F2303007F0DCFC306801F068FA0168A9
:101CC000896B8847019001A906F2383007F0D0FCF3
:101CD00006F6FC1007F0BDFC42F6841189598842D3
:101CE00001D0012000E00020C0B2002811D006F68B
:101CF000FC1007F0AEFC42F68411885107F048FE54
:101D0000040006F6FC1007F0A4FC0100200007F018
:101D100030FE0DB0BDE8F08310B5040004F50C50A2
:101D2000D03007F05FFE04F50C50E03007F05AFEAB
:101D300004F50C50F03007F055FE14F5105007F084
:101D400051FE04F51050103007F04CFE04F5105011
:101D5000203007F047FE04F51050303007F042FE07
:101D600014F5115007F03EFE04F51050503007F006
:101D700039FE04F51050603007F034FE04F51050C1
:101D8000703007F02FFE14F5125007F02BFE04F50B
:101D90001050903007F026FE04F51050A03007F0E8
:101DA00021FE04F51050B03007F01CFE14F513505E
:101DB00007F018FE04F51050D03007F013FE04F5BC
:101DC0001050E03007F00EFE04F51050F03007F030
:101DD00009FE14F5145007F005FE04F514501030F8
:101DE00007F000FE04F51450203007F0FBFD04F569
:101DF0001450303007F0F6FD14F5155007F0F2FDE1
:101E000004F51450503007F0EDFD04F51450603027
:101E100007F0E8FD42F2B8500021015510BD10B5A1
:101E2000040004F2681104F6DC3006F0A4FD04F2AC
:101E3000701104F6E43006F09EFD04F2781104F609
:101E4000EC3006F098FD04F2801104F6F43006F050
:101E500092FD04F2403104F6FC3007F0C6FD04F2B6
:101E6000503104F6044007F0D1FD04F2603104F66D
:101E70000C4007F0CBFD04F2703104F6144007F07B
:101E8000C5FD04F2803104F61C4007F0BFFD04F2EA
:101E9000883104F6244007F0B9FD04F2903104F6CD
:101EA0002C4007F0B3FD04F2983104F6344007F0FB
:101EB000ADFD04F2A03104F63C4007F0A7FD04F2AA
:101EC000B03104F6444007F0A1FD04F2B83104F645
:101ED0004C4007F09BFD04F2D83104F6544007F063
:101EE00095FD04F2E03104F65C4007F08FFD04F24A
:101EF000E83104F6644007F089FD04F2F03104F69D
:101F00006C4007F083FD14F5806104F6744007F01F
:101F10007DFD14F5816104F67C4007F077FD14F532
:101F2000856104F6844007F060FD14F5876104F6CE
:101F30008C4007F06BFD14F5896104F6944007F0BE
:101F400065FD14F58B6104F69C4007F05FFD14F508
:101F50008D6104F6A44007F059FD14F58E6104F676
:101F6000AC4007F053FD14F58F6104F6B44007F060
:101F70004DFD14F5906104F6BC4007F047FD14F5E3
:101F8000916104F6C44007F041FD14F5936104F635
:101F9000CC4007F03BFD14F5946104F6D44007F003
:101FA00035FD14F5986104F6DC4007F02FFD14F5BB
:101FB000996104F6E44007F029FD14F59A6104F6EE
:101FC000EC4007F023FD14F59B6104F6F44007F0A4
:101FD0001DFD14F59D6104F6FC4007F017FD14F596
:101FE0009E6104F6045007F011FD14F5A26104F699
:101FF0000C5007F0FAFC14F5A46104F6145007F035
:1020000005FD14F5A66104F61C5007F0FFFC14F55D
:10201000A86104F6245007F0F9FC14F5AA6104F64F
:102020002C5007F0F3FC14F5AB6104F6345007F0C4
:10203000EDFC14F5AC6104F63C5007F0E7FC14F538
:10204000AD6104F6445007F0E1FC14F5AE6104F60E
:102050004C5007F0DBFC14F5B06104F6545007F067
:10206000D5FC14F5B16104F65C5007F0CFFC14F513
:10207000B56104F6645007F0C9FC14F5B66104F6C6
:102080006C5007F0C3FC14F5B76104F6745007F008
:10209000BDFC14F5B86104F67C5007F0B7FC14F5EC
:1020A000BA6104F6845007F0B1FC14F5BB6104F684
:1020B0008C5007F0ABFC14F5BF6104F6945007F0A8
:1020C00094FC14F5C16104F69C5007F09FFC14F5D4
:1020D000C36104F6A45007F099FC14F5C56104F639
:1020E000AC5007F093FC14F5C76104F6B45007F048
:1020F0008DFC14F5C86104F6BC5007F087FC14F59C
:10210000C96104F6C45007F081FC14F5CA6104F6F5
:10211000CC5007F07BFC14F5CB6104F6D45007F0EB
:1021200075FC14F5CD6104F6DC5007F06FFC14F576
:10213000CE6104F6E45007F069FC14F5D26104F6B0
:10214000EC5007F063FC14F5D36104F6F45007F08B
:102150005DFC14F5D46104F6FC5007F057FC14F54F
:10216000D56104F6046007F051FC14F5D76104F65C
:102170000C6007F04BFC14F5D86104F6146007F00E
:1021800045FC14F5DC6104F61C6007F02EFC14F528
:10219000DE6104F6246007F039FC14F5E06104F612
:1021A0002C6007F033FC14F5E26104F6346007F0AC
:1021B0002DFC14F5E46104F63C6007F027FC14F5EF
:1021C000E56104F6446007F021FC14F5E66104F6CD
:1021D0004C6007F01BFC14F5E76104F6546007F04F
:1021E00015FC14F5E86104F65C6007F00FFC14F5CB
:1021F000EA6104F6646007F009FC14F5EB6104F68B
:102200006C6007F003FC14F5EF6104F6746007F0EE
:10221000FDFB14F5F06104F67C6007F0F7FB14F5A4
:10222000F16104F6846007F0F1FB14F5F26104F645
:102230008C6007F0EBFB14F5F46104F6946007F092
:10224000E5FB14F5F56104F69C6007F0DFFB14F57F
:102250001A6104F6AC6006F0F0FD14F51D6104F699
:10226000B86006F0EAFD04F2542104F6C46006F0FA
:10227000E4FD04F2B42114F56D6006F0DEFD10BD3E
:102280002DE9FE4304000D0016009946DDF8288074
:102290000B9F4FF49670029002A801F019FDC4E95B
:1022A0000001C4F80890D4E90001CDE900013268CA
:1022B000290014F1100007F0F3FB002214F11001C3
:1022C00014F1600008F0CCFBD4E90001CDE9000175
:1022D0007268290014F1800007F0E2FB002214F17B
:1022E000800114F1D00008F0BBFBD4E90001CDE976
:1022F0000001B268290014F1F00007F0D1FB0022C0
:1023000014F1F00104F2401008F0AAFBD4E9000136
:10231000CDE90001F268290004F2601007F0C0FB6B
:10232000002204F2601104F2B01008F099FBD4E925
:102330000001CDE900013269290004F2D01007F054
:10234000AFFB002204F2D01104F2202008F088FB39
:10235000210004F2402006F0F8F9C4F85082C4F8D5
:102360005472D4F8500206F09DFA002801D00120E2
:1023700000E0002084F85802002084F859027069B7
:10238000C4F85C0294F85812D4F8540206F03FFDE9
:1023900094F85802002820D0D4F85C02D4F85C12DB
:1023A0000968C9688847002114F16C0006F02FFD08
:1023B000002114F1DC0006F02AFD002104F24C108B
:1023C00006F025FD002104F2BC1006F020FD0021DE
:1023D00004F22C2006F01BFD1FE0D4F85C02D4F8B8
:1023E0005C12096809698847012114F16C0006F044
:1023F0000EFD012114F1DC0006F009FD012104F2BB
:102400004C1006F004FD012104F2BC1006F0FFFCA4
:10241000012104F22C2006F0FAFC2000BDE8FE8326
:102420002DE9F04186B0040014F1100007F063FCC0
:1024300014F1800007F05FFC14F1F00007F05BFC82
:1024400004F2601007F057FC04F2D01007F053FCC0
:1024500004F2402006F092F9C0B2002800F000819A
:1024600014F1600006F01EFA050014F1D00006F029
:1024700019FA060004F2401006F014FA070004F2FC
:10248000B01006F00FFA804604F2202006F00AFA97
:1024900016EA0501394018EA0101014201D0012084
:1024A00000E0002084F8590214F1780008F0F4FAF2
:1024B000050014F1100007F0DCFC06002DB2280026
:1024C00008F0FEFA310007F0FFF8049004A9A068B4
:1024D00007F0CEF814F1E80008F0DEFA050014F178
:1024E000800007F0C6FC06002DB2280008F0E8FACC
:1024F000310007F0E9F8039003A9A068083007F05D
:10250000B7F804F2581008F0C7FA050014F1F0000B
:1025100007F0AFFC06002DB2280008F0D1FA310018
:1025200007F0D2F8029002A9A068103007F0A0F8D6
:1025300004F2C81008F0B0FA050004F2601007F0C9
:1025400098FC06002DB2280008F0BAFA310007F016
:10255000BBF8019001A9A068183007F089F804F2CF
:10256000382008F099FA050004F2D01007F081FC39
:1025700006002DB2280008F0A3FA310007F0A4F8F5
:10258000009000A9A068203007F072F8D4F8540237
:1025900006F088F9002801D0012000E0002094F81E
:1025A0005812C0B2814201D0012000E00020C0B228
:1025B000002855D0D4F8540206F074F9002801D050
:1025C000012000E0002084F8580294F85812D4F852
:1025D000500206F01CFC94F85802002820D0D4F8D1
:1025E0005C02D4F85C120968C9688847002114F1BC
:1025F0006C0006F00CFC002114F1DC0006F007FC76
:10260000002104F24C1006F002FC002104F2BC1080
:1026100006F0FDFB002104F22C2006F0F8FB1FE081
:10262000D4F85C02D4F85C12096809698847012172
:1026300014F16C0006F0EBFB012114F1DC0006F054
:10264000E6FB012104F24C1006F0E1FB012104F24B
:10265000BC1006F0DCFB012104F22C2006F0D7FBB5
:1026600006B0BDE8F08110B5040021606260A3608F
:102670000120207314F10C01206800F059FFA168BB
:10268000606806F0DAFB200010BD704738B5040022
:10269000207B00280ED1606806F004F90500A068D0
:1026A00006F000F9854201D1012000E0002090F001
:1026B000010000E00120C0B2002830D0206800F006
:1026C00040FF90F00100C0B2002828D10020207304
:1026D000606806F0E7F80500A06806F0E3F88542B8
:1026E00001D0012000E00020C0B2002803D06168C2
:1026F000A06806F0A2FB606806F0D4F8002801D0BC
:10270000012000E00020C0B2002804D0032120688E
:1027100000F01AFF03E00121206800F015FF31BD31
:102720002DE9F0410400884617001D00069E404632
:10273000D8F80010C9688847C0B2002801D101202C
:1027400000E00020C0B2002805D04046D8F80010B4
:10275000896A8847EBE7404604F0CBFCC0B200280A
:1027600002D0380008F0C6F907F2403006F055F9FB
:10277000C0B2072801D0012000E00020C0B200282C
:1027800002D0380008F0D6FC06F0FBF90F4906F03D
:102790003DFA310008F020FD0D4906F037FA290016
:1027A00008F01AFD0B4906F02FFB2000BDE8F08170
:1027B0005A641142D12217410C021541DD240681D1
:1027C00095832240FAFE0342E9A60C42DC3D030059
:1027D00008440300790F0300704730B58BB0040044
:1027E0000D00280000F0ADFEC0B2002803D1280083
:1027F00000F0CAFEF5E74FF4FA70029002A801F06B
:1028000067FACDE9000100A904A805F05DFF05F015
:1028100073FF04A805F07BFFC0B2002803D1280095
:1028200000F0B2FEF5E720000BB030BD704738B5C0
:1028300004000D00200008F02CFD14F1080008F041
:1028400028FD14F1100008F024FD14F1180008F020
:1028500020FD14F1200008F01CFDA562A06A00F222
:1028600060102060A06A00F26C106060A06A00F244
:102870007810A060A06A00F28410E060A06A00F204
:1028800090102061A06A00F29C106061A06A00F2C2
:10289000A810A061A06A00F2B410E061A06A00F282
:1028A000C0102062A06A00F2CC106062200032BD2D
:1028B00010B5040021606260A36000202073002036
:1028C00020610121A06800F2142006F0A0FAA0689F
:1028D00000F2142005F0E6FF2061200010BD10B5C5
:1028E0000400207B002802D001282FD05EE0A068E1
:1028F00000F2142005F0D6FF2169814201D00120A9
:1029000000E00020C0B200281FD0A06800F2142010
:1029100005F0C8FF2061A06800F2142005F0C2FF96
:10292000002801D0012000E00020C0B200280AD019
:10293000206821680968C969884760686168096812
:10294000C969884701E0012020732FE020682168D1
:102950000968096A8847C0B2002804D12068216844
:10296000096889698847606861680968096A8847F1
:10297000C0B2002804D16068616809688969884725
:10298000206821680968096A8847C0B2002807D111
:10299000606861680968096A884790F0010000E092
:1029A0000020C0B2002801D00020207310BD0160BB
:1029B000704710B50400606840696168496909683A
:1029C0000969884760680069616809690968C968B8
:1029D000884710BD80B5DFF86C070078002808D163
:1029E0000021DFF86407FFF7E2FFDFF85807012155
:1029F0000170DFF858070078002808D10021DFF8BF
:102A00005007FFF7D4FFDFF8440701210170DFF81A
:102A100044070078002808D10021DFF83C07FFF7C1
:102A2000C6FFDFF8300701210170DFF830070078BA
:102A3000002808D10021DFF82807FFF7B8FFDFF8EA
:102A40001C070121017001BD2DE9F0438BB004008A
:102A50005FF0FF30009003230022DFF8081720000A
:102A600008F04EFC5FF0FF30009003230122DFF8F6
:102A7000F41614F1100008F043FC5FF0FF300090F2
:102A800003230222DFF8DC1614F1200008F038FCE2
:102A90005FF0FF30009003230322DFF8C81614F123
:102AA000300008F02DFC5FF0FF300090032304227B
:102AB000DFF8B01614F1400008F022FC5FF0FF30A0
:102AC000009003230522DFF8A01614F1500008F04F
:102AD00017FC14F15000029014F14000019014F121
:102AE0003000009014F1200314F11002210014F1C1
:102AF000600008F0ABFC14F1600114F1780008F0FC
:102B0000B1FC5FF0FF30009000230722DFF85C1675
:102B100014F1880008F0F4FB5FF0FF30009003230D
:102B20000022DFF84C1614F1980008F0E9FB1F2191
:102B300014F1780008F0B3FC14F19803020014F1CA
:102B4000880114F1A80008F0AFFC5FF0FF3000909E
:102B500000230122DFF81C1614F1B40008F0D0FBAA
:102B60005FF0FF30009003230322DFF80C1614F10E
:102B7000C40008F0C5FB5FF0FF300090032307227C
:102B8000DFF8F01514F1D40008F0BAFB14F1D40307
:102B900014F1C40214F1B40114F1E40008F084FC4F
:102BA0005FF0FF30009003230122DFF8C41514F119
:102BB000F00008F0A5FB052114F1780008F06FFC87
:102BC00005000C2114F1780008F069FC06000B21C7
:102BD00014F1780008F063FC07000E2114F178006E
:102BE00008F05DFC80460D2114F1780008F057FCD8
:102BF00014F1F00102910190CDF800803B00320009
:102C0000290004F2001008F053FC5FF0FF30009040
:102C100003230022DFF8601504F2181008F070FB9F
:102C20005FF0FF30009003230122DFF84C1504F21F
:102C3000281008F065FB5FF0FF30009003230222AC
:102C4000DFF8341504F2381008F05AFB04F2381398
:102C500004F2281204F2181104F2481008F034FCAF
:102C600004F2481104F2541008F032FC182114F157
:102C7000780008F014FC0500192114F1780008F020
:102C80000EFC06001A2114F1780008F008FC070079
:102C9000172114F1780008F002FC8046052104F2A7
:102CA000541008F032FC8146042114F1780008F039
:102CB000F6FB0290CDF80490CDF800803B00320086
:102CC000290004F2641008F025FC142114F17800A6
:102CD00008F0E5FB0500152114F1780008F0DFFB92
:102CE0000600162114F1780008F0D9FB0700132123
:102CF00014F1780008F0D3FB8046042104F254104C
:102D000008F003FC8146012114F1780008F0C7FBAC
:102D10000290CDF80490CDF800803B0032002900ED
:102D200004F27C1008F0F6FB1D2114F1780008F085
:102D3000B6FB05001C2114F1780008F0B0FB06007A
:102D40001B2114F1780008F0AAFB07001E2114F1E2
:102D5000780008F0A4FB8046032104F2541008F028
:102D6000D4FB8146002114F1780008F098FB029012
:102D7000CDF80490CDF800803B003200290004F229
:102D8000941008F0C7FB102114F1780008F087FBBD
:102D90000500112114F1780008F081FB06001221D2
:102DA00014F1780008F07BFB07000A2114F1780089
:102DB00008F075FB8046022104F2541008F0A5FBD0
:102DC0008146032114F1780008F069FB0290CDF8E8
:102DD0000490CDF800803B003200290004F2AC10D2
:102DE00008F098FB062114F1780008F058FB050064
:102DF000072114F1780008F052FB0600082114F1B5
:102E0000780008F04CFB0700092114F1780008F065
:102E100046FB8046012104F2541008F076FB8146FF
:102E2000022114F1780008F03AFB0290CDF80490EA
:102E3000CDF800803B003200290004F2C41008F0F5
:102E400069FB04F2C410019004F2AC10009004F28B
:102E5000941304F27C1204F2641104F2DC1008F002
:102E600065FB5FF0FF300090032303225FF04021F9
:102E700004F2F01008F044FA5FF0FF3000900323F2
:102E80000022BC4904F2002008F03AFA5FF0FF305B
:102E9000009003230422B54904F2102008F030FA10
:102EA0005FF0FF30009003230222B44904F2202097
:102EB00008F026FA5FF0FF30009003230522AB49AB
:102EC00004F2302008F01CFA5FF0FF30009003237A
:102ED00006225FF0402104F2402008F011FA5FF072
:102EE000FF300090032307229E4904F2502008F08F
:102EF00007FA5FF0FF300090032303229F4904F29A
:102F0000602008F0FDF95FF0FF30009003230622F7
:102F1000964904F2702008F0F3F95FF0FF3000905A
:102F2000032307225FF0402104F2802008F0E8F933
:102F30005FF0FF300090032307228D4904F29020B8
:102F400008F0DEF95FF0FF300090032305228A4984
:102F500004F2A02008F0D4F95FF0FF3000900023C5
:102F60000422854904F2B02008F0CAF904F2B02026
:102F7000099004F2A020089004F29020079004F237
:102F80008020069004F27020059004F260200490E6
:102F900004F25020039004F24020029004F230200A
:102FA000019004F22020009004F2102304F2002289
:102FB00004F2F01104F2C02008F0C2FA6420039079
:102FC00003A800F085FECDE90001002301224CF2A8
:102FD000FF0104F2F82008F00BFB6948C4F828034D
:102FE00068480290674801906648009001230022DB
:102FF000D4F8281304F22C3009F0B4FE594802909A
:10300000584801905748009000230022D4F8281314
:1030100004F27C3009F0A6FE5FF07C500090D4F8FA
:1030200028030A2101FB00F200232C2104F2CC30FA
:103030000AF0F4FC5FF07C500090D4F828030A21D9
:1030400001FB00F20023212104F2E4300AF0E6FC47
:103050003020029001200190A8200090C02300227F
:10306000002104A80AF062FF00A804A9062205F0C6
:1030700099FC04F2FC3000A9062205F093FC012023
:10308000019004F2FC3181B06846062205F08AFC0A
:1030900008BC4FF49672012104F204400AF096FF36
:1030A000002104F24C400BF057FA002104F2544086
:1030B0000BF060FA002114F58B600BF079FA0BF03D
:1030C00095FA019000A801A9042205F06BFC04F216
:1030D0005C4000A9042205F065FC002084F860042F
:1030E0000BF084FA019000A801A9042205F05AFC13
:1030F00004F2614000A9042205F054FC0BF076FABA
:10310000019000A801A9042205F04CFC04F26540DE
:1031100000A9042205F046FC5FF0FF300090002378
:103120000622144904F26C4008F0EAF80020C4F8C2
:103130007C0404F2902008F06EF920000BB0BDE88A
:10314000F0830000C880002010800020C98000208B
:1031500018800020CA80002014800020C280002037
:10316000DC7F002000700240005002400060004000
:103170000060024000D0034000500040007000405A
:1031800020A107000040024000F2DC10704700F26E
:10319000F820704700F22C30704700F27C30704706
:1031A00000F24C40704700F2C020704700F200105F
:1031B0007047A8307047E430704700F2E430704741
:1031C00000F2CC30704780B50F21783008F067F9F5
:1031D00002BD00F26C40704710B5040004F20440D8
:1031E0000BF012F904F24C400BF006FA04F25440D2
:1031F0000BF00AFA0BF007FB14F58B600CF072F879
:103200000168496A884710BD2DE9FE41A3B0050059
:103210002C9C05F25C4023A9042205F0C3FB85F831
:10322000604405F2614024A9042205F0BBFB05F2CD
:10323000654025A9042205F0B5FB002115F58B603A
:103240000CF072F80BF0D2F900900EA800A904223D
:1032500005F0A8FBE4B2002C01D123980E900BF0EE
:10326000C5F900900FA800A9042205F09BFBDDF82A
:103270009080259F032612A80CF06BF80E981290F0
:10328000CDF84C8014978DF8544000A80CF090F8BD
:1032900010A800A9062205F085FB0DF1420224A921
:1032A00023A80CF093F810A905F204400BF066F87F
:1032B00078200CF09BF8040012AA05F204412000CB
:1032C0000BF018FA010005F254400CF0A1F816A812
:1032D0000CF0B4F8E8200CF089F8040016A902A854
:1032E000302205F06FFB0196002000900FAB41F2F9
:1032F0008E320EA920000BF04BFE010015F58B60FD
:103300000CF012F815F58B600BF0ECFF0121026850
:10331000D269904715F58B600CF0B4F8010005F206
:103320004C400CF0B7F826B0BDE8F08180B5DFF86E
:10333000B0040078002808D10021DFF8A804FFF7C6
:1033400036FBDFF89C0401210170DFF89C04007853
:10335000002808D10021DFF89404FFF728FBDFF8EC
:10336000880401210170DFF888040078002808D162
:103370000021DFF88004FFF71AFBDFF87404012155
:103380000170DFF874040078002808D10021DFF80C
:103390006C04FFF70CFBDFF860040121017001BD34
:1033A00010B586B0040021606260A3600020207325
:1033B0000020607414F114000CF06EF8002084F802
:1033C0002400002084F8250040F6B830019001A8C0
:1033D00000F07EFCCDE9040104A914F1280005F0F9
:1033E00073F9200000F041FA606861680968896833
:1033F000884714F1280005F07FF9206800682168EB
:103400000968096889688847C0B2002812D114F198
:10341000280005F07CF9C0B20028EED005F0B1FB21
:10342000DFF8DC1305F0F2FBDFF8D81305F0ECFC55
:103430000620207320684068216849680968C968C7
:10344000884720688068216889680968C968884752
:103450000A20009000A800F03BFCCDE9020102A97F
:1034600014F1280005F040F914F1280005F044F9A2
:10347000200006B010BD10B5040014F114000CF0CB
:103480001BF8200010BD30B585B00400002508E011
:10349000290014F114000CF016F8006801210170E5
:1034A0006D1C14F114000CF012F8854201D20120B9
:1034B00000E00020C0B20028EAD1207B012802D021
:1034C000207B042804D1A068A1680968C9698847DD
:1034D000002084F82400002084F82500200000F05B
:1034E000C4F960686168096889688847206840682D
:1034F000216849680968C968884720688068216828
:1035000089680968C96888470A20029002A800F003
:10351000DFFBCDE9000100A914F1280005F0E4F873
:1035200014F1280005F0E8F80020207305B030BD44
:1035300002B50099002903D000A914300BF0CCFF8C
:1035400001BD90F82400704781B0ADF800109DF8DF
:10355000011041739DF800108173012180F825103E
:10356000002180F8241001B0704781B0C17B9DF824
:1035700001208DF80110007C9DF800108DF80000EE
:10358000BDF8000001B0704730B58BB00400A068F2
:10359000A1680968896B8847207B00280CD0022825
:1035A00059D02BD3042800F08D805ED3062800F07C
:1035B0000881C0F0D0800FE114F1280005F0A7F8D1
:1035C000C0B2002819D0206880682168896809681D
:1035D000096988474FF4FA70089008A800F078FB52
:1035E000CDE9060106A914F1280005F07DF814F1D3
:1035F000280005F081F802202073EDE0A068A168A2
:10360000096849698847C0B2002801D1012000E05B
:103610000020C0B200281DD0206840682168496899
:103620000968C9688847A068A1680968C9698847A6
:103630000120019001A800F04BFBCDE9040104A991
:1036400014F1280005F050F814F1280005F054F8A2
:1036500002202073C0E014F1280005F058F8C0B231
:10366000002801D003202073B6E0A068A168096893
:10367000096A8847C0B200280DD1A068A16809680E
:1036800049698847C0B2002801D0012000E000202D
:1036900090F0010000E00020C0B2002811D020000E
:1036A00000F0B4F8200000F0D2F8022314F10D026B
:1036B00014F10F01A068A5682D68ED6BA8470420E0
:1036C000207389E0A068A168096849698847C0B289
:1036D000002801D1012000E00020C0B2002839D02C
:1036E00020684068216849680968C9688847A068F7
:1036F000A1680968C9698847200000F0ADF8002872
:103700000AD0606861680968C9688847012084F840
:103710002400052020731DE0607C142816D2607CF4
:10372000401C60744FF4FA70009000A800F0D0FACA
:10373000CDE9020102A914F1280004F0D5FF14F12B
:10374000280004F0D9FF0220207303E000206074F9
:103750000620207340E094F82500002830D0A068AF
:10376000A1680968096A8847C0B200280DD1A0681D
:10377000A168096849698847C0B2002801D00120C2
:1037800000E0002090F0010000E00020C0B200281E
:1037900016D0002084F8250060686168096889688F
:1037A0008847200000F032F8022214F10D01A068D1
:1037B000A3681B681B699847002060740120207370
:1037C0000AE005F0DEF9104905F020FA0D4905F090
:1037D0001BFB2000FFF757FE0BB030BD00000000C0
:1037E000C880002010800020C980002018800020A0
:1037F000CA80002014800020C2800020DC7F0020CE
:10380000981B0300790F0300BC26030010B50400C9
:103810000121A068A2681268126B90470021A0687D
:10382000A2681268926A90470021A068A268126894
:10383000D26A9047A068A1680968896988472068AA
:1038400040682168496809680969884710BD0021F6
:103850004173022181737047007C10F00200C0B2F6
:10386000400890F00100C0B2704710B50400022279
:10387000002114F10D000BF052FE0222002114F180
:103880000F000BF04CFE10BDF8B5040015001E0033
:10389000069F21600220207114F108000BF049FE00
:1038A00014F118000BF055FE14F128000BF051FE36
:1038B000A563E6632764002084F84400002084F8B0
:1038C0004500002084F84600002084F8470014F1E9
:1038D00008000BF04EFE14F118000BF059FE14F125
:1038E00028000BF055FE14F147012068FFF720FE79
:1038F0002000F2BD10B5040014F128000BF057FEB3
:1039000014F118000BF053FE14F108000BF056FEF2
:10391000200010BD10B584B00C0001948DF8082073
:1039200001A908300BF051FE00208DF8000000A91D
:10393000200005F0AAFE1FBD30B583B004000D00C5
:1039400000958DF80420DBB2002B05D014F118008F
:103950000BF05EFE84F8440000A914F118000BF08F
:103960005CFE0021280005F052FA37BD1CB50C00A2
:1039700000948DF8042000A928300BF04EFE0021A1
:10398000200005F044FA13BD002180F846100179AB
:10399000002902D0012180F845107047002180F8ED
:1039A00045100179022902D0012180F846107047A4
:1039B000F8B50400E06B04F075FF012801D1012087
:1039C00000E00020C0B2002803D02068FFF75BFDB4
:1039D0000AE094F84700002806D0206C002803D0A5
:1039E0000121206C05F013FA94F8470000280DD04F
:1039F0002079002802D02079012801D100202071EF
:103A0000200000F009F9002084F847002079002800
:103A100004D0022800F0838031D3A8E02068FFF7AB
:103A200090FD00282AD094F84600002816D00020E7
:103A300084F846000021A06B05F0E9F994F84410E1
:103A400014F118000BF00CFE0021006805F0DFF9FE
:103A5000200000F08DF8022020710FE0A06B04F030
:103A600021FF012801D1012000E00020C0B2002880
:103A700004D0200000F07CF80120207177E020685D
:103A8000FFF75FFD002849D02068FFF76EFD0500B5
:103A900094F8441014F118000BF0E2FD060094F8BD
:103AA000441014F118000BF0DBFDADB2012190F9C8
:103AB000040011FA00F010EA0501306805F0A7F9DA
:103AC000002618E0F6B2310014F128000BF0C8FD12
:103AD0000700F6B2310014F128000BF0C1FDADB2C1
:103AE000012190F9040011FA00F010EA050138688C
:103AF00005F08DF9761C14F128000BF089FDF6B263
:103B0000864201D2012000E00020C0B20028D9D1B5
:103B10000021A06B05F07BF90020207127E02068D0
:103B2000FFF70FFD002822D094F84500002805D0AB
:103B3000002084F845000020207118E0A06B04F0FC
:103B4000B1FE012801D1012000E00020C0B2002810
:103B50000DD00021A06B05F05AF994F8441014F12F
:103B600018000BF07DFD0021006805F050F9F1BD53
:103B7000F8B504000025002616E0F6B2310014F175
:103B800008000BF071FD006804F047FF0700FFB26A
:103B9000F6B2310014F108000BF066FD90F9040054
:103BA00017FA00F00543761C14F108000BF060FDD5
:103BB000F6B2864201D2012000E00020C0B2002807
:103BC000DBD1002615E0F6B2310014F118000BF03D
:103BD00047FD006804F066FE0700F6B2310014F1FC
:103BE00018000BF03DFD90F9040017FA00F00543B2
:103BF000761C14F118000BF00BFDF6B2864201D2D0
:103C0000012000E00020C0B20028DCD1290089B2E8
:103C10002068FFF799FCF1BD38B504000021E06B86
:103C200005F0F5F80021A06B05F0F1F800250DE096
:103C3000EDB2290014F108000BF016FD00218DF8FB
:103C4000001000A9006805F020FD6D1C14F10800AB
:103C50000BF00EFDEDB2854201D2012000E0002004
:103C6000C0B20028E4D100250AE0EDB2290014F129
:103C700018000BF0F5FC0021006805F0C8F86D1C79
:103C800014F118000BF0C4FCEDB2854201D2012002
:103C900000E00020C0B20028E7D100250AE0EDB224
:103CA000290014F128000BF0DBFC0021006805F06E
:103CB000AEF86D1C14F128000BF0AAFCEDB28542A1
:103CC00001D2012000E00020C0B20028E7D131BDC0
:103CD000F8B5040004F092FD2268D3170B48D0E930
:103CE0000045A4FB020104FB031105FB0211084A75
:103CF000D2E900454FF47A760027A6FB042306FBA1
:103D0000053307FB04330BF0B9FCF4BD587F0020EA
:103D1000A000002080B5DFF888070078002808D1CF
:103D20000021DFF88007FEF742FEDFF8740701216B
:103D30000170DFF874070078002808D10021DFF84F
:103D40006C07FEF734FEDFF8600701210170DFF831
:103D500060070078002808D10021DFF85807FEF737
:103D600026FEDFF84C0701210170DFF84C070078D0
:103D7000002808D10021DFF84407FEF718FEDFF81D
:103D800038070121017001BD914002789A43027009
:103D90000278114301707047D2F10802D1400278D5
:103DA0001A40027002781143017070472DE9F14FFB
:103DB00088B00D000820B2FBF0F101FB102100914A
:103DC0000820B3FBF0F606FB1036D0080190DF08A0
:103DD0005FF0000900240098B04270D1002E0BD093
:103DE0000098002808D012983018082802D3D6F17D
:103DF000080901E0DDF848901298B0EB09000821AD
:103E0000B0FBF1F404FB11041298B0EB0900001BA5
:103E10005FEAD0085FF0000AB9F1000F1DD0002062
:103E200012997118082904D3494600200BF0BFFCF1
:103E300006E049461298D0F10800801B0BF0B7FC51
:103E40000199089A895C01407A5D32EA0000785550
:103E5000785D084378555FF0010A002C23D02100DB
:103E6000D4F108000BF0A3FC019918EB010111EB50
:103E7000D901089A895C014018EB07021AEB02028B
:103E800018EB07031AEB03035B5D33EA00005055A0
:103E900018EB07001AEB000018EB07021AEB0202FE
:103EA000525D1143415542460198089940181AEB5A
:103EB000000178191AEB00000BF082FCF9E10020F8
:103EC00002900020059000208DF80C005FF00008A3
:103ED0000098B04235D20098B6EB0008D8F108013E
:103EE00000200BF064FC8DF80C00CDF8148000204D
:103EF0000290002E0DD0009800280AD00098129948
:103F00000818092803D30098D0F1080901E0DDF86A
:103F10004890129818EB0000B0EB0900002801D17E
:103F200004002EE00821B0FBF1F202FB1102002A8E
:103F300001D1082425E00821B0FBF1F404FB1104B1
:103F40001FE0009886421CD20098B0EB060841465C
:103F500000200BF02CFC8DF80C00D8F10800059027
:103F600001200290002E04D00098002801D0D6F144
:103F700008091298B0EB09000821B0FBF1F404FB2A
:103F80001104002006901298082804D31298B0EB70
:103F90000900C008069000200490B9F1000F75D008
:103FA000012004900098864234D24146D8F108009E
:103FB0000BF0FDFB8DF80D000098D0F108010020FA
:103FC0000BF0F5FB0199089A11F802A05FF00009C7
:103FD00010EA0A0A3AFA08FA01980899401890F883
:103FE00001B04146D8F108000BF0E1FB10EA0B0BE1
:103FF000D8F108001BFA00FB5AEA09095BEA090933
:10400000785D9DF80D1008407855785D59EA0000FC
:1040100078553BE00098B04238D20198089910F8E2
:1040200001A00198089910F80190D6F108014046C6
:104030000BF0BDFB10EA0A0A1AFA08FA4146002002
:104040000BF0B5FB10EA0909D8F1080039FA00F9BC
:10405000D6F1080100200BF0AAFB795D31EA0000DF
:104060007855785D5AEA000078554146D8F1080045
:104070000BF09DFB7919497831EA000079194870F5
:104080007819407859EA00007919487000200790A3
:10409000002C00F0D980069801990818049911EBBA
:1040A000000906983818049911EB000A5FF0000B1C
:1040B0005FEA4800D0F10800029901FB00808442C9
:1040C0006AD20098B04223D22100D4F108000BF04C
:1040D0006EFB8346210001200BF069FB089919F85B
:1040E00001100140D4F10800401EC1401AEB050048
:1040F000407830EA0B001AEB050250701AEB05000D
:10410000407808431AEB05014870012007909BE0B6
:104110000098864280F09880009812990818082824
:1041200029D2089819F8004012980822B0FBF2F141
:1041300001FB120112980822B0FBF2F303FB1203F9
:10414000D3F10800009A801A0BF031FB0600129898
:10415000D0F1080100200BF02AFB344034FA08F4B7
:104160001AF8051008400AF805001AF8050020435F
:104170000AF8050068E04146D8F108000BF017FB8B
:1041800083465B46DBB2059A089819F800101AEBD3
:104190000500FFF7F9FD57E0009886420DD29DF823
:1041A0000C30059A029810EB09000899401810F895
:1041B000011C1AEB0500FFF7EFFD5FEA4800D0F1A4
:1041C0000800029901FB0080A0423DD20098B04255
:1041D00010D2B4EB0801D4F108000BF0E8FA8346E2
:1041E0005B46DBB2059A089819F800101AEB050037
:1041F000FFF7CAFD0098864226D2B4F1080018EBFA
:104200000001D4F108000830B0EB08000BF0CFFA41
:104210000600B4F1080018EB0001D4F108000BF01F
:10422000C6FA089919EB010149783140D8F1080222
:1042300091401AF8052032EA00000AF805001AF841
:10424000050008430AF80500002411E00198001950
:10425000049908183919049A56189DF80C30059AD3
:10426000029908180899415C7019FFF78DFD641CCC
:104270000698079908188442E8D3002416E00198AC
:1042800000190499029A02FB01003919049A029B51
:1042900003FB02169DF80C30059A0899415C701CCE
:1042A000029E801B4019FFF777FD641C069884422C
:1042B000E5D309B0BDE8F08F70B504000D0016001D
:1042C0000BF0ACFAC0B2002801D1012000E00020C0
:1042D000C0B200280ED0EDB2280006E001194978DE
:1042E0000219035D53700155801CEDB2F6B27119CD
:1042F0008842F3D370BD70B4039C049D0E189042A5
:1043000009D3984207D2B24205D2B34203D3216007
:10431000801A28601DE0824208D2984206D2B34239
:1043200004D2191A2160801A286012E0904208D243
:10433000B24206D29E4204D2B01A20600020286009
:1043400007E0824205D39E4203D3981A20600020E2
:10435000286070BC70472DE9F84F06000F009046AA
:104360009946DDF828A0DDF82CB0DDE90C453000D9
:104370000BF06AFADFF84C0130604FF48271301DA7
:104380000BF066FA002070615FEAC800B0615FEA76
:10439000C900F061C6F820A0C6F824B019EB0800E7
:1043A00010EB4A0010EB4B00B062C6F82C8019EB02
:1043B0000800306319EB080010EB4A00706319EB3A
:1043C000080010EB4A0010EB4B00B063002086F8A9
:1043D0003C00414616F140000BF03AFA494616F10E
:1043E00050000BF035FA594616F160000BF046FA12
:1043F000514616F170000BF041FA0020C6F880001B
:104400000020C6F884000020C6F888000020C6F806
:104410008C000020C6F890000020C6F89400002010
:10442000C6F898000020C6F89C000020C6F8A0003E
:10443000C6F8A470D6F8A41016F1A8000BF070FA14
:10444000002086F8100122002B0016F1A8000BF0C6
:104450009FFA22002B0016F1A8000BF09FFA300003
:10446000BDE8F28F10B50400DFF85800206014F1A9
:1044700070000BF09FFB14F160000BF09BFB14F13C
:1044800050000BF0A2FB14F140000BF09EFB201D2E
:104490000BF09BFB20000BF0A3FB200010BD0000E5
:1044A000C880002010800020C980002018800020D3
:1044B000CA80002014800020C2800020DC7F002001
:1044C0007047000010FC0200F0B583B004000D003E
:1044D00016001F00A06BB919884200D2F7BD00205A
:1044E000C4F880000020C4F884000020C4F88800CC
:1044F0000020C4F88C000020C4F890000020C4F80C
:1045000094000020C4F898000020C4F89C0014F126
:104510008400019014F180000090E36A00223900C9
:104520003000FFF7E8FE14F18C00019014F18800D0
:104530000090236BE26A39003000FFF7DCFE14F1D3
:104540009400019014F190000090636B226B39008D
:104550003000FFF7D0FE14F19C00019014F1980098
:104560000090A36B626B39003000FFF7C4FED4F8F3
:10457000800000281CD014F140000BF035FBD4F86B
:104580008410D4F880205118884201D2012000E024
:104590000020C0B20028A1D114F140000BF026FB8E
:1045A000D4F88020D4F88410091828000BF008F9FA
:1045B000D4F88800002803D1D4F88C0000281FD03C
:1045C00014F150000BF010FBD4F88C10D4F88820B4
:1045D0005118884201D2012000E00020C0B200281A
:1045E0007FF47CAF14F150000BF000FBD4F888206E
:1045F000D4F88C100918D4F8800040190BF0E0F8BA
:10460000D4F89000002803D1D4F89400002824D0D6
:10461000D4F88000D4F888100E1814F170000BF054
:10462000F0FA070014F170000BF0F6FAD4F89410C9
:10463000D4F890205118B0EB510F01D2012000E0C6
:104640000020C0B200287FF449AFD4F89020D4F8FD
:104650009400C11970190BF0B3F8D4F89800002831
:1046600003D1D4F89C00002827D0D4F88000D4F8D7
:1046700088100818D4F890100E1814F160000BF090
:10468000C0FA070014F160000BF0C6FAD4F89C10D1
:10469000D4F898205118B0EB510F01D2012000E05E
:1046A0000020C0B200287FF419AFD4F89820D4F8C5
:1046B0009C00C11970190BF083F80FE7F0B583B0B7
:1046C00004000D0016001F00A06BB919884200D22B
:1046D000F7BD0020C4F880000020C4F8840000204A
:1046E000C4F888000020C4F88C000020C4F89000B2
:1046F0000020C4F894000020C4F898000020C4F8FA
:104700009C0014F18400019014F180000090E36A91
:10471000D4F8842039003000FFF7EDFD14F18C004F
:10472000019014F188000090236BE26A3900300098
:10473000FFF7E1FD14F19400019014F19000009056
:10474000636B226B39003000FFF7D5FD14F19C003C
:10475000019014F198000090A36B626B3900300057
:10476000FFF7C9FDD4F8800000281CD014F14000E8
:104770000BF03AFAD4F88410D4F88020511888420B
:1047800001D2012000E00020C0B20028A0D114F125
:1047900040000BF02BFAD4F880202900D4F88430A4
:1047A00018180BF00DF8D4F88800002803D1D4F8BD
:1047B0008C0000281FD014F150000BF015FAD4F82B
:1047C0008C10D4F888205118884201D2012000E0D2
:1047D0000020C0B200287FF47BAF14F150000BF032
:1047E00005FAD4F88820D4F880104919D4F88C3010
:1047F00018180AF0E5FFD4F89000002803D1D4F887
:104800009400002824D0D4F88000D4F888100F1821
:1048100014F170000BF0F5F9060014F170000BF0C4
:10482000FBF9D4F89410D4F890205118B0EB510F44
:1048300001D2012000E00020C0B200287FF448AF80
:10484000D4F890207919D4F8940080190AF0B8FFB0
:10485000D4F89800002803D1D4F89C00002827D071
:10486000D4F88000D4F888100818D4F890100F18E5
:1048700014F160000BF0C5F9060014F160000BF0B4
:10488000CBF9D4F89C10D4F898205118B0EB510F04
:1048900001D2012000E00020C0B200287FF418AF50
:1048A000D4F898207919D4F89C0080190AF088FF70
:1048B0000EE77CB505000C001600082E01D3002081
:1048C00076BDA86AA04201D20020F9E70020C5F811
:1048D00080000020C5F884000020C5F88800002072
:1048E000C5F88C000020C5F890000020C5F89400A1
:1048F0000020C5F898000020C5F89C0015F1840040
:10490000019015F180000090EB6AD5F88420012118
:104910002000FFF7F0FC15F18C00019015F18800E4
:1049200000902B6BEA6A01212000FFF7E4FC15F1EF
:104930009400019015F1900000906B6B2A6B01219F
:104940002000FFF7D8FC15F19C00019015F19800AC
:104950000090AB6B6A6B01212000FFF7CCFC0121BA
:10496000D6F10800401E0AF022FF0400082E80F055
:10497000BC80D5F88000002803D1D5F88400002839
:104980001ED015F140000BF02FF9D5F88410D5F8A2
:1049900080205118884201D2012000E00020C0B2DE
:1049A000002801D000208BE7D5F8841015F14000D5
:1049B0000BF034F900782040C0B20BF053F97FE7D8
:1049C000D5F88800002803D1D5F88C0000281ED027
:1049D00015F150000BF008F9D5F88C10D5F88820A7
:1049E0005118884201D2012000E00020C0B2002806
:1049F00001D0002064E7D5F88C1015F150000BF0C1
:104A00000DF900782040C0B20BF02CF958E7D5F82A
:104A10009000002803D1D5F8940000282ED015F17D
:104A200070000BF0F9F8D5F89410D5F890205118D3
:104A3000B0EB510F01D2012000E00020C0B20028ED
:104A400001D000203CE7002095F89410C90708D455
:104A5000D5F89400410815F170000BF00BF90078BF
:104A600007E0D5F89400410815F170000BF002F949
:104A700040782040C0B20BF0F5F821E7D5F8980057
:104A8000002803D1D5F89C0000282ED015F1600035
:104A90000BF0C2F8D5F89C10D5F898205118B0EB5F
:104AA000510F01D2012000E00020C0B2002801D047
:104AB000002005E7002095F89C10C90708D4D5F818
:104AC0009C00410815F160000BF0D4F8007807E075
:104AD000D5F89C00410815F160000BF0CBF8407848
:104AE0002040C0B20BF0BEF8EAE60020E8E67CB554
:104AF00004000D001600082E00D373BDA06AA84262
:104B0000FBD30020C4F880000020C4F884000020FB
:104B1000C4F888000020C4F88C000020C4F890007D
:104B20000020C4F894000020C4F898000020C4F8C5
:104B30009C0014F18400019014F180000090E36A5D
:104B4000002201212800FFF7D6FB14F18C00019010
:104B500014F188000090236BE26A01212800FFF71E
:104B6000CAFB14F19400019014F190000090636B63
:104B7000226B01212800FFF7BEFB14F19C0001907D
:104B800014F198000090A36B626B01212800FFF7DD
:104B9000B2FB0121D6F10800401E0AF008FE050014
:104BA000082E80F0E780D4F88000002803D1D4F8E4
:104BB0008400002822D014F140000BF015F8D4F83E
:104BC0008410D4F880205118884201D2012000E0DE
:104BD0000020C0B2002890D1D4F8841014F1400015
:104BE0000BF01CF80178A9430170D4F8841014F17B
:104BF00040000BF013F8017829430170D4F88800C5
:104C0000002803D1D4F88C00002823D014F15000E0
:104C10000AF0EAFFD4F88C10D4F8882051188842A2
:104C200001D2012000E00020C0B200287FF465AF6F
:104C3000D4F88C1014F150000AF0F0FF0178A94369
:104C40000170D4F88C1014F150000AF0E7FF0178DD
:104C500029430170D4F89000002803D1D4F89400BF
:104C600000283FD014F170000AF0D6FFD4F8941059
:104C7000D4F890205118B0EB510F01D2012000E080
:104C80000020C0B200287FF438AF002694F89400CA
:104C9000C00708D4D4F89400410814F170000AF059
:104CA000E9FF067807E0D4F89400410814F1700099
:104CB0000AF0E0FF4678AE432E4394F89400C00714
:104CC00008D4D4F89400410814F170000AF0D2FF1F
:104CD000067007E0D4F89400410814F170000AF05F
:104CE000C9FF4670D4F89800002803D1D4F89C007E
:104CF00000283FD014F160000AF08EFFD4F89C1019
:104D0000D4F898205118B0EB510F01D2012000E0E7
:104D10000020C0B200287FF4F0AE002694F89C007A
:104D2000C00708D4D4F89C00410814F160000AF0D0
:104D3000A1FF067807E0D4F89C00410814F1600058
:104D40000AF098FF4678AE432E4394F89C00C007C3
:104D500008D4D4F89C00410814F160000AF08AFFDE
:104D6000067007E0D4F89C00410814F160000AF0D6
:104D700081FF4670C1E67CB504000D001600082EC8
:104D800000D373BDA06AA842FBD30020C4F8800002
:104D90000020C4F884000020C4F888000020C4F873
:104DA0008C000020C4F890000020C4F8940000207B
:104DB000C4F898000020C4F89C0014F1840001900D
:104DC00014F180000090E36A002201212800FFF71F
:104DD00092FA14F18C00019014F188000090236B7A
:104DE000E26A01212800FFF786FA14F1940001908D
:104DF00014F190000090636B226B01212800FFF7F3
:104E00007AFA14F19C00019014F198000090A36BC1
:104E1000626B01212800FFF76EFA0121D6F108002C
:104E2000401E0AF0C4FC0500082E80F0D380D4F8A0
:104E30008000002803D1D4F88400002819D014F190
:104E400040000AF0D1FED4F88410D4F88020511824
:104E5000884201D2012000E00020C0B2002890D199
:104E6000D4F8841014F140000AF0D8FE0178A94368
:104E70000170D4F88800002803D1D4F88C000028F1
:104E80001AD014F150000AF0AFFED4F88C10D4F808
:104E900088205118884201D2012000E00020C0B2D1
:104EA00000287FF46EAFD4F88C1014F150000AF093
:104EB000B5FE0178A9430170D4F89000002803D111
:104EC000D4F8940000283ED014F170000AF0A4FE3B
:104ED000D4F89410D4F890205118B0EB510F01D2AF
:104EE000012000E00020C0B200287FF44AAF002675
:104EF00094F89400C00708D4D4F89400410814F141
:104F000070000AF0B7FE067807E0D4F89400410874
:104F100014F170000AF0AEFE4678AE4394F89400A7
:104F2000C00708D4D4F89400410814F170000AF0C6
:104F3000A1FE067007E0D4F89400410814F1700057
:104F40000AF098FE4670D4F89800002803D1D4F8EF
:104F50009C0000283ED014F160000AF05DFED4F8F9
:104F60009C10D4F898205118B0EB510F01D20120B9
:104F700000E00020C0B200287FF403AF002694F8C0
:104F80009C00C00708D4D4F89C00410814F16000CC
:104F90000AF070FE067807E0D4F89C00410814F18E
:104FA00060000AF067FE4678AE4394F89C00C007A4
:104FB00008D4D4F89C00410814F160000AF05AFEAD
:104FC000067007E0D4F89C00410814F160000AF074
:104FD00051FE4670D5E6F8B504000D00201D0AF01C
:104FE00005FE03218180201D0AF000FE00F2070665
:104FF000201D0AF0FBFD00F2090730788038387078
:105000007D70201D0AF0F2FD010010200090382371
:105010003A783800FEF7CAFEF1BD2DE9F04782B0BC
:105020000400D4F8A400D4F8A4100968496A884799
:1050300014F1A8000AF012FD94F83C00002808D0F2
:10504000022800F01B8334D3042800F0988376D321
:10505000C8E3D4F8A400D4F8A41009688969884783
:10506000C4F8A000D4F8A000002821D0D4F8A4509F
:10507000201D0AF0BBFD02000723D4F8A010280071
:105080002D682D69A8470500002D11D0201D0AF0BC
:10509000ADFDD5F107032A18D4F8A01014F1A8002B
:1050A0000AF082FC012084F83C002000FFF708FA97
:1050B00098E314F1A8000AF0A1FCC0B2012801D1C4
:1050C000012000E00020C0B2002824D0201D0AF0FA
:1050D0008DFD06220021FFF7EFF8201D0AF086FD66
:1050E0000500A88800280FD0201D0AF07FFDA988A0
:1050F0004B1EC21DD4F8A01014F1A8000AF054FCF5
:10510000032084F83C0002E0002084F83C002000EA
:10511000FFF7D6F912E014F1A8000AF06FFCC0B254
:10512000022801D1012000E00020C0B2002805D0F3
:10513000002084F83C002000FFF7C2F952E314F18C
:10514000A8000AF05BFCC0B2012801D1012000E0F8
:105150000020C0B2002800F07D82201D0AF046FD2C
:1051600000F207000078012818D002280ED003288A
:105170001CD0042822D0052828D006282ED00728A5
:1051800034D00F2833D0102839D04CE0201D0AF03D
:105190002DFD04220821FFF78FF844E0201D0AF0BE
:1051A00025FD04220821FFF787F83CE0201D0AF0C6
:1051B0001DFD04220821FFF77FF834E0201D0AF0CE
:1051C00015FD04220821FFF777F82CE0201D0AF0D6
:1051D0000DFD04220821FFF76FF824E0201D0AF0DE
:1051E00005FD04220821FFF767F81CE01BE0201DE5
:1051F0000AF0FCFC04220821FFF75EF813E0201DF2
:105200000AF0F4FC04220821FFF756F8201D0AF0EA
:10521000EDFC00F20705201D0AF0E8FC6A790D217B
:10522000FFF74AF8FFE7201D0AF0E0FC0500201D0B
:105230000AF0DCFC00F20700B0F80360B0F801707F
:105240000078012861D0022815D0032800F0A6803C
:10525000042800F0DC80052800F01281062800F008
:105260009081072800F0E5810F2800F05681102872
:1052700000F0A881E0E1B6B2002E41D0201D0AF076
:10528000B5FC00F20708B6B2082096FBF0F101FB6E
:105290001061002906D1B6B2082096FBF0F088F81C
:1052A000010006E0B6B2082096FBF0F0401C88F83A
:1052B000010098F80100C01CA88014F140000AF019
:1052C00093FCC000BFB2B6B2F119884201D20120EE
:1052D00000E00020C0B2002804D0002084F83C0088
:1052E000BDE8F38714F140000AF080FCB6B20096E6
:1052F0000023BFB23A0018F10201FEF757FD03E0A8
:1053000002212000FFF767FE9AE1B6B2002E40D0DE
:10531000201D0AF06BFC00F20708B6B2082096FBCD
:10532000F0F101FB1061002906D1B6B2082096FB0E
:10533000F0F088F8010006E0B6B2082096FBF0F025
:10534000401C88F8010098F80100C01CA88014F1E6
:1053500050000AF049FCC000BFB2B6B2F119884251
:1053600001D2012000E00020C0B2002803D00020BC
:1053700084F83C00B4E714F150000AF037FCB6B2F0
:1053800000960023BFB23A0018F10201FEF70EFDAD
:1053900003E002212000FFF71EFE51E1B6B2002E0D
:1053A00030D0201D0AF022FC00F207083000C0B205
:1053B000400088F8010014F170000AF022FC8146D8
:1053C00018F1020A14F170000AF026FCBFB2B6B25E
:1053D000F119884201D2012000E00020C0B200286B
:1053E00003D0002084F83C007AE798F80120BFB28F
:1053F00019EB470150460AF0E3F9B6B27000C01C41
:10540000A88003E002212000FFF7E5FD18E1B6B215
:10541000002E30D0201D0AF0E9FB00F20708300012
:10542000C0B2400088F8010014F160000AF0E9FB06
:10543000814618F1020A14F160000AF0EDFBBFB2D8
:10544000B6B2F119884201D2012000E00020C0B2BA
:10545000002803D0002084F83C0041E798F80120A0
:10546000BFB219EB470150460AF0AAF9B6B2700074
:10547000C01CA88003E002212000FFF7ACFDDFE0A4
:10548000201D0AF0B3FB00F20706B6F80100082160
:1054900090FBF1F714F150000AF0A6FBFFB287422F
:1054A00001D3012000E00020C0B2002803D000207A
:1054B00084F83C0014E70121B6F80100082290FBB3
:1054C000F2F303FB1203D3F10800401E0AF06FF958
:1054D0008046B6F80300012814D1FFB2390014F158
:1054E00050000AF09BFB017831EA08010170FFB21D
:1054F000390014F150000AF091FB017858EA0101DB
:10550000017009E0FFB2390014F150000AF086FB87
:10551000017831EA0801017092E0B6B2002E2BD07A
:10552000201D0AF063FB00F2070614F150000AF098
:105530005BFBC000B6F80110B6F803205118884292
:1055400001D2012000E00020C0B2002803D00020DA
:1055500084F83C00C4E614F150000AF047FB010057
:10556000B6F803000090B6F801300022B01DFEF737
:105570001DFC0620A88003E002212000FFF72BFD80
:105580005EE0201D0AF032FB00F2070614F1700005
:105590000AF042FBB6F80110814201D3012000E07D
:1055A0000020C0B2002803D0002084F83C0097E619
:1055B000B6F8011014F170000AF05CFBB6F80310A5
:1055C00001803DE0B6B2002E2ED0201D0AF00EFB69
:1055D00000F2070614F170000AF013FB070006F250
:1055E0000608B6F801007179022291FBF2F111EB85
:1055F000000914F170000AF00FFB484501D20120A8
:1056000000E00020C0B2002803D0002084F83C0055
:1056100066E672794146B6F8010017EB40000AF0E1
:10562000CFF80620A88003E002212000FFF7D3FC7A
:1056300006E00320A88003E001212000FFF7CBFC57
:10564000022084F83C002000FEF73AFFA888401EA4
:10565000606112E014F1A8000AF0D0F9C0B202288B
:1056600001D1012000E00020C0B2002805D00020B8
:1056700084F83C002000FEF723FFB3E0201D0AF071
:10568000B5FA06220021FEF717FE201D0AF0AEFA39
:1056900000F207000078012811D002280ED003285C
:1056A0000ED0042819D0052824D006282AD007288F
:1056B00030D00F282FD0102835D03CE03BE03AE026
:1056C000201D0AF093FA00F20705201D0AF08EFA59
:1056D0006A780921FEF7F0FD2DE0201D0AF086FA18
:1056E00000F20705201D0AF081FA6A780921FEF709
:1056F000E3FD20E0201D0AF079FA04220821FEF7DC
:10570000DBFD18E0201D0AF071FA04220821FEF7E3
:10571000D3FD10E00FE0201D0AF068FA04220821F2
:10572000FEF7CAFD07E0201D0AF060FA04220821F6
:10573000FEF7C2FDFFE7201D0AF056FA6169C91D98
:10574000884201D2012000E00020C0B2002803D02E
:10575000002084F83C00C3E5201D0AF047FA616987
:10576000CB1D0200D4F8A01014F1A8000AF048F9EB
:10577000042084F83C002000FEF7A2FE32E014F181
:10578000A8000AF068F9C0B2012801D1012000E0A8
:105790000020C0B2002812D0201D0AF027FA050010
:1057A000201D0AF021FA02000021280009F0B7FEAE
:1057B000002084F83C002000FEF782FE12E014F185
:1057C000A8000AF048F9C0B2022801D1012000E087
:1057D0000020C0B2002805D0002084F83C00200042
:1057E000FEF76EFE7CE5F8B504000D0016001F0004
:1057F00020000AF065FA14F108000AF061FA14F1C9
:1058000010000AF05DFA14F118000AF059FA0023AA
:105810000022002114F120000AF057FA0023002290
:10582000002114F18C000AF09DFA002300220021CF
:1058300014F1F8000AF0E1FA00230022002104F23A
:1058400058100AF01EFB00230022002104F28010F1
:105850000AF039FB00230022002104F2D8100AF0DC
:105860006CFB00230022002104F2C0200AF065FB3B
:1058700000230022002104F2A8300AF05EFB00237E
:105880000022002114F592600AF057FB0023002249
:10589000002114F5AF600AF050FB00230022002124
:1058A00014F5CC600AF093FB3200290020000AF0C6
:1058B0001BFD002F00D038602000F2BD38B5040079
:1058C00002F09CFF2268D3170748D0E90045A4FBEB
:1058D000020104FB031105FB0211044CD4E900236F
:1058E00009F0CCFE34BD00BF587F0020A00000208E
:1058F000DFB5089CDDE90A67CDE90267E4B20094F0
:1059000001F01FF904B0D0BD80B501F053F902BD1C
:1059100080B5DFF80C0D0078002808D10021DFF8F1
:10592000040DFDF744F8DFF8F80C01210170DFF8F1
:10593000F80C0078002808D10021DFF8B00DFDF741
:1059400036F8DFF8E40C01210170DFF8D40D00789F
:10595000002808D10021DFF8980DFDF728F8DFF8BE
:10596000C00D0121017001BD2DE9F04704008946F9
:1059700092461D00089E099FDDF8288020000AF04D
:1059800011FDDFF8A00D2060C4F80490C4F808A051
:105990000020E06000202061C4F814800420A06191
:1059A0006069401CE061012084F82000032084F835
:1059B0002100A16914F1240009F04AFFA16914F142
:1059C000340009F045FF002060640020A06400203E
:1059D000E06400202065002060650020A065A068CC
:1059E000A1680968C9688847EDB2002D08D0022D6A
:1059F00011D00AD3042D1AD013D3052D1DD01FE0CA
:105A00000820E060802020611FE00820E0604FF463
:105A10008070206119E00820E0604FF40070206180
:105A200013E04020E0604FF4807020610DE04020E2
:105A3000E0604FF40070206107E0E660276104E059
:105A40004020E0604FF480702061E068A169B0FB05
:105A5000F1F0E064E068A169B0FBF1F201FB120033
:105A6000606514F124000AF0C1F8A1690AF09EFCF7
:105A700014F134000AF0BAF8A1690AF097FC20008A
:105A8000BDE8F08710B5040060686168096889693D
:105A90008847DFF8541D606862681268526A904750
:105AA0000121606862681268126B9047002160688B
:105AB00062681268926A90470021606862681268A2
:105AC000D26A9047A068A16809680969884710BD33
:105AD00010B50400A068A1680968C96888476068B3
