:10000000D8200120313B0300A3150100B3150100E6
:10001000C3150100D3150100E31501000000000025
:10002000000000000000000000000000F3150100C7
:100030000316010000000000131601002316010042
:100040003316010043160100531601006316010028
:10005000731601008316010093160100A316010018
:10006000B3160100C3160100D3160100E316010008
:10007000F3160100031701001317010023170100F5
:1000800033170100431701005317010063170100E4
:10009000731701008317010093170100A3170100D4
:1000A000B3170100C3170100D3170100E3170100C4
:1000B000F3170100031801001318010023180100B1
:1000C00033180100431801005318010063180100A0
:1000D000731801008318010093180100A318010090
:1000E000B3180100B1190100C3180100B1190100D2
:1000F000D3180100E3180100F318010003190100EF
:100100001319010051190100611901007119010051
:100110008119010091190100A1190100B119010013
:1001200080B5DFF85C0A0078002808D10021DFF8EC
:10013000540A02F0F6FBDFF8480A01210170DFF8EB
:10014000480A0078002808D10021DFF8400A02F0B0
:10015000E8FBDFF8340A01210170DFF8340A007887
:10016000002808D10021DFF82C0A02F0DAFBDFF8C2
:10017000200A01210170DFF8200A0078002808D148
:100180000021DFF8180A02F0CCFBDFF80C0A01218D
:10019000017001BDF0B59FB004000D00256020681E
:1001A00002F0C1FF0600206802F0C4FF07002068CB
:1001B00002F0ADFF03003A00310014F1080003F033
:1001C000A9F814F1080114F1480002F0C0FA2068FF
:1001D00002F0A0FF0600C8200D900DA803F032FD2C
:1001E000CDE90201002001904FF4C87000900E2369
:1001F0000022310014F1500004F067F800230022BF
:1002000014F1500104F2681005F0A7FA4FF4806071
:10021000C4F86C0A206802F07AFF0600206802F039
:100220008CFF070001200C900CA805F001FBCDE924
:100230000401402002900020019001200090D4F899
:100240006C3A3A00310014F5276006F0D9FE002020
:10025000C4F8D00B14F53D63002214F5276104F6B1
:10026000D43006F01FFFD4F8D00B0090D4F86C3ACD
:1002700004F6D43214F5276104F61C7002F00AFA71
:10028000206802F044FF0600206802F03DFF0200F3
:1002900014F5F963310014F5726002F0C3FA14F535
:1002A000F96104F6347002F07CFA280002F02FFFA6
:1002B0000600280002F022FF04F6F431019104F652
:1002C0003471009104F240330268310014F5766015
:1002D00006F0B8FF280002F01AFF0600280002F01E
:1002E0000DFF04F67C41019104F63C71009114F578
:1002F00085634268310004F59850683006F0A2FF2B
:10030000280002F004FF0600280002F0F7FE04F6C1
:100310000451019104F64471009114F5A2638268BE
:10032000310004F5B850703006F08CFF280002F060
:10033000EEFE0600280002F0E1FE04F68C51019169
:1003400004F64C71009114F5BF63C268310004F5E6
:10035000D850783006F076FF280002F0D8FE06006C
:10036000280002F0CBFE04F61461019104F65471EA
:10037000009114F5DC630269310014F5FC5006F0BD
:1003800061FF42F288300021015542F2893000219C
:1003900001550A200B900BA803F054FCCDE91C0179
:1003A0001CA904F50C50903008F048F904F28810AC
:1003B00008F032FA002801D0012000E0002042F2CB
:1003C000A831085504F2941008F026FA002801D04C
:1003D000012000E0002042F2A931085504F2A010EB
:1003E00008F01AFA002801D0012000E0002042F2B3
:1003F000AA31085504F2AC1008F00EFA002801D01A
:10040000012000E0002042F2AB31085504F2DC107C
:1004100008F002FA002801D0012000E0002042F29A
:10042000AC31085501200A900AA805F001FACDE97F
:100430001A011AA904F50C50B03008F0FFF8DFF8E3
:100440006037DFF8602704F2383104F50C50C8300B
:1004500008F0F8F9DFF85037002204F2E82104F53B
:100460000C50D83008F0EEF9DFF83C37002204F2E7
:10047000F02104F50C50E83008F0E4F9DFF82837F3
:10048000002204F2283104F50C50F83008F0DAF9B3
:10049000DFF81437002204F2303104F51050083030
:1004A00008F0D0F9DFF80437DFF8042704F2F82168
:1004B00004F51050183008F0C5F9DFF8F036DFF811
:1004C000F02604F2183104F51050283008F0BAF97B
:1004D000DFF8E036DFF8E02604F2203104F51050B2
:1004E000383008F0AFF9DFF8D436DFF8CC2604F264
:1004F000083104F51050483008F0A4F9DFF8C03690
:10050000DFF8C02604F2003104F51050583008F02E
:1005100099F9DFF8B436DFF8B42604F2103104F5A7
:100520001050683008F08EF9DFF8A436DFF8742632
:1005300004F2C02104F51050783008F083F9DFF898
:100540009036DFF8602604F2C82104F51050883098
:1005500008F078F9DFF87836DFF8482604F2D02181
:1005600004F51050983008F06DF9DFF86436DFF8C4
:10057000342604F2D82104F51050A83008F062F9AE
:10058000DFF84C36DFF81C2604F2E02104F51050A9
:10059000B83008F057F9DFF83C36DFF8082604F2E7
:1005A000C83104F51050C83008F04CF9DFF8243693
:1005B000DFF8F02514F5836104F51050D83008F009
:1005C00041F9DFF81036DFF8DC2514F5966104F503
:1005D0001050E83008F036F9DFF8F835DFF8C425B8
:1005E00014F5A06104F51050F83008F02BF9DFF88D
:1005F000E435DFF8B02514F5B36104F51450083084
:1006000008F020F9DFF8CC35DFF8982514F5BD6146
:1006100004F51450183008F015F9DFF8B835DFF894
:10062000842514F5D06104F51450283008F00AF937
:10063000DFF8A035DFF86C2514F5DA6104F5145005
:10064000383008F0FFF8DFF89035DFF8582514F55A
:10065000ED6104F51450483008F0F4F8DFF87C350B
:10066000DFF8402514F5F76104F51450583008F010
:10067000E9F86420099009A803F0E4FACDE918012B
:1006800018A904F51450683008F019F805200890EE
:1006900008A805F0CDF8CDE9160116A904F5145007
:1006A000783007F0CBFF0520079007A805F0C0F8C9
:1006B000CDE9140114A904F51450903007F0BEFFE1
:1006C00042F2A8500221015542F2AC5000210151E2
:1006D00042F2B0500021015542F2B15000210155C3
:1006E0000120069006A805F0A3F8CDE9120112A991
:1006F00004F51450B83007F0A1FF052104F514509B
:10070000D03008F0A5F84FF49670059005A803F0D6
:1007100099FACDE9100110A904F51450D83007F06A
:10072000CEFF42F2E8500021015540F6B830049067
:1007300004A803F087FACDE90E010EA904F51450C0
:10074000F03007F07BFF206802F0E1FC0500206834
:1007500002F0E6FC14F51D61019114F56B61009146
:1007600004F2C0230200290004F51850083001F0FB
:1007700041FD0020009004F2482304F2242214F1E9
:10078000080104F52050683003F038F804F6BC6323
:1007900004F2542214F1080104F52050B03001F0A5
:1007A0001CFF206802F0C1FC0500206802F0BFFCBD
:1007B0000600206802F0A8FC03003200290014F5AE
:1007C000235002F0A7FD0020009004F2A82304F2B9
:1007D000842214F5235114F5245003F00FF804F685
:1007E000C86304F2B42214F5235104F524504830B0
:1007F00001F0F3FEDFF8E803D0E90023210004F55F
:100800002450583008F040F842F67410002101518D
:1008100042F678100021015142F67C10002101516E
:1008200014F5265000220023C0E9002304F52450CB
:10083000883000220023C0E90023206808F038F83F
:10084000010004F60C2008F036F8206808F030F8B3
:10085000011D04F6142008F03BF8206808F028F881
:1008600010F1080104F61C2008F025F8206808F0B3
:100870001FF810F10A0104F6242008F01CF804F512
:100880000C50B03007F0F2FE206802F046FCC06A5F
:100890000168C968884704F6D43104F2681008F08A
:1008A00024F804F6DC3104F2701008F01EF804F6A7
:1008B000E43104F2781008F018F804F6EC3104F290
:1008C000801008F012F808F021F8009003A800A9A1
:1008D000042208F021F804F6D43008F058F88DF816
:1008E0000C0004F6DC3008F052F88DF80D0004F628
:1008F000E43008F04CF88DF80E0004F6EC3008F007
:1009000046F88DF80F0004F6D46104F62C2007F0A9
:10091000ECFF04F6DC6104F6342007F0E6FF04F691
:10092000E46104F63C2007F0E0FF04F6EC6104F615
:10093000442007F0DAFF04F6F46104F64C2007F0D7
:10094000D4FF04F6FC6104F6542007F0CEFF04F651
:10095000047104F65C2007F0C8FF04F60C7104F67D
:10096000642007F0C2FF07F0D1FF009002A800A9A1
:10097000042207F0D1FF04F6D46008F008F88DF8DF
:10098000080004F6DC6008F002F88DF8090004F6AF
:10099000E46007F0FCFF8DF80A0004F6EC6007F055
:1009A000F6FF8DF80B0007F0B1FF009001A800A939
:1009B000042207F0B1FF04F6F46007F0E8FF8DF8B9
:1009C000040004F6FC6007F0E2FF8DF8050004F671
:1009D000047007F0DCFF8DF8060004F60C7007F0D9
:1009E000D6FF8DF807000020C0B20090019B029A4C
:1009F0000399206802F0C2FB002104F6141007F0EE
:100A0000D7FF04F51450683007F06CFE04F514505D
:100A1000783007F02BFE04F6A46114F51A6007F095
:100A2000DDFF14F5FC5007F0D1FD04F51450D03073
:100A300007F0FCFFC0B2010004F6B81007F0B8FFE1
:100A400004F51450D03007F0FBFF0D2204F2F4112E
:100A500004F52050683002F017FF092204F2FC115F
:100A600004F52050683002F00FFF052204F2042143
:100A700004F52050683002F007FF0023042204F23E
:100A80000C2104F52050683002F010FF00230322EF
:100A900004F2182104F52050683002F007FF01230A
:100AA000022204F2302104F52050683002F0FEFEEC
:100AB000002204F23C2104F52050683002F010FFBF
:100AC00004F52050683002F019FF0E2204F2602174
:100AD00014F5245002F0D8FE0A2204F2682114F51D
:100AE000245002F0D1FE062204F2702114F52450A5
:100AF00002F0CAFE0023052204F2782114F52450E6
:100B000002F0D4FE0123022204F2902114F52450B5
:100B100002F0CCFE002204F29C2114F5245002F0D5
:100B2000DFFE14F5245002F0E9FE20001FB0F0BDF6
:100B300010B5040008F01AF804F524528832C2E90E
:100B40000001206802F0FFFA016889688847C0B296
:100B5000002807D042F674100059401C42F6741168
:100B6000085106E042F678100059401C42F6781110
:100B700008511C48006850F040001A49086010BD38
:100B8000C080002008800020C1800020108000204C
:100B9000C28000200C800020BA800020D47F00207A
:100BA0000000484200009041C3F5A83E0000C84143
:100BB0000000B8410000B040000090400000D0406C
:100BC000CDCC5C409A9949406666A63FCDCC8C3F1F
:100BD000000034420000AA420000B4420000F0428B
:100BE000883C03001CD403402DE9F0438DB006007F
:100BF00016F1080002F082FC06F52050683002F081
:100C000091FE06F52050B03001F0FAFC16F52350A5
:100C100002F074FC16F5245002F084FE06F5245010
:100C2000483001F0EDFC16F5766006F0EBFD06F5B8
:100C30009850683006F0E6FD06F5B850703006F0C2
:100C4000E1FD06F5D850783006F0DCFD16F5FC50D5
:100C500006F0D8FD306802F054FA0168C96B884785
:100C6000306802F073FA06F51850083001F092FB74
:100C700016F1500004F08BF916F5276006F034F8F1
:100C800016F5276006F0EFF9C0B2002832D008F060
:100C900052F8070007F06AFF04000D00254AD2E968
:100CA000000108F08DF8804689462000290008F0F0
:100CB00087F842464B4608F0B1F804000D001E4A82
:100CC000D2E9000108F07CF802000B0020002900A6
:100CD00008F07CF902000B00380008F09AFA08F0DE
:100CE0002AF8164908F0F4FA154908F0E5FB300037
:100CF00001F04FF806F51450F03007F0C2FCC0B216
:100D0000002808D042F2E85000218155002106F663
:100D1000E81007F04DFE42F2E850805D002840F0F8
:100D2000D08006F6E81007F077FD01280AD10120EF
:100D300009E000BFA0000020507F00209C27030096
:100D4000090903000020C0B2002800F0BA8042F276
:100D5000E8500121815506F51450F03007F086FC6B
:100D600006F2681106F6D43007F0BFFD06F27011E6
:100D700006F6DC3007F0B9FD06F2781106F6E4302D
:100D800007F0B3FD06F2801106F6EC3007F0ADFD7A
:100D900007F0BCFD009003A800A9042207F0BCFDE9
:100DA00006F2681007F0F3FD8DF80C0006F27010E3
:100DB00007F0EDFD8DF80D0006F2781007F0E7FD65
:100DC0008DF80E0006F2801007F0E1FD8DF80F009F
:100DD00006F62C2106F6D46007F087FD06F63421CE
:100DE00006F6DC6007F081FD06F63C2106F6E460BD
:100DF00007F07BFD06F6442106F6EC6007F075FD72
:100E000006F64C2106F6F46007F06FFD06F6542155
:100E100006F6FC6007F069FD06F65C2106F6047034
:100E200007F063FD06F6642106F60C7007F05DFD21
:100E300007F06CFD009002A800A9042207F06CFDE9
:100E400006F62C2007F0A3FD8DF8080006F63420E6
:100E500007F09DFD8DF8090006F63C2007F097FD90
:100E60008DF80A0006F6442007F091FD8DF80B007E
:100E700007F04CFD009001A800A9042207F04CFDEA
:100E800006F64C2007F083FD8DF8040006F654208A
:100E900007F07DFD8DF8050006F65C2007F077FD74
:100EA0008DF8060006F6642007F071FD8DF8070046
:100EB0000020C0B20090019B029A0399306802F0B2
:100EC0005DF906F50C50B03007F0DBFBC0B200282E
:100ED0000BD0306802F021F9806A0168C968884740
:100EE000012106F2D01007F063FD42F28930805DE7
:100EF000002803D0012800F08C82D2E206F288108C
:100F000007F08AFC002801D0012000E0002042F216
:100F1000A831895DC0B2814201D0012000E00020EB
:100F2000C0B2002840D042F2AC30805D002809D029
:100F300042F2A83000218155002106F2881007F006
:100F400037FD31E042F288300121815506F28810E8
:100F500007F062FC002801D0012000E0002042F2EE
:100F6000A831885542F2A830805D00280ED0306844
:100F700002F0D3F800680168C9688847306802F059
:100F8000CCF840680168096988470DE0306802F0D4
:100F9000C4F80068016809698847306802F0BDF844
:100FA00040680168C968884706F2941007F034FC6D
:100FB000002801D0012000E0002042F2A931895D23
:100FC000C0B2814201D0012000E00020C0B2002860
:100FD00040D042F2AC30805D002809D042F2A93006
:100FE00000218155002106F2941007F0E1FC31E068
:100FF00042F288300121815506F2941007F00CFC72
:10100000002801D0012000E0002042F2A9318855DB
:1010100042F2A930805D00280ED0306802F07DF8E1
:1010200080680168C9688847306802F076F8C0684F
:101030000168096988470DE0306802F06EF8806841
:10104000016809698847306802F067F8C06801687C
:10105000C968884706F2A01007F0DEFB002801D01F
:10106000012000E0002042F2AA31895DC0B2814235
:1010700001D0012000E00020C0B2002840D042F2A0
:10108000AC30805D002809D042F2AA3000218155A1
:10109000002106F2A01007F08BFC31E042F288300C
:1010A0000121815506F2A01007F0B6FB002801D0FF
:1010B000012000E0002042F2AA31885542F2AA3015
:1010C000805D00280ED0306802F027F800690168C2
:1010D000C9688847306802F020F8406901680969EA
:1010E00088470DE0306802F018F800690168096966
:1010F0008847306802F011F840690168C96888477C
:1011000006F2AC1007F088FB002801D0012000E0B7
:10111000002042F2AB31895DC0B2814201D0012092
:1011200000E00020C0B2002840D042F2AC30805D28
:10113000002809D042F2AB3000218155002106F28F
:10114000AC1007F035FC31E042F2883001218155C6
:1011500006F2AC1007F060FB002801D0012000E08F
:10116000002042F2AB31885542F2AB30805D00285E
:101170000ED0306801F0D1FF80690168C9688847E6
:10118000306801F0CAFFC0690168096988470DE04D
:10119000306801F0C2FF80690168096988473068DA
:1011A00001F0BBFFC0690168C968884706F2B81042
:1011B00007F032FB002801D0012000E00020C0B27F
:1011C000002807D0306801F0A8FF006A0168C968EC
:1011D000884706E0306801F0A0FF006A01680969ED
:1011E000884706F2C41007F017FB002801D0012041
:1011F00000E00020C0B2002807D0306801F08DFF69
:10120000406A0168C968884706E0306801F085FFD8
:10121000406A01680969884706F2D01007F0FCFAB5
:10122000002801D0012000E00020C0B2002807D033
:10123000306801F072FF806A0168C968884706E07B
:10124000306801F06AFF806A01680969884706F220
:10125000DC1007F0E1FA002801D0012000E00020B6
:1012600042F2AC31895DC0B2884201D0012000E079
:101270000020C0B2002800F0BD8006F2DC1007F0AC
:10128000CBFA002801D0012000E0002042F2AC316E
:10129000885542F2AC30805D002800F0A4803068B0
:1012A00001F03BFFC06A016809698847306801F0B6
:1012B00034FF0068016809698847306801F02DFF34
:1012C0004068016809698847306801F026FF806836
:1012D000016809698847306801F01FFFC06801682C
:1012E00009698847306801F018FF006901680969D9
:1012F0008847306801F011FF406901680969884733
:10130000306801F00AFF8069016809698847306820
:1013100001F003FFC06901680969884742F2AB30F8
:1013200000218155002106F2AC1007F041FB42F28A
:10133000A83000218155002106F2881007F038FB03
:1013400042F2A93000218155002106F2941007F0E5
:101350002FFB42F2AA3000218155002106F2A01095
:1013600007F026FB306801F0D8FE80690168096942
:101370008847306801F0D1FEC06901680969884773
:10138000306801F0CAFE0068016809698847306862
:1013900001F0C3FE4068016809698847306801F0C0
:1013A000BCFE8068016809698847306801F0B5FEB5
:1013B000C068016809698847306801F0AEFE0069BD
:1013C000016809698847306801F0A7FE4069016833
:1013D0000969884742F288300021815542F28930FC
:1013E0000021815506E0306801F097FEC06A01686F
:1013F000C968884742F28830805D002808D006F529
:101400000C50903007F032F942F2893001218155B9
:1014100047E006F50C50903007F033F9C0B20028D1
:101420003FD042F2883000218155306801F075FECE
:101430000068016809698847306801F06EFE4068FD
:10144000016809698847306801F067FE80680168B3
:1014500009698847306801F060FEC0680168096961
:101460008847306801F059FE0069016809698847BA
:10147000306801F052FE40690168096988473068A8
:1014800001F04BFE8069016809698847306801F006
:1014900044FEC06901680969884742F28930002129
:1014A0008155306801F039FE006B01688968884712
:1014B0000100C9B206F2E81007F07AFA06F51450F6
:1014C000683007F015F9C0B2002800F0FB82002157
:1014D00006F6042007F0F3FF16F5726001F0B9F983
:1014E00042F2B150805D00282CD106F6AC1007F016
:1014F00093F9012801D1012000E00020C0B20028AA
:1015000031D016F5766007F022F806F5985068306D
:1015100007F01DF806F5B850703007F018F806F51A
:10152000D850783007F013F816F5FC5007F00FF894
:1015300042F2B1500121815506F51450B83007F040
:1015400095F810E006F51450B83007F09AF8C0B2DC
:10155000002808D0002106F6AC1007F029FA42F264
:10156000B1500021815542F2A850805D022800F060
:10157000258106F50C50C83007F0BDFFC0B2010050
:1015800016F5FA6007F014FA06F50C50D83007F09B
:10159000B2FFC0B2010006F2DC7007F009FA06F5EE
:1015A0000C50E83007F0A7FFC0B2010016F5FD604F
:1015B00007F0FEF906F50C50F83007F09CFFC0B2BA
:1015C000010006F2F47007F0F3F906F51050083048
:1015D00007F091FFC0B2010016F5006007F0E8F9CE
:1015E00006F51050183007F086FFC0B2010006F66D
:1015F0000C0007F0DDF906F51050283007F07BFFEE
:10160000C0B2010006F6180007F0D2F906F5105036
:10161000383007F070FFC0B2010006F6240007F072
:10162000C7F906F51050483007F065FFC0B2010059
:1016300016F5036007F0BCF906F51050583007F0B6
:101640005AFFC0B2010006F63C0007F0B1F906F5FA
:101650001050683007F04FFFC0B2010006F6480096
:1016600007F0A6F906F51850083007F06CFF0028BF
:1016700036D006F51050783007F03DFFC0B20100BB
:1016800006F6540007F094F906F51050883007F07C
:1016900032FFC0B2010016F5066007F089F906F5C1
:1016A0001050983007F027FFC0B2010006F66C001A
:1016B00007F07EF906F51050A83007F01CFFC0B205
:1016C000010006F6780007F073F906F51050B830FF
:1016D00007F011FFC0B2010006F6840007F068F9B8
:1016E00006F51050C83007F006FFC0B2010016F52D
:1016F000096007F05DF906F51050D83007F0FBFEE1
:10170000C0B2010006F69C0007F052F906F5105031
:10171000E83007F0F0FEC0B2010006F6A80007F0BE
:1017200047F906F51050F83007F0E5FEC0B20100A9
:1017300006F6B40007F03CF906F51450083007F03F
:10174000DAFEC0B2010016F50C6007F031F906F5BB
:101750001450183007F0CFFEC0B2010006F6CC00DE
:1017600007F026F906F51450283007F0C4FEC0B281
:10177000010006F6D80007F01BF906F514503830C2
:1017800007F0B9FEC0B2010006F6E40007F010F958
:1017900006F51450483007F0AEFEC0B2010016F551
:1017A0000F6007F005F906F51450583007F0A3FE56
:1017B000C0B2010006F6FC0007F0FAF842F2B050A1
:1017C000815D06F6081007F0F3F816F5F96007F0EA
:1017D000C1FE009042F2A850805D002839D0022856
:1017E00002D0C0F08880DEE006F51450783006F0B4
:1017F00048FFC0B200282BD0300000F041FA42F27E
:10180000A85001218155012106F6141007F0D0F8E7
:1018100016F5245002F072F806F52050683002F0F8
:101820006DF816F5766006F003FE06F59850683000
:1018300006F0FEFD06F5B850703006F0F9FD06F52D
:10184000D850783006F0F4FD16F5FC5006F0F0FDA7
:10185000A9E016F5F96007F07DFE40010CD016F501
:10186000126007F094F8C0B2742801D0012000E0A3
:10187000002090F0010000E00120C0B2002828D034
:1018800042F2A85001218155012106F6141007F0FB
:101890008FF816F5245002F031F806F52050683024
:1018A00002F02CF816F5766006F0C2FD06F59850A9
:1018B000683006F0BDFD06F5B850703006F0B8FD92
:1018C00006F5D850783006F0B3FD16F5FC5006F05A
:1018D000AFFD06F6141006F09FFF002801D001208E
:1018E00000E00020C0B2002804D0002106F6141049
:1018F00007F05EF857E016F5F96007F02BFE40019F
:101900000CD016F5126007F042F8C0B2742801D16D
:10191000012000E0002090F0010000E00020C0B2B3
:1019200000282FD042F2A85000218155002106F650
:10193000141007F03DF816F5245001F0E9FF06F504
:101940002050683001F0E4FF16F5766006F0A9FD3E
:1019500006F59850683006F0A4FD06F5B8507030D2
:1019600006F09FFD06F5D850783006F09AFD16F582
:10197000FC5006F096FD00200C900CA916F5EF60C7
:1019800007F0F7FD06F6141006F046FF002801D117
:10199000012000E00020C0B2002804D0012106F69A
:1019A000141007F005F816F5126006F0F0FFC0B24B
:1019B000CF2801D1012000E00020C0B200280AD0C9
:1019C00000208DF8000000A916F5126007F0DEFD7A
:1019D000300000F055F916F51A6006F01DFF0400FE
:1019E00006F6A46006F018FF844201D0012000E052
:1019F0000020C0B2002821D016F51A6106F6A460B6
:101A000006F0ECFF16F51A6006F006FF002801D07C
:101A1000012000E00020C0B200280FD006F6F4102C
:101A200007F098FD42F2AC51885142F2B0500021CB
:101A3000815506F51450903006F018FE06F6A460A5
:101A400006F0EAFE002801D0012000E00020C0B22C
:101A5000002826D006F6F41007F07CFD42F2AC51C7
:101A60008959814201D0012000E00020C0B2002845
:101A70000BD006F6F41007F06DFD42F2AC51885120
:101A800006F51450903006F0F1FD06F51450903034
:101A900006F0F7FDC0B2002803D042F2B050012199
:101AA000815506F6C41006F0B7FE002801D10120CA
:101AB00000E00020C0B2002804D006F51450D03059
:101AC00007F076FD06F51450D83006F011FEC0B2CE
:101AD000002800F0B180306801F013FB0921026892
:101AE000526B90470B900BA906F2E82007F041FDDE
:101AF000306801F006FB08210268526B90470A909B
:101B00000AA906F2F02007F034FD306801F0F9FA76
:101B100007210268526B90470100DFF8080C07F0BC
:101B200059FD099009A906F2F82007F022FD306856
:101B300001F0E7FA06210268526B90470100DFF8D6
:101B4000E80B07F047FD089008A906F2003007F0FF
:101B500010FD306801F0D5FA05210268526B9047FC
:101B60000100DFF8C80B07F035FD079007A906F262
:101B7000083007F0FEFC306801F0C3FA0421026867
:101B8000526B904707F092FDDFF8A42BDFF8A43BDF
:101B900007F044F907F0B4FD069006A906F21030EC
:101BA00007F0E7FC306801F0ACFA03210268526BE1
:101BB00090470100DFF8800B07F00CFD059005A9A8
:101BC00006F2183007F0D5FC306801F09AFA0221CD
:101BD0000268526B90470100DFF8600B07F0FAFCD7
:101BE000049004A906F2203007F0C3FC306801F02D
:101BF00088FA01210268526B9047039003A906F20C
:101C0000283007F0B6FC306801F07BFA002102684A
:101C1000526B9047029002A906F2303007F0A9FCFF
:101C2000306801F06EFA0168896B8847019001A95C
:101C300006F2383007F09DFC06F6FC1007F08AFC2F
:101C400042F67C118959884201D0012000E0002031
:101C5000C0B2002811D006F6FC1007F07BFC42F65B
:101C60007C11885107F01AFE040006F6FC1007F0FC
:101C700071FC0100200007F002FE0DB0BDE8F0830A
:101C800010B5040004F50C50C83007F031FE04F51F
:101C90000C50D83007F02CFE04F50C50E83007F05B
:101CA00027FE04F50C50F83007F022FE04F5105022
:101CB000083007F01DFE04F51050183007F018FE2C
:101CC00004F51050283007F013FE04F5105038309A
:101CD00007F00EFE04F51050483007F009FE04F539
:101CE0001050583007F004FE04F51050683007F02B
:101CF000FFFD04F51050783007F0FAFD04F51050A0
:101D0000883007F0F5FD04F51050983007F0F0FD2D
:101D100004F51050A83007F0EBFD04F51050B83072
:101D200007F0E6FD04F51050C83007F0E1FD04F5BA
:101D30001050D83007F0DCFD04F51050E83007F003
:101D4000D7FD04F51050F83007F0D2FD04F514501B
:101D5000083007F0CDFD04F51450183007F0C8FD29
:101D600004F51450283007F0C3FD04F51450383042
:101D700007F0BEFD04F51450483007F0B9FD04F536
:101D80001450583007F0B4FD42F2B0500021015514
:101D900010BD10B5040004F2681104F6D43006F04A
:101DA000A4FD04F2701104F6DC3006F09EFD04F28E
:101DB000781104F6E43006F098FD04F2801104F680
:101DC000EC3006F092FD04F2403104F6F43007F0F6
:101DD00092FD04F2503104F6FC3007F09DFD04F250
:101DE000603104F6044007F097FD04F2703104F608
:101DF0000C4007F091FD04F2803104F6144007F026
:101E00008BFD04F2883104F61C4007F085FD04F2D6
:101E1000903104F6244007F07FFD04F2983104F677
:101E20002C4007F079FD04F2A03104F6344007F0AD
:101E300073FD04F2B03104F63C4007F06DFD04F28E
:101E4000B83104F6444007F067FD04F2D83104F6D7
:101E50004C4007F061FD04F2E03104F6544007F015
:101E60005BFD04F2E83104F65C4007F055FD04F236
:101E7000F03104F6644007F04FFD14F5806104F67C
:101E80006C4007F049FD14F5816104F6744007F0D9
:101E900043FD14F5856104F67C4007F02CFD14F534
:101EA000876104F6844007F037FD14F5896104F674
:101EB0008C4007F031FD14F58B6104F6944007F077
:101EC0002BFD14F58D6104F69C4007F025FD14F5FB
:101ED0008E6104F6A44007F01FFD14F58F6104F62F
:101EE000AC4007F019FD14F5906104F6B44007F01A
:101EF00013FD14F5916104F6BC4007F00DFD14F5D7
:101F0000936104F6C44007F007FD14F5946104F6EC
:101F1000CC4007F001FD14F5986104F6D44007F0B9
:101F2000FBFC14F5996104F6DC4007F0F5FC14F5B0
:101F30009A6104F6E44007F0EFFC14F59B6104F6A7
:101F4000EC4007F0E9FC14F59D6104F6F44007F05D
:101F5000E3FC14F59E6104F6FC4007F0DDFC14F58B
:101F6000A26104F6045007F0C6FC14F5A46104F65F
:101F70000C5007F0D1FC14F5A66104F6145007F0DC
:101F8000CBFC14F5A86104F61C5007F0C5FC14F551
:101F9000AA6104F6245007F0BFFC14F5AB6104F607
:101FA0002C5007F0B9FC14F5AC6104F6345007F07E
:101FB000B3FC14F5AD6104F63C5007F0ADFC14F52C
:101FC000AE6104F6445007F0A7FC14F5B06104F6C6
:101FD0004C5007F0A1FC14F5B16104F6545007F021
:101FE0009BFC14F5B56104F65C5007F095FC14F504
:101FF000B66104F6645007F08FFC14F5B76104F67F
:102000006C5007F089FC14F5B86104F6745007F0C1
:1020100083FC14F5BA6104F67C5007F07DFC14F5DE
:10202000BB6104F6845007F077FC14F5BF6104F639
:102030008C5007F060FC14F5C16104F6945007F071
:102040006BFC14F5C36104F69C5007F065FC14F5B5
:10205000C56104F6A45007F05FFC14F5C76104F6EF
:10206000AC5007F059FC14F5C86104F6B45007F001
:1020700053FC14F5C96104F6BC5007F04DFC14F58F
:10208000CA6104F6C45007F047FC14F5CB6104F6AE
:10209000CC5007F041FC14F5CD6104F6D45007F0A4
:1020A0003BFC14F5CE6104F6DC5007F035FC14F56A
:1020B000D26104F6E45007F02FFC14F5D36104F666
:1020C000EC5007F029FC14F5D46104F6F45007F045
:1020D00023FC14F5D56104F6FC5007F01DFC14F543
:1020E000D76104F6046007F017FC14F5D86104F614
:1020F0000C6007F011FC14F5DC6104F6146007F0C5
:10210000FAFB14F5DE6104F61C6007F005FC14F51B
:10211000E06104F6246007F0FFFB14F5E26104F6C9
:102120002C6007F0F9FB14F5E46104F6346007F065
:10213000F3FB14F5E56104F63C6007F0EDFB14F5E4
:10214000E66104F6446007F0E7FB14F5E76104F686
:102150004C6007F0E1FB14F5E86104F6546007F009
:10216000DBFB14F5EA6104F65C6007F0D5FB14F5BF
:10217000EB6104F6646007F0CFFB14F5EF6104F641
:102180006C6007F0C9FB14F5F06104F6746007F0A9
:10219000C3FB14F5F16104F67C6007F0BDFB14F598
:1021A000F26104F6846007F0B7FB14F5F46104F6FD
:1021B0008C6007F0B1FB14F5F56104F6946007F04C
:1021C000ABFB14F51A6104F6A46006F007FC14F5E5
:1021D0001D6114F56B6006F001FC04F2542104F655
:1021E000BC6006F0FBFB04F2B42104F6C86006F004
:1021F000F5FB10BD2DE9FE4304000D0016009946C5
:10220000DDF828800B9F4FF49670029002A801F031
:1022100019FDC4E90001C4F80890D4E90001CDE932
:1022200000013268290014F1100007F0BFFB002202
:1022300014F1100114F1600008F098FBD4E90001DA
:10224000CDE900017268290014F1800007F0AEFBAF
:10225000002214F1800114F1D00008F087FBD4E9CA
:102260000001CDE90001B268290014F1F00007F087
:102270009DFB002214F1F00104F2401008F076FBFF
:10228000D4E90001CDE90001F268290004F26010F0
:1022900007F08CFB002204F2601104F2B01008F089
:1022A00065FBD4E90001CDE900013269290004F29F
:1022B000D01007F07BFB002204F2D01104F22020A2
:1022C00008F054FB210004F2402006F0F8F9C4F8AD
:1022D0005082C4F85472D4F8500206F09DFA0028D7
:1022E00001D0012000E0002084F85802002084F88A
:1022F00059027069C4F85C0294F85812D4F8540278
:1023000006F056FB94F85802002820D0D4F85C025E
:10231000D4F85C120968C9688847002114F16C0080
:1023200006F046FB002114F1DC0006F041FB002121
:1023300004F24C1006F03CFB002104F2BC1006F045
:1023400037FB002104F22C2006F032FB1FE0D4F80A
:102350005C02D4F85C12096809698847012114F10C
:102360006C0006F025FB012114F1DC0006F020FBD7
:10237000012104F24C1006F01BFB012104F2BC10F9
:1023800006F016FB012104F22C2006F011FB2000C0
:10239000BDE8FE832DE9F04186B0040014F1100081
:1023A00007F02FFC14F1800007F02BFC14F1F00073
:1023B00007F027FC04F2601007F023FC04F2D010B1
:1023C00007F01FFC04F2402006F092F9C0B200288A
:1023D00000F0008114F1600006F01EFA050014F10F
:1023E000D00006F019FA060004F2401006F014FAC4
:1023F000070004F2B01006F00FFA804604F2202025
:1024000006F00AFA16EA0501394018EA010101420C
:1024100001D0012000E0002084F8590214F1780076
:1024200008F0C0FA050014F1100007F0A8FC06003F
:102430002DB2280008F0CAFA310007F0CBF804905A
:1024400004A9A06807F095F814F1E80008F0AAFACA
:10245000050014F1800007F092FC06002DB2280060
:1024600008F0B4FA310007F0B5F8039003A9A068AA
:10247000083007F07EF804F2581008F093FA0500CF
:1024800014F1F00007F07BFC06002DB2280008F0E4
:102490009DFA310007F09EF8029002A9A068103062
:1024A00007F067F804F2C81008F07CFA050004F29F
:1024B000601007F064FC06002DB2280008F086FAD0
:1024C000310007F087F8019001A9A068183007F0E3
:1024D00050F804F2382008F065FA050004F2D01034
:1024E00007F04DFC06002DB2280008F06FFA31000D
:1024F00007F070F8009000A9A068203007F039F8C4
:10250000D4F8540206F088F9002801D0012000E038
:10251000002094F85812C0B2814201D0012000E09E
:102520000020C0B2002855D0D4F8540206F074F947
:10253000002801D0012000E0002084F8580294F81F
:102540005812D4F8500206F033FA94F858020028D2
:1025500020D0D4F85C02D4F85C120968C9688847B6
:10256000002114F16C0006F023FA002114F1DC00C4
:1025700006F01EFA002104F24C1006F019FA0021B0
:1025800004F2BC1006F014FA002104F22C2006F02C
:102590000FFA1FE0D4F85C02D4F85C1209680969EC
:1025A0008847012114F16C0006F002FA012114F1B0
:1025B000DC0006F0FDF9012104F24C1006F0F8F9F8
:1025C000012104F2BC1006F0F3F9012104F22C20E1
:1025D00006F0EEF906B0BDE8F08110B50400216008
:1025E0006260A3600120207314F10C01206800F0E8
:1025F00059FFA168606806F0F1F9200010BD70472E
:1026000038B50400207B00280ED1606806F004F97C
:102610000500A06806F000F9854201D1012000E024
:10262000002090F0010000E00120C0B2002830D06E
:10263000206800F040FF90F00100C0B2002828D1CF
:1026400000202073606806F0E7F80500A06806F037
:10265000E3F8854201D0012000E00020C0B200284C
:1026600003D06168A06806F0B9F9606806F0D4F894
:10267000002801D0012000E00020C0B2002804D0D2
:102680000321206800F01AFF03E00121206800F018
:1026900015FF31BD2DE9F0410400884617001D00EB
:1026A000069E4046D8F80010C9688847C0B2002886
:1026B00001D1012000E00020C0B2002805D0404632
:1026C000D8F80010896A8847EBE7404604F0CBFC55
:1026D000C0B2002802D0380008F092F907F240306A
:1026E00006F055F9C0B2072801D0012000E0002013
:1026F000C0B2002802D0380008F0A2FC06F01BFB94
:102700000F4906F0E5FD310008F0ECFC0D4906F03C
:10271000DFFD290008F0E6FC0B4906F0CDFE2000A5
:10272000BDE8F0815A641142D12217410C021541D3
:10273000DD24068195832240FAFE0342E9A60C427D
:10274000A4360300803C030009090300704730B53C
:102750008BB004000D00280000F0ADFEC0B20028D0
:1027600003D1280000F0CAFEF5E74FF4FA7002909A
:1027700002A801F067FACDE9000100A904A805F05C
:102780005DFF05F073FF04A805F07BFFC0B20028D1
:1027900003D1280000F0B2FEF5E720000BB030BDF9
:1027A000704738B504000D00200008F0F8FC14F163
:1027B000080008F0F4FC14F1100008F0F0FC14F12B
:1027C000180008F0ECFC14F1200008F0E8FCA56209
:1027D000A06A00F260102060A06A00F26C106060D5
:1027E000A06A00F27810A060A06A00F28410E06095
:1027F000A06A00F290102061A06A00F29C10606153
:10280000A06A00F2A810A061A06A00F2B410E06112
:10281000A06A00F2C0102062A06A00F2CC106062D0
:10282000200032BD10B5040021606260A36000206A
:102830002073002020610121A06800F2142006F01E
:10284000B7F8A06800F2142005F0E6FF2061200030
:1028500010BD10B50400207B002802D001282FD025
:102860005EE0A06800F2142005F0D6FF21698142E5
:1028700001D0012000E00020C0B200281FD0A068D5
:1028800000F2142005F0C8FF2061A06800F21420B7
:1028900005F0C2FF002801D0012000E00020C0B2F6
:1028A00000280AD0206821680968C96988476068DB
:1028B00061680968C969884701E0012020732FE039
:1028C000206821680968096A8847C0B2002804D1D5
:1028D00020682168096889698847606861680968B3
:1028E000096A8847C0B2002804D160686168096835
:1028F00089698847206821680968096A8847C0B2E1
:10290000002807D1606861680968096A884790F003
:10291000010000E00020C0B2002801D00020207398
:1029200010BD0160704710B50400606840696168BF
:1029300049690968096988476068006961680969C7
:102940000968C968884710BD80B5DFF86C07007852
:10295000002808D10021DFF86407FFF7E2FFDFF865
:10296000580701210170DFF858070078002808D1C6
:102970000021DFF85007FFF7D4FFDFF844070121FB
:102980000170DFF844070078002808D10021DFF843
:102990003C07FFF7C6FFDFF8300701210170DFF8C1
:1029A00030070078002808D10021DFF82807FFF75A
:1029B000B8FFDFF81C070121017001BD2DE9F043CC
:1029C0008BB004005FF0FF30009003230022DFF89B
:1029D0000817200008F01AFC5FF0FF300090032376
:1029E0000122DFF8F41614F1100008F00FFC5FF07C
:1029F000FF30009003230222DFF8DC1614F12000E0
:102A000008F004FC5FF0FF30009003230322DFF89E
:102A1000C81614F1300008F0F9FB5FF0FF300090A9
:102A200003230422DFF8B01614F1400008F0EEFB97
:102A30005FF0FF30009003230522DFF8A01614F1A9
:102A4000500008F0E3FB14F15000029014F1400034
:102A5000019014F13000009014F1200314F11002E1
:102A6000210014F1600008F077FC14F1600114F10A
:102A7000780008F07DFC5FF0FF3000900023072213
:102A8000DFF85C1614F1880008F0C0FB5FF0FF303F
:102A9000009003230022DFF84C1614F1980008F090
:102AA000B5FB1F2114F1780008F07FFC14F19803A6
:102AB000020014F1880114F1A80008F07BFC5FF01B
:102AC000FF30009000230122DFF81C1614F1B4003F
:102AD00008F09CFB5FF0FF30009003230322DFF837
:102AE0000C1614F1C40008F091FB5FF0FF30009069
:102AF00003230722DFF8F01514F1D40008F086FB59
:102B000014F1D40314F1C40214F1B40114F1E4007B
:102B100008F050FC5FF0FF30009003230122DFF843
:102B2000C41514F1F00008F071FB052114F17800D0
:102B300008F03BFC05000C2114F1780008F035FC8E
:102B400006000B2114F1780008F02FFC07000E217D
:102B500014F1780008F029FC80460D2114F178006A
:102B600008F023FC14F1F00102910190CDF80080EF
:102B70003B003200290004F2001008F01FFC5FF057
:102B8000FF30009003230022DFF8601504F21810D4
:102B900008F03CFB5FF0FF30009003230122DFF8D8
:102BA0004C1504F2281008F031FB5FF0FF30009064
:102BB00003230222DFF8341504F2381008F026FB54
:102BC00004F2381304F2281204F2181104F2481027
:102BD00008F000FC04F2481104F2541008F0FEFB67
:102BE000182114F1780008F0E0FB0500192114F118
:102BF000780008F0DAFB06001A2114F1780008F0DA
:102C0000D4FB0700172114F1780008F0CEFB8046B2
:102C1000052104F2541008F0FEFB8146042114F152
:102C2000780008F0C2FB0290CDF80490CDF8008047
:102C30003B003200290004F2641008F0F1FB14217B
:102C400014F1780008F0B1FB0500152114F17800AB
:102C500008F0ABFB0600162114F1780008F0A5FB84
:102C60000700132114F1780008F09FFB804604212F
:102C700004F2541008F0CFFB8146012114F17800D2
:102C800008F093FB0290CDF80490CDF800803B0053
:102C90003200290004F27C1008F0C2FB1D2114F15F
:102CA000780008F082FB05001C2114F1780008F080
:102CB0007CFB06001B2114F1780008F076FB07006E
:102CC0001E2114F1780008F070FB8046032104F205
:102CD000541008F0A0FB8146002114F1780008F0A0
:102CE00064FB0290CDF80490CDF800803B003200E8
:102CF000290004F2941008F093FB102114F17800DD
:102D000008F053FB0500112114F1780008F04DFB89
:102D10000600122114F1780008F047FB07000A2191
:102D200014F1780008F041FB8046022104F25410AF
:102D300008F071FB8146032114F1780008F035FB9F
:102D40000290CDF80490CDF800803B0032002900BD
:102D500004F2AC1008F064FB062114F1780008F0CE
:102D600024FB0500072114F1780008F01EFB060083
:102D7000082114F1780008F018FB0700092114F16C
:102D8000780008F012FB8046012104F2541008F08C
:102D900042FB8146022114F1780008F006FB029004
:102DA000CDF80490CDF800803B003200290004F2F9
:102DB000C41008F035FB04F2C410019004F2AC100A
:102DC000009004F2941304F27C1204F2641104F2F1
:102DD000DC1008F031FB5FF0FF300090032303228A
:102DE0005FF0402104F2F01008F010FA5FF0FF30BD
:102DF000009003230022BC4904F2002008F006FAE8
:102E00005FF0FF30009003230422B54904F2102044
:102E100008F0FCF95FF0FF30009003230222B44970
:102E200004F2202008F0F2F95FF0FF300090032355
:102E30000522AB4904F2302008F0E8F95FF0FF30DA
:102E40000090032306225FF0402104F2402008F0A6
:102E5000DDF95FF0FF300090032307229E4904F262
:102E6000502008F0D3F95FF0FF30009003230322D5
:102E70009F4904F2602008F0C9F95FF0FF3000902C
:102E800003230622964904F2702008F0BFF95FF090
:102E9000FF300090032307225FF0402104F28020DE
:102EA00008F0B4F95FF0FF300090032307228D494A
:102EB00004F2902008F0AAF95FF0FF30009003239D
:102EC00005228A4904F2A02008F0A0F95FF0FF3043
:102ED000009000230422854904F2B02008F096F9FE
:102EE00004F2B020099004F2A020089004F290208F
:102EF000079004F28020069004F27020059004F2FE
:102F00006020049004F25020039004F240200290CC
:102F100004F23020019004F22020009004F21023EB
:102F200004F2002204F2F01104F2C02008F08EFA3C
:102F30006420039003A800F085FECDE90001002382
:102F400001224CF2FF0104F2F82008F0D7FA694898
:102F5000C4F82803684802906748019066480090CA
:102F600001230022D4F8281304F22C3009F080FE4B
:102F70005948029058480190574800900023002279
:102F8000D4F8281304F27C3009F072FE5FF07C5014
:102F90000090D4F828030A2101FB00F200232C2121
:102FA00004F2CC300AF0C0FC5FF07C500090D4F802
:102FB00028030A2101FB00F20023212104F2E4305E
:102FC0000AF0B2FC3020029001200190A82000906D
:102FD000C0230022002104A80AF02EFF00A804A9A3
:102FE000062205F099FC04F2FC3000A9062205F047
:102FF00093FC0120019004F2FC3181B06846062266
:1030000005F08AFC08BC4FF49672012104F20440DA
:103010000AF062FF002104F24C400BF023FA002179
:1030200004F254400BF02CFA002114F58B600BF0E5
:1030300045FA0BF061FA019000A801A9042205F0FD
:103040006BFC04F25C4000A9042205F065FC002042
:1030500084F860040BF050FA019000A801A9042242
:1030600005F05AFC04F2614000A9042205F054FC6A
:103070000BF042FA019000A801A9042205F04CFCD3
:1030800004F2654000A9042205F046FC5FF0FF3021
:10309000009000230622144904F26C4008F0B6F8B0
:1030A0000020C4F87C0404F2902008F03AF92000D3
:1030B0000BB0BDE8F0830000C08000200880002035
:1030C000C180002010800020C28000200C800020E1
:1030D000BA800020D47F00200070024000500240DF
:1030E000006000400060024000D0034000500040FB
:1030F0000070004020A107000040024000F2DC10F8
:10310000704700F2F820704700F22C30704700F250
:103110007C30704700F24C40704700F2C02070478E
:1031200000F200107047A8307047E430704700F29A
:10313000E430704700F2CC30704780B50F21783012
:1031400008F033F902BD00F26C40704710B504007E
:1031500004F204400BF0DEF804F24C400BF0D2F91C
:1031600004F254400BF0D6F90BF0D3FA14F58B604F
:103170000CF03EF80168496A884710BD2DE9FE4110
:10318000A3B005002C9C05F25C4023A9042205F0A5
:10319000C3FB85F8604405F2614024A9042205F0D0
:1031A000BBFB05F2654025A9042205F0B5FB002113
:1031B00015F58B600CF03EF80BF09EF900900EA810
:1031C00000A9042205F0A8FBE4B2002C01D1239849
:1031D0000E900BF091F900900FA800A9042205F0C1
:1031E0009BFBDDF89080259F032612A80CF037F892
:1031F0000E981290CDF84C8014978DF8544000A88A
:103200000CF05CF810A800A9062205F085FB0DF172
:10321000420224A923A80CF05FF810A905F204408B
:103220000BF032F878200CF067F8040012AA05F2CF
:10323000044120000BF0E4F9010005F254400CF0C9
:103240006DF816A80CF080F8E8200CF055F8040092
:1032500016A902A8302205F06FFB0196002000900D
:103260000FAB41F28E320EA920000BF017FE0100C9
:1032700015F58B600BF0DEFF15F58B600BF0B8FFDA
:1032800001210268D269904715F58B600CF080F837
:10329000010005F24C400CF083F826B0BDE8F08147
:1032A00080B5DFF8B0040078002808D10021DFF8ED
:1032B000A804FFF736FBDFF89C0401210170DFF85A
:1032C0009C040078002808D10021DFF89404FFF75F
:1032D00028FBDFF8880401210170DFF888040078FA
:1032E000002808D10021DFF88004FFF71AFBDFF87F
:1032F000740401210170DFF874040078002808D1FB
:103300000021DFF86C04FFF70CFBDFF860040121FB
:10331000017001BD10B586B0040021606260A36039
:10332000002020730020607414F114000CF03AF8AF
:10333000002084F82400002084F8250040F6B830EE
:10334000019001A800F07EFCCDE9040104A914F16C
:10335000280005F073F9200000F041FA6068616808
:1033600009688968884714F1280005F07FF920680A
:10337000006821680968096889688847C0B2002820
:1033800012D114F1280005F07CF9C0B20028EED06B
:1033900005F0D1FCDFF8DC1305F09AFFDFF8D81355
:1033A00006F08AF806202073206840682168496882
:1033B0000968C96888472068806821688968096841
:1033C000C96888470A20009000A800F03BFCCDE9BE
:1033D000020102A914F1280005F040F914F12800B7
:1033E00005F044F9200006B010BD10B5040014F13A
:1033F00014000BF0E7FF200010BD30B585B00400CD
:10340000002508E0290014F114000BF0E2FF006829
:10341000012101706D1C14F114000BF0DEFF8542D8
:1034200001D2012000E00020C0B20028EAD1207BB8
:10343000012802D0207B042804D1A068A168096873
:10344000C9698847002084F82400002084F82500FA
:10345000200000F0C4F960686168096889688847DD
:1034600020684068216849680968C96888472068F9
:103470008068216889680968C96888470A200290BD
:1034800002A800F0DFFBCDE9000100A914F128003B
:1034900005F0E4F814F1280005F0E8F800202073A6
:1034A00005B030BD02B50099002903D000A9143041
:1034B0000BF098FF01BD90F82400704781B0ADF883
:1034C00000109DF8011041739DF8001081730121D7
:1034D00080F82510002180F8241001B0704781B0D9
:1034E000C17B9DF801208DF80110007C9DF8001033
:1034F0008DF80000BDF8000001B0704730B58BB00A
:103500000400A068A1680968896B8847207B0028AF
:103510000CD0022859D02BD3042800F08D805ED324
:10352000062800F00881C0F0D0800FE114F12800D7
:1035300005F0A7F8C0B2002819D02068806821687B
:1035400089680968096988474FF4FA70089008A8E3
:1035500000F078FBCDE9060106A914F1280005F07A
:103560007DF814F1280005F081F802202073EDE0C9
:10357000A068A168096849698847C0B2002801D1DC
:10358000012000E00020C0B200281DD02068406863
:10359000216849680968C9688847A068A1680968FE
:1035A000C96988470120019001A800F04BFBCDE9D3
:1035B000040104A914F1280005F050F814F12800C2
:1035C00005F054F802202073C0E014F1280005F043
:1035D00058F8C0B2002801D003202073B6E0A068DC
:1035E000A1680968096A8847C0B200280DD1A0689F
:1035F000A168096849698847C0B2002801D0012044
:1036000000E0002090F0010000E00020C0B200289F
:1036100011D0200000F0B4F8200000F0D2F802230E
:1036200014F10D0214F10F01A068A5682D68ED6B6F
:10363000A8470420207389E0A068A1680968496947
:103640008847C0B2002801D1012000E00020C0B2AC
:10365000002839D020684068216849680968C9682D
:103660008847A068A1680968C9698847200000F0F8
:10367000ADF800280AD0606861680968C9688847A1
:10368000012084F82400052020731DE0607C1428AC
:1036900016D2607C401C60744FF4FA70009000A851
:1036A00000F0D0FACDE9020102A914F1280004F0DB
:1036B000D5FF14F1280004F0D9FF0220207303E0A5
:1036C000002060740620207340E094F82500002854
:1036D00030D0A068A1680968096A8847C0B200288C
:1036E0000DD1A068A168096849698847C0B200285F
:1036F00001D0012000E0002090F0010000E0002057
:10370000C0B2002816D0002084F8250060686168E7
:10371000096889688847200000F032F8022214F115
:103720000D01A068A3681B681B699847002060749E
:10373000012020730AE005F0FEFA104905F0C8FDEB
:103740000D4905F0B9FE2000FFF757FE0BB030BD64
:1037500000000000C080002008800020C180002000
:1037600010800020C28000200C800020BA80002041
:10377000D47F002028150300090903004C20030012
:1037800010B504000121A068A2681268126B90476E
:103790000021A068A2681268926A90470021A06880
:1037A000A2681268D26A9047A068A168096889690E
:1037B000884720684068216849680968096988471E
:1037C00010BD00214173022181737047007C10F00D
:1037D0000200C0B2400890F00100C0B2704710B5BE
:1037E00004000222002114F10D000BF01EFE022243
:1037F000002114F10F000BF018FE10BDF8B5040005
:1038000015001E00069F21600220207114F108009F
:103810000BF015FE14F118000BF021FE14F1280036
:103820000BF01DFEA563E6632764002084F84400C6
:10383000002084F84500002084F84600002084F829
:10384000470014F108000BF01AFE14F118000BF0F9
:1038500025FE14F128000BF021FE14F14701206829
:10386000FFF720FE2000F2BD10B5040014F128007F
:103870000BF023FE14F118000BF01FFE14F10800EA
:103880000BF022FE200010BD10B584B00C00019496
:103890008DF8082001A908300BF01DFE00208DF8DE
:1038A000000000A9200005F071FE1FBD30B583B0F7
:1038B00004000D0000958DF80420DBB2002B05D02C
:1038C00014F118000BF02AFE84F8440000A914F14A
:1038D00018000BF028FE0021280005F069F837BD1C
:1038E0001CB50C0000948DF8042000A928300BF0C2
:1038F0001AFE0021200005F05BF813BD002180F8BE
:1039000046100179002902D0012180F84510704746
:10391000002180F845100179022902D0012180F8A8
:1039200046107047F8B50400E06B04F075FF0128FD
:1039300001D1012000E00020C0B2002803D020689F
:10394000FFF75BFD0AE094F84700002806D0206CE2
:10395000002803D00121206C05F02AF894F84700D4
:1039600000280DD02079002802D02079012801D12B
:1039700000202071200000F009F9002084F84700A1
:103980002079002804D0022800F0838031D3A8E0F9
:103990002068FFF790FD00282AD094F84600002800
:1039A00016D0002084F846000021A06B05F000F836
:1039B00094F8441014F118000BF0D8FD00210068B1
:1039C00004F0F6FF200000F08DF8022020710FE0D7
:1039D000A06B04F021FF012801D1012000E00020AC
:1039E000C0B2002804D0200000F07CF80120207133
:1039F00077E02068FFF75FFD002849D02068FFF7D7
:103A00006EFD050094F8441014F118000BF0AEFDA3
:103A1000060094F8441014F118000BF0A7FDADB2A5
:103A2000012190F9040011FA00F010EA0501306854
:103A300004F0BEFF002618E0F6B2310014F12800B1
:103A40000BF094FD0700F6B2310014F128000BF0E2
:103A50008DFDADB2012190F9040011FA00F010EAD9
:103A60000501386804F0A4FF761C14F128000BF05F
:103A700055FDF6B2864201D2012000E00020C0B21E
:103A80000028D9D10021A06B04F092FF0020207102
:103A900027E02068FFF70FFD002822D094F84500AA
:103AA000002805D0002084F845000020207118E08F
:103AB000A06B04F0B1FE012801D1012000E000203C
:103AC000C0B200280DD00021A06B04F071FF94F863
:103AD000441014F118000BF049FD0021006804F0B7
:103AE00067FFF1BDF8B504000025002616E0F6B228
:103AF000310014F108000BF03DFD006804F047FFB1
:103B00000700FFB2F6B2310014F108000BF032FDED
:103B100090F9040017FA00F00543761C14F1080030
:103B20000BF02CFDF6B2864201D2012000E000200D
:103B3000C0B20028DBD1002615E0F6B2310014F146
:103B400018000BF013FD006804F066FE0700F6B2E3
:103B5000310014F118000BF009FD90F9040017FA78
:103B600000F00543761C14F118000BF0D7FCF6B2F8
:103B7000864201D2012000E00020C0B20028DCD142
:103B8000290089B22068FFF799FCF1BD38B504001F
:103B90000021E06B04F00CFF0021A06B04F008FF93
:103BA00000250DE0EDB2290014F108000BF0E2FC55
:103BB00000218DF8001000A9006805F0E7FC6D1CDD
:103BC00014F108000BF0DAFCEDB2854201D20120BD
:103BD00000E00020C0B20028E4D100250AE0EDB2E8
:103BE000290014F118000BF0C1FC0021006804F05A
:103BF000DFFE6D1C14F118000BF090FCEDB2854255
:103C000001D2012000E00020C0B20028E7D1002549
:103C10000AE0EDB2290014F128000BF0A7FC002106
:103C2000006804F0C5FE6D1C14F128000BF076FC52
:103C3000EDB2854201D2012000E00020C0B2002890
:103C4000E7D131BDF8B5040004F092FD2268D31726
:103C50000B48D0E90045A4FB020104FB031105FB5E
:103C60000211084AD2E900454FF47A760027A6FBF4
:103C7000042306FB053307FB04330BF085FCF4BD7E
:103C8000507F0020A000002080B5DFF88807007872
:103C9000002808D10021DFF88007FEF742FEDFF898
:103CA000740701210170DFF874070078002808D13B
:103CB0000021DFF86C07FEF734FEDFF86007012112
:103CC0000170DFF860070078002808D10021DFF8D4
:103CD0005807FEF726FEDFF84C0701210170DFF8D8
:103CE0004C070078002808D10021DFF84407FEF7D0
:103CF00018FEDFF838070121017001BD91400278FC
:103D00009A4302700278114301707047D2F10802A1
:103D1000D14002781A400270027811430170704756
:103D20002DE9F14F88B00D000820B2FBF0F101FB46
:103D3000102100910820B3FBF0F606FB1036D008E6
:103D40000190DF085FF0000900240098B04270D1B4
:103D5000002E0BD00098002808D0129830180828A0
:103D600002D3D6F1080901E0DDF848901298B0EBD3
:103D700009000821B0FBF1F404FB11041298B0EB28
:103D80000900001B5FEAD0085FF0000AB9F1000FDC
:103D90001DD0002012997118082904D3494600202B
:103DA0000BF08BFC06E049461298D0F10800801B0E
:103DB0000BF083FC0199089A895C01407A5D32EA34
:103DC00000007855785D084378555FF0010A002CB3
:103DD00023D02100D4F108000BF06FFC019918EBFF
:103DE000010111EBD901089A895C014018EB070227
:103DF0001AEB020218EB07031AEB03035B5D33EACD
:103E00000000505518EB07001AEB000018EB0702F2
:103E10001AEB0202525D114341554246019808993E
:103E200040181AEB000178191AEB00000BF04EFC59
:103E3000F9E1002002900020059000208DF80C0090
:103E40005FF000080098B04235D20098B6EB000849
:103E5000D8F1080100200BF030FC8DF80C00CDF8F3
:103E6000148000200290002E0DD0009800280AD067
:103E7000009812990818092803D30098D0F108096E
:103E800001E0DDF84890129818EB0000B0EB090053
:103E9000002801D104002EE00821B0FBF1F202FB62
:103EA0001102002A01D1082425E00821B0FBF1F419
:103EB00004FB11041FE0009886421CD20098B0EB6E
:103EC0000608414600200BF0F8FB8DF80C00D8F1F5
:103ED0000800059001200290002E04D000980028D0
:103EE00001D0D6F108091298B0EB09000821B0FB07
:103EF000F1F404FB1104002006901298082804D362
:103F00001298B0EB0900C008069000200490B9F1A7
:103F1000000F75D0012004900098864234D24146AB
:103F2000D8F108000BF0C9FB8DF80D000098D0F116
:103F3000080100200BF0C1FB0199089A11F802A0BA
:103F40005FF0000910EA0A0A3AFA08FA019808999B
:103F5000401890F801B04146D8F108000BF0ADFBD5
:103F600010EA0B0BD8F108001BFA00FB5AEA09090A
:103F70005BEA0909785D9DF80D1008407855785D79
:103F800059EA000078553BE00098B04238D20198D9
:103F9000089910F801A00198089910F80190D6F13D
:103FA000080140460BF089FB10EA0A0A1AFA08FADF
:103FB000414600200BF081FB10EA0909D8F1080006
:103FC00039FA00F9D6F1080100200BF076FB795D93
:103FD00031EA00007855785D5AEA0000785541468C
:103FE000D8F108000BF069FB7919497831EA000033
:103FF000791948707819407859EA000079194870A1
:1040000000200790002C00F0D9800698019908182C
:10401000049911EB000906983818049911EB000A6D
:104020005FF0000B5FEA4800D0F10800029901FB45
:10403000008084426AD20098B04223D22100D4F199
:1040400008000BF03AFB8346210001200BF035FB02
:10405000089919F801100140D4F10800401EC14030
:104060001AEB0500407830EA0B001AEB050250709D
:104070001AEB0500407808431AEB0501487001204F
:1040800007909BE00098864280F0988000981299F3
:104090000818082829D2089819F800401298082210
:1040A000B0FBF2F101FB120112980822B0FBF2F30F
:1040B00003FB1203D3F10800009A801A0BF0FDFAFB
:1040C00006001298D0F1080100200BF0F6FA3440F7
:1040D00034FA08F41AF8051008400AF805001AF82E
:1040E000050020430AF8050068E04146D8F10800C1
:1040F0000BF0E3FA83465B46DBB2059A089819F8A1
:1041000000101AEB0500FFF7F9FD57E00098864212
:104110000DD29DF80C30059A029810EB0900089911
:10412000401810F8011C1AEB0500FFF7EFFD5FEADD
:104130004800D0F10800029901FB0080A0423DD266
:104140000098B04210D2B4EB0801D4F108000BF093
:10415000B4FA83465B46DBB2059A089819F800105A
:104160001AEB0500FFF7CAFD0098864226D2B4F18B
:10417000080018EB0001D4F108000830B0EB08008B
:104180000BF09BFA0600B4F1080018EB0001D4F123
:1041900008000BF092FA089919EB010149783140B7
:1041A000D8F1080291401AF8052032EA00000AF816
:1041B00005001AF8050008430AF80500002411E07C
:1041C00001980019049908183919049A56189DF88D
:1041D0000C30059A029908180899415C7019FFF78C
:1041E0008DFD641C0698079908188442E8D30024C2
:1041F00016E0019800190499029A02FB010039198E
:10420000049A029B03FB02169DF80C30059A08994C
:10421000415C701C029E801B4019FFF777FD641CF7
:1042200006988442E5D309B0BDE8F08F70B504006C
:104230000D0016000BF078FAC0B2002801D1012061
:1042400000E00020C0B200280ED0EDB2280006E049
:10425000011949780219035D53700155801CEDB2B4
:10426000F6B271198842F3D370BD70B4039C049DFB
:104270000E18904209D3984207D2B24205D2B342F7
:1042800003D32160801A28601DE0824208D2984240
:1042900006D2B34204D2191A2160801A286012E0B3
:1042A000904208D2B24206D29E4204D2B01A206096
:1042B0000020286007E0824205D39E4203D3981A6B
:1042C00020600020286070BC70472DE9F84F060080
:1042D0000F0090469946DDF828A0DDF82CB0DDE906
:1042E0000C4530000BF036FADFF84C0130604FF42B
:1042F0008271301D0BF032FA002070615FEAC80055
:10430000B0615FEAC900F061C6F820A0C6F824B029
:1043100019EB080010EB4A0010EB4B00B062C6F836
:104320002C8019EB0800306319EB080010EB4A00F1
:10433000706319EB080010EB4A0010EB4B00B06300
:10434000002086F83C00414616F140000BF006FACA
:10435000494616F150000BF001FA594616F160007B
:104360000BF012FA514616F170000BF00DFA002016
:10437000C6F880000020C6F884000020C6F8880037
:104380000020C6F88C000020C6F890000020C6F877
:1043900094000020C6F898000020C6F89C00002079
:1043A000C6F8A000C6F8A470D6F8A41016F1A800AC
:1043B0000BF03CFA002086F8100122002B0016F1C9
:1043C000A8000BF06BFA22002B0016F1A8000BF0EE
:1043D0006BFA3000BDE8F28F10B50400DFF858002A
:1043E000206014F170000BF06BFB14F160000BF017
:1043F00067FB14F150000BF06EFB14F140000BF062
:104400006AFB201D0BF067FB20000BF06FFB200008
:1044100010BD0000C080002008800020C180002066
:1044200010800020C28000200C800020BA80002074
:10443000D47F002070470000E8F50200F0B583B09B
:1044400004000D0016001F00A06BB919884200D2AD
:10445000F7BD0020C4F880000020C4F884000020CC
:10446000C4F888000020C4F88C000020C4F8900034
:104470000020C4F894000020C4F898000020C4F87C
:104480009C0014F18400019014F180000090E36A14
:10449000002239003000FFF7E8FE14F18C00019093
:1044A00014F188000090236BE26A39003000FFF7B6
:1044B000DCFE14F19400019014F190000090636B05
:1044C000226B39003000FFF7D0FE14F19C00019000
:1044D00014F198000090A36B626B39003000FFF775
:1044E000C4FED4F8800000281CD014F140000BF06A
:1044F00001FBD4F88410D4F880205118884201D2EE
:10450000012000E00020C0B20028A1D114F1400039
:104510000BF0F2FAD4F88020D4F88410091828009F
:104520000BF0D4F8D4F88800002803D1D4F88C001C
:1045300000281FD014F150000BF0DCFAD4F88C10D6
:10454000D4F888205118884201D2012000E00020D0
:10455000C0B200287FF47CAF14F150000BF0CCFA0D
:10456000D4F88820D4F88C100918D4F880004019A9
:104570000BF0ACF8D4F89000002803D1D4F89400E4
:10458000002824D0D4F88000D4F888100E1814F134
:1045900070000BF0BCFA070014F170000BF0C2FAC7
:1045A000D4F89410D4F890205118B0EB510F01D2E8
:1045B000012000E00020C0B200287FF449AFD4F809
:1045C0009020D4F89400C11970190BF07FF8D4F83A
:1045D0009800002803D1D4F89C00002827D0D4F8F4
:1045E0008000D4F888100818D4F890100E1814F130
:1045F00060000BF08CFA070014F160000BF092FAE7
:10460000D4F89C10D4F898205118B0EB510F01D277
:10461000012000E00020C0B200287FF419AFD4F8D8
:104620009820D4F89C00C11970190BF04FF80FE7CF
:10463000F0B583B004000D0016001F00A06BB9197F
:10464000884200D2F7BD0020C4F880000020C4F8E2
:1046500084000020C4F888000020C4F88C000020EA
:10466000C4F890000020C4F894000020C4F898001A
:104670000020C4F89C0014F18400019014F1800023
:104680000090E36AD4F8842039003000FFF7EDFD94
:1046900014F18C00019014F188000090236BE26A01
:1046A00039003000FFF7E1FD14F19400019014F19E
:1046B00090000090636B226B39003000FFF7D5FD4E
:1046C00014F19C00019014F198000090A36B626BB0
:1046D00039003000FFF7C9FDD4F8800000281CD055
:1046E00014F140000BF006FAD4F88410D4F88020BE
:1046F0005118884201D2012000E00020C0B20028F9
:10470000A0D114F140000BF0F7F9D4F88020290073
:10471000D4F8843018180AF0D9FFD4F8880000289B
:1047200003D1D4F88C0000281FD014F150000BF0F6
:10473000E1F9D4F88C10D4F888205118884201D2BD
:10474000012000E00020C0B200287FF47BAF14F10C
:1047500050000BF0D1F9D4F88820D4F88010491912
:10476000D4F88C3018180AF0B1FFD4F89000002863
:1047700003D1D4F89400002824D0D4F88000D4F8D1
:1047800088100F1814F170000BF0C1F9060014F135
:1047900070000BF0C7F9D4F89410D4F89020511899
:1047A000B0EB510F01D2012000E00020C0B2002880
:1047B0007FF448AFD4F890207919D4F89400801988
:1047C0000AF084FFD4F89800002803D1D4F89C00A4
:1047D000002827D0D4F88000D4F888100818D4F81E
:1047E00090100F1814F160000BF091F9060014F10D
:1047F00060000BF097F9D4F89C10D4F89820511869
:10480000B0EB510F01D2012000E00020C0B200281F
:104810007FF418AFD4F898207919D4F89C00801947
:104820000AF054FF0EE77CB505000C001600082EB8
:1048300001D3002076BDA86AA04201D20020F9E78A
:104840000020C5F880000020C5F884000020C5F8CD
:1048500088000020C5F88C000020C5F890000020DA
:10486000C5F894000020C5F898000020C5F89C0009
:1048700015F18400019015F180000090EB6AD5F8E5
:10488000842001212000FFF7F0FC15F18C0001903D
:1048900015F1880000902B6BEA6A01212000FFF7D8
:1048A000E4FC15F19400019015F1900000906B6B01
:1048B0002A6B01212000FFF7D8FC15F19C00019024
:1048C00015F198000090AB6B6A6B01212000FFF797
:1048D000CCFC0121D6F10800401E0AF0EEFE0400D7
:1048E000082E80F0BC80D5F88000002803D1D5F8D0
:1048F000840000281ED015F140000BF0FBF8D5F81D
:104900008410D5F880205118884201D2012000E09F
:104910000020C0B2002801D000208BE7D5F8841019
:1049200015F140000BF000F900782040C0B20BF008
:104930001FF97FE7D5F88800002803D1D5F88C004F
:1049400000281ED015F150000BF0D4F8D5F88C10CB
:10495000D5F888205118884201D2012000E00020BB
:10496000C0B2002801D0002064E7D5F88C1015F102
:1049700050000BF0D9F800782040C0B20BF0F8F8E6
:1049800058E7D5F89000002803D1D5F89400002806
:104990002ED015F170000BF0C5F8D5F89410D5F8AD
:1049A00090205118B0EB510F01D2012000E00020FF
:1049B000C0B2002801D000203CE7002095F89410F8
:1049C000C90708D4D5F89400410815F170000BF020
:1049D000D7F8007807E0D5F89400410815F1700089
:1049E0000BF0CEF840782040C0B20BF0C1F821E7C0
:1049F000D5F89800002803D1D5F89C0000282ED0C7
:104A000015F160000BF08EF8D5F89C10D5F89820C1
:104A10005118B0EB510F01D2012000E00020C0B2CC
:104A2000002801D0002005E7002095F89C10C90758
:104A300008D4D5F89C00410815F160000BF0A0F8EF
:104A4000007807E0D5F89C00410815F160000BF0F4
:104A500097F840782040C0B20BF08AF8EAE60020D0
:104A6000E8E67CB504000D001600082E00D373BDE7
:104A7000A06AA842FBD30020C4F880000020C4F83C
:104A800084000020C4F888000020C4F88C000020B6
:104A9000C4F890000020C4F894000020C4F89800E6
:104AA0000020C4F89C0014F18400019014F18000EF
:104AB0000090E36A002201212800FFF7D6FB14F1E1
:104AC0008C00019014F188000090236BE26A0121B0
:104AD0002800FFF7CAFB14F19400019014F1900034
:104AE0000090636B226B01212800FFF7BEFB14F1DD
:104AF0009C00019014F198000090A36B626B01215F
:104B00002800FFF7B2FB0121D6F10800401E0AF091
:104B1000D4FD0500082E80F0E780D4F8800000283E
:104B200003D1D4F88400002822D014F140000AF008
:104B3000E1FFD4F88410D4F880205118884201D2C3
:104B4000012000E00020C0B2002890D1D4F88410E9
:104B500014F140000AF0E8FF0178A9430170D4F88D
:104B6000841014F140000AF0DFFF0178294301703E
:104B7000D4F88800002803D1D4F88C00002823D072
:104B800014F150000AF0B6FFD4F88C10D4F8882045
:104B90005118884201D2012000E00020C0B2002854
:104BA0007FF465AFD4F88C1014F150000AF0BCFF0C
:104BB0000178A9430170D4F88C1014F150000AF068
:104BC000B3FF017829430170D4F89000002803D185
:104BD000D4F8940000283FD014F170000AF0A2FF2E
:104BE000D4F89410D4F890205118B0EB510F01D2A2
:104BF000012000E00020C0B200287FF438AF00267A
:104C000094F89400C00708D4D4F89400410814F133
:104C100070000AF0B5FF067807E0D4F89400410868
:104C200014F170000AF0ACFF4678AE432E4394F8BE
:104C30009400C00708D4D4F89400410814F170001F
:104C40000AF09EFF067007E0D4F89400410814F1C2
:104C500070000AF095FF4670D4F89800002803D140
:104C6000D4F89C0000283FD014F160000AF05AFFED
:104C7000D4F89C10D4F898205118B0EB510F01D201
:104C8000012000E00020C0B200287FF4F0AE002632
:104C900094F89C00C00708D4D4F89C00410814F193
:104CA00060000AF06DFF067807E0D4F89C00410828
:104CB00014F160000AF064FF4678AE432E4394F886
:104CC0009C00C00708D4D4F89C00410814F160008F
:104CD0000AF056FF067007E0D4F89C00410814F172
:104CE00060000AF04DFF4670C1E67CB504000D007F
:104CF0001600082E00D373BDA06AA842FBD3002083
:104D0000C4F880000020C4F884000020C4F88800A3
:104D10000020C4F88C000020C4F890000020C4F8E3
:104D200094000020C4F898000020C4F89C0014F1FE
:104D30008400019014F180000090E36A00220121B8
:104D40002800FFF792FA14F18C00019014F188000A
:104D50000090236BE26A01212800FFF786FA14F124
:104D60009400019014F190000090636B226B01217C
:104D70002800FFF77AFA14F19C00019014F19800D2
:104D80000090A36B626B01212800FFF76EFA0121EE
:104D9000D6F10800401E0AF090FC0500082E80F0B5
:104DA000D380D4F88000002803D1D4F884000028F0
:104DB00019D014F140000AF09DFED4F88410D4F804
:104DC00080205118884201D2012000E00020C0B2AA
:104DD000002890D1D4F8841014F140000AF0A4FE09
:104DE0000178A9430170D4F88800002803D1D4F8D1
:104DF0008C0000281AD014F150000AF07BFED4F881
:104E00008C10D4F888205118884201D2012000E08B
:104E10000020C0B200287FF46EAFD4F88C1014F1DB
:104E200050000AF081FE0178A9430170D4F8900087
:104E3000002803D1D4F8940000283ED014F170006B
:104E40000AF070FED4F89410D4F890205118B0EB0A
:104E5000510F01D2012000E00020C0B200287FF4F1
:104E60004AAF002694F89400C00708D4D4F8940000
:104E7000410814F170000AF083FE067807E0D4F8C8
:104E80009400410814F170000AF07AFE4678AE43AF
:104E900094F89400C00708D4D4F89400410814F1A1
:104EA00070000AF06DFE067007E0D4F89400410827
:104EB00014F170000AF064FE4670D4F898000028DF
:104EC00003D1D4F89C0000283ED014F160000AF011
:104ED00029FED4F89C10D4F898205118B0EB510F4B
:104EE00001D2012000E00020C0B200287FF403AF0F
:104EF000002694F89C00C00708D4D4F89C00410810
:104F000014F160000AF03CFE067807E0D4F89C003B
:104F1000410814F160000AF033FE4678AE4394F87D
:104F20009C00C00708D4D4F89C00410814F160002C
:104F30000AF026FE067007E0D4F89C00410814F140
:104F400060000AF01DFE4670D5E6F8B504000D00BD
:104F5000201D0AF0D1FD03218180201D0AF0CCFD27
:104F600000F20706201D0AF0C7FD00F2090730789D
:104F7000803838707D70201D0AF0BEFD01001020C1
:104F8000009038233A783800FEF7CAFEF1BD2DE9CB
:104F9000F04782B00400D4F8A400D4F8A410096843
:104FA000496A884714F1A8000AF0DEFC94F83C0036
:104FB000002808D0022800F01B8334D3042800F016
:104FC000988376D3C8E3D4F8A400D4F8A410096871
:104FD00089698847C4F8A000D4F8A000002821D02F
:104FE000D4F8A450201D0AF087FD02000723D4F84E
:104FF000A01028002D682D69A8470500002D11D0AC
:10500000201D0AF079FDD5F107032A18D4F8A01065
:1050100014F1A8000AF04EFC012084F83C002000A6
:10502000FFF708FA98E314F1A8000AF06DFCC0B28B
:10503000012801D1012000E00020C0B2002824D0C6
:10504000201D0AF059FD06220021FFF7EFF8201D70
:105050000AF052FD0500A88800280FD0201D0AF094
:105060004BFDA9884B1EC21DD4F8A01014F1A80056
:105070000AF020FC032084F83C0002E0002084F8C1
:105080003C002000FFF7D6F912E014F1A8000AF066
:105090003BFCC0B2022801D1012000E00020C0B2D8
:1050A000002805D0002084F83C002000FFF7C2F95A
:1050B00052E314F1A8000AF027FCC0B2012801D184
:1050C000012000E00020C0B2002800F07D82201DF9
:1050D0000AF012FD00F207000078012818D002281B
:1050E0000ED003281CD0042822D0052828D006285A
:1050F0002ED0072834D00F2833D0102839D04CE0D8
:10510000201D0AF0F9FC04220821FFF78FF844E083
:10511000201D0AF0F1FC04220821FFF787F83CE08B
:10512000201D0AF0E9FC04220821FFF77FF834E093
:10513000201D0AF0E1FC04220821FFF777F82CE09B
:10514000201D0AF0D9FC04220821FFF76FF824E0A3
:10515000201D0AF0D1FC04220821FFF767F81CE0AB
:105160001BE0201D0AF0C8FC04220821FFF75EF8AE
:1051700013E0201D0AF0C0FC04220821FFF756F8B6
:10518000201D0AF0B9FC00F20705201D0AF0B4FC4E
:105190006A790D21FFF74AF8FFE7201D0AF0ACFC01
:1051A0000500201D0AF0A8FC00F20700B0F803601B
:1051B000B0F801700078012861D0022815D00328CA
:1051C00000F0A680042800F0DC80052800F01281A1
:1051D000062800F09081072800F0E5810F2800F0F4
:1051E0005681102800F0A881E0E1B6B2002E41D02F
:1051F000201D0AF081FC00F20708B6B2082096FBD9
:10520000F0F101FB1061002906D1B6B2082096FB2F
:10521000F0F088F8010006E0B6B2082096FBF0F046
:10522000401C88F8010098F80100C01CA88014F107
:1052300040000AF05FFCC000BFB2B6B2F11988426C
:1052400001D2012000E00020C0B2002804D00020DC
:1052500084F83C00BDE8F38714F140000AF04CFCF0
:10526000B6B200960023BFB23A0018F10201FEF771
:1052700057FD03E002212000FFF767FE9AE1B6B276
:10528000002E40D0201D0AF037FC00F20708B6B20D
:10529000082096FBF0F101FB1061002906D1B6B29F
:1052A000082096FBF0F088F8010006E0B6B208206E
:1052B00096FBF0F0401C88F8010098F80100C01C33
:1052C000A88014F150000AF015FCC000BFB2B6B2BD
:1052D000F119884201D2012000E00020C0B200286C
:1052E00003D0002084F83C00B4E714F150000AF029
:1052F00003FCB6B200960023BFB23A0018F10201D7
:10530000FEF70EFD03E002212000FFF71EFE51E133
:10531000B6B2002E30D0201D0AF0EEFB00F20708D6
:105320003000C0B2400088F8010014F170000AF0AB
:10533000EEFB814618F1020A14F170000AF0F2FB4C
:10534000BFB2B6B2F119884201D2012000E00020BC
:10535000C0B2002803D0002084F83C007AE798F817
:105360000120BFB219EB470150460AF0AFF9B6B2BF
:105370007000C01CA88003E002212000FFF7E5FDBB
:1053800018E1B6B2002E30D0201D0AF0B5FB00F2B5
:1053900007083000C0B2400088F8010014F1600036
:1053A0000AF0B5FB814618F1020A14F160000AF018
:1053B000B9FBBFB2B6B2F119884201D2012000E0B8
:1053C0000020C0B2002803D0002084F83C0041E750
:1053D00098F80120BFB219EB470150460AF076F960
:1053E000B6B27000C01CA88003E002212000FFF7C5
:1053F000ACFDDFE0201D0AF07FFB00F20706B6F8E7
:105400000100082190FBF1F714F150000AF072FB43
:10541000FFB2874201D3012000E00020C0B2002883
:1054200003D0002084F83C0014E70121B6F8010005
:10543000082290FBF2F303FB1203D3F10800401E95
:105440000AF03BF98046B6F80300012814D1FFB2F8
:10545000390014F150000AF067FB017831EA0801C5
:105460000170FFB2390014F150000AF05DFB0178C1
:1054700058EA0101017009E0FFB2390014F150004F
:105480000AF052FB017831EA0801017092E0B6B2ED
:10549000002E2BD0201D0AF02FFB00F2070614F17E
:1054A00050000AF027FBC000B6F80110B6F8032040
:1054B0005118884201D2012000E00020C0B200282B
:1054C00003D0002084F83C00C4E614F150000AF038
:1054D00013FB0100B6F803000090B6F8013000227B
:1054E000B01DFEF71DFC0620A88003E0022120006D
:1054F000FFF72BFD5EE0201D0AF0FEFA00F2070622
:1055000014F170000AF00EFBB6F80110814201D3CD
:10551000012000E00020C0B2002803D0002084F861
:105520003C0097E6B6F8011014F170000AF028FB71
:10553000B6F8031001803DE0B6B2002E2ED0201D3B
:105540000AF0DAFA00F2070614F170000AF0DFFA46
:10555000070006F20608B6F801007179022291FBF5
:10556000F2F111EB000914F170000AF0DBFA484582
:1055700001D2012000E00020C0B2002803D00020AA
:1055800084F83C0066E672794146B6F8010017EBF4
:1055900040000AF09BF80620A88003E002212000CA
:1055A000FFF7D3FC06E00320A88003E001212000E0
:1055B000FFF7CBFC022084F83C002000FEF73AFF06
:1055C000A888401E606112E014F1A8000AF09CF95E
:1055D000C0B2022801D1012000E00020C0B20028A2
:1055E00005D0002084F83C002000FEF723FFB3E044
:1055F000201D0AF081FA06220021FEF717FE201D69
:105600000AF07AFA00F207000078012811D0022887
:105610000ED003280ED0042819D0052824D006283F
:105620002AD0072830D00F282FD0102835D03CE0C2
:105630003BE03AE0201D0AF05FFA00F20705201D6A
:105640000AF05AFA6A780921FEF7F0FD2DE0201DD4
:105650000AF052FA00F20705201D0AF04DFA6A78A6
:105660000921FEF7E3FD20E0201D0AF045FA04229F
:105670000821FEF7DBFD18E0201D0AF03DFA0422A8
:105680000821FEF7D3FD10E00FE0201D0AF034FAE8
:1056900004220821FEF7CAFD07E0201D0AF02CFABB
:1056A00004220821FEF7C2FDFFE7201D0AF022FABE
:1056B0006169C91D884201D2012000E00020C0B20A
:1056C000002803D0002084F83C00C3E5201D0AF028
:1056D00013FA6169CB1D0200D4F8A01014F1A800E0
:1056E0000AF014F9042084F83C002000FEF7A2FE22
:1056F00032E014F1A8000AF034F9C0B2012801D157
:10570000012000E00020C0B2002812D0201D0AF0C5
:10571000F3F90500201D0AF0EDF902000021280030
:1057200009F083FE002084F83C002000FEF782FE92
:1057300012E014F1A8000AF014F9C0B2022801D155
:10574000012000E00020C0B2002805D0002084F82D
:105750003C002000FEF76EFE7CE5F8B504000D006D
:1057600016001F0020000AF031FA14F108000AF0B8
:105770002DFA14F110000AF029FA14F118000AF0B9
:1057800025FA00230022002114F120000AF023FA58
:1057900000230022002114F18C000AF069FA002392
:1057A0000022002114F1F8000AF0ADFA00230022D3
:1057B000002104F258100AF0EAFA00230022002126
:1057C00004F280100AF005FB00230022002104F2FD
:1057D000D8100AF038FB00230022002104F2C02078
:1057E0000AF031FB00230022002104F2A8300AF065
:1057F0002AFB00230022002114F592600AF023FB0B
:1058000000230022002114F5AF600AF01CFB0023E6
:105810000022002114F5CC600AF05FFB3200290061
:1058200020000AF0E7FC002F00D038602000F2BD15
:1058300038B5040002F09CFF2268D3170748D0E96E
:105840000045A4FB020104FB031105FB0211044CFB
:10585000D4E9002309F098FE34BD00BF507F00203A
:10586000A0000020DFB5089CDDE90A67CDE90267EA
:10587000E4B2009401F01FF904B0D0BD80B501F08E
:1058800053F902BD80B5DFF80C0D0078002808D16F
:105890000021DFF8040DFDF744F8DFF8F80C0121D2
:1058A0000170DFF8F80C0078002808D10021DFF83B
:1058B000B00DFDF736F8DFF8E40C01210170DFF8D8
:1058C000D40D0078002808D10021DFF8980DFDF7ED
:1058D00028F8DFF8C00D0121017001BD2DE9F04766
:1058E0000400894692461D00089E099FDDF8288025
:1058F00020000AF0DDFCDFF8A00D2060C4F8049061
:10590000C4F808A00020E06000202061C4F81480E2
:105910000420A0616069401CE061012084F820003F
:10592000032084F82100A16914F1240009F016FF76
:10593000A16914F1340009F011FF00206064002017
:10594000A0640020E0640020206500206065002045
:10595000A065A068A1680968C9688847EDB2002DF4
:1059600008D0022D11D00AD3042D1AD013D3052D3F
:105970001DD01FE00820E060802020611FE008208B
:10598000E0604FF48070206119E00820E0604FF47F
:105990000070206113E04020E0604FF480702061CF
:1059A0000DE04020E0604FF40070206107E0E66009
:1059B000276104E04020E0604FF480702061E068DF
:1059C000A169B0FBF1F0E064E068A169B0FBF1F21D
:1059D00001FB1200606514F124000AF08DF8A16942
:1059E0000AF06AFC14F134000AF086F8A1690AF0A2
:1059F00063FC2000BDE8F08710B5040060686168B2
:105A0000096889698847DFF8541D60686268126810
:105A1000526A90470121606862681268126B904771
:105A20000021606862681268926A9047002160688D
:105A300062681268D26A9047A068A168096809691B
:105A4000884710BD10B50400A068A1680968C9683E
:105A50008847606861680968C969884710BD70B582
:105A600004002000FFF7C8FF14F134000AF044F8E6
:105A700002210AF021FC002114F134000AF054F84C
:105A800005210170656814F124000AF035F806005C
:105A900014F134000AF030F802000223310028002B
:105AA0002C68E46BA04770BD38B504002000FFF7F8
:105AB000A3FF002114F134000AF036F8012101702F
:105AC000012114F134000AF02FF8022101706568F9
:105AD00014F134000AF010F80100022228002B68AB
