:100000001024002051A90200CF270100DF270100A2
:10001000EF270100FF2701000F280100000000006A
:100020000000000000000000000000001F28010088
:100030002F280100000000003F2801004F28010088
:100040005F2801006F2801007F2801008F28010030
:100050009F280100AF280100BF280100CF28010020
:10006000DF280100EF280100FF2801000F2901000F
:100070001F2901002F2901003F2901004F290100FC
:100080005F2901006F2901007F2901008F290100EC
:100090009F290100AF290100BF290100CF290100DC
:1000A000DF290100EF290100FF2901000F2A0100CB
:1000B0001F2A01002F2A01003F2A01004F2A0100B8
:1000C0005F2A01006F2A01007F2A01008F2A0100A8
:1000D0009F2A0100AF2A0100BF2A0100CF2A010098
:1000E000DF2A0100DD2B0100EF2A0100DD2B0100DA
:1000F000FF2A01000F2B01001F2B01002F2B0100F5
:100100003F2B01007D2B01008D2B01009D2B010059
:10011000AD2B0100BD2B0100CD2B0100DD2B01001B
:1001200080B5DFF858090078002807D1DFF85009BA
:1001300002F066FA0120DFF844190870DFF844097C
:100140000078002807D1DFF8400902F059FA0120B1
:10015000DFF830190870DFF834090078002807D17B
:10016000DFF82C0902F04CFA0120DFF820190870A2
:10017000DFF820090078002807D1DFF81C0902F019
:100180003FFA0120DFF80C19087001BDF0B5AFB0DF
:1001900004000D002560206802F01DFE06002068A6
:1001A00002F020FE0700206802F009FE03003A007A
:1001B000310014F1080002F057FE14F1080114F1A7
:1001C000480002F03FF9206802F0FCFD0600C8205C
:1001D0000A900AA803F08AFACDE9020100200190F2
:1001E0004FF4C87000900E230022310014F150002B
:1001F00003F0D9FD0023002214F1500114F5B4706E
:1002000005F006F8206802F0DAFD0600206802F02A
:10021000ECFD07000120099009A805F06BF8CDE975
:1002200004014020029000200190012000904FF432
:1002300080633A00310004F6182006F0C2FA002369
:10024000002204F6182104F6583006F002FB04F6EA
:10025000583204F6182104F6586002F0D7F82068E6
:1002600002F0ADFD0600206802F0A6FD020014F5C4
:10027000F963310004F65C6002F04FF914F5F9619E
:1002800014F5676002F008F9280002F098FD0600F6
:10029000280002F08BFD04F67831019114F56761B6
:1002A000009114F550730268310014F56A6006F08D
:1002B000A0FB280002F083FD0600280002F076FD76
:1002C00014F54061019104F67861009114F585639D
:1002D0004268310004F59050A83006F08AFB2800EF
:1002E00002F06DFD0600280002F060FD04F6884172
:1002F000019114F56861009114F5A26382683100E0
:1003000004F5B050B03006F074FB280002F057FD41
:100310000600280002F04AFD14F55161019104F62F
:100320008861009114F5BF63C268310004F5D050B4
:10033000B83006F05EFB280002F041FD0600280000
:1003400002F034FD04F69851019114F569610091B1
:1003500014F5DC630269310014F5F65006F049FB30
:10036000002042F2C8210855002042F2C921085558
:100370000A20089008A803F0B9F9CDE9180118A9D6
:1003800004F50850D03007F0BCFC14F5C47007F039
:10039000A3FD002801D0012000E0002042F2E82166
:1003A000085514F5CA7007F097FD002801D0012008
:1003B00000E0002042F2E921085514F5D07007F062
:1003C0008BFD002801D0012000E0002042F2EA214C
:1003D000085514F5D67007F07FFD002801D00120E4
:1003E00000E0002042F2EB21085514F5EE7007F012
:1003F00073FD002801D0012000E0002042F2EC2132
:1004000008550120079007A804F074FFCDE91601F4
:1004100016A904F50850F03007F073FCDFF87C36BD
:10042000DFF87C2614F54E7104F50C50083007F007
:1004300063FDDFF87036002214F53A7104F50C50B4
:10044000183007F059FDDFF85C36002214F53C71D6
:1004500004F50C50283007F04FFDDFF84836002235
:1004600014F54A7104F50C50383007F045FDDFF8FB
:100470003436002214F54C7104F50C50483007F066
:100480003BFDDFF82436DFF8242614F53E7104F531
:100490000C50583007F030FDDFF80C36DFF80C2632
:1004A00014F5467104F50C50683007F025FDDFF8AF
:1004B0000036DFF8002614F5487104F50C5078304A
:1004C00007F01AFDDFF8F035DFF8E82514F5427182
:1004D00004F50C50883007F00FFDDFF8E035DFF849
:1004E000E02514F5407104F50C50983007F004FD38
:1004F000DFF8D035DFF8D02514F5447104F50C5041
:10050000A83007F0F9FCDFF8C435DFF8942514F5BE
:10051000307104F50C50B83007F0EEFCDFF8AC3564
:10052000DFF87C2514F5327104F50C50C83007F063
:10053000E3FCDFF89835DFF8682514F5347104F52D
:100540000C50D83007F0D8FCDFF88035DFF85025A4
:1005500014F5367104F50C50E83007F0CDFCDFF8E7
:100560006C35DFF83C2514F5387104F50C50F83083
:1005700007F0C2FCDFF85835DFF8242514F5727156
:1005800004F51050083007F0B7FCDFF84435DFF809
:10059000102514F5836104F51050183007F0ACFCF9
:1005A000DFF82C35DFF8F82414F5966104F51050C7
:1005B000283007F0A1FCDFF81835DFF8E42414F543
:1005C000A06104F51050383007F096FCDFF80035D4
:1005D000DFF8CC2414F5B36104F51050483007F06F
:1005E0008BFCDFF8EC34DFF8B82414F5BD6104F5BA
:1005F0001050583007F080FCDFF8D434DFF8A02426
:1006000014F5D06104F51050683007F075FCDFF880
:10061000C034DFF88C2414F5DA6104F5105078301A
:1006200007F06AFCDFF8AC34DFF8742414F5ED61F0
:1006300004F51050883007F05FFCDFF89C34DFF8D9
:10064000602414F5F76104F51050983007F054FC5D
:100650006420069006A803F049F8CDE9140114A916
:1006600004F51050A83007F0BAFB0520059005A846
:1006700004F040FECDE9120112A904F51050B83083
:1006800007F03FFB0520049004A804F033FECDE9F9
:10069000100110A904F51050D03007F032FB0220F1
:1006A00042F2E8410855002042F2EC410851002096
:1006B00042F2F0410855002042F2F1410855012074
:1006C000039003A804F016FECDE90E010EA904F56F
:1006D0001050F83007F015FB052104F514501030C8
:1006E00007F010FC4FF49670029002A802F0FEFF93
:1006F000CDE90C010CA904F51450183007F06FFB7C
:10070000206802F05CFB0500206802F061FB14F534
:100710001D61019104F63461009114F530730200FB
:10072000290004F51450283001F038FC0020009016
:1007300014F5127314F5097214F1080104F51C5034
:10074000883002F0E6FD14F5646314F5157214F1B7
:10075000080104F51C50D03001F00DFE206802F0B5
:100760003CFB0500206802F03AFB0600206802F01E
:1007700023FB03003200290004F51C50E03002F096
:1007800073FB0020009014F52A7314F5217204F510
:100790001C51E03104F52050203002F0BAFD04F67F
:1007A0004C6314F52D7204F51C51E03104F5205012
:1007B000683001F0E0FDC948D0E90023210004F5CC
:1007C0002050783007F0B2FB002042F69401085127
:1007D000002042F698010851002042F69C01085181
:1007E0000020002104F52052A032C2E900010020BF
:1007F000002104F52052A832C2E90001206807F068
:10080000A9FB010014F5206007F0A7FB206807F0A2
:10081000A1FB011D04F6082007F0ACFB206807F0DF
:1008200099FB10F1080114F5216007F096FB04F51F
:100830000850F03007F07DFA206802F0C6FAC06A6E
:100840000168C968884704F6583114F5B47007F098
:100850009EFB14F5366114F5B87007F098FB04F6AA
:10086000683114F5BC7007F092FB14F5376114F58C
:10087000C07007F08CFB07F09BFB009004F658302B
:1008800007F09CFB8DF8000014F5366007F096FB2E
:100890008DF8010004F6683007F090FB8DF8020037
:1008A00014F5376007F08AFB8DF8030000992AA839
:1008B00007F095FB206802F085FA050088491AA820
:1008C00007F0BCFB2AA922A807F0B8FB02001AA96E
:1008D00028002B68DB68984722A807F0BFFB1AA8FE
:1008E00007F0BCFB002104F6141007F0BEFB04F572
:1008F0001050A83007F086FA04F51050B83007F011
:1009000018FA04F6286114F51A6007F0C4FB14F510
:10091000F65007F0C1F904F51450103007F0D4FB7D
:10092000C0B2010004F6B81007F09FFB04F51450A4
:10093000103007F0D1FB0D2214F5FA7104F51C50AC
:10094000883002F02CFD092214F5FE7104F51C50CC
:10095000883002F024FD052214F5017104F51C50C5
:10096000883002F01CFD0023042214F5037104F505
:100970001C50883002F025FD0023032214F5067177
:1009800004F51C50883002F01CFD0123022214F5EE
:100990000C7104F51C50883002F013FD002214F590
:1009A0000F7104F51C50883002F025FD04F51C5031
:1009B000883002F02EFD0E2214F5187104F5205037
:1009C000203002F0ECFC0A2214F51A7104F52050D4
:1009D000203002F0E4FC062214F51C7104F52050CE
:1009E000203002F0DCFC0023052214F51E7104F512
:1009F0002050203002F0E5FC0123022214F524717E
:100A000004F52050203002F0DCFC002214F52771A0
:100A100004F52050203002F0EEFC04F52050203088
:100A200002F0F7FC20002FB0F0BD10B5040007F075
:100A3000E6FB04F52052A832C2E90001206802F06A
:100A4000DAF9016889688847C0B2002807D142F600
:100A500098000059401C42F69801085106E042F601
:100A600094000059401C42F6940108511D4800684A
:100A700050F040001B49086010BD0000FB960020AC
:100A8000BC960020FC960020C4960020FD96002015
:100A9000C0960020FA960020B89600200000484238
:100AA00000009041C3F5A83E0000C8410000B841D5
:100AB0000000B040000090400000D040CDCC5C4031
:100AC0009A9949406666A63FCDCC8C3F00003442DF
:100AD0000000AA420000B4420000F0425CAB0200F9
:100AE000F4A702001CD403402DE9F043A3B0060094
:100AF00016F1080002F0A1FA06F51C50883002F049
:100B00009CFC06F51C50D03001F048FC06F51C504A
:100B1000E03002F092FA06F52050203002F08DFC11
:100B200006F52050683001F039FC16F56A6006F0D1
:100B300045FA06F59050A83006F040FA06F5B05098
:100B4000B03006F03BFA06F5D050B83006F036FA71
:100B500016F5F65006F032FA306802F02AF901680C
:100B6000C96B884706F51450283001F0E7FA16F1F2
:100B7000500003F073FF06F6182005F0D3FC06F6CC
:100B8000182005F061FEC0B2002836D007F012FC34
:100B9000070007F034FB04000D00DFF85C2ED2E9FB
:100BA000000107F04DFC804689462000290007F02F
:100BB00047FC42464B4607F071FC04000D00DFF88D
:100BC0003C2ED2E9000107F03BFC02000B002000A4
:100BD000290007F039FD02000B00380007F05FFE26
:100BE00007F0E8FBDFF8181E07F0B8FEDFF8141E68
:100BF00007F097FF300000F0A0FF06F6583007F02E
:100C0000DDF9040016F5B47007F0D8F9E4B2C0B20B
:100C1000844201D0012400E0002416F5366007F07C
:100C2000CDF9050016F5B87007F0C8F9EDB2C0B2FD
:100C3000854201D0012500E0002506F6683007F066
:100C4000BDF9070016F5BC7007F0B8F9FFB2C0B2E5
:100C5000874201D0012700E0002716F5376007F032
:100C6000ADF9804616F5C07007F0A8F95FFA88F86C
:100C7000C0B2804501D0012000E0002055EA040107
:100C800039430843C0B200284FD016F5B47106F6B8
:100C9000583007F07CF916F5B87116F5366007F094
:100CA00076F916F5BC7106F6683007F070F916F59E
:100CB000C07116F5376007F06AF907F079F900900E
:100CC00016F5B47007F07AF98DF8000016F5B870D3
:100CD00007F074F98DF8010016F5BC7007F06EF995
:100CE0008DF8020016F5C07007F068F98DF8030062
:100CF00000991EA807F073F9306802F063F8040049
:100D0000DFF8041D0EA807F099F91EA916A807F030
:100D100095F902000EA920002368DB68984716A801
:100D200007F09CF90EA807F099F906F50850F03085
:100D300007F00AF8C0B200280BD0306802F045F87E
:100D4000806A0168C9688847012116F5E87007F0D4
:100D50008CF942F2C920805D002803D0012800F000
:100D60005C82A2E216F5C47007F0B6F8002801D044
:100D7000012000E0002042F2E821895DC0B28142FA
:100D800040D042F2EC20805D002809D0002042F2E1
:100D9000E8218855002116F5C47007F066F931E0A6
:100DA000012042F2C821885516F5C47007F094F866
:100DB000002801D0012000E0002042F2E8218855FF
:100DC00042F2E820805D00280ED0306801F0FDFF7F
:100DD00000680168C9688847306801F0F6FF40681C
:100DE0000168096988470DE0306801F0EEFF00688E
:100DF000016809698847306801F0E7FF40680168C9
:100E0000C968884716F5CA7007F066F8002801D04F
:100E1000012000E0002042F2E921895DC0B2814258
:100E200040D042F2EC20805D002809D0002042F240
:100E3000E9218855002116F5CA7007F016F931E04E
:100E4000012042F2C821885516F5CA7007F044F80F
:100E5000002801D0012000E0002042F2E92188555D
:100E600042F2E920805D00280ED0306801F0ADFF2D
:100E700080680168C9688847306801F0A6FFC068CB
:100E80000168096988470DE0306801F09EFF8068BD
:100E9000016809698847306801F097FFC0680168F8
:100EA000C968884716F5D07007F016F8002801D0F9
:100EB000012000E0002042F2EA21895DC0B28142B7
:100EC00040D042F2EC20805D002809D0002042F2A0
:100ED000EA218855002116F5D07007F0C6F831E0F8
:100EE000012042F2C821885516F5D07006F0F4FFB3
:100EF000002801D0012000E0002042F2EA218855BC
:100F000042F2EA20805D00280ED0306801F05DFFDB
:100F100000690168C9688847306801F056FF406978
:100F20000168096988470DE0306801F04EFF0069EB
:100F3000016809698847306801F047FF4069016826
:100F4000C968884716F5D67006F0C6FF002801D09C
:100F5000012000E0002042F2EB21895DC0B2814215
:100F600040D042F2EC20805D002809D0002042F2FF
:100F7000EB218855002116F5D67007F076F831E0A0
:100F8000012042F2C821885516F5D67006F0A4FF5C
:100F9000002801D0012000E0002042F2EB2188551A
:100FA00042F2EB20805D00280ED0306801F00DFF8A
:100FB00080690168C9688847306801F006FFC06928
:100FC0000168096988470DE0306801F0FEFE80691C
:100FD000016809698847306801F0F7FEC069016857
:100FE000C968884716F5DC7006F076FF002828D11E
:100FF000306801F0EAFE006A01680969884716F561
:10100000E27006F069FF002823D1306801F0DDFEB0
:10101000406A01680969884716F5E87006F05CFFC8
:1010200000281ED1306801F0D0FE806A016809698D
:10103000884716F5EE7006F04FFF002819D0012002
:1010400018E0306801F0C1FE006A0168C96888478D
:10105000D5E7306801F0B9FE406A0168C968884781
:10106000DAE7306801F0B1FE806A0168C968884734
:10107000DFE7002042F2EC21895DC0B2884200F037
:10108000BD8016F5EE7006F027FF002801D0012084
:1010900000E0002042F2EC21885542F2EC20805D15
:1010A000002800F0A480306801F08FFEC06A01685B
:1010B00009698847306801F088FE0068016809699D
:1010C0008847306801F081FE4068016809698847F7
:1010D000306801F07AFE80680168096988473068E5
:1010E00001F073FEC068016809698847306801F043
:1010F0006CFE0069016809698847306801F065FE87
:101100004069016809698847306801F05EFE8069BE
:10111000016809698847306801F057FEC0690168B5
:1011200009698847002042F2EB218855002116F515
:10113000D67006F09AFF002042F2E821885500217F
:1011400016F5C47006F091FF002042F2E92188559F
:10115000002116F5CA7006F088FF002042F2EA214D
:101160008855002116F5D07006F07FFF306801F039
:101170002CFE8069016809698847306801F025FE06
:10118000C069016809698847306801F01EFE00687F
:10119000016809698847306801F017FE40680168F6
:1011A00009698847306801F010FE806801680969A4
:1011B0008847306801F009FEC068016809698847FE
:1011C000306801F002FE00690168096988473068EB
:1011D00001F0FBFD4069016809698847002042F27F
:1011E000C8218855002042F2C921885506E03068A0
:1011F00001F0EBFDC06A0168C968884742F2C82067
:10120000805D002808D006F50850D03006F091FD2A
:10121000012042F2C921885547E006F50850D03038
:1012200006F092FDC0B200283FD0002042F2C82153
:101230008855306801F0C9FD006801680969884770
:10124000306801F0C2FD406801680969884730686C
:1012500001F0BBFD8068016809698847306801F0CA
:10126000B4FDC068016809698847306801F0ADFDC8
:101270000069016809698847306801F0A6FD406986
:10128000016809698847306801F09FFD806901683D
:1012900009698847306801F098FDC06901680969EB
:1012A0008847002042F2C9218855306801F08DFD41
:1012B000006B0168896888470100C9B216F5F470AF
:1012C00006F0D3FE06F51050A83006F0A1FDC0B21E
:1012D000002800F0C082002106F6F81007F024FC78
:1012E00006F65C6001F030F942F2F140805D0028C2
:1012F00026D106F6AC1006F0EFFD012831D116F527
:101300006A6006F08AFC06F59050A83006F085FC6D
:1013100006F5B050B03006F080FC06F5D050B8307D
:1013200006F07BFC16F5F65006F077FC012042F241
:10133000F141885506F51050F83006F0FAFC10E03F
:1013400006F51050F83006F0FFFCC0B2002808D0B7
:10135000002106F6AC1006F088FE002042F2F141B2
:10136000885542F2E840805D022800F0258106F5AC
:101370000C50083007F0F4FBC0B2010016F5FA601B
:1013800006F073FE06F50C50183007F0E9FBC0B20A
:10139000010006F2DC7006F068FE06F50C502830FD
:1013A00007F0DEFBC0B2010016F5FD6006F05DFE41
:1013B00006F50C50383007F0D3FBC0B2010006F23E
:1013C000F47006F052FE06F50C50483007F0C8FBEA
:1013D000C0B2010016F5006006F047FE06F50C509D
:1013E000583007F0BDFBC0B2010006F60C0006F055
:1013F0003CFE06F50C50683007F0B2FBC0B20100AD
:1014000006F6180006F031FE06F50C50783007F0AD
:10141000A7FBC0B2010006F6240006F026FE06F582
:101420000C50883007F09CFBC0B2010016F5036039
:1014300006F01BFE06F50C50983007F091FBC0B289
:10144000010006F63C0006F010FE06F50C50A83030
:1014500007F086FBC0B2010006F6480006F005FE64
:1014600006F51450283007F0A3FB002836D006F507
:101470000C50B83007F074FBC0B2010006F65400FF
:1014800006F0F3FD06F50C50C83007F069FBC0B25A
:10149000010016F5066006F0E8FD06F50C50D830A0
:1014A00007F05EFBC0B2010006F66C0006F0DDFD41
:1014B00006F50C50E83007F053FBC0B2010006F609
:1014C000780006F0D2FD06F50C50F83007F048FB26
:1014D000C0B2010006F6840006F0C7FD06F5105004
:1014E000083007F03DFBC0B2010016F5096006F0B8
:1014F000BCFD06F51050183007F032FBC0B20100F9
:1015000006F69C0006F0B1FD06F51050283007F0F5
:1015100027FBC0B2010006F6A80006F0A6FD06F5FE
:101520001050383007F01CFBC0B2010006F6B400C2
:1015300006F09BFD06F51050483007F011FBC0B2D5
:10154000010016F50C6006F090FD06F510505830BD
:1015500007F006FBC0B2010006F6CC0006F085FDE0
:1015600006F51050683007F0FBFAC0B2010006F62D
:10157000D80006F07AFD06F51050783007F0F0FA42
:10158000C0B2010006F6E40006F06FFD06F510504B
:10159000883007F0E5FAC0B2010016F50F6006F0DA
:1015A00064FD06F51050983007F0DAFAC0B2010079
:1015B00006F6FC0006F059FD42F2F040815D06F6A9
:1015C000081006F052FD16F5F96007F0F8FA0090E1
:1015D00042F2E840805D00283AD0022802D0C0F0F4
:1015E0008080CDE006F51050B83006F0ADFBC0B2FB
:1015F00000282CD0300000F017FA012042F2E84118
:101600008855012106F6141006F02FFD06F520502E
:10161000203001F0FEFE06F51C50883001F0F9FE86
:1016200016F56A6006F06AFA06F59050A83006F0E2
:1016300065FA06F5B050B03006F060FA06F5D05005
:10164000B83006F05BFA16F5F65006F057FA97E058
:1016500016F5F96007F0B3FA400106D016F51260EE
:1016600006F0ACFCC0B2742801D1012000E00020DB
:10167000C0B2002829D0012042F2E841885501215A
:1016800006F6141006F0F1FC06F52050203001F0AB
:10169000C0FE06F51C50883001F0BBFE16F56A60EE
:1016A00006F02CFA06F59050A83006F027FA06F559
:1016B000B050B03006F022FA06F5D050B83006F03F
:1016C0001DFA16F5F65006F019FA06F6141006F093
:1016D00003FC002804D0002106F6141006F0C5FC17
:1016E0004EE016F5F96007F06AFA400108D016F5E9
:1016F000126006F063FCC0B2742801D0012000E043
:101700000020C0B2002830D0002042F2E8418855C5
:10171000002106F6141006F0A8FC06F52050203033
:1017200001F081FE06F51C50883001F07CFE16F5B4
:101730006A6006F01CFA06F59050A83006F017FA19
:1017400006F5B050B03006F012FA06F5D050B830B9
:1017500006F00DFA16F5F65006F009FA00200D9085
:101760000DA916F5EF6007F039FA06F6141006F029
:10177000B3FB002804D1012106F6141006F075FC15
:1017800016F5126006F01AFCC0B2CF280AD100206C
:101790008DF830000CA916F5126007F02CFA300015
:1017A00000F042F916F51A6006F096FB040006F602
:1017B000286006F091FB84421BD016F51A6106F6EC
:1017C000286006F068FC16F51A6006F085FB002814
:1017D0000FD006F6E81007F0F2F942F2EC4188511A
:1017E000002042F2F041885506F51050D03006F046
:1017F000A0FA06F6286006F06FFB002820D006F657
:10180000E81007F0DCF942F2EC41895981420BD033
:1018100006F6E81007F0D3F942F2EC41885106F5DC
:101820001050D03006F085FA06F51050D03006F092
:101830008BFAC0B2002803D0012042F2F041885553
:1018400006F6C41006F048FB002804D106F5145033
:10185000103007F0DDF906F51450183006F0D8FA0C
:10186000C0B2002800F0AA80306801F0A2FA092175
:101870000268526B90470B900BA916F53A7007F06F
:10188000ADF9306801F095FA08210268526B904773
:101890000A900AA916F53C7007F0A0F9306801F02B
:1018A00088FA07210268526B90470100574807F0F9
:1018B000C1F9099009A916F53E7007F08FF9306853
:1018C00001F077FA06210268526B904701005048F8
:1018D00007F0B0F9089008A916F5407007F07EF9F6
:1018E000306801F066FA05210268526B90470100EA
:1018F000484807F09FF9079007A916F5427007F0CE
:101900006DF9306801F055FA04210268526B904776
:1019100007F0FCF9404A414B06F0C0FD07F020FA01
:10192000069006A916F5447007F058F9306801F0E2
:1019300040FA03210268526B90470100384807F0D3
:1019400079F9059005A916F5467007F047F9306852
:1019500001F02FFA02210268526B904701003148D2
:1019600007F068F9049004A916F5487007F036F9F5
:10197000306801F01EFA01210268526B9047039013
:1019800003A916F54A7007F029F9306801F011FA39
:1019900000210268526B9047029002A916F54C7024
:1019A00007F01CF9306801F004FA0168896B884778
:1019B000019001A916F54E7007F010F916F51F6099
:1019C00007F0FDF842F69C018959884211D016F5BE
:1019D0001F6007F0F4F842F69C01885107F0CAFA3C
:1019E000040016F51F6007F0EAF80100200007F078
:1019F0004AFA23B0BDE8F083000000207096002072
:101A0000BC970200EF840200F4A702005A6411425E
:101A1000D12217410C021541DD2406819583224015
:101A2000FAFE0342E9A60C4210B5040004F50C507E
:101A3000083007F0C9FA04F50C50183007F0C4FA62
:101A400004F50C50283007F0BFFA04F50C5038307C
:101A500007F0BAFA04F50C50483007F0B5FA04F56F
:101A60000C50583007F0B0FA04F50C50683007F00D
:101A7000ABFA04F50C50783007F0A6FA04F50C50D8
:101A8000883007F0A1FA04F50C50983007F09CFA62
:101A900004F50C50A83007F097FA04F50C50B83054
:101AA00007F092FA04F50C50C83007F08DFA04F5EF
:101AB0000C50D83007F088FA04F50C50E83007F0E5
:101AC00083FA04F50C50F83007F07EFA04F5105054
:101AD000083007F079FA04F51050183007F074FA5E
:101AE00004F51050283007F06FFA04F51050383024
:101AF00007F06AFA04F51050483007F065FA04F56B
:101B00001050583007F060FA04F51050683007F0B4
:101B10005BFA04F51050783007F056FA04F51050CF
:101B2000883007F051FA04F51050983007F04CFA5D
:101B3000002042F2F041085510BD10B5040014F524
:101B4000B47104F6583006F022FA14F5B87114F5A1
:101B5000366006F01CFA14F5BC7104F6683006F025
:101B600016FA14F5C07114F5376006F010FA14F582
:101B7000507104F6783007F02AFA14F5547114F510
:101B8000386007F035FA14F5587104F6883007F01C
:101B90002FFA14F55C7114F5396007F029FA14F581
:101BA000607104F6983007F023FA14F5627114F5A9
:101BB0003A6007F01DFA14F5647104F6A83007F0D6
:101BC00017FA14F5667114F53B6007F011FA14F575
:101BD000687104F6B83007F00BFA14F56C7114F55F
:101BE0003C6007F005FA14F56E7104F6C83007F092
:101BF000FFF914F5767114F53D6007F0F9F914F565
:101C0000787104F6D83007F0F3F914F57A7114F509
:101C10003E6007F0EDF914F57C7104F6E83007F04A
:101C2000E7F914F5806114F53F6007F0E1F914F568
:101C3000816104F6F83007F0DBF914F5856114F5DD
:101C4000406007F0C4F914F5876104F6084007F016
:101C5000CFF914F5896114F5416007F0C9F914F55D
:101C60008B6104F6184007F0C3F914F58D6114F583
:101C7000426007F0BDF914F58E6104F6284007F0C4
:101C8000B7F914F58F6114F5436007F0B1F914F555
:101C9000906104F6384007F0ABF914F5916114F542
:101CA000446007F0A5F914F5936104F6484007F085
:101CB0009FF914F5946114F5456007F099F914F54E
:101CC000986104F6584007F093F914F5996114F5FA
:101CD000466007F08DF914F59A6104F6684007F044
:101CE00087F914F59B6114F5476007F081F914F545
:101CF0009D6104F6784007F07BF914F59E6114F5B8
:101D0000486007F075F914F5A26104F6884007F001
:101D10005EF914F5A46114F5496007F069F914F54A
:101D2000A66104F6984007F063F914F5A86114F56C
:101D30004A6007F05DF914F5AA6104F6A84007F0BF
:101D400057F914F5AB6114F54B6007F051F914F530
:101D5000AC6104F6B84007F04BF914F5AD6114F529
:101D60004C6007F045F914F5AE6104F6C84007F081
:101D70003FF914F5B06114F54D6007F039F914F529
:101D8000B16104F6D84007F033F914F5B56114F5E4
:101D90004E6007F02DF914F5B66104F6E84007F03F
:101DA00027F914F5B76114F54F6007F021F914F520
:101DB000B86104F6F84007F01BF914F5BA6114F5A0
:101DC000506007F015F914F5BB6104F6085007F0F0
:101DD0000FF914F5BF6114F5516007F0F8F814F528
:101DE000C16104F6185007F003F914F5C36114F546
:101DF000526007F0FDF814F5C56104F6285007F0AD
:101E0000F7F814F5C76114F5536007F0F1F814F50D
:101E1000C86104F6385007F0EBF814F5C96114F501
:101E2000546007F0E5F814F5CA6104F6485007F06D
:101E3000DFF814F5CB6114F5556007F0D9F814F507
:101E4000CD6104F6585007F0D3F814F5CE6114F5BF
:101E5000566007F0CDF814F5D26104F6685007F02B
:101E6000C7F814F5D36114F5576007F0C1F814F5FD
:101E7000D46104F6785007F0BBF814F5D56114F579
:101E8000586007F0B5F814F5D76104F6885007F0EC
:101E9000AFF814F5D86114F5596007F0A9F814F5F6
:101EA000DC6104F6985007F092F814F5DE6114F541
:101EB0005A6007F09DF814F5E06104F6A85007F0A9
:101EC00097F814F5E26114F55B6007F091F814F5EA
:101ED000E46104F6B85007F08BF814F5E56114F5E9
:101EE0005C6007F085F814F5E66104F6C85007F069
:101EF0007FF814F5E76114F55D6007F079F814F5E3
:101F0000E86104F6D85007F073F814F5EA6114F5A7
:101F10005E6007F06DF814F5EB6104F6E85007F029
:101F200067F814F5EF6114F55F6007F061F814F5D8
:101F3000F06104F6F85007F05BF814F5F16114F560
:101F4000606007F055F814F5F26104F6086007F0D8
:101F50004FF814F5F46114F5616007F049F814F5D1
:101F6000F56104F6186007F043F814F51A6104F6F9
:101F7000286006F090F814F51D6104F6346006F050
:101F80008AF814F5157114F5646006F084F814F5F8
:101F90002D7104F64C6006F07EF810BD2DE9FE436D
:101FA00004000D0016001F00DDF82880DDF82C90DD
:101FB0004FF49670029002A801F098FBC4E900016A
:101FC000A760D4E90001CDE900013268290014F1CD
:101FD000100007F053F8002214F1100114F1600012
:101FE00007F0CAFFD4E90001CDE9000172682900B9
:101FF00014F1800007F042F8002214F1800114F17E
:10200000D00007F0B9FFD4E90001CDE90001B268C2
:10201000290014F1F00007F031F8002214F1F0016A
:1020200014F5A07007F0A8FFD4E90001CDE9000184
:10203000F268290014F5B07007F020F8002214F5BA
:10204000B07114F5D87007F097FFD4E90001CDE91D
:1020500000013269290014F5E87007F00FF800223A
:1020600014F5E87114F5087007F086FF210014F5E7
:10207000107005F0B4FEC4F85082C4F85492D4F83D
:10208000500205F029FF002801D0012000E00020C7
:1020900084F85802002084F859027069C4F85C0280
:1020A00094F85812D4F8540205F0DFFF94F858025F
:1020B000002820D0D4F85C02D4F85C120968C96802
:1020C0008847002114F16C0005F0CFFF002114F1C6
:1020D000DC0005F0CAFF002114F5A67005F0C5FF6D
:1020E000002114F5DE7005F0C0FF002114F50B701F
:1020F00005F0BBFF1FE0D4F85C02D4F85C1209685D
:1021000009698847012114F16C0005F0AEFF012137
:1021100014F1DC0005F0A9FF012114F5A67005F00B
:10212000A4FF012114F5DE7005F09FFF012114F5D5
:102130000B7005F09AFF2000BDE8FE832DE9F04109
:1021400086B0040014F1100007F0B5F814F1800017
:1021500007F0B1F814F1F00007F0ADF814F5B07025
:1021600007F0A9F814F5E87007F0A5F814F5107059
:1021700005F04EFEC0B2002800F0FA8014F16000B5
:1021800005F0AAFE050014F1D00005F0A5FE06003A
:1021900014F5A07005F0A0FE070014F5D87005F046
:1021A0009BFE804614F5087005F096FE16EA0501C0
:1021B000394018EA0101014201D0012000E000206D
:1021C00084F8590214F1780007F0F2FE050014F1CA
:1021D000100007F01EF906002DB2280007F0FCFEE3
:1021E000310006F027FD049004A9A06806F0F6FC73
:1021F00014F1E80007F0DCFE050014F1800007F0A0
:1022000008F906002DB2280007F0E6FE310006F0BE
:1022100011FD039003A9A068083006F0DFFC14F557
:10222000AC7007F0C5FE050014F1F00007F0F1F8FE
:1022300006002DB2280007F0CFFE310006F0FAFCB0
:10224000029002A9A068103006F0C8FC14F5E470F2
:1022500007F0AEFE050014F5B07007F0DAF80600DE
:102260002DB2280007F0B8FE310006F0E3FC019023
:1022700001A9A068183006F0B1FC14F50E7007F043
:1022800097FE050014F5E87007F0C3F806002DB2BC
:10229000280007F0A1FE310006F0CCFC0090694652
:1022A000A068203006F09AFCD4F8540205F014FE21
:1022B000002801D0012000E0002094F85812C0B29C
:1022C000814255D0D4F8540205F006FE002801D012
:1022D000012000E0002084F8580294F85812D4F845
:1022E000500205F0C2FE94F85802002820D0D4F81D
:1022F0005C02D4F85C120968C9688847002114F1AF
:102300006C0005F0B2FE002114F1DC0005F0ADFE1A
:10231000002114F5A67005F0A8FE002114F5DE706A
:1023200005F0A3FE002114F50B7005F09EFE1FE0E2
:10233000D4F85C02D4F85C12096809698847012165
:1023400014F16C0005F091FE012114F1DC0005F0A0
:102350008CFE012114F5A67005F087FE012114F50D
:10236000DE7005F082FE012114F50B7005F07DFE94
:1023700006B0BDE8F08110B5040021606260A36082
:102380000120207314F10C01206800F02EFEA168DA
:10239000606805F080FE200010BD704738B504006D
:1023A000207B002808D1606805F096FD0500A06834
:1023B00005F092FD854201D0012000E00020C0B26E
:1023C000002822D0206800F019FEC0B200281CD0DE
:1023D00000202073606805F07FFD0500A06805F00F
:1023E0007BFD854203D06168A06805F054FE6068FB
:1023F00005F072FD002804D10121206800F001FEE3
:1024000003E00321206800F0FCFD31BD70B504003D
:102410000D00160003E028002968896A8847280013
:102420002968C9688847C0B20028F4D0280004F0A1
:102430000BFAC0B2002802D0300007F0E7FD200000
:1024400070BD704730B58BB004000D0002E028006D
:1024500000F0F3FD280000F0D1FDC0B20028F6D056
:102460004FF4FA70029002A801F040F9CDE90001A2
:10247000694604A805F045FC05F05BFC02E0280075
:1024800000F0DBFD04A805F05FFCC0B20028F6D028
:1024900020000BB030BD704738B504000D0020009F
:1024A00008F0D2F814F1080008F0CEF814F110008A
:1024B00008F0CAF814F1180008F0C6F814F120006A
:1024C00008F0C2F8A562A06A10F5B0702060A06A9A
:1024D00010F5B6706060A06A10F5BC70A060A06ACC
:1024E00010F5C270E060A06A10F5C8702061A06AA3
:1024F00010F5CE706061A06A10F5D470A061A06A7A
:1025000010F5DA70E061A06A10F5E0702062A06A50
:1025100010F5E6706062200032BD10B50400216045
:102520006260A36000202073002020610121A06868
:1025300010F5057005F099FDA06810F5057005F01F
:10254000CBFC2061200010BD10B50400207B0028CA
:1025500002D0012823D052E0A06810F5057005F0E4
:10256000BBFC2169814219D0A06810F5057005F007
:10257000B3FC2061A06810F5057005F0ADFC0028E3
:1025800002D10120207309E0206821680968C96927
:102590008847606861680968C96988472FE02068D2
:1025A00021680968096A8847C0B2002804D12068F8
:1025B0002168096889698847606861680968096AEB
:1025C0008847C0B2002804D16068616809688969D9
:1025D0008847206821680968096A8847C0B20028CE
:1025E00007D1606861680968096A884790F001004E
:1025F00000E00020C0B2002801D00020207310BDF0
:1026000000210160704710B504006068406961688E
:1026100049690968096988476068006961680969EA
:102620000968C968884710BD80B5DFF83C070078A5
:10263000002807D1DFF83407FFF7E2FF0120DFF8B9
:1026400028170870DFF828070078002807D1DFF87E
:102650002407FFF7D5FF0120DFF814170870DFF813
:1026600018070078002807D1DFF81007FFF7C8FF28
:102670000120DFF804170870DFF80407007800284D
:1026800007D1DFF80007FFF7BBFF0120DFF8F016E6
:10269000087001BD2DE9F0438BB004005FF0FF30FE
:1026A000009003230022DFF8E016200008F001F874
:1026B0005FF0FF30009003230122DFF8CC1614F105
:1026C000100007F0F6FF5FF0FF30009003230222B6
:1026D000DFF8B41614F1200007F0EBFF5FF0FF30D5
:1026E000009003230322DFF8A01614F1300007F056
:1026F000E0FF5FF0FF30009003230422DFF888162C
:1027000014F1400007F0D5FF5FF0FF300090032385
:102710000522DFF8781614F1500007F0CAFF14F113
:102720005000029014F14000019014F1300000902C
:1027300014F1200314F11002210014F1600008F0DC
:1027400053F814F1600114F1780008F057F85FF0C5
:10275000FF30009000230722DFF8341614F18800C0
:1027600007F0A7FF5FF0FF30009003230022DFF89F
:10277000241614F1980007F09CFF1F2114F1780033
:1027800008F059F814F19803020014F1880114F1CB
:10279000A80008F055F85FF0FF30009000230122F8
:1027A000DFF8F41514F1B40007F083FF5FF0FF3099
:1027B000009003230322DFF8E41514F1C40007F0AE
:1027C00078FF5FF0FF30009003230722DFF8C81581
:1027D00014F1D40007F06DFF14F1D40314F1C40216
:1027E00014F1B40114F1E40008F02AF85FF0FF30AE
:1027F000009003230122DFF89C1514F1F00007F08C
:1028000058FF052114F1780008F015F805000C2197
:1028100014F1780008F00FF806000B2114F178008D
:1028200008F009F807000E2114F1780008F003F809
:1028300080460D2114F1780007F0FDFF14F1F0013E
:1028400002910190CDF800803B003200290014F580
:10285000807007F0F9FF5FF0FF3000900323002243
:10286000DFF8381514F58C7007F023FF5FF0FF30A8
:10287000009003230122DFF8241514F5947007F06B
:1028800018FF5FF0FF30009003230222DFF80C15E1
:1028900014F59C7007F00DFF14F59C7314F59472F9
:1028A00014F58C7114F5A47007F0D8FF14F5A47119
:1028B00014F5AA7007F0D6FF182114F1780007F07C
:1028C000BAFF0500192114F1780007F0B4FF0600E3
:1028D0001A2114F1780007F0AEFF0700172114F158
:1028E000780007F0A8FF8046052114F5AA7007F0CC
:1028F000D6FF8146042114F1780007F09CFF029076
:10290000CDF80490CDF800803B003200290014F58A
:10291000B27007F0C9FF142114F1780007F08BFFA3
:102920000500152114F1780007F085FF0600162137
:1029300014F1780007F07FFF0700132114F17800ED
:1029400007F079FF8046042114F5AA7007F0A7FF6D
:102950008146012114F1780007F06DFF0290CDF857
:102960000490CDF800803B003200290014F5BE70C1
:1029700007F09AFF1D2114F1780007F05CFF0500B5
:102980001C2114F1780007F056FF06001B2114F1FA
:10299000780007F050FF07001E2114F1780007F0BF
:1029A0004AFF8046032114F5AA7007F078FF81469C
:1029B000002114F1780007F03EFF0290CDF804905A
:1029C000CDF800803B003200290014F5CA7007F0F2
:1029D0006BFF102114F1780007F02DFF0500112185
:1029E00014F1780007F027FF0600122114F1780097
:1029F00007F021FF07000A2114F1780007F01BFF00
:102A00008046022114F5AA7007F049FF8146032190
:102A100014F1780007F00FFF0290CDF80490CDF884
:102A200000803B003200290014F5D67007F03CFF0F
:102A3000062114F1780007F0FEFE0500072114F1CD
:102A4000780007F0F8FE0600082114F1780007F07E
:102A5000F2FE0700092114F1780007F0ECFE804631
:102A6000012114F5AA7007F01AFF8146022114F122
:102A7000780007F0E0FE0290CDF80490CDF80080D9
:102A80003B003200290014F5E27007F00DFF14F549
:102A9000E270019014F5D670009014F5CA7314F525
:102AA000BE7214F5B27114F5EE7007F007FF5FF017
:102AB000FF300090032303225FF0402114F5F870EB
:102AC00007F0F7FD5FF0FF30009003230022B249CA
:102AD00014F5007007F0EDFD5FF0FF300090032368
:102AE0000422AB4914F5047007F0E3FD5FF0FF30FA
:102AF000009003230222AA4914F5087007F0D9FDBB
:102B00005FF0FF30009003230522A14914F50C70FB
:102B100007F0CFFD5FF0FF300090032306225FF047
:102B2000402114F5107007F0C4FD5FF0FF300090F5
:102B300003230722944914F5147007F0BAFD5FF0DF
:102B4000FF30009003230322954914F5187007F015
:102B5000B0FD5FF0FF300090032306228C4914F58E
:102B60001C7007F0A6FD5FF0FF30009003230722E2
:102B70005FF0402114F5207007F09BFD5FF0FF30FF
:102B8000009003230722834914F5247007F091FD78
:102B90005FF0FF30009003230522804914F5287070
:102BA00007F087FD5FF0FF300090002304227B498F
:102BB00014F52C7007F07DFD14F52C70099014F5B8
:102BC0002870089014F52470079014F52070069072
:102BD00014F51C70059014F51870049014F5147019
:102BE000039014F51070029014F50C70019014F518
:102BF0000870009014F5047314F5007214F5F87160
:102C000014F5307007F062FE6420039003A800F012
:102C10006DFDCDE90001002301224CF2FF0114F506
:102C20003E7007F097FE5F48C4F828035E480290A4
:102C30005D4801905C48009001230022D4F82813DD
:102C400014F54B7009F022FA4F4802904E4801905B
:102C50004D48009000230022D4F8281314F55F702B
:102C600009F014FA5FF07C500090D4F828030A2190
:102C700001FB00F200232C2114F573700AF036F9E1
:102C80005FF07C500090D4F828030A2101FB00F289
:102C90000023212114F579700AF028F968460AF01A
:102CA000A3FB14F57F70694606220AF0ABFB0120F6
:102CB000019014F57F7181B0684606220AF0A2FBEC
:102CC00008BC4FF49672012104F204400AF00CFC97
:102CD00005F06EF9C4F84C0441F28E30A4F85004AB
:102CE0001C230022A821C0200BF008F8C4F85204CD
:102CF00041F28E30A4F856040A20009004F25243A8
:102D000004F24C4204F2044114F58B600BF022F9FA
:102D1000D4F84C0404900A200290B4F856040190B0
:102D200004F25241684604220AF06CFBB4F85034B5
:102D3000049A14F58B6114F5AE600DF04BF85FF05A
:102D4000FF30009000230622134914F5B66007F007
:102D5000B0FC0020C4F8C00514F5247007F029FD6C
:102D600020000BB0BDE8F083FB960020BC9600204D
:102D7000FC960020C4960020FD960020C0960020FE
:102D8000FA960020B89600200070024000500240E1
:102D9000006000400060024000D00340005000404E
:102DA0000070004020A107000040024010F5EE70C6
:102DB000704710F53E70704710F54B70704710F576
:102DC0005F70704710F5AE60704710F53070704757
:102DD00010F580707047A8307047E430704710F5E8
:102DE0007970704710F57370704780B50F21783097
:102DF00007F021FD02BD10F5B660704780B5DFF821
:102E000068040078002807D1DFF86004FFF7F8FBBA
:102E10000120DFF854140870DFF85404007800280B
:102E200007D1DFF85004FFF7EBFB0120DFF8401477
:102E30000870DFF844040078002807D1DFF83C046C
:102E4000FFF7DEFB0120DFF830140870DFF83004F4
:102E50000078002807D1DFF82C04FFF7D1FB012010
:102E6000DFF81C14087001BD10B586B004002160A5
:102E70006260A360002020730020607414F11400CD
:102E80000DF034FA002084F82400002084F8250096
:102E900040F6B830019001A800F028FCCDE904010B
:102EA00004A914F1280004F02CFF200000F021FAFE
:102EB0006068616809688968884714F1280004F02F
:102EC00038FF2068006821680968096889688847B0
:102ED000C0B2002811D114F1280004F035FFC0B2AF
:102EE0000028EED005F066FADFF89C1305F036FDF9
:102EF000E64905F016FE0620207320684068216828
:102F000049680968C96888472068806821688968B5
:102F10000968C96888470A200090684600F0E6FB07
:102F2000CDE9020102A914F1280004F0FAFE14F11F
:102F3000280004F0FEFE200006B010BD10B504000D
:102F400014F114000DF0DFF9200010BD30B585B08C
:102F50000400002508E0290014F114000DF0DAF94E
:102F60000121006801706D1C14F114000DF0D6F9F8
:102F70008542F0D3207B012802D0207B042804D195
:102F8000A068A1680968C9698847002084F82400FE
:102F9000002084F82500200000F0ABF9606861682B
:102FA0000968896888472068406821684968096815
:102FB000C968884720688068216889680968C96885
:102FC00088470A20029002A800F090FBCDE900019A
:102FD000694614F1280004F0A4FE14F1280004F05E
:102FE000A8FE0020207305B030BD02B5009900296D
:102FF00003D0694614300DF096F901BD90F8240015
:10300000704781B0ADF800109DF8011041739DF834
:1030100000108173012180F82510002180F8241010
:1030200001B0704781B0C17B8DF80110007C8DF834
:103030000000BDF8000001B0704730B58BB004004F
:10304000A068A1680968896B8847207B00280CD09C
:10305000022853D02BD3042800F0838058D30628AD
:1030600000F0F480C0F0C080FBE014F1280004F010
:103070006BFEC0B2002819D020688068216889687A
:103080000968096988474FF4FA70089008A800F0A9
:103090002DFBCDE9060106A914F1280004F041FE3C
:1030A00014F1280004F045FE02202073D9E0A06846
:1030B000A168096849698847C0B200281DD1206805
:1030C0004068216849680968C9688847A068A1689C
:1030D0000968C96988470120019001A800F006FB32
:1030E000CDE9040104A914F1280004F01AFE14F13A
:1030F000280004F01EFE02202073B2E014F1280024
:1031000004F022FEC0B2002801D003202073A8E002
:10311000A068A1680968096A8847C0B2002809D177
:10312000A068A168096849698847C0B2002801D130
:10313000012000E00020C0B2002811D0200000F0E3
:10314000A9F8200000F0C7F8022314F10D0214F1D1
:103150000F01A068A5682D68ED6BA84704202073B7
:103160007FE0A068A168096849698847C0B2002863
:1031700039D120684068216849680968C96888476A
:10318000A068A1680968C9698847200000F0A8F80C
:10319000002819D1607C142821DA607C401C6074FE
:1031A0004FF4FA700090684600F0A0FACDE90201F1
:1031B00002A914F1280004F0B4FD14F1280004F071
:1031C000B8FD022020730EE0606861680968C96874
:1031D0008847012084F824000520207303E00020A4
:1031E0006074062020733CE094F8250000282CD061
:1031F000A068A1680968096A8847C0B2002809D197
:10320000A068A168096849698847C0B2002801D14F
:10321000012000E00020C0B2002816D0002084F871
:10322000250060686168096889688847200000F0A7
:1032300031F8022214F10D01A068A3681B681B6914
:10324000984700206074012020730AE005F0B2F86E
:103250000F4905F083FB0D4905F063FC2000FFF7E3
:1032600075FE0BB030BD0000FB960020BC96002020
:10327000FC960020C4960020FD960020C0960020F9
:10328000FA960020B8960020408B0200EF840200DE
:103290004492020010B504000121A068A2681268DF
:1032A000126B90470021A068A2681268926A90474A
:1032B0000021A068A2681268D26A9047A068A1683D
:1032C00009688969884720684068216849680968F1
:1032D0000969884710BD002141730221817370473D
:1032E000007CC0B2400810F0010090F00100C0B2B4
:1032F000704738B504000221002214F10D052800A2
:103300000DF02EF8022100220F3420000DF028F8D5
:1033100031BD70B5040015001E002160022020712F
:1033200014F108000DF04FF814F118000DF058F8E2
:1033300014F128000DF054F8A563E66304982064A6
:10334000002084F84400002084F84500002084F820
:103350004600002084F8470014F108000DF04DF8F5
:1033600014F118000DF058F814F128000DF054F87D
:1033700014F147012068FFF738FE200070BD10B53A
:10338000040014F128000DF056F814F118000DF0A7
:1033900052F814F108000DF055F8200010BD10B5DA
:1033A00084B00C0001948DF8082001A908300DF0BC
:1033B00050F800208DF800006946200005F01BFC45
:1033C0001FBD30B583B004000D0000958DF80420BA
:1033D000DBB2002B05D014F118000DF057F884F87B
:1033E0004400694614F118000DF055F8002128003A
:1033F00004F03BFE37BD1CB50C0000948DF8042092
:10340000694628300DF047F80021200004F02DFE19
:1034100013BD002180F846100179002902D0012156
:1034200080F845107047002180F845100179022985
:1034300002D0012180F846107047F8B50400E06B17
:1034400004F04AFD012843D094F84700002806D034
:10345000206C002803D00121206C04F006FE94F8B3
:10346000470000280DD02079002802D020790128BB
:1034700001D100202071200000F0EEF8002084F837
:1034800047002079002803D002287AD02FD39AE071
:103490002068FFF7B3FD002828D094F846000028E4
:1034A0001AD0002084F846000021A06B04F0DDFD56
:1034B00094F8441014F118000DF00AF80021006887
:1034C00004F0D3FD200000F07FF8022020710DE011
:1034D0002068FFF73BFDC2E7A06B04F0FDFC01286C
:1034E00004D1200000F070F8012020716BE020680A
:1034F000FFF784FD002843D02068FFF793FD050007
:1035000094F8441014F118000CF0E2FF060094F84F
:10351000441014F118000CF0DBFFADB2012190F95A
:10352000040011FA00F010EA0501306804F09DFD76
:10353000002618E0F6B2310014F128000CF0C8FFA4
:103540000700F6B2310014F128000CF0C1FFADB253
:10355000012190F9040011FA00F010EA0501386821
:1035600004F083FD761C14F128000CF08FFFF6B2F6
:103570008642DFD30021A06B04F077FD002020718C
:1035800021E02068FFF73AFD00281CD094F84500A0
:10359000002805D0002084F845000020207112E0AA
:1035A000A06B04F099FC01280DD10021A06B04F060
:1035B0005CFD94F8441014F118000CF089FF002110
:1035C000006804F052FDF1BDF8B5040000250026A6
:1035D00016E0F6B2310014F108000CF07DFF00682F
:1035E00004F0ECFC0700F6B2310014F108000CF016
:1035F00073FFFFB290F9040017FA00F00543761C40
:1036000014F108000CF06CFFF6B28642E1D30026FC
:1036100015E0F6B2310014F118000CF059FF006803
:1036200004F05AFC0700F6B2310014F118000CF057
:103630004FFF90F9040017FA00F00543761C14F1CF
:1036400018000CF023FFF6B28642E2D3290089B2BB
:103650002068FFF7D6FCF1BD38B504000021E06B0F
:1036600004F003FD0021A06B04F0FFFC00250DE039
:10367000EDB2290014F108000CF02EFF00218DF8A6
:1036800000106946006805F0B6FA6D1C14F10800D8
:103690000CF026FFEDB28542EAD300250AE0EDB238
:1036A000290014F118000CF013FF0021006804F049
:1036B000DCFC6D1C14F118000CF0E8FEEDB2854244
:1036C000EDD300250AE0EDB2290014F128000CF03A
:1036D000FFFE0021006804F0C8FC6D1C14F12800F6
:1036E0000CF0D4FEEDB28542EDD331BDF8B5040047
:1036F00004F0A1FB2268D3170B48D0E90045A4FBD6
:10370000020104FB031105FB0211084AD2E900453E
:103710004FF47A760027A6FB042306FB053307FB4C
:1037200004330CF0E3FEF4BD70960020000000208E
:1037300080B5DFF8AC070078002807D1DFF8A407D0
:10374000FEF75EFF0120DFF898170870DFF8980792
:103750000078002807D1DFF89407FEF751FF012019
:10376000DFF884170870DFF888070078002807D191
:10377000DFF88007FEF744FF0120DFF874170870B8
:10378000DFF874070078002807D1DFF87007FEF72C
:1037900037FF0120DFF86017087001BD9140027803
:1037A0009A4302700278114301707047D2F1080207
:1037B000C9B2D14002781A400270027811430170F8
:1037C00070472DE9F04F89B005000E000820B2FBCC
:1037D000F0F101FB102101910820B3FBF0F707FB8A
:1037E0001037D00803905FEAD3085FF0000B002485
:1037F0000198B84272D1002F0BD00198002808D050
:1038000012983818082802D3D7F1080B01E0DDF828
:1038100048B01298B0EB0B000821B0FBF1F404FBA8
:1038200011041298B0EB0B00001B5FEAD0095FF0A7
:10383000000ABBF1000F20D0002012983818082889
:1038400004D3594600200CF0EAFE06E059461298CF
:10385000D0F10800C01B0CF0E2FE0399495D014065
:1038600018F8062032EA000008F8060018F80600EA
:10387000084308F806005FF0010A002C22D021005E
:10388000D4F108000CF0CBFE039919EB010111EB08
:10389000DB01495D014019EB08021AEB020219EB4A
:1038A00008031AEB03039B5D33EA0000905519EB04
:1038B00008001AEB000019EB08021AEB0202925DF5
:1038C000114381554A46039840191AEB000118EB41
:1038D00006001AEB00000CF0ABFE18E25FF0000AE5
:1038E0000020059000208DF802005FF0000901988B
:1038F000B84235D20198B7EB0009D9F10801002090
:103900000CF08DFE8DF80200CDF814905FF0000AE7
:10391000002F0DD0019800280AD00198129908189C
:10392000092803D30198D0F1080B01E0DDF848B075
:10393000129819EB0000B0EB0B00002801D1040035
:103940002EE00821B0FBF1F202FB1102002A01D1A6
:10395000082425E00821B0FBF1F404FB11041FE06A
:10396000019887421CD20198B0EB07094946002014
:103970000CF055FE8DF80200D9F1080005905FF0BB
:10398000010A002F04D00198002801D0D7F1080BBC
:103990001298B0EB0B000821B0FBF1F404FB11040A
:1039A000002007901298082804D31298B0EB0B005F
:1039B000C008079000200490BBF1000F00F09B802E
:1039C00001200490019887424AD24946D9F1080063
:1039D0000CF025FE8DF803000198D0F108010020BD
:1039E0000CF01DFE0399495D8DF801105FF0000B8E
:1039F0009DF8011008408DF801009DF80100C0B24B
:103A000030FA09F08DF801000398401940788DF8DC
:103A100000004946D9F108000CF001FE9DF80010A5
:103A200008408DF800009DF80000D9F10801884099
:103A30008DF800009DF8010050EA0B0B9DF8000086
:103A400050EA0B0B18F806009DF80310084008F820
:103A5000060018F806005BEA000008F806004AE0D5
:103A60000198B84247D2039810F805B00398405D1A
:103A70008DF80000D7F1080148460CF0D0FD10EA9F
:103A80000B0B1BFA09FB494600200CF0C8FD9DF802
:103A9000001008408DF800009DF80000D9F10801E1
:103AA000C0B2C8408DF80000D7F1080100200CF02A
:103AB000B6FD18F8061031EA000008F8060018F8FC
:103AC00006005BEA000008F806004946D9F1080044
:103AD0000CF0A5FD18EB0601497831EA000018EB5F
:103AE0000601487018EB060040789DF80010084366
:103AF00018EB0601487000200890002C00F0D480DC
:103B0000079803990818049908180690079818EB65
:103B100000000499081802905FF0000B5FEA49006A
:103B2000D0F108000AFB0090844269D20198B842A3
:103B300023D22100D4F108000CF071FD834621004E
:103B400001200CF06CFD0699495D0140D4F108009C
:103B5000401EC9B2C14002988019407830EA0B007B
:103B6000029A92195070029880194078084302997D
:103B7000891948700120089096E00198874280F0EA
:103B80009380019812990818082829D20698445D54
:103B900012980822B0FBF2F101FB120112980822E0
:103BA000B0FBF2F303FB1203D3F10800019A801A71
:103BB0000CF035FD07001298D0F1080100200CF040
:103BC0002EFD3C40E4B234FA09F40299895D0840C4
:103BD000029988550298805D20430299885563E0D8
:103BE0004946D9F108000CF01AFD83465B46DBB26A
:103BF000059A0698415D02988019FFF7CFFD53E0C2
:103C0000019887420CD29DF80230059A06981AEB6B
:103C10000000401910F8011C02988019FFF7C6FD3A
:103C20005FEA4900D0F108000AFB0090A0423BD2B5
:103C30000198B8420FD2B4EB0901D4F108000CF09E
:103C4000EEFC83465B46DBB2059A0698415D02981E
:103C50008019FFF7A3FD0198874225D2B4F108002F
:103C600019EB0001D4F108000830B0EB09000CF0AA
:103C7000D6FC0700B4F1080019EB0001D4F10800EC
:103C80000CF0CDFC0699491949783940D9F1080260
:103C90009140029A925D32EA0000029A9055029891
:103CA000805D084302998855002411E003980019AB
:103CB0000499081818EB0401049A57189DF802306B
:103CC000059A1AEB0000415DB819FFF767FD641C07
:103CD0000798089908188442E8D3002414E0039850
:103CE000001904990AFB010018EB0401049A0AFB6D
:103CF00002179DF80230059A415D781CB0EB0A006E
:103D00008019FFF753FD641C07988442E7D309B07C
:103D1000BDE8F08F70B504000D0016000CF0B8FC83
:103D2000C0B200280ED1EDB2280006E00119497892
:103D3000025D03195A700155801CEDB2F6B271197B
:103D40008842F3D370BD70B40E18039C049D90425A
:103D500009D3984207D2B24205D2B34203D32160BD
:103D6000801A28601DE0824208D2984206D2B342EF
:103D700004D2191A2160801A286012E0904208D2F9
:103D8000B24206D29E4204D2B01A206000202860BF
:103D900007E0824205D39E4203D3981A2060002098
:103DA000286070BC70472DE9F84306000C00150030
:103DB0001F0030000CF082FCDFF8480130604FF447
:103DC0008271301D0CF07EFC00207061E800B06153
:103DD000F800F061DDF82080C6F82080DDF824903E
:103DE000C6F82490781910EB480010EB4900B06237
:103DF000F56278193063781910EB48007063781910
:103E000010EB480010EB4900B063002086F83C003E
:103E1000290016F140000CF055FC390016F1500055
:103E20000CF050FC494616F160000CF061FC414674
:103E300016F170000CF05CFC0020C6F88000002039
:103E4000C6F884000020C6F888000020C6F88C0060
:103E50000020C6F890000020C6F894000020C6F8A4
:103E600098000020C6F89C000020C6F8A000C6F804
:103E7000A440D6F8A41016F1A8000BF08FFE002085
:103E800086F81001DDE90A4522002B0016F1A80092
:103E90000BF0BCFE22002B0016F1A8000BF0BCFEBC
:103EA0003000BDE8F28310B50400DFF85800206050
:103EB00014F170000CF033FC14F160000CF02FFCD6
:103EC00014F150000CF036FC14F140000CF032FC00
:103ED000201D0CF02FFC20000CF037FC200010BD42
:103EE000FB960020BC960020FC960020C496002083
:103EF000FD960020C0960020FA960020B89600207B
:103F0000704700005C7502002DE9FC4104000D00C3
:103F100016001F00A06BB919884213D204F02AFAC8
:103F2000804699A1DFF8D40A04F03BFA009040F2F1
:103F30006F33DFF8CC2A01214046D8F800C0DCF806
:103F400008C0E0470020C4F880000020C4F88400C6
:103F50000020C4F888000020C4F88C000020C4F8B9
:103F600090000020C4F894000020C4F898000020BD
:103F7000C4F89C0014F18400019014F180000090BA
:103F8000E36A002239003000FFF7DDFE14F18C00F7
:103F9000019014F188000090236BE26A3900300030
:103FA000FFF7D1FE14F19400019014F190000090FD
:103FB000636B226B39003000FFF7C5FE14F19C00E3
:103FC000019014F198000090A36B626B39003000EF
:103FD000FFF7B9FED4F88000002828D014F1400083
:103FE0000CF0B7FBD4F88410D4F880205118884224
:103FF00011D204F0BFF9060063A1DFF8080A04F04B
:10400000D0F9009040F28233DFF8F429012130002A
:104010003668B668B04714F140000CF09CFBD4F849
:104020008020D4F88410091828000CF001FBD4F883
:104030008800002803D1D4F88C0000282AD014F17D
:1040400050000CF086FBD4F88C10D4F8882051185E
:10405000884211D204F08EF906004BA1DFF8A809BE
:1040600004F09FF900904FF46273DFF89429012166
:1040700030003668B668B04714F150000CF06BFBA6
:10408000D4F88820D4F88C100918D4F8800040198E
:104090000CF0CEFAD4F89000002803D1D4F89400A4
:1040A000002831D0D4F88000D4F888100E1814F10C
:1040B00070000CF05BFB070014F170000CF061FB6A
:1040C000D4F89410D4F890205118B0EB510F13D2BB
:1040D00004F050F980462CA1DFF8300904F061F9B2
:1040E000009040F29233DFF8182901214046D8F8B9
:1040F00000C0DCF808C0E047D4F89020D4F8940061
:10410000C11970190CF094FAD4F89800002803D162
:10411000D4F89C00002834D0D4F88000D4F888105B
:104120000818D4F890100E1814F160000CF01EFB63
:10413000070014F160000CF024FBD4F89C10D4F8B4
:1041400098205118B0EB510F13D204F013F98046A8
:104150000DA1DFF8BC0804F024F9009040F29D3373
:10416000DFF89C2801214046D8F800C0DCF808C0E0
:10417000E047D4F89820D4F89C00C11970190CF0CD
:1041800057FABDE8F3810000000000002DE9FC4172
:1041900004000D0016001F00A06BB919884213D24D
:1041A00004F0E8F8804699A1DFF8500804F0F9F827
:1041B00000904FF46C73DFF8482801214046D8F88E
:1041C00000C0DCF808C0E0470020C4F880000020F0
:1041D000C4F884000020C4F888000020C4F88C00D3
:1041E0000020C4F890000020C4F894000020C4F817
:1041F00098000020C4F89C0014F18400019014F190
:1042000080000090E36AD4F8842039003000FFF782
:104210009AFD14F18C00019014F188000090236B3A
:10422000E26A39003000FFF78EFD14F1940001902E
:1042300014F190000090636B226B39003000FFF79F
:1042400082FD14F19C00019014F198000090A36B82
:10425000626B39003000FFF776FDD4F8800000284B
:1042600028D014F140000CF074FAD4F88410D4F87B
:1042700080205118884211D204F07CF8060063A116
:10428000DFF8800704F08DF800904FF47173DFF8C9
:104290007027012130003668B668B04714F140003D
:1042A0000CF059FAD4F880202900D4F8843018187A
:1042B0000CF0BEF9D4F88800002803D1D4F88C00A3
:1042C00000282AD014F150000CF043FAD4F88C10D6
:1042D000D4F888205118884211D204F04BF8060017
:1042E0004AA1DFF8240704F05CF8009040F2CA33DA
:1042F000DFF80C27012130003668B668B04714F1AA
:1043000050000CF028FAD4F88820D4F8801049190D
:10431000D4F88C3018180CF08BF9D4F890000028E1
:1043200003D1D4F89400002831D0D4F88000D4F818
:1043300088100E1814F170000CF018FA070014F130
:1043400070000CF01EFAD4F89410D4F89020511894
:10435000B0EB510F13D204F00DF880462BA1DFF81B
:10436000AC0604F01EF8009040F2D333DFF890263C
:1043700001214046D8F800C0DCF808C0E047D4F876
:1043800090207119D4F89400C0190CF051F9D4F8A8
:104390009800002803D1D4F89C00002834D0D4F829
:1043A0008000D4F888100818D4F890100E1814F172
:1043B00060000CF0DBF9070014F160000CF0E1F98B
:1043C000D4F89C10D4F898205118B0EB510F13D2A8
:1043D00003F0D0FF80460DA1DFF8340603F0E1FFC3
:1043E000009040F2DD33DFF8182601214046D8F86E
:1043F00000C0DCF808C0E047D4F898207119D4F860
:104400009C00C0190CF014F9BDE8F3810000000015
:10441000F0B583B005000C001600082E11D303F090
:10442000A9FF070068A1DFF8EC0503F0BAFF0090D0
:1044300040F2E633DFF8C825012138003F68BF6845
:10444000B8470020C5F880000020C5F8840000208F
:10445000C5F888000020C5F88C000020C5F8900041
:104460000020C5F894000020C5F898000020C5F889
:104470009C0015F18400019015F180000090EB6A1A
:10448000D5F8842001212000FFF75DFC15F18C0098
:10449000019015F1880000902B6BEA6A0121200041
:1044A000FFF751FC15F19400019015F19000009078
:1044B0006B6B2A6B01212000FFF745FC15F19C0076
:1044C000019015F198000090AB6B6A6B0121200000
:1044D000FFF739FC0121D6F10800401E0CF09FF8CF
:1044E0000400082E6DD2D5F88000002803D1D5F83D
:1044F000840000280BD0D5F8841015F140000CF092
:1045000043F900782040C0B20CF062F9FEBDD5F846
:104510008800002803D1D5F88C0000280BD0D5F8EE
:104520008C1015F150000CF02FF900782040C0B22B
:104530000CF04EF9EAE7D5F89000002803D1D5F841
:10454000940000281AD0002095F89400C00708D4E1
:10455000D5F89400410815F170000CF041F900788D
:1045600007E0D5F89400410815F170000CF038F917
:1045700040782040C0B20CF02BF9C7E7D5F898007E
:10458000002803D1D5F89C0000281AD0002095F807
:104590009C00C00708D4D5F89C00410815F16000C4
:1045A0000CF01EF9007807E0D5F89C00410815F1E1
:1045B00060000CF015F940782040C0B20CF008F90A
:1045C000A4E70020A2E7000000000000F0B583B0DF
:1045D00004000D001600082E11D303F0CBFE0700D7
:1045E0008AA1DFF8300403F0DCFE009040F2314392
:1045F000DFF80C24012138003F68BF68B847A06A83
:10460000A84211D203F0B6FE070080A1DFF8D80B54
:1046100003F0C7FE009040F23243DFF8E4230121AB
:1046200038003F68BF68B8470020C4F88000002009
:10463000C4F884000020C4F888000020C4F88C006E
:104640000020C4F890000020C4F894000020C4F8B2
:1046500098000020C4F89C0014F18400019014F12B
:1046600080000090E36A002201212800FFF76BFB25
:1046700014F18C00019014F188000090236BE26A21
:1046800001212800FFF75FFB14F19400019014F161
:1046900090000090636B226B01212800FFF753FB11
:1046A00014F19C00019014F198000090A36B626BD0
:1046B00001212800FFF747FB0121D6F10800401E29
:1046C0000BF0ADFF0500082E80F09E80D4F880002E
:1046D000002803D1D4F88400002811D0D4F8841025
:1046E00014F140000CF050F80178A9430170D4F89F
:1046F000841014F140000CF047F801782943017050
:10470000D4F88800002803D1D4F88C00002811D0F8
:10471000D4F88C1014F150000CF036F80178A9434D
:104720000170D4F88C1014F150000CF02DF80178C1
:1047300029430170D4F89000002803D1D4F89400E4
:1047400000282CD0002694F89400C00708D4D4F890
:104750009400410814F170000CF042F8067807E06C
:10476000D4F89400410814F170000CF039F8467840
:10477000AE432E4394F89400C00708D4D4F89400B4
:10478000410814F170000CF02BF8067007E0D4F823
:104790009400410814F170000CF022F84670D4F82F
:1047A0009800002803D1D4F89C0000282CD00026C3
:1047B00094F89C00C00708D4D4F89C00410814F178
:1047C00060000CF00DF8067807E0D4F89C00410872
:1047D00014F160000CF004F84678AE432E4394F8D0
:1047E0009C00C00708D4D4F89C00410814F1600074
:1047F0000BF0F6FF067007E0D4F89C00410814F1B6
:1048000060000BF0EDFF4670F7BD000000000000F7
:10481000F0B583B004000D001600082E0FD303F08E
:10482000A9FD070074A17B4803F0BBFD009040F296
:104830008A43734A012138003F68BF68B8470020A7
:10484000C4F880000020C4F884000020C4F8880068
:104850000020C4F88C000020C4F890000020C4F8A8
:1048600094000020C4F898000020C4F89C0014F1C3
:104870008400019014F180000090E36A002201217D
:104880002800FFF760FA14F18C00019014F1880001
:104890000090236BE26A01212800FFF754FA14F11B
:1048A0009400019014F190000090636B226B012141
:1048B0002800FFF748FA14F19C00019014F19800C9
:1048C0000090A36B626B01212800FFF73CFA0121E5
:1048D000D6F10800401E0BF0A2FE0500082E80F065
:1048E0008A80D4F88000002803D1D4F884000028FE
:1048F00008D0D4F8841014F140000BF045FF017883
:10490000A9430170D4F88800002803D1D4F88C00A2
:10491000002808D0D4F88C1014F150000BF034FFAC
:104920000178A9430170D4F89000002803D1D4F88D
:10493000940000282BD0002694F89400C00708D4D7
:10494000D4F89400410814F170000BF049FF067888
:1049500007E0D4F89400410814F170000BF040FF18
:104960004678AE4394F89400C00708D4D4F8940075
:10497000410814F170000BF033FF067007E0D4F823
:104980009400410814F170000BF02AFF4670D4F82F
:104990009800002803D1D4F89C0000282BD00026D2
:1049A00094F89C00C00708D4D4F89C00410814F186
:1049B00060000BF015FF067807E0D4F89C00410872
:1049C00014F160000BF00CFF4678AE4394F89C00A5
:1049D000C00708D4D4F89C00410814F160000BF023
:1049E000FFFE067007E0D4F89C00410814F1600057
:1049F0000BF0F6FE4670F7BD000000001C800200C0
:104A0000A8750200206F0200DC7A0200907002009C
:104A10007C6F020050860200F8B504000D00201DD6
:104A20000BF099FE03218180201D0BF094FEC61D22
:104A3000201D0BF090FE10F1090730788038387097
:104A40007D70201D0BF087FE0100102000903823A0
:104A50003A783800FEF7B5FEF1BD00002DE9F84FB9
:104A60000400D4F8A400D4F8A4100968496A88475F
:104A700014F1A8000BF024F994F83C00002808D0A9
:104A8000022800F0028323D3042800F0838359D343
:104A900094E3D4F8A400D4F8A4100968896988477D
:104AA000C4F8A000D4F8A000002810D0201D0BF0FE
:104AB00052FE02000723D4F8A01014F1A8000BF056
:104AC000B1F8012084F83C002000FFF719FA75E3E3
:104AD00014F1A8000BF0CAF8C0B201280DD014F1EF
:104AE000A8000BF0C3F8C0B2022805D1002084F85A
:104AF0003C002000FFF704FA60E3201D0BF02BFEC2
:104B000006220021FFF706F9201D0BF024FE050008
:104B1000A88800280FD0201D0BF01DFEA9884B1E71
:104B2000C21DD4F8A01014F1A8000BF07BF80320EC
:104B300084F83C0002E0002084F83C002000FFF7ED
:104B4000DFF9D9E714F1A8000BF090F8C0B2012802
:104B50000DD014F1A8000BF089F8C0B2022805D1DD
:104B6000002084F83C002000FFF7CAF926E3201D4E
:104B70000BF0F1FDC01D0078012818D002280ED0DE
:104B800003281CD0042822D0052828D006282ED09F
:104B9000072834D00F2833D0102839D04BE0201DFF
:104BA0000BF0D9FD04220821FFF7B4F843E0201DE3
:104BB0000BF0D1FD04220821FFF7ACF83BE0201DEB
:104BC0000BF0C9FD04220821FFF7A4F833E0201DF3
:104BD0000BF0C1FD04220821FFF79CF82BE0201DFB
:104BE0000BF0B9FD04220821FFF794F823E0201D03
:104BF0000BF0B1FD04220821FFF78CF81BE01AE04E
:104C0000201D0BF0A8FD04220821FFF783F812E015
:104C1000201D0BF0A0FD04220821FFF77BF8201DCA
:104C20000BF099FDC51D201D0BF095FD6A790D2136
:104C3000FFF770F8FFE7201D0BF08DFD0500201D2C
:104C40000BF089FDC01DB0F80360B0F8017000786A
:104C500001286AD0022815D0032800F0B980042862
:104C600000F0F980052800F03981062800F0AC81B9
:104C7000072800F0F9810F2800F06B81102800F060
:104C8000B181F4E1B6B2002E4AD0201D0BF063FDD5
:104C900010F10708B6B2082096FBF0F101FB106195
:104CA000002906D1B6B2082096FBF0F088F8010082
:104CB00006E0B6B2082096FBF0F0401C88F8010030
:104CC00098F80100C01CA88014F140000BF041FDD1
:104CD000C000BFB2B6B2F119884213D203F04AFB4A
:104CE0008146D1A1DFF8080503F05BFB009040F29C
:104CF0009C53DFF8002501214846D9F800C0DCF8B4
:104D000008C0E04714F140000BF025FDB6B2009654
:104D10000023BFB23A0018F10201FEF752FD03E092
:104D200002212000FFF778FEA5E1B6B2002E4AD09E
:104D3000201D0BF010FD10F10708B6B2082096FBFD
:104D4000F0F101FB1061002906D1B6B2082096FBF4
:104D5000F0F088F8010006E0B6B2082096FBF0F00B
:104D6000401C88F8010098F80100C01CA88014F1CC
:104D700050000BF0EEFCC000BFB2B6B2F119884291
:104D800013D203F0F7FA8146A7A1DFF86C0403F011
:104D900008FB009040F2BB53DFF85824012148463D
:104DA000D9F800C0DCF808C0E04714F150000BF05F
:104DB000D2FCB6B200960023BFB23A0018F102014D
:104DC000FEF7FFFC03E002212000FFF725FE52E181
:104DD000B6B2002E3AD0201D0BF0BDFC10F1070832
:104DE0003000C0B2400088F8010014F170000BF0F0
:104DF000BDFC814618F1020A14F170000BF0C1FCF1
:104E0000BFB2B6B2F119884213D203F0B3FA8346A7
:104E100085A1DFF8E80303F0C4FA009040F2D7530D
:104E2000DFF8D02301215846DBF800C0DCF808C0C9
:104E3000E04798F80120BFB219EB470150460BF04C
:104E4000F7FBB6B27000C01CA88003E0022120006E
:104E5000FFF7E2FD0FE1B6B2002E3AD0201D0BF0B5
:104E60007AFC10F107083000C0B2400088F8010059
:104E700014F160000BF07AFC814618F1020A14F17B
:104E800060000BF07EFCBFB2B6B2F119884213D2BB
:104E900003F070FA834664A1DFF8640303F081FA3B
:104EA000009040F2FB53DFF84C2301215846DBF819
:104EB00000C0DCF808C0E04798F80120BFB219EB49
:104EC000470150460BF0B4FBB6B27000C01CA8807E
:104ED00003E002212000FFF79FFDCCE0201D0BF036
:104EE0003AFCC61DB6F80100082190FBF1F701213C
:104EF000B6F80100082290FBF2F303FB1203D3F192
:104F00000800401E0BF08BFB8046B6F8030001281A
:104F100014D1FFB2390014F150000BF035FC0178C8
:104F200031EA08010170FFB2390014F150000BF0B2
:104F30002BFC017858EA0101017009E0FFB2390049
:104F400014F150000BF020FC017831EA08010170E7
:104F500091E0B6B2002E32D0201D0BF0FCFBC61D36
:104F600014F150000BF0F5FBC000B6F80110B6F8D4
:104F700003205118884211D203F0FCF907002AA13E
:104F8000DFF8800203F00DFA009040F22D63DFF8A5
:104F90006422012138003F68BF68B84714F150000F
:104FA0000BF0D9FB0100B6F803000090B6F8013011
:104FB0000022B01DFEF705FC0620A88003E00221B8
:104FC0002000FFF729FD56E0201D0BF0C4FBC61D95
:104FD000B6F8011014F170000BF002FCB6F80310E3
:104FE000018048E0B6B2002E39D0201D0BF0B3FB93
:104FF000C61D14F170000BF0B9FB070016F106088E
:1050000014F170000BF0BDFBB6F8011072790223A9
:1050100092FBF3F25118884216D203F0ABF98146A5
:1050200001A1DFF8E40101E00000000003F0B9F99C
:10503000009040F24D63DFF8BC2101214846D9F8C9
:1050400000C0DCF808C0E04772794146B6F80100BC
:1050500017EB40000BF0ECFA0620A88003E00221D9
:105060002000FFF7D9FC06E00320A88003E001211F
:105070002000FFF7D1FC022084F83C002000FEF75E
:105080003FFFA888401E606170E5201D0BF063FBA8
:1050900006220021FEF73EFE201D0BF05CFBC01D2A
:1050A0000078012811D002280ED003280ED0042841
:1050B00018D0052822D0062828D007282ED00F285F
:1050C0002DD0102833D03AE039E038E0201D0BF025
:1050D00042FBC51D201D0BF03EFB6A780921FEF73F
:1050E00019FE2CE0201D0BF036FBC51D201D0BF01A
:1050F00032FB6A780921FEF70DFE20E0201D0BF03F
:105100002AFB04220821FEF705FE18E0201D0BF003
:1051100022FB04220821FEF7FDFD10E00FE0201D18
:105120000BF019FB04220821FEF7F4FD07E0201D17
:105130000BF011FB04220821FEF7ECFDFFE7201D18
:105140000BF007FB6169C91D884210D203F012F908
:10515000050026A1DFF8B40003F023F9009040F227
:10516000AB63244A012128002D68AD68A847201DA3
:105170000BF0F1FA6169CB1D0200D4F8A01014F114
:10518000A8000AF075FD042084F83C002000FEF71A
:10519000B7FE13E014F1A8000AF08FFDC0B2012899
:1051A0000ED014F1A8000AF088FDC0B2022805D183
:1051B000002084F83C002000FEF7A2FEBDE8F18F3D
:1051C000201D0BF0C8FA0500201D0BF0C2FA0022CA
:1051D000010028000BF0C4F8002084F83C002000F7
:1051E000FEF78EFEEAE70000609202000000000079
:1051F000DC650200A8750200B4690200B078020004
:105200003C77020008570200CC6102005080020087
:10521000F8B504000D0016001F0020000BF006FB7F
:1052200014F108000BF002FB14F110000BF0FEFA71
:1052300014F118000BF0FAFA00230022002114F1F7
:1052400020000BF0F8FA00230022002114F18C005A
:105250000BF03EFB00230022002114F1F8000BF0BC
:1052600082FB00230022002114F5AC700BF0BFFB81
:1052700000230022002114F5C0700BF0DAFB00239C
:105280000022002114F5EC700BF00DFC002300222D
:10529000002114F530700BF006FC002300220021E1
:1052A00014F56A700BF0FFFB00230022002114F5B7
:1052B00092600BF0F8FB00230022002114F5AF6090
:1052C0000BF0F1FB00230022002114F5CC600BF061
:1052D00034FC3200290020000BF091FD002F00D09B
:1052E00038602000F2BD80B55FF0FF3102681269BE
:1052F000904702BD38B5040002F09DFD2268D31727
:105300000748D0E90045A4FB020104FB031105FB9B
:105310000211044CD4E900230BF0E8F834BD00BFBF
:10532000709600200000002030B585B0DDE90A4508
:10533000CDE90245089C009400F0EEFF05B030BDB9
:1053400080B501F01DF802BD80B5DFF8780D00785A
:10535000002807D1DFF8700DFDF752F90120DFF8C2
:10536000641D0870DFF8640D0078002807D1DFF8AD
:10537000600DFDF745F90120DFF8501D0870DFF8DA
:10538000540D0078002807D1DFF84C0DFDF738F9EF
:105390000120DFF8401D087001BD38B504001D0074
:1053A000DFF8380D20606160A2600020E06000201E
:1053B00020610120207503206075002020620020FC
:1053C00060620020A0620020E062002020630020D4
:1053D0006063A068A1680968C9688847EDB2002DBC
:1053E00006D0022D0FD008D3042D18D011D31CE005
:1053F0000820E060802020611CE00820E0604FF47D
:105400008070206116E00820E0604FF40070206199
:1054100010E04020E0604FF4807020610AE04020FE
:10542000E0604FF40070206104E04020E0604FF441
:1054300080702061E0688008A062E0680421B0FB11
:10544000F1F202FB11022263042114F116000BF0A9
:1054500035FD042114F11A000BF030FD200032BD9F
:1054600010B5040060686168096889698847DFF8D9
:10547000701C606862681268526A90470121606817
:1054800062681268126B9047002160686268126857
:10549000926A90470021606862681268D26A9047F9
:1054A000A068A16809680969884710BD10B50400A3
:1054B000A068A1680968C968884760686168096868
:1054C000C969884710BD10B504002000FFF7C8FF68
:1054D000022114F11A000BF0F1FC0520A076022342
:1054E00014F11A0214F11601606864682468E46B10
:1054F000A04710BD10B504002000FFF7B1FF012048
:10550000A0760220E076022214F11A016068636836
:105510001B681B69984710BD10B504002000FFF7F9
:105520009FFF0620A076012214F11A0160686368CB
:105530001B681B69984710BDC07D10F0010090F0FA
:105540000100C0B270478C21C07D084201D001200B
:1055500000E00020C0B2704738B504000D00200004
:10556000FFF77EFFA57694F83400207794F8350095
:10557000E076032214F11A01606863681B681B69F6
:10558000984731BD10B5040020000BF0B9FC200095
:1055900010BD037D002B0FD100290DD003699A4265
:1055A0000AD201230375072343750162C16801FB19
:1055B00002F141630021C1627047037D002B0FD1CE
:1055C00000290DD003699A420AD2012303750B23E7
:1055D00043754162C16801FB02F141630121C1626F
:1055E0007047C068704700697047007D002802D08E
:1055F000112802D003E0012002E0022000E0002098
:10560000704738B50400606861680968896B88472D
:10561000207D012823D0C0F0C88103284FD038D383
:10562000052871D056D3072800F08D807DD3092836
:1056300000F0C580C0F0A2800B2800F00881C0F007
:10564000F1800D2800F03581C0F01B810F2800F09B
:105650009C81C0F05D81102800F0A281A5E1606806
:105660006168096849698847C0B2002807D1606845
:1056700061680968096A884790F0010000E000202D
:10568000C0B2002804D02000FFF71DFF02202075C3
:105690008BE160686168096849698847C0B2002881
:1056A0000CD12000FFF702FF2000FFF745FF002884
:1056B00002D10120207501E0607D207575E1200098
:1056C000FFF741FF002802D10020207501E00420EF
:1056D00020756AE160686168096849698847C0B2F5
:1056E000002807D1606861680968096A884790F0F6
:1056F000010000E00020C0B2002804D02000FFF725
:105700000BFF0520207550E16068616809684969F0
:105710008847C0B2002807D12000FFF7C7FE20004D
:10572000FFF7E8FE062020753FE1606861680968C0
:1057300049698847C0B2002804D12000FFF7B6FEAF
:105740000020207531E1606861680968496988470F
:10575000C0B2002807D1606861680968096A884793
:1057600090F0010000E00020C0B2002805D0032125
:105770002000FFF7F1FE0820207516E160686168DF
:10578000096849698847C0B2002817D1A06A002873
:105790000AD1226B14F11601606863681B68DB682C
:1057A00098470A20207509E0042214F11601606868
:1057B00063681B68DB68984709202075F5E060681E
:1057C0006168096849698847C0B2002829D1E06A40
:1057D000A16A884215D2E06A8000042214F1160101
:1057E000236AC518280007F00DFEE06A401CE0623D
:1057F000042214F11601606863681B68DB6898472F
:105800000FE0206B002802D11020207509E00A204B
:105810002075226B14F11601606863681B68DB68F1
:105820009847C2E060686168096849698847C0B202
:1058300000280BD1E06A8000226B14F11601236A64
:10584000C518280007F0DEFD10202075ADE0606867
:105850006168096849698847C0B2002807D1606853
:1058600061680968096A884790F0010000E000203B
:10587000C0B2002804D02000FFF74EFE0C20207597
:1058800093E060686168096849698847C0B2002888
:105890000ED12000FFF70AFE0A2000E0401EC0B231
:1058A0000028FBD102212000FFF756FE0D202075B5
:1058B0007BE060686168096849698847C0B2002870
:1058C00025D1A06A002811D1226B616A14F11A0552
:1058D000280007F097FD226B14F11A0160686368D5
:1058E0001B681B6998470F20207510E00422616A2D
:1058F00014F11A05280007F085FD042214F11A019D
:10590000606863681B681B6998470E2020754CE02F
:1059100060686168096849698847C0B2002833D166
:10592000E06AA16A884215D2E06A80000422616AB6
:10593000411814F11A05280007F064FDE06A401CC4
:10594000E062042214F11A01606863681B681B6935
:10595000984719E0206B002802D11020207513E031
:10596000E06A8000226B616A411814F11A05280070
:1059700007F048FD226B14F11A01606863681B6828
:105980001B6998470F2020750FE0606861680968FF
:1059900049698847C0B2002801D11020207504E071
:1059A0002000FFF783FD0020207531BD38B50400CD
:1059B0001500216000202071207960712068216825
:1059C000096809698847B5FBF0F0A0602068216884
:1059D000096809698847A1684843E060E068001FDA
:1059E000206120682168096849698847A168B0FB7F
:1059F000F1F040086061002020760020E061002086
:105A0000206200206062E068410014F128000AF082
:105A100059FE14F1280114F138000BF075FA00203A
:105A20002064200032BD10B5040014F128000AF0F3
:105A300081FE200010BD4069704704207047F8B512
:105A400004000D001600200000F07AF8002804D0B1
:105A50006069864201D2002D01D1012000E00020C2
:105A6000C0B200280BD002F085FC31A100914FF4A8
:105A7000B573DFF8A02D00210768BF68B847200084
:105A800000F05EF8002806D06069864203D2002D3F
:105A900001D0012000E00020C0B2002803D025641E
:105AA000266202202071F1BDF0B585B004000D0022
:105AB0001600200000F044F8002804D060698642F7
:105AC00001D2002D01D1012000E00020C0B2002849
:105AD0000BD002F04FFC16A100914FF4BC73DFF81D
