:10000000D8200120DD420300C7180100D7180100E5
:10001000E7180100F71801000719010000000000AF
:10002000000000000000000000000000171901009F
:1000300027190100000000003719010047190100CD
:10004000571901006719010077190100871901008C
:1000500097190100A7190100B7190100C71901007C
:10006000D7190100E7190100F7190100071A01006B
:10007000171A0100271A0100371A0100471A010058
:10008000571A0100671A0100771A0100871A010048
:10009000971A0100A71A0100B71A0100C71A010038
:1000A000D71A0100E71A0100F71A0100071B010027
:1000B000171B0100271B0100371B0100471B010014
:1000C000571B0100671B0100771B0100871B010004
:1000D000971B0100A71B0100B71B0100C71B0100F4
:1000E000D71B0100D51C0100E71B0100D51C010036
:1000F000F71B0100071C0100171C0100271C010051
:10010000371C0100751C0100851C0100951C0100B5
:10011000A51C0100B51C0100C51C0100D51C010077
:1001200080B5DFF85C0A0078002808D10021DFF8EC
:10013000540A02F0F6FBDFF8480A01210170DFF8EB
:10014000480A0078002808D10021DFF8400A02F0B0
:10015000E8FBDFF8340A01210170DFF8340A007887
:10016000002808D10021DFF82C0A02F0DAFBDFF8C2
:10017000200A01210170DFF8200A0078002808D148
:100180000021DFF8180A02F0CCFBDFF80C0A01218D
:10019000017001BDF0B59FB004000D00256020681E
:1001A00002F0C1FF0600206802F0C4FF07002068CB
:1001B00002F0ADFF03003A00310014F1080003F033
:1001C000A9F814F1080114F1480002F0C0FA2068FF
:1001D00002F0A0FF0600C8200D900DA803F032FD2C
:1001E000CDE90201002001904FF4C87000900E2369
:1001F0000022310014F1500004F067F800230022BF
:1002000014F1500104F2681005F0A7FA4FF4806071
:10021000C4F86C0A206802F07AFF0600206802F039
:100220008CFF070001200C900CA805F001FBCDE924
:100230000401402002900020019001200090D4F899
:100240006C3A3A00310014F5276006F0D9FE002020
:10025000C4F8D00B14F53D63002214F5276104F6B1
:10026000D43006F01FFFD4F8D00B0090D4F86C3ACD
:1002700004F6D43214F5276104F61C7002F00AFA71
:10028000206802F044FF0600206802F03DFF0200F3
:1002900014F5F963310014F5726002F0C3FA14F535
:1002A000F96104F6347002F07CFA280002F02FFFA6
:1002B0000600280002F022FF04F6F431019104F652
:1002C0003471009104F240330268310014F5766015
:1002D00006F0F1FF280002F01AFF0600280002F0E5
:1002E0000DFF04F67C41019104F63C71009114F578
:1002F00085634268310004F59850683006F0DBFFF2
:10030000280002F004FF0600280002F0F7FE04F6C1
:100310000451019104F64471009114F5A2638268BE
:10032000310004F5B850703006F0C5FF280002F027
:10033000EEFE0600280002F0E1FE04F68C51019169
:1003400004F64C71009114F5BF63C268310004F5E6
:10035000D850783006F0AFFF280002F0D8FE060033
:10036000280002F0CBFE04F61461019104F65471EA
:10037000009114F5DC630269310014F5FC5006F0BD
:100380009AFF42F288300021015542F28930002163
:1003900001550A200B900BA803F054FCCDE91C0179
:1003A0001CA904F50C50903008F090F904F2881064
:1003B00008F07AFA002801D0012000E0002042F283
:1003C000A831085504F2941008F06EFA002801D004
:1003D000012000E0002042F2A931085504F2A010EB
:1003E00008F062FA002801D0012000E0002042F26B
:1003F000AA31085504F2AC1008F056FA002801D0D2
:10040000012000E0002042F2AB31085504F2DC107C
:1004100008F04AFA002801D0012000E0002042F252
:10042000AC31085501200A900AA805F001FACDE97F
:100430001A011AA904F50C50B03008F047F9DFF89A
:100440006037DFF8602704F2383104F50C50C8300B
:1004500008F040FADFF85037002204F2E82104F5F2
:100460000C50D83008F036FADFF83C37002204F29E
:10047000F02104F50C50E83008F02CFADFF82837AA
:10048000002204F2283104F50C50F83008F022FA6A
:10049000DFF81437002204F2303104F51050083030
:1004A00008F018FADFF80437DFF8042704F2F8211F
:1004B00004F51050183008F00DFADFF8F036DFF8C8
:1004C000F02604F2183104F51050283008F002FA32
:1004D000DFF8E036DFF8E02604F2203104F51050B2
:1004E000383008F0F7F9DFF8D436DFF8CC2604F21C
:1004F000083104F51050483008F0ECF9DFF8C03648
:10050000DFF8C02604F2003104F51050583008F02E
:10051000E1F9DFF8B436DFF8B42604F2103104F55F
:100520001050683008F0D6F9DFF8A436DFF87426EA
:1005300004F2C02104F51050783008F0CBF9DFF850
:100540009036DFF8602604F2C82104F51050883098
:1005500008F0C0F9DFF87836DFF8482604F2D02139
:1005600004F51050983008F0B5F9DFF86436DFF87C
:10057000342604F2D82104F51050A83008F0AAF966
:10058000DFF84C36DFF81C2604F2E02104F51050A9
:10059000B83008F09FF9DFF83C36DFF8082604F29F
:1005A000C83104F51050C83008F094F9DFF824364B
:1005B000DFF8F02514F5836104F51050D83008F009
:1005C00089F9DFF81036DFF8DC2514F5966104F5BB
:1005D0001050E83008F07EF9DFF8F835DFF8C42570
:1005E00014F5A06104F51050F83008F073F9DFF845
:1005F000E435DFF8B02514F5B36104F51450083084
:1006000008F068F9DFF8CC35DFF8982514F5BD61FE
:1006100004F51450183008F05DF9DFF8B835DFF84C
:10062000842514F5D06104F51450283008F052F9EF
:10063000DFF8A035DFF86C2514F5DA6104F5145005
:10064000383008F047F9DFF89035DFF8582514F511
:10065000ED6104F51450483008F03CF9DFF87C35C2
:10066000DFF8402514F5F76104F51450583008F010
:1006700031F96420099009A803F0E4FACDE91801E2
:1006800018A904F51450683008F061F805200890A6
:1006900008A805F0CDF8CDE9160116A904F5145007
:1006A000783008F013F80520079007A805F0C0F887
:1006B000CDE9140114A904F51450903008F006F89F
:1006C00042F2A8500221015542F2AC5000210151E2
:1006D00042F2B0500021015542F2B15000210155C3
:1006E0000120069006A805F0A3F8CDE9120112A991
:1006F00004F51450B83007F0E9FF052104F5145053
:10070000D03008F0EDF84FF49670059005A803F08E
:1007100099FACDE9100110A904F51450D83008F069
:1007200016F842F2E8500021015540F6B830049026
:1007300004A803F087FACDE90E010EA904F51450C0
:10074000F03007F0C3FF206802F0E1FC05002068EC
:1007500002F0E6FC14F51D61019114F56B61009146
:1007600004F2C0230200290004F51850083001F0FB
:1007700041FD0020009004F2482304F2242214F1E9
:10078000080104F52050683003F038F804F6BC6323
:1007900004F2542214F1080104F52050B03001F0A5
:1007A0001CFF206802F0C1FC0500206802F0BFFCBD
:1007B0000600206802F0A8FC03003200290014F5AE
:1007C000235002F0A7FD0020009004F2A82304F2B9
:1007D000842214F5235114F5245003F00FF804F685
:1007E000C86304F2B42214F5235104F524504830B0
:1007F00001F0F3FEDFF8E803D0E90023210004F55F
:100800002450583008F088F842F674100021015145
:1008100042F678100021015142F67C10002101516E
:1008200014F5265000220023C0E9002304F52450CB
:10083000883000220023C0E90023206808F080F8F7
:10084000010004F60C2008F07EF8206808F078F823
:10085000011D04F6142008F083F8206808F070F8F1
:1008600010F1080104F61C2008F06DF8206808F06B
:1008700067F810F10A0104F6242008F064F804F582
:100880000C50B03007F03AFF206802F046FCC06A16
:100890000168C968884704F6D43104F2681008F08A
:1008A0006CF804F6DC3104F2701008F066F804F617
:1008B000E43104F2781008F060F804F6EC3104F248
:1008C000801008F05AF808F069F8009003A800A911
:1008D000042208F069F804F6D43008F0A0F88DF886
:1008E0000C0004F6DC3008F09AF88DF80D0004F6E0
:1008F000E43008F094F88DF80E0004F6EC3008F0BF
:100900008EF88DF80F0004F6D46104F62C2008F060
:1009100034F804F6DC6104F6342008F02EF804F60E
:10092000E46104F63C2008F028F804F6EC6104F6D3
:10093000442008F022F804F6F46104F64C2008F094
:100940001CF804F6FC6104F6542008F016F804F6CE
:10095000047104F65C2008F010F804F60C7104F63B
:10096000642008F00AF808F019F8009002A800A91D
:10097000042208F019F804F6D46008F050F88DF855
:10098000080004F6DC6008F04AF88DF8090004F667
:10099000E46008F044F88DF80A0004F6EC6008F012
:1009A0003EF88DF80B0007F0F9FF009001A800A9B0
:1009B000042207F0F9FF04F6F46008F030F88DF82F
:1009C000040004F6FC6008F02AF88DF8050004F62F
:1009D000047008F024F88DF8060004F60C7008F096
:1009E0001EF88DF807000020C0B20090019B029A0B
:1009F0000399206802F0C2FB002104F6141008F0ED
:100A00001FF804F51450683007F0B4FE04F51450D4
:100A1000783007F073FE04F6A46114F51A6008F04C
:100A200025F814F5FC5007F019FE04F51450D030E9
:100A300008F044F8C0B2010004F6B81008F000F85D
:100A400004F51450D03008F043F80D2204F2F411EC
:100A500004F52050683002F017FF092204F2FC115F
:100A600004F52050683002F00FFF052204F2042143
:100A700004F52050683002F007FF0023042204F23E
:100A80000C2104F52050683002F010FF00230322EF
:100A900004F2182104F52050683002F007FF01230A
:100AA000022204F2302104F52050683002F0FEFEEC
:100AB000002204F23C2104F52050683002F010FFBF
:100AC00004F52050683002F019FF0E2204F2602174
:100AD00014F5245002F0D8FE0A2204F2682114F51D
:100AE000245002F0D1FE062204F2702114F52450A5
:100AF00002F0CAFE0023052204F2782114F52450E6
:100B000002F0D4FE0123022204F2902114F52450B5
:100B100002F0CCFE002204F29C2114F5245002F0D5
:100B2000DFFE14F5245002F0E9FE20001FB0F0BDF6
:100B300010B5040008F062F804F524528832C2E9C6
:100B40000001206802F0FFFA016889688847C0B296
:100B5000002807D042F674100059401C42F6741168
:100B6000085106E042F678100059401C42F6781110
:100B700008511C48006850F040001A49086010BD38
:100B8000C080002008800020C1800020108000204C
:100B9000C28000200C800020BA800020D47F00207A
:100BA0000000484200009041C3F5A83E0000C84143
:100BB0000000B8410000B040000090400000D0406C
:100BC000CDCC5C409A9949406666A63FCDCC8C3F1F
:100BD000000034420000AA420000B4420000F0428B
:100BE000484403001CD403402DE9F0438DB00600B7
:100BF00016F1080002F082FC06F52050683002F081
:100C000091FE06F52050B03001F0FAFC16F52350A5
:100C100002F074FC16F5245002F084FE06F5245010
:100C2000483001F0EDFC16F5766006F027FE06F57B
:100C30009850683006F022FE06F5B850703006F085
:100C40001DFE06F5D850783006F018FE16F5FC505B
:100C500006F014FE306802F054FA0168C96B884748
:100C6000306802F073FA06F51850083001F092FB74
:100C700016F1500004F08BF916F5276006F034F8F1
:100C800016F5276006F0EFF9C0B2002832D008F060
:100C90009AF8070007F0B2FF04000D00254AD2E9D8
:100CA000000108F0D5F8804689462000290008F0A8
:100CB000CFF842464B4608F0F9F804000D001E4AF2
:100CC000D2E9000108F0C4F802000B00200029005E
:100CD00008F0C4F902000B00380008F0E2FA08F04E
:100CE00072F8164908F03CFB154908F02DFC30005D
:100CF00001F04FF806F51450F03007F00AFDC0B2CD
:100D0000002808D042F2E85000218155002106F663
:100D1000E81007F095FE42F2E850805D002840F0B0
:100D2000D08006F6E81007F0BFFD01280AD10120A7
:100D300009E000BFA0000020507F0020082F030022
:100D4000F10F03000020C0B2002800F0BA8042F288
:100D5000E8500121815506F51450F03007F0CEFC23
:100D600006F2681106F6D43007F007FE06F270119D
:100D700006F6DC3007F001FE06F2781106F6E430E4
:100D800007F0FBFD06F2801106F6EC3007F0F5FDEA
:100D900007F004FE009003A800A9042207F004FE57
:100DA00006F2681007F03BFE8DF80C0006F270109A
:100DB00007F035FE8DF80D0006F2781007F02FFED3
:100DC0008DF80E0006F2801007F029FE8DF80F0056
:100DD00006F62C2106F6D46007F0CFFD06F6342186
:100DE00006F6DC6007F0C9FD06F63C2106F6E46075
:100DF00007F0C3FD06F6442106F6EC6007F0BDFDE2
:100E000006F64C2106F6F46007F0B7FD06F654210D
:100E100006F6FC6007F0B1FD06F65C2106F60470EC
:100E200007F0ABFD06F6642106F60C7007F0A5FD91
:100E300007F0B4FD009002A800A9042207F0B4FD59
:100E400006F62C2007F0EBFD8DF8080006F634209E
:100E500007F0E5FD8DF8090006F63C2007F0DFFD00
:100E60008DF80A0006F6442007F0D9FD8DF80B0036
:100E700007F094FD009001A800A9042207F094FD5A
:100E800006F64C2007F0CBFD8DF8040006F6542042
:100E900007F0C5FD8DF8050006F65C2007F0BFFDE4
:100EA0008DF8060006F6642007F0B9FD8DF80700FE
:100EB0000020C0B20090019B029A0399306802F0B2
:100EC0005DF906F50C50B03007F023FCC0B20028E5
:100ED0000BD0306802F021F9806A0168C968884740
:100EE000012106F2D01007F0ABFD42F28930805D9F
:100EF000002803D0012800F08C82D2E206F288108C
:100F000007F0D2FC002801D0012000E0002042F2CE
:100F1000A831895DC0B2814201D0012000E00020EB
:100F2000C0B2002840D042F2AC30805D002809D029
:100F300042F2A83000218155002106F2881007F006
:100F40007FFD31E042F288300121815506F28810A0
:100F500007F0AAFC002801D0012000E0002042F2A6
:100F6000A831885542F2A830805D00280ED0306844
:100F700002F0D3F800680168C9688847306802F059
:100F8000CCF840680168096988470DE0306802F0D4
:100F9000C4F80068016809698847306802F0BDF844
:100FA00040680168C968884706F2941007F07CFC25
:100FB000002801D0012000E0002042F2A931895D23
:100FC000C0B2814201D0012000E00020C0B2002860
:100FD00040D042F2AC30805D002809D042F2A93006
:100FE00000218155002106F2941007F029FD31E01F
:100FF00042F288300121815506F2941007F054FC2A
:10100000002801D0012000E0002042F2A9318855DB
:1010100042F2A930805D00280ED0306802F07DF8E1
:1010200080680168C9688847306802F076F8C0684F
:101030000168096988470DE0306802F06EF8806841
:10104000016809698847306802F067F8C06801687C
:10105000C968884706F2A01007F026FC002801D0D6
:10106000012000E0002042F2AA31895DC0B2814235
:1010700001D0012000E00020C0B2002840D042F2A0
:10108000AC30805D002809D042F2AA3000218155A1
:10109000002106F2A01007F0D3FC31E042F28830C4
:1010A0000121815506F2A01007F0FEFB002801D0B7
:1010B000012000E0002042F2AA31885542F2AA3015
:1010C000805D00280ED0306802F027F800690168C2
:1010D000C9688847306802F020F8406901680969EA
:1010E00088470DE0306802F018F800690168096966
:1010F0008847306802F011F840690168C96888477C
:1011000006F2AC1007F0D0FB002801D0012000E06F
:10111000002042F2AB31895DC0B2814201D0012092
:1011200000E00020C0B2002840D042F2AC30805D28
:10113000002809D042F2AB3000218155002106F28F
:10114000AC1007F07DFC31E042F28830012181557E
:1011500006F2AC1007F0A8FB002801D0012000E047
:10116000002042F2AB31885542F2AB30805D00285E
:101170000ED0306801F0D1FF80690168C9688847E6
:10118000306801F0CAFFC0690168096988470DE04D
:10119000306801F0C2FF80690168096988473068DA
:1011A00001F0BBFFC0690168C968884706F2B81042
:1011B00007F07AFB002801D0012000E00020C0B237
:1011C000002807D0306801F0A8FF006A0168C968EC
:1011D000884706E0306801F0A0FF006A01680969ED
:1011E000884706F2C41007F05FFB002801D00120F9
:1011F00000E00020C0B2002807D0306801F08DFF69
:10120000406A0168C968884706E0306801F085FFD8
:10121000406A01680969884706F2D01007F044FB6C
:10122000002801D0012000E00020C0B2002807D033
:10123000306801F072FF806A0168C968884706E07B
:10124000306801F06AFF806A01680969884706F220
:10125000DC1007F029FB002801D0012000E000206D
:1012600042F2AC31895DC0B2884201D0012000E079
:101270000020C0B2002800F0BD8006F2DC1007F0AC
:1012800013FB002801D0012000E0002042F2AC3125
:10129000885542F2AC30805D002800F0A4803068B0
:1012A00001F03BFFC06A016809698847306801F0B6
:1012B00034FF0068016809698847306801F02DFF34
:1012C0004068016809698847306801F026FF806836
:1012D000016809698847306801F01FFFC06801682C
:1012E00009698847306801F018FF006901680969D9
:1012F0008847306801F011FF406901680969884733
:10130000306801F00AFF8069016809698847306820
:1013100001F003FFC06901680969884742F2AB30F8
:1013200000218155002106F2AC1007F089FB42F242
:10133000A83000218155002106F2881007F080FBBB
:1013400042F2A93000218155002106F2941007F0E5
:1013500077FB42F2AA3000218155002106F2A0104D
:1013600007F06EFB306801F0D8FE806901680969FA
:101370008847306801F0D1FEC06901680969884773
:10138000306801F0CAFE0068016809698847306862
:1013900001F0C3FE4068016809698847306801F0C0
:1013A000BCFE8068016809698847306801F0B5FEB5
:1013B000C068016809698847306801F0AEFE0069BD
:1013C000016809698847306801F0A7FE4069016833
:1013D0000969884742F288300021815542F28930FC
:1013E0000021815506E0306801F097FEC06A01686F
:1013F000C968884742F28830805D002808D006F529
:101400000C50903007F07AF942F289300121815571
:1014100047E006F50C50903007F07BF9C0B2002889
:101420003FD042F2883000218155306801F075FECE
:101430000068016809698847306801F06EFE4068FD
:10144000016809698847306801F067FE80680168B3
:1014500009698847306801F060FEC0680168096961
:101460008847306801F059FE0069016809698847BA
:10147000306801F052FE40690168096988473068A8
:1014800001F04BFE8069016809698847306801F006
:1014900044FEC06901680969884742F28930002129
:1014A0008155306801F039FE006B01688968884712
:1014B0000100C9B206F2E81007F0C2FA06F51450AE
:1014C000683007F05DF9C0B2002800F0FB8200210F
:1014D00006F6042008F03BF816F5726001F0B9F941
:1014E00042F2B150805D00282CD106F6AC1007F016
:1014F000DBF9012801D1012000E00020C0B2002862
:1015000031D016F5766007F06AF806F59850683025
:1015100007F065F806F5B850703007F060F806F58A
:10152000D850783007F05BF816F5FC5007F057F804
:1015300042F2B1500121815506F51450B83007F040
:10154000DDF810E006F51450B83007F0E2F8C0B24C
:10155000002808D0002106F6AC1007F071FA42F21C
:10156000B1500021815542F2A850805D022800F060
:10157000258106F50C50C83008F005F8C0B201000E
:1015800016F5FA6007F05CFA06F50C50D83007F053
:10159000FAFFC0B2010006F2DC7007F051FA06F55E
:1015A0000C50E83007F0EFFFC0B2010016F5FD6007
:1015B00007F046FA06F50C50F83007F0E4FFC0B229
:1015C000010006F2F47007F03BFA06F510500830FF
:1015D00007F0D9FFC0B2010016F5006007F030FA3D
:1015E00006F51050183007F0CEFFC0B2010006F625
:1015F0000C0007F025FA06F51050283007F0C3FF5D
:10160000C0B2010006F6180007F01AFA06F51050ED
:10161000383007F0B8FFC0B2010006F6240007F02A
:101620000FFA06F51050483007F0ADFFC0B20100C8
:1016300016F5036007F004FA06F51050583007F06D
:10164000A2FFC0B2010006F63C0007F0F9F906F56A
:101650001050683007F097FFC0B2010006F648004E
:1016600007F0EEF906F51850083007F0B4FF00282F
:1016700036D006F51050783007F085FFC0B2010073
:1016800006F6540007F0DCF906F51050883007F034
:101690007AFFC0B2010016F5066007F0D1F906F531
:1016A0001050983007F06FFFC0B2010006F66C00D2
:1016B00007F0C6F906F51050A83007F064FFC0B275
:1016C000010006F6780007F0BBF906F51050B830B7
:1016D00007F059FFC0B2010006F6840007F0B0F928
:1016E00006F51050C83007F04EFFC0B2010016F5E5
:1016F000096007F0A5F906F51050D83007F043FF50
:10170000C0B2010006F69C0007F09AF906F51050E9
:10171000E83007F038FFC0B2010006F6A80007F075
:101720008FF906F51050F83007F02DFFC0B2010018
:1017300006F6B40007F084F906F51450083007F0F7
:1017400022FFC0B2010016F50C6007F079F906F52A
:101750001450183007F017FFC0B2010006F6CC0095
:1017600007F06EF906F51450283007F00CFFC0B2F0
:10177000010006F6D80007F063F906F5145038307A
:1017800007F001FFC0B2010006F6E40007F058F9C7
:1017900006F51450483007F0F6FEC0B2010016F509
:1017A0000F6007F04DF906F51450583007F0EBFEC6
:1017B000C0B2010006F6FC0007F042F942F2B05058
:1017C000815D06F6081007F03BF916F5F96007F0A1
:1017D00009FF009042F2A850805D002839D002280D
:1017E00002D0C0F08880DEE006F51450783006F0B4
:1017F00090FFC0B200282BD0300000F041FA42F236
:10180000A85001218155012106F6141007F018F99E
:1018100016F5245002F072F806F52050683002F0F8
:101820006DF816F5766006F04BFE06F598506830B8
:1018300006F046FE06F5B850703006F041FE06F59B
:10184000D850783006F03CFE16F5FC5006F038FE15
:10185000A9E016F5F96007F0C5FE40010CD016F5B9
:10186000126007F0DCF8C0B2742801D0012000E05B
:10187000002090F0010000E00120C0B2002828D034
:1018800042F2A85001218155012106F6141007F0FB
:10189000D7F816F5245002F031F806F520506830DC
:1018A00002F02CF816F5766006F00AFE06F5985060
:1018B000683006F005FE06F5B850703006F000FE00
:1018C00006F5D850783006F0FBFD16F5FC5006F012
:1018D000F7FD06F6141006F0E7FF002801D00120FE
:1018E00000E00020C0B2002804D0002106F6141049
:1018F00007F0A6F857E016F5F96007F073FE40010F
:101900000CD016F5126007F08AF8C0B2742801D125
:10191000012000E0002090F0010000E00020C0B2B3
:1019200000282FD042F2A85000218155002106F650
:10193000141007F085F816F5245001F0E9FF06F5BC
:101940002050683001F0E4FF16F5766006F0F1FDF6
:1019500006F59850683006F0ECFD06F5B85070308A
:1019600006F0E7FD06F5D850783006F0E2FD16F5F2
:10197000FC5006F0DEFD00200C900CA916F5EF607F
:1019800007F03FFE06F6141006F08EFF002801D186
:10199000012000E00020C0B2002804D0012106F69A
:1019A000141007F04DF816F5126007F038F8C0B2C1
:1019B000CF2801D1012000E00020C0B200280AD0C9
:1019C00000208DF8000000A916F5126007F026FE31
:1019D000300000F055F916F51A6006F065FF0400B6
:1019E00006F6A46006F060FF844201D0012000E00A
:1019F0000020C0B2002821D016F51A6106F6A460B6
:101A000007F034F816F51A6006F04EFF002801D0F2
:101A1000012000E00020C0B200280FD006F6F4102C
:101A200007F0E0FD42F2AC51885142F2B050002183
:101A3000815506F51450903006F060FE06F6A4605D
:101A400006F032FF002801D0012000E00020C0B2E3
:101A5000002826D006F6F41007F0C4FD42F2AC517F
:101A60008959814201D0012000E00020C0B2002845
:101A70000BD006F6F41007F0B5FD42F2AC518851D8
:101A800006F51450903006F039FE06F514509030EB
:101A900006F03FFEC0B2002803D042F2B050012150
:101AA000815506F6C41006F0FFFE002801D1012082
:101AB00000E00020C0B2002804D006F51450D03059
:101AC00007F0BEFD06F51450D83006F059FEC0B23E
:101AD000002800F0B180306801F013FB0921026892
:101AE000526B90470B900BA906F2E82007F089FD96
:101AF000306801F006FB08210268526B90470A909B
:101B00000AA906F2F02007F07CFD306801F0F9FA2E
:101B100007210268526B90470100DFF8080C07F0BC
:101B2000A1FD099009A906F2F82007F06AFD3068C6
:101B300001F0E7FA06210268526B90470100DFF8D6
:101B4000E80B07F08FFD089008A906F2003007F0B7
:101B500058FD306801F0D5FA05210268526B9047B4
:101B60000100DFF8C80B07F07DFD079007A906F21A
:101B7000083007F046FD306801F0C3FA042102681E
:101B8000526B904707F0DAFDDFF8A42BDFF8A43B97
:101B900007F08CF907F0FCFD069006A906F210305C
:101BA00007F02FFD306801F0ACFA03210268526B98
:101BB00090470100DFF8800B07F054FD059005A960
:101BC00006F2183007F01DFD306801F09AFA022184
:101BD0000268526B90470100DFF8600B07F042FD8E
:101BE000049004A906F2203007F00BFD306801F0E4
:101BF00088FA01210268526B9047039003A906F20C
:101C0000283007F0FEFC306801F07BFA0021026802
:101C1000526B9047029002A906F2303007F0F1FCB7
:101C2000306801F06EFA0168896B8847019001A95C
:101C300006F2383007F0E5FC06F6FC1007F0D2FC9F
:101C400042F67C118959884201D0012000E0002031
:101C5000C0B2002811D006F6FC1007F0C3FC42F613
:101C60007C11885107F062FE040006F6FC1007F0B4
:101C7000B9FC0100200007F04AFE0DB0BDE8F0837A
:101C800010B5040004F50C50C83007F079FE04F5D7
:101C90000C50D83007F074FE04F50C50E83007F013
:101CA0006FFE04F50C50F83007F06AFE04F5105092
:101CB000083007F065FE04F51050183007F060FE9C
:101CC00004F51050283007F05BFE04F51050383052
:101CD00007F056FE04F51050483007F051FE04F5A9
:101CE0001050583007F04CFE04F51050683007F0E3
:101CF00047FE04F51050783007F042FE04F510500E
:101D0000883007F03DFE04F51050983007F038FE9B
:101D100004F51050A83007F033FE04F51050B83029
:101D200007F02EFE04F51050C83007F029FE04F528
:101D30001050D83007F024FE04F51050E83007F0BA
:101D40001FFE04F51050F83007F01AFE04F5145089
:101D5000083007F015FE04F51450183007F010FE97
:101D600004F51450283007F00BFE04F514503830F9
:101D700007F006FE04F51450483007F001FE04F5A4
:101D80001450583007F0FCFD42F2B05000210155CC
:101D900010BD10B5040004F2681104F6D43006F04A
:101DA000ECFD04F2701104F6DC3006F0E6FD04F2FE
:101DB000781104F6E43006F0E0FD04F2801104F638
:101DC000EC3006F0DAFD04F2403104F6F43007F0AE
:101DD000DAFD04F2503104F6FC3007F0E5FD04F2C0
:101DE000603104F6044007F0DFFD04F2703104F6C0
:101DF0000C4007F0D9FD04F2803104F6144007F0DE
:101E0000D3FD04F2883104F61C4007F0CDFD04F246
:101E1000903104F6244007F0C7FD04F2983104F62F
:101E20002C4007F0C1FD04F2A03104F6344007F065
:101E3000BBFD04F2B03104F63C4007F0B5FD04F2FE
:101E4000B83104F6444007F0AFFD04F2D83104F68F
:101E50004C4007F0A9FD04F2E03104F6544007F0CD
:101E6000A3FD04F2E83104F65C4007F09DFD04F2A6
:101E7000F03104F6644007F097FD14F5806104F634
:101E80006C4007F091FD14F5816104F6744007F091
:101E90008BFD14F5856104F67C4007F074FD14F5A4
:101EA000876104F6844007F07FFD14F5896104F62C
:101EB0008C4007F079FD14F58B6104F6944007F02F
:101EC00073FD14F58D6104F69C4007F06DFD14F56B
:101ED0008E6104F6A44007F067FD14F58F6104F6E7
:101EE000AC4007F061FD14F5906104F6B44007F0D2
:101EF0005BFD14F5916104F6BC4007F055FD14F547
:101F0000936104F6C44007F04FFD14F5946104F6A4
:101F1000CC4007F049FD14F5986104F6D44007F071
:101F200043FD14F5996104F6DC4007F03DFD14F51E
:101F30009A6104F6E44007F037FD14F59B6104F65E
:101F4000EC4007F031FD14F59D6104F6F44007F014
:101F50002BFD14F59E6104F6FC4007F025FD14F5F9
:101F6000A26104F6045007F00EFD14F5A46104F616
:101F70000C5007F019FD14F5A66104F6145007F093
:101F800013FD14F5A86104F61C5007F00DFD14F5BF
:101F9000AA6104F6245007F007FD14F5AB6104F6BE
:101FA0002C5007F001FD14F5AC6104F6345007F035
:101FB000FBFC14F5AD6104F63C5007F0F5FC14F59C
:101FC000AE6104F6445007F0EFFC14F5B06104F67E
:101FD0004C5007F0E9FC14F5B16104F6545007F0D9
:101FE000E3FC14F5B56104F65C5007F0DDFC14F574
:101FF000B66104F6645007F0D7FC14F5B76104F637
:102000006C5007F0D1FC14F5B86104F6745007F079
:10201000CBFC14F5BA6104F67C5007F0C5FC14F54E
:10202000BB6104F6845007F0BFFC14F5BF6104F6F1
:102030008C5007F0A8FC14F5C16104F6945007F029
:10204000B3FC14F5C36104F69C5007F0ADFC14F525
:10205000C56104F6A45007F0A7FC14F5C76104F6A7
:10206000AC5007F0A1FC14F5C86104F6B45007F0B9
:102070009BFC14F5C96104F6BC5007F095FC14F5FF
:10208000CA6104F6C45007F08FFC14F5CB6104F666
:10209000CC5007F089FC14F5CD6104F6D45007F05C
:1020A00083FC14F5CE6104F6DC5007F07DFC14F5DA
:1020B000D26104F6E45007F077FC14F5D36104F61E
:1020C000EC5007F071FC14F5D46104F6F45007F0FD
:1020D0006BFC14F5D56104F6FC5007F065FC14F5B3
:1020E000D76104F6046007F05FFC14F5D86104F6CC
:1020F0000C6007F059FC14F5DC6104F6146007F07D
:1021000042FC14F5DE6104F61C6007F04DFC14F58A
:10211000E06104F6246007F047FC14F5E26104F680
:102120002C6007F041FC14F5E46104F6346007F01C
:102130003BFC14F5E56104F63C6007F035FC14F552
:10214000E66104F6446007F02FFC14F5E76104F63D
:102150004C6007F029FC14F5E86104F6546007F0C0
:1021600023FC14F5EA6104F65C6007F01DFC14F52D
:10217000EB6104F6646007F017FC14F5EF6104F6F8
:102180006C6007F011FC14F5F06104F6746007F060
:102190000BFC14F5F16104F67C6007F005FC14F506
:1021A000F26104F6846007F0FFFB14F5F46104F6B5
:1021B0008C6007F0F9FB14F5F56104F6946007F004
:1021C000F3FB14F51A6104F6A46006F04FFC14F555
:1021D0001D6114F56B6006F049FC04F2542104F60D
:1021E000BC6006F043FC04F2B42104F6C86006F0BB
:1021F0003DFC10BD2DE9FE4304000D00160099467C
:10220000DDF828800B9F4FF49670029002A801F031
:1022100019FDC4E90001C4F80890D4E90001CDE932
:1022200000013268290014F1100007F007FC0022B9
:1022300014F1100114F1600008F0E0FBD4E9000192
:10224000CDE900017268290014F1800007F0F6FB67
:10225000002214F1800114F1D00008F0CFFBD4E982
:102260000001CDE90001B268290014F1F00007F087
:10227000E5FB002214F1F00104F2401008F0BEFB6F
:10228000D4E90001CDE90001F268290004F26010F0
:1022900007F0D4FB002204F2601104F2B01008F041
:1022A000ADFBD4E90001CDE900013269290004F257
:1022B000D01007F0C3FB002204F2D01104F220205A
:1022C00008F09CFB210004F2402006F040FAC4F81C
:1022D0005082C4F85472D4F8500206F0E5FA00288F
:1022E00001D0012000E0002084F85802002084F88A
:1022F00059027069C4F85C0294F85812D4F8540278
:1023000006F09EFB94F85802002820D0D4F85C0216
:10231000D4F85C120968C9688847002114F16C0080
:1023200006F08EFB002114F1DC0006F089FB002191
:1023300004F24C1006F084FB002104F2BC1006F0FD
:102340007FFB002104F22C2006F07AFB1FE0D4F87A
:102350005C02D4F85C12096809698847012114F10C
:102360006C0006F06DFB012114F1DC0006F068FB47
:10237000012104F24C1006F063FB012104F2BC10B1
:1023800006F05EFB012104F22C2006F059FB200030
:10239000BDE8FE832DE9F04186B0040014F1100081
:1023A00007F077FC14F1800007F073FC14F1F000E3
:1023B00007F06FFC04F2601007F06BFC04F2D01021
:1023C00007F067FC04F2402006F0DAF9C0B20028FA
:1023D00000F0008114F1600006F066FA050014F1C7
:1023E000D00006F061FA060004F2401006F05CFA34
:1023F000070004F2B01006F057FA804604F22020DD
:1024000006F052FA16EA0501394018EA01010142C4
:1024100001D0012000E0002084F8590214F1780076
:1024200008F008FB050014F1100007F0F0FC0600AE
:102430002DB2280008F012FB310007F013F90490C8
:1024400004A9A06807F0DDF814F1E80008F0F2FA3A
:10245000050014F1800007F0DAFC06002DB2280018
:1024600008F0FCFA310007F0FDF8039003A9A0681A
:10247000083007F0C6F804F2581008F0DBFA05003F
:1024800014F1F00007F0C3FC06002DB2280008F09C
:10249000E5FA310007F0E6F8029002A9A0681030D2
:1024A00007F0AFF804F2C81008F0C4FA050004F20F
:1024B000601007F0ACFC06002DB2280008F0CEFA40
:1024C000310007F0CFF8019001A9A068183007F09B
:1024D00098F804F2382008F0ADFA050004F2D010A4
:1024E00007F095FC06002DB2280008F0B7FA31007D
:1024F00007F0B8F8009000A9A068203007F081F834
:10250000D4F8540206F0D0F9002801D0012000E0F0
:10251000002094F85812C0B2814201D0012000E09E
:102520000020C0B2002855D0D4F8540206F0BCF9FF
:10253000002801D0012000E0002084F8580294F81F
:102540005812D4F8500206F07BFA94F8580200288A
:1025500020D0D4F85C02D4F85C120968C9688847B6
:10256000002114F16C0006F06BFA002114F1DC007C
:1025700006F066FA002104F24C1006F061FA002120
:1025800004F2BC1006F05CFA002104F22C2006F0E4
:1025900057FA1FE0D4F85C02D4F85C1209680969A4
:1025A0008847012114F16C0006F04AFA012114F168
:1025B000DC0006F045FA012104F24C1006F040FA66
:1025C000012104F2BC1006F03BFA012104F22C2098
:1025D00006F036FA06B0BDE8F08110B504002160BF
:1025E0006260A3600120207314F10C01206800F0E8
:1025F00059FFA168606806F039FA200010BD7047E5
:1026000038B50400207B00280ED1606806F04CF934
:102610000500A06806F048F9854201D1012000E0DC
:10262000002090F0010000E00120C0B2002830D06E
:10263000206800F040FF90F00100C0B2002828D1CF
:1026400000202073606806F02FF90500A06806F0EE
:102650002BF9854201D0012000E00020C0B2002803
:1026600003D06168A06806F001FA606806F01CF902
:10267000002801D0012000E00020C0B2002804D0D2
:102680000321206800F01AFF03E00121206800F018
:1026900015FF31BD2DE9F0410400884617001D00EB
:1026A000069E4046D8F80010C9688847C0B2002886
:1026B00001D1012000E00020C0B2002805D0404632
:1026C000D8F80010896A8847EBE7404604F0CBFC55
:1026D000C0B2002802D0380008F0DAF907F2403022
:1026E00006F09DF9C0B2072801D0012000E00020CB
:1026F000C0B2002802D0380008F0EAFC06F063FB04
:102700000F4906F02DFE310008F034FD0D4906F0AA
:1027100027FE290008F02EFD0B4906F015FF2000CA
:10272000BDE8F0815A641142D12217410C021541D3
:10273000DD24068195832240FAFE0342E9A60C427D
:10274000303E030040440300F10F0300704730B5F2
:102750008BB004000D00280000F0ADFEC0B20028D0
:1027600003D1280000F0CAFEF5E74FF4FA7002909A
:1027700002A801F067FACDE9000100A904A805F05C
:10278000A5FF05F0BBFF04A805F0C3FFC0B20028F9
:1027900003D1280000F0B2FEF5E720000BB030BDF9
:1027A000704738B504000D00200008F040FD14F11A
:1027B000080008F03CFD14F1100008F038FD14F199
:1027C000180008F034FD14F1200008F030FDA56277
:1027D000A06A00F260102060A06A00F26C106060D5
:1027E000A06A00F27810A060A06A00F28410E06095
:1027F000A06A00F290102061A06A00F29C10606153
:10280000A06A00F2A810A061A06A00F2B410E06112
:10281000A06A00F2C0102062A06A00F2CC106062D0
:10282000200032BD10B5040021606260A36000206A
:102830002073002020610121A06800F2142006F01E
:10284000FFF8A06800F2142006F02EF820612000A6
:1028500010BD10B50400207B002802D001282FD025
:102860005EE0A06800F2142006F01EF821698142A3
:1028700001D0012000E00020C0B200281FD0A068D5
:1028800000F2142006F010F82061A06800F2142075
:1028900006F00AF8002801D0012000E00020C0B2B4
:1028A00000280AD0206821680968C96988476068DB
:1028B00061680968C969884701E0012020732FE039
:1028C000206821680968096A8847C0B2002804D1D5
:1028D00020682168096889698847606861680968B3
:1028E000096A8847C0B2002804D160686168096835
:1028F00089698847206821680968096A8847C0B2E1
:10290000002807D1606861680968096A884790F003
:10291000010000E00020C0B2002801D00020207398
:1029200010BD0160704710B50400606840696168BF
:1029300049690968096988476068006961680969C7
:102940000968C968884710BD80B5DFF86C07007852
:10295000002808D10021DFF86407FFF7E2FFDFF865
:10296000580701210170DFF858070078002808D1C6
:102970000021DFF85007FFF7D4FFDFF844070121FB
:102980000170DFF844070078002808D10021DFF843
:102990003C07FFF7C6FFDFF8300701210170DFF8C1
:1029A00030070078002808D10021DFF82807FFF75A
:1029B000B8FFDFF81C070121017001BD2DE9F043CC
:1029C0008BB004005FF0FF30009003230022DFF89B
:1029D0000817200008F062FC5FF0FF30009003232E
:1029E0000122DFF8F41614F1100008F057FC5FF034
:1029F000FF30009003230222DFF8DC1614F12000E0
:102A000008F04CFC5FF0FF30009003230322DFF856
:102A1000C81614F1300008F041FC5FF0FF30009060
:102A200003230422DFF8B01614F1400008F036FC4E
:102A30005FF0FF30009003230522DFF8A01614F1A9
:102A4000500008F02BFC14F15000029014F14000EB
:102A5000019014F13000009014F1200314F11002E1
:102A6000210014F1600008F0BFFC14F1600114F1C2
:102A7000780008F0C5FC5FF0FF30009000230722CB
:102A8000DFF85C1614F1880008F008FC5FF0FF30F6
:102A9000009003230022DFF84C1614F1980008F090
:102AA000FDFB1F2114F1780008F0C7FC14F1980316
:102AB000020014F1880114F1A80008F0C3FC5FF0D3
:102AC000FF30009000230122DFF81C1614F1B4003F
:102AD00008F0E4FB5FF0FF30009003230322DFF8EF
:102AE0000C1614F1C40008F0D9FB5FF0FF30009021
:102AF00003230722DFF8F01514F1D40008F0CEFB11
:102B000014F1D40314F1C40214F1B40114F1E4007B
:102B100008F098FC5FF0FF30009003230122DFF8FB
:102B2000C41514F1F00008F0B9FB052114F1780088
:102B300008F083FC05000C2114F1780008F07DFCFE
:102B400006000B2114F1780008F077FC07000E2135
:102B500014F1780008F071FC80460D2114F1780022
:102B600008F06BFC14F1F00102910190CDF80080A7
:102B70003B003200290004F2001008F067FC5FF00F
:102B8000FF30009003230022DFF8601504F21810D4
:102B900008F084FB5FF0FF30009003230122DFF890
:102BA0004C1504F2281008F079FB5FF0FF3000901C
:102BB00003230222DFF8341504F2381008F06EFB0C
:102BC00004F2381304F2281204F2181104F2481027
:102BD00008F048FC04F2481104F2541008F046FCD6
:102BE000182114F1780008F028FC0500192114F1CF
:102BF000780008F022FC06001A2114F1780008F091
:102C00001CFC0700172114F1780008F016FC804620
:102C1000052104F2541008F046FC8146042114F109
:102C2000780008F00AFC0290CDF80490CDF80080FE
:102C30003B003200290004F2641008F039FC142132
:102C400014F1780008F0F9FB0500152114F1780063
:102C500008F0F3FB0600162114F1780008F0EDFBF4
:102C60000700132114F1780008F0E7FB80460421E7
:102C700004F2541008F017FC8146012114F1780089
:102C800008F0DBFB0290CDF80490CDF800803B000B
:102C90003200290004F27C1008F00AFC1D2114F116
:102CA000780008F0CAFB05001C2114F1780008F038
:102CB000C4FB06001B2114F1780008F0BEFB0700DE
:102CC0001E2114F1780008F0B8FB8046032104F2BD
:102CD000541008F0E8FB8146002114F1780008F058
:102CE000ACFB0290CDF80490CDF800803B003200A0
:102CF000290004F2941008F0DBFB102114F1780095
:102D000008F09BFB0500112114F1780008F095FBF9
:102D10000600122114F1780008F08FFB07000A2149
:102D200014F1780008F089FB8046022104F2541067
:102D300008F0B9FB8146032114F1780008F07DFB0F
:102D40000290CDF80490CDF800803B0032002900BD
:102D500004F2AC1008F0ACFB062114F1780008F086
:102D60006CFB0500072114F1780008F066FB0600F3
:102D7000082114F1780008F060FB0700092114F124
:102D8000780008F05AFB8046012104F2541008F044
:102D90008AFB8146022114F1780008F04EFB029074
:102DA000CDF80490CDF800803B003200290004F2F9
:102DB000C41008F07DFB04F2C410019004F2AC10C2
:102DC000009004F2941304F27C1204F2641104F2F1
:102DD000DC1008F079FB5FF0FF3000900323032242
:102DE0005FF0402104F2F01008F058FA5FF0FF3075
:102DF000009003230022BC4904F2002008F04EFAA0
:102E00005FF0FF30009003230422B54904F2102044
:102E100008F044FA5FF0FF30009003230222B44927
:102E200004F2202008F03AFA5FF0FF30009003230C
:102E30000522AB4904F2302008F030FA5FF0FF3091
:102E40000090032306225FF0402104F2402008F0A6
:102E500025FA5FF0FF300090032307229E4904F219
:102E6000502008F01BFA5FF0FF300090032303228C
:102E70009F4904F2602008F011FA5FF0FF300090E3
:102E800003230622964904F2702008F007FA5FF047
:102E9000FF300090032307225FF0402104F28020DE
:102EA00008F0FCF95FF0FF300090032307228D4902
:102EB00004F2902008F0F2F95FF0FF300090032355
:102EC00005228A4904F2A02008F0E8F95FF0FF30FB
:102ED000009000230422854904F2B02008F0DEF9B6
:102EE00004F2B020099004F2A020089004F290208F
:102EF000079004F28020069004F27020059004F2FE
:102F00006020049004F25020039004F240200290CC
:102F100004F23020019004F22020009004F21023EB
:102F200004F2002204F2F01104F2C02008F0D6FAF4
:102F30006420039003A800F085FECDE90001002382
:102F400001224CF2FF0104F2F82008F01FFB69484F
:102F5000C4F82803684802906748019066480090CA
:102F600001230022D4F8281304F22C3009F0C8FE03
:102F70005948029058480190574800900023002279
:102F8000D4F8281304F27C3009F0BAFE5FF07C50CC
:102F90000090D4F828030A2101FB00F200232C2121
:102FA00004F2CC300AF008FD5FF07C500090D4F8B9
:102FB00028030A2101FB00F20023212104F2E4305E
:102FC0000AF0FAFC3020029001200190A820009025
:102FD000C0230022002104A80AF076FF00A804A95B
:102FE000062205F0E1FC04F2FC3000A9062205F0FF
:102FF000DBFC0120019004F2FC3181B0684606221E
:1030000005F0D2FC08BC4FF49672012104F2044092
:103010000AF0AAFF002104F24C400BF0B5FB00219E
:1030200004F254400BF0BEFB002114F58B600BF052
:10303000D7FB0BF0F3FB019000A801A9042205F0D7
:10304000B3FC04F25C4000A9042205F0ADFC0020B2
:1030500084F860040BF0E2FB019000A801A90422AF
:1030600005F0A2FC04F2614000A9042205F09CFCDA
:103070000BF0D4FB019000A801A9042205F094FCF8
:1030800004F2654000A9042205F08EFC5FF0FF30D9
:10309000009000230622144904F26C4008F0FEF868
:1030A0000020C4F87C0404F2902008F082F920008B
:1030B0000BB0BDE8F0830000C08000200880002035
:1030C000C180002010800020C28000200C800020E1
:1030D000BA800020D47F00200070024000500240DF
:1030E000006000400060024000D0034000500040FB
:1030F0000070004020A107000040024000F2DC10F8
:10310000704700F2F820704700F22C30704700F250
:103110007C30704700F24C40704700F2C02070478E
:1031200000F200107047A8307047E430704700F29A
:10313000E430704700F2CC30704780B50F21783012
:1031400008F07BF902BD00F26C40704710B5040036
:1031500004F204400BF038F904F24C400BF064FB2D
:1031600004F254400BF068FB0BF065FC14F58B6027
:103170000CF0D0F90168496A884710BD2DE9FE417D
:10318000A3B005002C9C05F25C4023A9042205F0A5
:103190000BFC85F8604405F2614024A9042205F087
:1031A00003FC05F2654025A9042205F0FDFB002182
:1031B00015F58B600CF0D0F90BF030FB00900EA8E9
:1031C00000A9042205F0F0FBE4B2002C01D1239801
:1031D0000E900BF023FB00900FA800A9042205F02D
:1031E000E3FBDDF89080259F032612A80CF0C9F9B7
:1031F0000E981290CDF84C8014978DF8544000A88A
:103200000CF0EEF910A800A9062205F0CDFB0DF197
:10321000420224A923A80CF0F1F910A905F20440F8
:103220000BF0BCF878200CF0F9F9040012AA05F2B2
:10323000044120000BF076FB010005F254400CF035
:10324000FFF916A80CF012FAE8200CF0E7F90400D8
:1032500016A902A8302205F0B7FB019600200090C5
:103260000FAB41F28E320EA920000BF0A9FF010036
:1032700015F58B600CF070F915F58B600CF04AF9C0
:1032800001210268D269904715F58B600CF012FAA3
:10329000010005F24C400CF015FA26B0BDE8F081B3
:1032A00080B5DFF8B0040078002808D10021DFF8ED
:1032B000A804FFF736FBDFF89C0401210170DFF85A
:1032C0009C040078002808D10021DFF89404FFF75F
:1032D00028FBDFF8880401210170DFF888040078FA
:1032E000002808D10021DFF88004FFF71AFBDFF87F
:1032F000740401210170DFF874040078002808D1FB
:103300000021DFF86C04FFF70CFBDFF860040121FB
:10331000017001BD10B586B0040021606260A36039
:10332000002020730020607414F114000CF0CCF91C
:10333000002084F82400002084F8250040F6B830EE
:10334000019001A800F07EFCCDE9040104A914F16C
:10335000280005F0BBF9200000F041FA60686168C0
:1033600009688968884714F1280005F0C7F92068C2
:10337000006821680968096889688847C0B2002820
:1033800012D114F1280005F0C4F9C0B20028EED023
:1033900005F019FDDFF8DC1305F0E2FFDFF8D813C4
:1033A00006F0D2F80620207320684068216849683A
:1033B0000968C96888472068806821688968096841
:1033C000C96888470A20009000A800F03BFCCDE9BE
:1033D000020102A914F1280005F088F914F128006F
:1033E00005F08CF9200006B010BD10B5040014F1F2
:1033F00014000CF079F9200010BD30B585B0040040
:10340000002508E0290014F114000CF074F900689C
:10341000012101706D1C14F114000CF070F985424B
:1034200001D2012000E00020C0B20028EAD1207BB8
:10343000012802D0207B042804D1A068A168096873
:10344000C9698847002084F82400002084F82500FA
:10345000200000F0C4F960686168096889688847DD
:1034600020684068216849680968C96888472068F9
:103470008068216889680968C96888470A200290BD
:1034800002A800F0DFFBCDE9000100A914F128003B
:1034900005F02CF914F1280005F030F90020207314
:1034A00005B030BD02B50099002903D000A9143041
:1034B0000CF02AF901BD90F82400704781B0ADF8F6
:1034C00000109DF8011041739DF8001081730121D7
:1034D00080F82510002180F8241001B0704781B0D9
:1034E000C17B9DF801208DF80110007C9DF8001033
:1034F0008DF80000BDF8000001B0704730B58BB00A
:103500000400A068A1680968896B8847207B0028AF
:103510000CD0022859D02BD3042800F08D805ED324
:10352000062800F00881C0F0D0800FE114F12800D7
:1035300005F0EFF8C0B2002819D020688068216833
:1035400089680968096988474FF4FA70089008A8E3
:1035500000F078FBCDE9060106A914F1280005F07A
:10356000C5F814F1280005F0C9F802202073EDE039
:10357000A068A168096849698847C0B2002801D1DC
:10358000012000E00020C0B200281DD02068406863
:10359000216849680968C9688847A068A1680968FE
:1035A000C96988470120019001A800F04BFBCDE9D3
:1035B000040104A914F1280005F098F814F128007A
:1035C00005F09CF802202073C0E014F1280005F0FB
:1035D000A0F8C0B2002801D003202073B6E0A06894
:1035E000A1680968096A8847C0B200280DD1A0689F
:1035F000A168096849698847C0B2002801D0012044
:1036000000E0002090F0010000E00020C0B200289F
:1036100011D0200000F0B4F8200000F0D2F802230E
:1036200014F10D0214F10F01A068A5682D68ED6B6F
:10363000A8470420207389E0A068A1680968496947
:103640008847C0B2002801D1012000E00020C0B2AC
:10365000002839D020684068216849680968C9682D
:103660008847A068A1680968C9698847200000F0F8
:10367000ADF800280AD0606861680968C9688847A1
:10368000012084F82400052020731DE0607C1428AC
:1036900016D2607C401C60744FF4FA70009000A851
:1036A00000F0D0FACDE9020102A914F1280005F0DA
:1036B0001DF814F1280005F021F80220207303E022
:1036C000002060740620207340E094F82500002854
:1036D00030D0A068A1680968096A8847C0B200288C
:1036E0000DD1A068A168096849698847C0B200285F
:1036F00001D0012000E0002090F0010000E0002057
:10370000C0B2002816D0002084F8250060686168E7
:10371000096889688847200000F032F8022214F115
:103720000D01A068A3681B681B699847002060749E
:10373000012020730AE005F046FB104905F010FE59
:103740000D4905F001FF2000FFF757FE0BB030BD1B
:1037500000000000C080002008800020C180002000
:1037600010800020C28000200C800020BA80002041
:10377000D47F0020581C0300F10F0300B82703007A
:1037800010B504000121A068A2681268126B90476E
:103790000021A068A2681268926A90470021A06880
:1037A000A2681268D26A9047A068A168096889690E
:1037B000884720684068216849680968096988471E
:1037C00010BD00214173022181737047007C10F00D
:1037D0000200C0B2400890F00100C0B2704710B5BE
:1037E00004000222002114F10D000BF0B0FF0222B0
:1037F000002114F10F000BF0AAFF10BDF8B5040072
:1038000015001E00069F21600220207114F108009F
:103810000BF0A7FF14F118000BF0B3FF14F1280010
:103820000BF0AFFFA563E6632764002084F8440033
:10383000002084F84500002084F84600002084F829
:10384000470014F108000BF0ACFF14F118000BF066
:10385000B7FF14F128000BF0B3FF14F14701206803
:10386000FFF720FE2000F2BD10B5040014F128007F
:103870000BF0B5FF14F118000BF0B1FF14F10800C4
:103880000BF0B4FF200010BD10B584B00C00019403
:103890008DF8082001A908300BF0AFFF00208DF84B
:1038A000000000A9200005F0B9FE1FBD30B583B0AF
:1038B00004000D0000958DF80420DBB2002B05D02C
:1038C00014F118000BF0BCFF84F8440000A914F1B7
:1038D00018000BF0BAFF0021280005F0B1F837BD41
:1038E0001CB50C0000948DF8042000A928300BF0C2
:1038F000ACFF0021200005F0A3F813BD002180F8E3
:1039000046100179002902D0012180F84510704746
:10391000002180F845100179022902D0012180F8A8
:1039200046107047F8B50400E06B04F0BDFF0128B5
:1039300001D1012000E00020C0B2002803D020689F
:10394000FFF75BFD0AE094F84700002806D0206CE2
:10395000002803D00121206C05F072F894F847008C
:1039600000280DD02079002802D02079012801D12B
:1039700000202071200000F009F9002084F84700A1
:103980002079002804D0022800F0838031D3A8E0F9
:103990002068FFF790FD00282AD094F84600002800
:1039A00016D0002084F846000021A06B05F048F8EE
:1039B00094F8441014F118000BF06AFF002100681D
:1039C00005F03EF8200000F08DF8022020710FE095
:1039D000A06B04F069FF012801D1012000E0002064
:1039E000C0B2002804D0200000F07CF80120207133
:1039F00077E02068FFF75FFD002849D02068FFF7D7
:103A00006EFD050094F8441014F118000BF040FF0F
:103A1000060094F8441014F118000BF039FFADB211
:103A2000012190F9040011FA00F010EA0501306854
:103A300005F006F8002618E0F6B2310014F128006F
:103A40000BF026FF0700F6B2310014F128000BF04E
:103A50001FFFADB2012190F9040011FA00F010EA45
:103A60000501386804F0ECFF761C14F128000BF017
:103A7000E7FEF6B2864201D2012000E00020C0B28B
:103A80000028D9D10021A06B04F0DAFF00202071BA
:103A900027E02068FFF70FFD002822D094F84500AA
:103AA000002805D0002084F845000020207118E08F
:103AB000A06B04F0F9FE012801D1012000E00020F4
:103AC000C0B200280DD00021A06B04F0B9FF94F81B
:103AD000441014F118000BF0DBFE0021006804F024
:103AE000AFFFF1BDF8B504000025002616E0F6B2E0
:103AF000310014F108000BF0CFFE006804F08FFFD6
:103B00000700FFB2F6B2310014F108000BF0C4FE5A
:103B100090F9040017FA00F00543761C14F1080030
:103B20000BF0BEFEF6B2864201D2012000E000207A
:103B3000C0B20028DBD1002615E0F6B2310014F146
:103B400018000BF0A5FE006804F0AEFE0700F6B208
:103B5000310014F118000BF09BFE90F9040017FAE5
:103B600000F00543761C14F118000BF069FEF6B264
:103B7000864201D2012000E00020C0B20028DCD142
:103B8000290089B22068FFF799FCF1BD38B504001F
:103B90000021E06B04F054FF0021A06B04F050FF03
:103BA00000250DE0EDB2290014F108000BF074FEC1
:103BB00000218DF8001000A9006805F02FFD6D1C94
:103BC00014F108000BF06CFEEDB2854201D2012029
:103BD00000E00020C0B20028E4D100250AE0EDB2E8
:103BE000290014F118000BF053FE0021006804F0C6
:103BF00027FF6D1C14F118000BF022FEEDB2854278
:103C000001D2012000E00020C0B20028E7D1002549
:103C10000AE0EDB2290014F128000BF039FE002172
:103C2000006804F00DFF6D1C14F128000BF008FE75
:103C3000EDB2854201D2012000E00020C0B2002890
:103C4000E7D131BDF8B5040004F0DAFD2268D317DE
:103C50000B48D0E90045A4FB020104FB031105FB5E
:103C60000211084AD2E900454FF47A760027A6FBF4
:103C7000042306FB053307FB04330BF017FEF4BDEA
:103C8000507F0020A000002080B5DFF88807007872
:103C9000002808D10021DFF88007FEF742FEDFF898
:103CA000740701210170DFF874070078002808D13B
:103CB0000021DFF86C07FEF734FEDFF86007012112
:103CC0000170DFF860070078002808D10021DFF8D4
:103CD0005807FEF726FEDFF84C0701210170DFF8D8
:103CE0004C070078002808D10021DFF84407FEF7D0
:103CF00018FEDFF838070121017001BD91400278FC
:103D00009A4302700278114301707047D2F10802A1
:103D1000D14002781A400270027811430170704756
:103D20002DE9F14F88B00D000820B2FBF0F101FB46
:103D3000102100910820B3FBF0F606FB1036D008E6
:103D40000190DF085FF0000900240098B04270D1B4
:103D5000002E0BD00098002808D0129830180828A0
:103D600002D3D6F1080901E0DDF848901298B0EBD3
:103D700009000821B0FBF1F404FB11041298B0EB28
:103D80000900001B5FEAD0085FF0000AB9F1000FDC
:103D90001DD0002012997118082904D3494600202B
:103DA0000BF01DFE06E049461298D0F10800801B7A
:103DB0000BF015FE0199089A895C01407A5D32EAA0
:103DC00000007855785D084378555FF0010A002CB3
:103DD00023D02100D4F108000BF001FE019918EB6B
:103DE000010111EBD901089A895C014018EB070227
:103DF0001AEB020218EB07031AEB03035B5D33EACD
:103E00000000505518EB07001AEB000018EB0702F2
:103E10001AEB0202525D114341554246019808993E
:103E200040181AEB000178191AEB00000BF0E0FDC6
:103E3000F9E1002002900020059000208DF80C0090
:103E40005FF000080098B04235D20098B6EB000849
:103E5000D8F1080100200BF0C2FD8DF80C00CDF860
:103E6000148000200290002E0DD0009800280AD067
:103E7000009812990818092803D30098D0F108096E
:103E800001E0DDF84890129818EB0000B0EB090053
:103E9000002801D104002EE00821B0FBF1F202FB62
:103EA0001102002A01D1082425E00821B0FBF1F419
:103EB00004FB11041FE0009886421CD20098B0EB6E
:103EC0000608414600200BF08AFD8DF80C00D8F161
:103ED0000800059001200290002E04D000980028D0
:103EE00001D0D6F108091298B0EB09000821B0FB07
:103EF000F1F404FB1104002006901298082804D362
:103F00001298B0EB0900C008069000200490B9F1A7
:103F1000000F75D0012004900098864234D24146AB
:103F2000D8F108000BF05BFD8DF80D000098D0F182
:103F3000080100200BF053FD0199089A11F802A026
:103F40005FF0000910EA0A0A3AFA08FA019808999B
:103F5000401890F801B04146D8F108000BF03FFD41
:103F600010EA0B0BD8F108001BFA00FB5AEA09090A
:103F70005BEA0909785D9DF80D1008407855785D79
:103F800059EA000078553BE00098B04238D20198D9
:103F9000089910F801A00198089910F80190D6F13D
:103FA000080140460BF01BFD10EA0A0A1AFA08FA4B
:103FB000414600200BF013FD10EA0909D8F1080072
:103FC00039FA00F9D6F1080100200BF008FD795DFF
:103FD00031EA00007855785D5AEA0000785541468C
:103FE000D8F108000BF0FBFC7919497831EA0000A0
:103FF000791948707819407859EA000079194870A1
:1040000000200790002C00F0D9800698019908182C
:10401000049911EB000906983818049911EB000A6D
:104020005FF0000B5FEA4800D0F10800029901FB45
:10403000008084426AD20098B04223D22100D4F199
:1040400008000BF0CCFC8346210001200BF0C7FCDC
:10405000089919F801100140D4F10800401EC14030
:104060001AEB0500407830EA0B001AEB050250709D
:104070001AEB0500407808431AEB0501487001204F
:1040800007909BE00098864280F0988000981299F3
:104090000818082829D2089819F800401298082210
:1040A000B0FBF2F101FB120112980822B0FBF2F30F
:1040B00003FB1203D3F10800009A801A0BF08FFC67
:1040C00006001298D0F1080100200BF088FC344063
:1040D00034FA08F41AF8051008400AF805001AF82E
:1040E000050020430AF8050068E04146D8F10800C1
:1040F0000BF075FC83465B46DBB2059A089819F80D
:1041000000101AEB0500FFF7F9FD57E00098864212
:104110000DD29DF80C30059A029810EB0900089911
:10412000401810F8011C1AEB0500FFF7EFFD5FEADD
:104130004800D0F10800029901FB0080A0423DD266
:104140000098B04210D2B4EB0801D4F108000BF093
:1041500046FC83465B46DBB2059A089819F80010C6
:104160001AEB0500FFF7CAFD0098864226D2B4F18B
:10417000080018EB0001D4F108000830B0EB08008B
:104180000BF02DFC0600B4F1080018EB0001D4F18F
:1041900008000BF024FC089919EB01014978314023
:1041A000D8F1080291401AF8052032EA00000AF816
:1041B00005001AF8050008430AF80500002411E07C
:1041C00001980019049908183919049A56189DF88D
:1041D0000C30059A029908180899415C7019FFF78C
:1041E0008DFD641C0698079908188442E8D30024C2
:1041F00016E0019800190499029A02FB010039198E
:10420000049A029B03FB02169DF80C30059A08994C
:10421000415C701C029E801B4019FFF777FD641CF7
:1042200006988442E5D309B0BDE8F08F70B504006C
:104230000D0016000BF00AFCC0B2002801D10120CD
:1042400000E00020C0B200280ED0EDB2280006E049
:10425000011949780219035D53700155801CEDB2B4
:10426000F6B271198842F3D370BD70B4039C049DFB
:104270000E18904209D3984207D2B24205D2B342F7
:1042800003D32160801A28601DE0824208D2984240
:1042900006D2B34204D2191A2160801A286012E0B3
:1042A000904208D2B24206D29E4204D2B01A206096
:1042B0000020286007E0824205D39E4203D3981A6B
:1042C00020600020286070BC70472DE9F84F060080
:1042D0000F0090469946DDF828A0DDF82CB0DDE906
:1042E0000C4530000BF0C8FBDFF84C0130604FF498
:1042F0008271301D0BF0C4FB002070615FEAC800C2
:10430000B0615FEAC900F061C6F820A0C6F824B029
:1043100019EB080010EB4A0010EB4B00B062C6F836
:104320002C8019EB0800306319EB080010EB4A00F1
:10433000706319EB080010EB4A0010EB4B00B06300
:10434000002086F83C00414616F140000BF098FB37
:10435000494616F150000BF093FB594616F16000E8
:104360000BF0A4FB514616F170000BF09FFB0020F0
:10437000C6F880000020C6F884000020C6F8880037
:104380000020C6F88C000020C6F890000020C6F877
:1043900094000020C6F898000020C6F89C00002079
:1043A000C6F8A000C6F8A470D6F8A41016F1A800AC
:1043B0000BF0CEFB002086F8100122002B0016F136
:1043C000A8000BF0FDFB22002B0016F1A8000BF05B
:1043D000FDFB3000BDE8F28F10B50400DFF8580097
:1043E000206014F170000BF0FDFC14F160000BF084
:1043F000F9FC14F150000BF000FD14F140000BF03B
:10440000FCFC201D0BF0F9FC20000BF001FD20004E
:1044100010BD0000C080002008800020C180002066
:1044200010800020C28000200C800020BA80002074
:10443000D47F00207047000000FC0200F0B583B07C
:1044400004000D0016001F00A06BB919884200D2AD
:10445000F7BD0020C4F880000020C4F884000020CC
:10446000C4F888000020C4F88C000020C4F8900034
:104470000020C4F894000020C4F898000020C4F87C
:104480009C0014F18400019014F180000090E36A14
:10449000002239003000FFF7E8FE14F18C00019093
:1044A00014F188000090236BE26A39003000FFF7B6
:1044B000DCFE14F19400019014F190000090636B05
:1044C000226B39003000FFF7D0FE14F19C00019000
:1044D00014F198000090A36B626B39003000FFF775
:1044E000C4FED4F8800000281CD014F140000BF06A
:1044F00093FCD4F88410D4F880205118884201D25B
:10450000012000E00020C0B20028A1D114F1400039
:104510000BF084FCD4F88020D4F88410091828000B
:104520000BF066FAD4F88800002803D1D4F88C0088
:1045300000281FD014F150000BF06EFCD4F88C1042
:10454000D4F888205118884201D2012000E00020D0
:10455000C0B200287FF47CAF14F150000BF05EFC79
:10456000D4F88820D4F88C100918D4F880004019A9
:104570000BF03EFAD4F89000002803D1D4F8940050
:10458000002824D0D4F88000D4F888100E1814F134
:1045900070000BF04EFC070014F170000BF054FC9F
:1045A000D4F89410D4F890205118B0EB510F01D2E8
:1045B000012000E00020C0B200287FF449AFD4F809
:1045C0009020D4F89400C11970190BF011FAD4F8A6
:1045D0009800002803D1D4F89C00002827D0D4F8F4
:1045E0008000D4F888100818D4F890100E1814F130
:1045F00060000BF01EFC070014F160000BF024FCBF
:10460000D4F89C10D4F898205118B0EB510F01D277
:10461000012000E00020C0B200287FF419AFD4F8D8
:104620009820D4F89C00C11970190BF0E1F90FE73C
:10463000F0B583B004000D0016001F00A06BB9197F
:10464000884200D2F7BD0020C4F880000020C4F8E2
:1046500084000020C4F888000020C4F88C000020EA
:10466000C4F890000020C4F894000020C4F898001A
:104670000020C4F89C0014F18400019014F1800023
:104680000090E36AD4F8842039003000FFF7EDFD94
:1046900014F18C00019014F188000090236BE26A01
:1046A00039003000FFF7E1FD14F19400019014F19E
:1046B00090000090636B226B39003000FFF7D5FD4E
:1046C00014F19C00019014F198000090A36B626BB0
:1046D00039003000FFF7C9FDD4F8800000281CD055
:1046E00014F140000BF098FBD4F88410D4F880202B
:1046F0005118884201D2012000E00020C0B20028F9
:10470000A0D114F140000BF089FBD4F880202900DF
:10471000D4F8843018180BF06BF9D4F8880000280E
:1047200003D1D4F88C0000281FD014F150000BF0F6
:1047300073FBD4F88C10D4F888205118884201D229
:10474000012000E00020C0B200287FF47BAF14F10C
:1047500050000BF063FBD4F88820D4F8801049197E
:10476000D4F88C3018180BF043F9D4F890000028D6
:1047700003D1D4F89400002824D0D4F88000D4F8D1
:1047800088100F1814F170000BF053FB060014F1A1
:1047900070000BF059FBD4F89410D4F89020511805
:1047A000B0EB510F01D2012000E00020C0B2002880
:1047B0007FF448AFD4F890207919D4F89400801988
:1047C0000BF016F9D4F89800002803D1D4F89C0017
:1047D000002827D0D4F88000D4F888100818D4F81E
:1047E00090100F1814F160000BF023FB060014F179
:1047F00060000BF029FBD4F89C10D4F898205118D5
:10480000B0EB510F01D2012000E00020C0B200281F
:104810007FF418AFD4F898207919D4F89C00801947
:104820000BF0E6F80EE77CB505000C001600082E2C
:1048300001D3002076BDA86AA04201D20020F9E78A
:104840000020C5F880000020C5F884000020C5F8CD
:1048500088000020C5F88C000020C5F890000020DA
:10486000C5F894000020C5F898000020C5F89C0009
:1048700015F18400019015F180000090EB6AD5F8E5
:10488000842001212000FFF7F0FC15F18C0001903D
:1048900015F1880000902B6BEA6A01212000FFF7D8
:1048A000E4FC15F19400019015F1900000906B6B01
:1048B0002A6B01212000FFF7D8FC15F19C00019024
:1048C00015F198000090AB6B6A6B01212000FFF797
:1048D000CCFC0121D6F10800401E0BF080F804004A
:1048E000082E80F0BC80D5F88000002803D1D5F8D0
:1048F000840000281ED015F140000BF08DFAD5F889
:104900008410D5F880205118884201D2012000E09F
:104910000020C0B2002801D000208BE7D5F8841019
:1049200015F140000BF092FA00782040C0B20BF075
:10493000B1FA7FE7D5F88800002803D1D5F88C00BC
:1049400000281ED015F150000BF066FAD5F88C1037
:10495000D5F888205118884201D2012000E00020BB
:10496000C0B2002801D0002064E7D5F88C1015F102
:1049700050000BF06BFA00782040C0B20BF08AFABE
:1049800058E7D5F89000002803D1D5F89400002806
:104990002ED015F170000BF057FAD5F89410D5F819
:1049A00090205118B0EB510F01D2012000E00020FF
:1049B000C0B2002801D000203CE7002095F89410F8
:1049C000C90708D4D5F89400410815F170000BF020
:1049D00069FA007807E0D5F89400410815F17000F5
:1049E0000BF060FA40782040C0B20BF053FA21E798
:1049F000D5F89800002803D1D5F89C0000282ED0C7
:104A000015F160000BF020FAD5F89C10D5F898202D
:104A10005118B0EB510F01D2012000E00020C0B2CC
:104A2000002801D0002005E7002095F89C10C90758
:104A300008D4D5F89C00410815F160000BF032FA5B
:104A4000007807E0D5F89C00410815F160000BF0F4
:104A500029FA40782040C0B20BF01CFAEAE60020A8
:104A6000E8E67CB504000D001600082E00D373BDE7
:104A7000A06AA842FBD30020C4F880000020C4F83C
:104A800084000020C4F888000020C4F88C000020B6
:104A9000C4F890000020C4F894000020C4F89800E6
:104AA0000020C4F89C0014F18400019014F18000EF
:104AB0000090E36A002201212800FFF7D6FB14F1E1
:104AC0008C00019014F188000090236BE26A0121B0
:104AD0002800FFF7CAFB14F19400019014F1900034
:104AE0000090636B226B01212800FFF7BEFB14F1DD
:104AF0009C00019014F198000090A36B626B01215F
:104B00002800FFF7B2FB0121D6F10800401E0AF091
:104B100066FF0500082E80F0E780D4F880000028AA
:104B200003D1D4F88400002822D014F140000BF007
:104B300073F9D4F88410D4F880205118884201D237
:104B4000012000E00020C0B2002890D1D4F88410E9
:104B500014F140000BF07AF90178A9430170D4F800
:104B6000841014F140000BF071F9017829430170B1
:104B7000D4F88800002803D1D4F88C00002823D072
:104B800014F150000BF048F9D4F88C10D4F88820B8
:104B90005118884201D2012000E00020C0B2002854
:104BA0007FF465AFD4F88C1014F150000BF04EF97F
:104BB0000178A9430170D4F88C1014F150000BF067
:104BC00045F9017829430170D4F89000002803D1F9
:104BD000D4F8940000283FD014F170000BF034F9A1
:104BE000D4F89410D4F890205118B0EB510F01D2A2
:104BF000012000E00020C0B200287FF438AF00267A
:104C000094F89400C00708D4D4F89400410814F133
:104C100070000BF047F9067807E0D4F894004108DB
:104C200014F170000BF03EF94678AE432E4394F831
:104C30009400C00708D4D4F89400410814F170001F
:104C40000BF030F9067007E0D4F89400410814F135
:104C500070000BF027F94670D4F89800002803D1B3
:104C6000D4F89C0000283FD014F160000BF0ECF861
:104C7000D4F89C10D4F898205118B0EB510F01D201
:104C8000012000E00020C0B200287FF4F0AE002632
:104C900094F89C00C00708D4D4F89C00410814F193
:104CA00060000BF0FFF8067807E0D4F89C0041089C
:104CB00014F160000BF0F6F84678AE432E4394F8FA
:104CC0009C00C00708D4D4F89C00410814F160008F
:104CD0000BF0E8F8067007E0D4F89C00410814F1E6
:104CE00060000BF0DFF84670C1E67CB504000D00F3
:104CF0001600082E00D373BDA06AA842FBD3002083
:104D0000C4F880000020C4F884000020C4F88800A3
:104D10000020C4F88C000020C4F890000020C4F8E3
:104D200094000020C4F898000020C4F89C0014F1FE
:104D30008400019014F180000090E36A00220121B8
:104D40002800FFF792FA14F18C00019014F188000A
:104D50000090236BE26A01212800FFF786FA14F124
:104D60009400019014F190000090636B226B01217C
:104D70002800FFF77AFA14F19C00019014F19800D2
:104D80000090A36B626B01212800FFF76EFA0121EE
:104D9000D6F10800401E0AF022FE0500082E80F021
:104DA000D380D4F88000002803D1D4F884000028F0
:104DB00019D014F140000BF02FF8D4F88410D4F877
:104DC00080205118884201D2012000E00020C0B2AA
:104DD000002890D1D4F8841014F140000BF036F87C
:104DE0000178A9430170D4F88800002803D1D4F8D1
:104DF0008C0000281AD014F150000BF00DF8D4F8F4
:104E00008C10D4F888205118884201D2012000E08B
:104E10000020C0B200287FF46EAFD4F88C1014F1DB
:104E200050000BF013F80178A9430170D4F89000FA
:104E3000002803D1D4F8940000283ED014F170006B
:104E40000BF002F8D4F89410D4F890205118B0EB7D
:104E5000510F01D2012000E00020C0B200287FF4F1
:104E60004AAF002694F89400C00708D4D4F8940000
:104E7000410814F170000BF015F8067807E0D4F83B
:104E80009400410814F170000BF00CF84678AE4322
:104E900094F89400C00708D4D4F89400410814F1A1
:104EA00070000AF0FFFF067007E0D4F89400410894
:104EB00014F170000AF0F6FF4670D4F8980000284C
:104EC00003D1D4F89C0000283ED014F160000AF011
:104ED000BBFFD4F89C10D4F898205118B0EB510FB8
:104EE00001D2012000E00020C0B200287FF403AF0F
:104EF000002694F89C00C00708D4D4F89C00410810
:104F000014F160000AF0CEFF067807E0D4F89C00A8
:104F1000410814F160000AF0C5FF4678AE4394F8EA
:104F20009C00C00708D4D4F89C00410814F160002C
:104F30000AF0B8FF067007E0D4F89C00410814F1AD
:104F400060000AF0AFFF4670D5E6F8B504000D002A
:104F5000201D0AF063FF03218180201D0AF05EFFFF
:104F600000F20706201D0AF059FF00F20907307809
:104F7000803838707D70201D0AF050FF010010202D
:104F8000009038233A783800FEF7CAFEF1BD2DE9CB
:104F9000F04782B00400D4F8A400D4F8A410096843
:104FA000496A884714F1A8000AF070FE94F83C00A2
:104FB000002808D0022800F01B8334D3042800F016
:104FC000988376D3C8E3D4F8A400D4F8A410096871
:104FD00089698847C4F8A000D4F8A000002821D02F
:104FE000D4F8A450201D0AF019FF02000723D4F8BA
:104FF000A01028002D682D69A8470500002D11D0AC
:10500000201D0AF00BFFD5F107032A18D4F8A010D1
:1050100014F1A8000AF0E0FD012084F83C00200013
:10502000FFF708FA98E314F1A8000AF0FFFDC0B2F8
:10503000012801D1012000E00020C0B2002824D0C6
:10504000201D0AF0EBFE06220021FFF7EFF8201DDD
:105050000AF0E4FE0500A88800280FD0201D0AF001
:10506000DDFEA9884B1EC21DD4F8A01014F1A800C3
:105070000AF0B2FD032084F83C0002E0002084F82E
:105080003C002000FFF7D6F912E014F1A8000AF066
:10509000CDFDC0B2022801D1012000E00020C0B245
:1050A000002805D0002084F83C002000FFF7C2F95A
:1050B00052E314F1A8000AF0B9FDC0B2012801D1F1
:1050C000012000E00020C0B2002800F07D82201DF9
:1050D0000AF0A4FE00F207000078012818D0022888
:1050E0000ED003281CD0042822D0052828D006285A
:1050F0002ED0072834D00F2833D0102839D04CE0D8
:10510000201D0AF08BFE04220821FFF78FF844E0EF
:10511000201D0AF083FE04220821FFF787F83CE0F7
:10512000201D0AF07BFE04220821FFF77FF834E0FF
:10513000201D0AF073FE04220821FFF777F82CE007
:10514000201D0AF06BFE04220821FFF76FF824E00F
:10515000201D0AF063FE04220821FFF767F81CE017
:105160001BE0201D0AF05AFE04220821FFF75EF81A
:1051700013E0201D0AF052FE04220821FFF756F822
:10518000201D0AF04BFE00F20705201D0AF046FE26
:105190006A790D21FFF74AF8FFE7201D0AF03EFE6D
:1051A0000500201D0AF03AFE00F20700B0F8036087
:1051B000B0F801700078012861D0022815D00328CA
:1051C00000F0A680042800F0DC80052800F01281A1
:1051D000062800F09081072800F0E5810F2800F0F4
:1051E0005681102800F0A881E0E1B6B2002E41D02F
:1051F000201D0AF013FE00F20708B6B2082096FB45
:10520000F0F101FB1061002906D1B6B2082096FB2F
:10521000F0F088F8010006E0B6B2082096FBF0F046
:10522000401C88F8010098F80100C01CA88014F107
:1052300040000AF0F1FDC000BFB2B6B2F1198842D9
:1052400001D2012000E00020C0B2002804D00020DC
:1052500084F83C00BDE8F38714F140000AF0DEFD5D
:10526000B6B200960023BFB23A0018F10201FEF771
:1052700057FD03E002212000FFF767FE9AE1B6B276
:10528000002E40D0201D0AF0C9FD00F20708B6B27A
:10529000082096FBF0F101FB1061002906D1B6B29F
:1052A000082096FBF0F088F8010006E0B6B208206E
:1052B00096FBF0F0401C88F8010098F80100C01C33
:1052C000A88014F150000AF0A7FDC000BFB2B6B22A
:1052D000F119884201D2012000E00020C0B200286C
:1052E00003D0002084F83C00B4E714F150000AF029
:1052F00095FDB6B200960023BFB23A0018F1020144
:10530000FEF70EFD03E002212000FFF71EFE51E133
:10531000B6B2002E30D0201D0AF080FD00F2070842
:105320003000C0B2400088F8010014F170000AF0AB
:1053300080FD814618F1020A14F170000AF084FD24
:10534000BFB2B6B2F119884201D2012000E00020BC
:10535000C0B2002803D0002084F83C007AE798F817
:105360000120BFB219EB470150460AF041FBB6B22B
:105370007000C01CA88003E002212000FFF7E5FDBB
:1053800018E1B6B2002E30D0201D0AF047FD00F221
:1053900007083000C0B2400088F8010014F1600036
:1053A0000AF047FD814618F1020A14F160000AF084
:1053B0004BFDBFB2B6B2F119884201D2012000E024
:1053C0000020C0B2002803D0002084F83C0041E750
:1053D00098F80120BFB219EB470150460AF008FBCC
:1053E000B6B27000C01CA88003E002212000FFF7C5
:1053F000ACFDDFE0201D0AF011FD00F20706B6F853
:105400000100082190FBF1F714F150000AF004FDAF
:10541000FFB2874201D3012000E00020C0B2002883
:1054200003D0002084F83C0014E70121B6F8010005
:10543000082290FBF2F303FB1203D3F10800401E95
:105440000AF0CDFA8046B6F80300012814D1FFB265
:10545000390014F150000AF0F9FC017831EA080132
:105460000170FFB2390014F150000AF0EFFC01782E
:1054700058EA0101017009E0FFB2390014F150004F
:105480000AF0E4FC017831EA0801017092E0B6B25A
:10549000002E2BD0201D0AF0C1FC00F2070614F1EB
:1054A00050000AF0B9FCC000B6F80110B6F80320AD
:1054B0005118884201D2012000E00020C0B200282B
:1054C00003D0002084F83C00C4E614F150000AF038
:1054D000A5FC0100B6F803000090B6F801300022E8
:1054E000B01DFEF71DFC0620A88003E0022120006D
:1054F000FFF72BFD5EE0201D0AF090FC00F207068E
:1055000014F170000AF0A0FCB6F80110814201D33A
:10551000012000E00020C0B2002803D0002084F861
:105520003C0097E6B6F8011014F170000AF0BAFCDE
:10553000B6F8031001803DE0B6B2002E2ED0201D3B
:105540000AF06CFC00F2070614F170000AF071FC1E
:10555000070006F20608B6F801007179022291FBF5
:10556000F2F111EB000914F170000AF06DFC4845EE
:1055700001D2012000E00020C0B2002803D00020AA
:1055800084F83C0066E672794146B6F8010017EBF4
:1055900040000AF02DFA0620A88003E00221200036
:1055A000FFF7D3FC06E00320A88003E001212000E0
:1055B000FFF7CBFC022084F83C002000FEF73AFF06
:1055C000A888401E606112E014F1A8000AF02EFBCA
:1055D000C0B2022801D1012000E00020C0B20028A2
:1055E00005D0002084F83C002000FEF723FFB3E044
:1055F000201D0AF013FC06220021FEF717FE201DD5
:105600000AF00CFC00F207000078012811D00228F3
:105610000ED003280ED0042819D0052824D006283F
:105620002AD0072830D00F282FD0102835D03CE0C2
:105630003BE03AE0201D0AF0F1FB00F20705201DD7
:105640000AF0ECFB6A780921FEF7F0FD2DE0201D41
:105650000AF0E4FB00F20705201D0AF0DFFB6A7880
:105660000921FEF7E3FD20E0201D0AF0D7FB04220C
:105670000821FEF7DBFD18E0201D0AF0CFFB042215
:105680000821FEF7D3FD10E00FE0201D0AF0C6FB55
:1056900004220821FEF7CAFD07E0201D0AF0BEFB28
:1056A00004220821FEF7C2FDFFE7201D0AF0B4FB2B
:1056B0006169C91D884201D2012000E00020C0B20A
:1056C000002803D0002084F83C00C3E5201D0AF028
:1056D000A5FB6169CB1D0200D4F8A01014F1A8004D
:1056E0000AF0A6FA042084F83C002000FEF7A2FE8F
:1056F00032E014F1A8000AF0C6FAC0B2012801D1C4
:10570000012000E00020C0B2002812D0201D0AF0C5
:1057100085FB0500201D0AF07FFB02000021280008
:105720000AF015F8002084F83C002000FEF782FE05
:1057300012E014F1A8000AF0A6FAC0B2022801D1C2
:10574000012000E00020C0B2002805D0002084F82D
:105750003C002000FEF76EFE7CE5F8B504000D006D
:1057600016001F0020000AF0C3FB14F108000AF025
:10577000BFFB14F110000AF0BBFB14F118000AF093
:10578000B7FB00230022002114F120000AF0B5FB32
:1057900000230022002114F18C000AF0FBFB0023FF
:1057A0000022002114F1F8000AF03FFC002300223F
:1057B000002104F258100AF07CFC00230022002192
:1057C00004F280100AF097FC00230022002104F26A
:1057D000D8100AF0CAFC00230022002104F2C020E5
:1057E0000AF0C3FC00230022002104F2A8300AF0D2
:1057F000BCFC00230022002114F592600AF0B5FCE5
:1058000000230022002114F5AF600AF0AEFC002353
:105810000022002114F5CC600AF0F1FC32002900CE
:1058200020000AF079FE002F00D038602000F2BD81
:1058300038B5040002F0E4FF2268D3170748D0E926
:105840000045A4FB020104FB031105FB0211044CFB
:10585000D4E900230AF02AF834BD00BF507F0020AD
:10586000A0000020DFB5089CDDE90A67CDE90267EA
:10587000E4B2009401F01FF904B0D0BD80B501F08E
:1058800053F902BD80B5DFF80C0D0078002808D16F
:105890000021DFF8040DFDF744F8DFF8F80C0121D2
:1058A0000170DFF8F80C0078002808D10021DFF83B
:1058B000B00DFDF736F8DFF8E40C01210170DFF8D8
:1058C000D40D0078002808D10021DFF8980DFDF7ED
:1058D00028F8DFF8C00D0121017001BD2DE9F04766
:1058E0000400894692461D00089E099FDDF8288025
:1058F00020000AF06FFEDFF8A00D2060C4F80490CD
:10590000C4F808A00020E06000202061C4F81480E2
:105910000420A0616069401CE061012084F820003F
:10592000032084F82100A16914F124000AF0A8F8EA
:10593000A16914F134000AF0A3F80020606400208B
:10594000A0640020E0640020206500206065002045
:10595000A065A068A1680968C9688847EDB2002DF4
:1059600008D0022D11D00AD3042D1AD013D3052D3F
:105970001DD01FE00820E060802020611FE008208B
:10598000E0604FF48070206119E00820E0604FF47F
:105990000070206113E04020E0604FF480702061CF
:1059A0000DE04020E0604FF40070206107E0E66009
:1059B000276104E04020E0604FF480702061E068DF
:1059C000A169B0FBF1F0E064E068A169B0FBF1F21D
:1059D00001FB1200606514F124000AF01FFAA169AE
:1059E0000AF0FCFD14F134000AF018FAA1690AF07B
:1059F000F5FD2000BDE8F08710B50400606861681F
:105A0000096889698847DFF8541D60686268126810
:105A1000526A90470121606862681268126B904771
:105A20000021606862681268926A9047002160688D
:105A300062681268D26A9047A068A168096809691B
:105A4000884710BD10B50400A068A1680968C9683E
:105A50008847606861680968C969884710BD70B582
:105A600004002000FFF7C8FF14F134000AF0D6F953
:105A700002210AF0B3FD002114F134000AF0E6F926
:105A800005210170656814F124000AF0C7F90600C9
:105A900014F134000AF0C2F9020002233100280098
:105AA0002C68E46BA04770BD38B504002000FFF7F8
:105AB000A3FF002114F134000AF0C8F9012101709C
:105AC000012114F134000AF0C1F902210170656866
:105AD00014F134000AF0A2F90100022228002B6818
