:1000000048930020D1A80200BB310100CB31010090
:10001000DB310100EB310100FB3101000000000089
:100020000000000000000000000000000B32010092
:100030001B320100000000002B3201003B320100A6
:100040004B3201005B3201006B3201007B32010058
:100050008B3201009B320100AB320100BB32010048
:10006000CB320100DB320100EB320100FB32010038
:100070000B3301001B3301002B3301003B33010024
:100080004B3301005B3301006B3301007B33010014
:100090008B3301009B330100AB330100BB33010004
:1000A000CB330100DB330100EB330100FB330100F4
:1000B0000B3401001B3401002B3401003B340100E0
:1000C0004B3401005B3401006B3401007B340100D0
:1000D0008B3401009B340100AB340100BB340100C0
:1000E000CB340100C9350100DB340100C935010002
:1000F000EB340100FB3401000B3501001B3501001E
:100100002B35010069350100793501008935010081
:1001100099350100A9350100B9350100C935010043
:1001200080B5DFF854090078002808D10021DFF8F5
:100130004C0902F0FFFADFF8400901210170DFF8F5
:1001400040090078002808D10021DFF8380902F0C2
:10015000F1FADFF82C0901210170DFF82C09007891
:10016000002808D10021DFF8240902F0E3FADFF8C3
:10017000180901210170DFF818090078002808D15A
:100180000021DFF8100902F0D5FADFF80409012197
:10019000017001BDF0B5AFB004000D00256020680E
:1001A00002F0C3FE0600206802F0C6FE07002068C9
:1001B00002F0AFFE03003A00310014F1080002F033
:1001C00001FF14F1080114F1480002F0C9F9206898
:1001D00002F0A2FE0600C8200A900AA803F08AFBDB
:1001E000CDE90201002001904FF4C87000900E2369
:1001F0000022310014F1500003F0BFFE0023002262
:1002000014F1500104F2681005F0FFF8206802F0C4
:1002100080FE0600206802F092FE0700012009908F
:1002200009A805F05DF9CDE9040140200290002005
:100230000190012000904FF480633A00310004F6F1
:10024000182006F035FD0023002204F6182104F6DC
:10025000783006F07FFD04F6783204F6182104F6B3
:10026000786002F05BF9206802F053FE0600206817
:1002700002F04CFE020014F5F963310004F67C60D4
:1002800002F0D9F914F5F96114F5696002F092F9F8
:10029000280002F03EFE0600280002F031FE04F6BF
:1002A0009831019114F56961009104F240330268BC
:1002B000310014F56C6006F032FE280002F029FED1
:1002C0000600280002F01CFE14F54261019104F6BC
:1002D0009861009114F585634268310004F59050EF
:1002E000C83006F01CFE280002F013FE06002800AD
:1002F00002F006FE04F6A841019114F56A6100912E
:1003000014F5A2638268310004F5B050D03006F0D5
:1003100006FE280002F0FDFD0600280002F0F0FDB8
:1003200014F55361019104F6A861009114F5BF63BF
:10033000C268310004F5D050D83006F0F0FD280036
:1003400002F0E7FD0600280002F0DAFD04F6B851DD
:10035000019114F56B61009114F5DC6302693100C1
:1003600014F5F75006F0DBFD42F2E82000210155BC
:1003700042F2E920002101550A20089008A803F064
:10038000B9FACDE9180118A904F50850F03007F0C2
:10039000D1FF04F2881008F0CBF8002801D001202A
:1003A00000E0002042F20831085504F2941008F0F1
:1003B000BFF8002801D0012000E0002042F20931FE
:1003C000085504F2A01008F0B3F8002801D001206D
:1003D00000E0002042F20A31085504F2AC1008F0A7
:1003E000A7F8002801D0012000E0002042F20B31E4
:1003F000085504F2DC1008F09BF8002801D0012019
:1004000000E0002042F20C3108550120079007A8B7
:1004100005F066F8CDE9160116A904F50C50103068
:1004200007F088FFDFF87036DFF8702604F2383105
:1004300004F50C50283008F091F8DFF864360022FB
:1004400004F2E82104F50C50383008F087F8DFF8A2
:100450005036002204F2F02104F50C50483008F028
:100460007DF8DFF83C36002204F2283104F50C5008
:10047000583008F073F8DFF82836002204F23031E3
:1004800004F50C50683008F069F8DFF81836DFF82A
:10049000182604F2F82104F50C50783008F05EF8C4
:1004A000DFF80036DFF8002604F2183104F50C50AE
:1004B000883008F053F8DFF8F435DFF8F42504F25B
:1004C000203104F50C50983008F048F8DFF8E43596
:1004D000DFF8DC2504F2083104F50C50A83008F0F0
:1004E0003DF8DFF8D435DFF8D42504F2003104F507
:1004F0000C50B83008F032F8DFF8C435DFF8C42506
:1005000004F2103104F50C50C83008F027F8DFF879
:10051000B835DFF8882504F2C02104F50C50D83036
:1005200008F01CF8DFF8A035DFF8702504F2C821C8
:1005300004F50C50E83008F011F8DFF88C35DFF8DE
:100540005C2504F2D02104F50C50F83008F006F8D0
:10055000DFF87435DFF8442504F2D82104F5105093
:10056000083007F0FBFFDFF86035DFF8302504F2D4
:10057000E02104F51050183007F0F0FFDFF84C359B
:10058000DFF8182504F2C83104F51050283007F0C0
:10059000E5FFDFF83835DFF8042514F5836104F54D
:1005A0001050383007F0DAFFDFF82035DFF8EC24A0
:1005B00014F5966104F51050483007F0CFFFDFF8CE
:1005C0000C35DFF8D82414F5A06104F5105058302C
:1005D00007F0C4FFDFF8F434DFF8C02414F5B3618A
:1005E00004F51050683007F0B9FFDFF8E034DFF8A9
:1005F000AC2414F5BD6104F51050783007F0AEFF5F
:10060000DFF8C834DFF8942414F5D06104F51050F5
:10061000883007F0A3FFDFF8B434DFF8802414F546
:10062000DA6104F51050983007F098FFDFF8A03435
:10063000DFF8682414F5ED6104F51050A83007F0D8
:100640008DFFDFF89034DFF8542414F5F76104F5DA
:100650001050B83007F082FF6420069006A803F01F
:1006600049F9CDE9140114A904F51050C83007F078
:10067000D5FE0520059005A804F032FFCDE9120152
:1006800012A904F51050D83007F054FE052004904C
:1006900004A804F025FFCDE9100110A904F51050BD
:1006A000F03007F047FE42F208500221015542F2B5
:1006B0000C500021015142F210500021015542F22C
:1006C0001150002101550120039003A804F008FFF8
:1006D000CDE90E010EA904F51450183007F02AFEDA
:1006E000052104F51450303007F03EFF4FF49670AA
:1006F000029002A803F0FEF8CDE90C010CA904F564
:100700001450383007F08AFE206802F002FC050021
:10071000206802F007FC14F51D61019104F6546194
:10072000009104F2C0230200290004F5145048305F
:1007300001F0A4FC0020009004F2482304F22422DB
:1007400014F1080104F51C50A83002F0AFFE14F5B6
:10075000666304F2542214F1080104F51C50F030D1
:1007600001F07FFE206802F0E2FB0500206802F045
:10077000E0FB0600206802F0C9FB030032002900FC
:1007800014F5205002F01EFC0020009004F2A82373
:1007900004F2842214F5205114F5215002F086FE53
:1007A00004F66C6304F2B42214F5205104F52050D1
:1007B000883001F056FEC848D0E90023210004F536
:1007C0002050983007F0ECFE42F6B40000210151B1
:1007D00042F6B8000021015142F6BC00002101514F
:1007E00014F5235000220023C0E9002304F5205013
:1007F000C83000220023C0E90023206807F0E4FE8F
:10080000010014F5206007F0E2FE206807F0DCFE2E
:10081000011D04F6082007F0E7FE206807F0D4FE6B
:1008200010F1080114F5216007F0D1FE04F50C5019
:10083000103007F097FD206802F071FBC06A016874
:10084000C968884704F6783104F2681007F0D9FEC9
:1008500014F5386104F2701007F0D3FE04F6883105
:1008600004F2781007F0CDFE14F5396104F280101F
:1008700007F0C7FE07F0D6FE019000A801A90422E8
:1008800007F0D6FE04F6783007F00DFF8DF8000073
:1008900014F5386007F007FF8DF8010004F6883082
:1008A00007F001FF8DF8020014F5396007F0FBFE38
:1008B0008DF8030000992AA807F006FF206802F0CF
:1008C0002BFB050085491AA807F02DFF2AA922A8AD
:1008D00007F029FF02001AA928002B68DB68984757
:1008E00022A807F030FF1AA807F02DFF002104F618
:1008F000141007F02FFF04F51050C83007F0A1FDC9
:1009000004F51050D83007F02DFD04F6486114F5B9
:100910001A6007F035FF14F5F75007F0D3FC04F523
:100920001450303007F05CFFC0B2010004F6B8107C
:1009300007F010FF04F51450303007F05BFF0D2274
:1009400004F2F41104F51C50A83002F0F5FD092260
:1009500004F2FC1104F51C50A83002F0EDFD052254
:1009600004F2042104F51C50A83002F0E5FD002338
:10097000042204F20C2104F51C50A83002F0EEFD14
:100980000023032204F2182104F51C50A83002F0C1
:10099000E5FD0123022204F2302104F51C50A830A9
:1009A00002F0DCFD002204F23C2104F51C50A830CA
:1009B00002F0EEFD04F51C50A83002F0F7FD0E2207
:1009C00004F2602114F5215002F0B6FD0A2204F26F
:1009D000682114F5215002F0AFFD062204F27021C7
:1009E00014F5215002F0A8FD0023052204F278211D
:1009F00014F5215002F0B2FD0123022204F29021ED
:100A000014F5215002F0AAFD002204F29C2114F5F5
:100A1000215002F0BDFD14F5215002F0C7FD200069
:100A20002FB0F0BD10B5040007F07AFF04F5205296
:100A3000C832C2E90001206802F087FA01688968BB
:100A40008847C0B2002807D042F6B4000059401CC5
:100A500042F6B401085106E042F6B8000059401CC5
:100A600042F6B80108511E48006850F040001C4989
:100A7000086010BD000000002B33002090320020E1
:100A80002C330020983200202D3300209432002097
:100A90002A3300208C3200200000484200009041A0
:100AA000C3F5A83E0000C8410000B8410000B040B6
:100AB000000090400000D040CDCC5C409A99494065
:100AC0006666A63FCDCC8C3F000034420000AA42AF
:100AD0000000B4420000F042A0AA02005CA702009D
:100AE0001CD403402DE9F043A3B0060016F1080022
:100AF00002F05CFB06F51C50A83002F06BFD06F519
:100B00001C50F03001F0C0FC16F5205002F04EFBF6
:100B100016F5215002F05EFD06F52050883001F0F8
:100B2000B3FC16F56C6006F0DDFC06F59050C8309D
:100B300006F0D8FC06F5B050D03006F0D3FC06F530
:100B4000D050D83006F0CEFC16F5F75006F0CAFCAF
:100B5000306802F0D8F90168C96B884706F514506F
:100B6000483001F05BFB16F1500004F068F806F61F
:100B7000182005F011FF06F6182006F0CCF8C0B2D8
:100B8000002832D007F0B1FF070007F0C9FE0400CB
:100B90000D00734AD2E9000107F0ECFF8046894658
:100BA0002000290007F0E6FF42464B4608F010F807
:100BB00004000D006B4AD2E9000107F0DBFF0200E0
:100BC0000B002000290008F0DBF802000B003800C1
:100BD00008F0F9F907F089FF634908F053FA63490F
:100BE00008F044FB300001F018F806F6783007F002
:100BF0005AFD040006F2681007F055FDE4B2C0B2D9
:100C0000844201D0012400E0002416F5386007F08A
:100C10004AFD050006F2701007F045FDEDB2C0B2C6
:100C2000854201D0012500E0002506F6883007F056
:100C30003AFD070006F2781007F035FDFFB2C0B2AA
:100C4000874201D0012700E0002716F5396007F040
:100C50002AFD804606F2801007F025FD5FFA88F82D
:100C6000C0B2804501D0012000E0002055EA040117
:100C700039430843C0B2002854D006F2681106F682
:100C8000783007F0BEFC06F2701116F5386007F0F8
:100C9000B8FC06F2781106F6883007F0B2FC06F2CE
:100CA000801116F5396007F0ACFC07F0BBFC0E9024
:100CB00000A80EA9042207F0BBFC06F2681007F09A
:100CC000F2FC8DF8000006F2701007F0ECFC8DF8D5
:100CD000010006F2781007F0E6FC8DF8020006F23B
:100CE000801007F0E0FC8DF8030000991FA807F0C2
:100CF000EBFC306802F010F90400DFF8EC1D0FA8DF
:100D000007F011FD1FA917A807F00DFD02000FA99C
:100D100020002368DB68984717A807F014FD0FA888
:100D200007F011FD06F50C50103007F026FBC0B29D
:100D300000280BD0306802F0F2F8806A0168C968B8
:100D40008847012106F2D01007F004FD42F2E920A5
:100D5000805D00280CD0012800F09582DBE200BF06
:100D6000A000002038320020B4980200CD84020098
:100D700006F2881007F0DCFB002801D0012000E01B
:100D8000002042F20831895DC0B2814201D00120C9
:100D900000E00020C0B2002840D042F20C30805D5C
:100DA000002809D042F2083000218155002106F2C6
:100DB000881007F0CFFC31E042F2E8200121815594
:100DC00006F2881007F0B4FB002801D0012000E0F3
:100DD000002042F20831885542F20830805D002838
:100DE0000ED0306802F09BF800680168C968884737
:100DF000306802F094F840680168096988470DE09E
:100E0000306802F08CF8006801680969884730682A
:100E100002F085F840680168C968884706F29410B6
:100E200007F086FB002801D0012000E0002042F2FC
:100E30000931895DC0B2814201D0012000E000206B
:100E4000C0B2002840D042F20C30805D002809D0AA
:100E500042F2093000218155002106F2941007F07A
:100E600079FC31E042F2E8200121815506F294102C
:100E700007F05EFB002801D0012000E0002042F2D4
:100E80000931885542F20930805D00280ED0306863
:100E900002F045F880680168C9688847306802F048
:100EA0003EF8C0680168096988470DE0306802F0C3
:100EB00036F88068016809698847306802F02FF8C1
:100EC000C0680168C968884706F2A01007F030FBC7
:100ED000002801D0012000E0002042F20A31895DA3
:100EE000C0B2814201D0012000E00020C0B2002841
:100EF00040D042F20C30805D002809D042F20A3026
:100F000000218155002106F2A01007F023FC31E0FA
:100F100042F2E8200121815506F2A01007F008FBFB
:100F2000002801D0012000E0002042F20A3188555B
:100F300042F20A30805D00280ED0306801F0EFFFE9
:100F400000690168C9688847306801F0E8FF4069B6
:100F50000168096988470DE0306801F0E0FF006929
:100F6000016809698847306801F0D9FF4069016864
:100F7000C968884706F2AC1007F0DAFA002801D0F9
:100F8000012000E0002042F20B31895DC0B28142B5
:100F900001D0012000E00020C0B2002840D042F281
:100FA0000C30805D002809D042F20B3000218155C1
:100FB000002106F2AC1007F0CDFB31E042F2E82050
:100FC0000121815506F2AC1007F0B2FA002801D0D9
:100FD000012000E0002042F20B31885542F20B3034
:100FE000805D00280ED0306801F099FF80690168AB
:100FF000C9688847306801F092FFC06901680969D3
:1010000088470DE0306801F08AFF8069016809694E
:101010008847306801F083FFC0690168C968884764
:1010200006F2B81007F084FA002801D0012000E091
:101030000020C0B2002807D0306801F070FF006ABD
:101040000168C968884706E0306801F068FF006AF7
:1010500001680969884706F2C41007F069FA002898
:1010600001D0012000E00020C0B2002807D0306885
:1010700001F055FF406A0168C968884706E030689A
:1010800001F04DFF406A01680969884706F2D010F7
:1010900007F04EFA002801D0012000E00020C0B285
:1010A000002807D0306801F03AFF806A0168C968FB
:1010B000884706E0306801F032FF806A01680969FC
:1010C000884706F2DC1007F033FA002801D001202F
:1010D00000E0002042F20C31895DC0B2884201D0AC
:1010E000012000E00020C0B2002800F0BD8006F220
:1010F000DC1007F01DFA002801D0012000E00020DC
:1011000042F20C31885542F20C30805D002800F02C
:10111000A480306801F003FFC06A0168096988474C
:10112000306801F0FCFE0068016809698847306892
:1011300001F0F5FE4068016809698847306801F0F0
:10114000EEFE8068016809698847306801F0E7FEB3
:10115000C068016809698847306801F0E0FE0069ED
:10116000016809698847306801F0D9FE4069016863
:1011700009698847306801F0D2FE80690168096911
:101180008847306801F0CBFEC0690168096988476B
:1011900042F20B3000218155002106F2AC1007F01D
:1011A000D9FA42F2083000218155002106F2881058
:1011B00007F0D0FA42F2093000218155002106F2F1
:1011C000941007F0C7FA42F20A300021815500213D
:1011D00006F2A01007F0BEFA306801F0A0FE8069A8
:1011E000016809698847306801F099FEC0690168A3
:1011F00009698847306801F092FE00680168096952
:101200008847306801F08BFE4068016809698847AB
:10121000306801F084FE8068016809698847306899
:1012200001F07DFEC068016809698847306801F0F7
:1012300076FE0069016809698847306801F06FFE31
:10124000406901680969884742F2E8200021815518
:1012500042F2E9200021815506E0306801F05FFE8E
:10126000C06A0168C968884742F2E820805D0028AA
:1012700008D006F50850F03007F074F842F2E92083
:101280000121815547E006F50850F03007F075F868
:10129000C0B200283FD042F2E820002181553068DA
:1012A00001F03DFE0068016809698847306801F077
:1012B00036FE4068016809698847306801F02FFEF2
:1012C0008068016809698847306801F028FEC068B5
:1012D000016809698847306801F021FE00690168EA
:1012E00009698847306801F01AFE40690168096998
:1012F0008847306801F013FE8069016809698847F2
:10130000306801F00CFEC06901680969884742F243
:10131000E92000218155306801F001FE006B016871
:10132000896888470100C9B206F2E81007F012FA8E
:1013300006F51050C83007F08AF8C0B2002800F057
:10134000FB82002106F6F81007F093FF06F67C609A
:1013500001F088F942F21150805D00282CD106F688
:10136000AC1007F0E5F8012801D1012000E00020D1
:10137000C0B2002831D016F56C6006F064FF06F5A7
:101380009050C83006F05FFF06F5B050D03006F040
:101390005AFF06F5D050D83006F055FF16F5F75035
:1013A00006F051FF42F211500121815506F514500B
:1013B000183006F0D7FF10E006F51450183006F08C
:1013C000DCFFC0B2002808D0002106F6AC1007F000
:1013D000C1F942F211500021815542F20850805D5E
:1013E000022800F0258106F50C50283007F05DFF3B
:1013F000C0B2010016F5FA6007F0ACF906F50C5022
:10140000383007F052FFC0B2010006F2DC7007F07E
:10141000A1F906F50C50483007F047FFC0B20100B3
:1014200016F5FD6007F096F906F50C50583007F0F8
:101430003CFFC0B2010006F2F47007F08BF906F52C
:101440000C50683007F031FFC0B2010016F50060A3
:1014500007F080F906F50C50783007F026FFC0B28F
:10146000010006F60C0007F075F906F50C508830FF
:1014700007F01BFFC0B2010006F6180007F06AF97A
:1014800006F50C50983007F010FFC0B2010006F6C8
:10149000240007F05FF906F50C50A83007F005FFAF
:1014A000C0B2010016F5036007F054F906F50C50C0
:1014B000B83007F0FAFEC0B2010006F63C0007F0B3
:1014C00049F906F50C50C83007F0EFFEC0B2010034
:1014D00006F6480007F03EF906F51450483007F0CC
:1014E0000CFF002836D006F50C50D83007F0DDFE92
:1014F000C0B2010006F6540007F02CF906F50C50B6
:10150000E83007F0D2FEC0B2010016F5066007F021
:1015100021F906F50C50F83007F0C7FEC0B2010003
:1015200006F66C0007F016F906F51050083007F0C3
:10153000BCFEC0B2010006F6780007F00BF906F514
:101540001050183007F0B1FEC0B2010006F684005A
:1015500007F000F906F51050283007F0A6FEC0B2DB
:10156000010016F5096007F0F5F806F5105038305F
:1015700007F09BFEC0B2010006F69C0007F0EAF8F7
:1015800006F51050483007F090FEC0B2010006F694
:10159000A80007F0DFF806F51050583007F085FE78
:1015A000C0B2010006F6B40007F0D4F806F51050FA
:1015B000683007F07AFEC0B2010016F50C6007F043
:1015C000C9F806F51050783007F06FFEC0B2010080
:1015D00006F6CC0007F0BEF806F51050883007F08C
:1015E00064FEC0B2010006F6D80007F0B3F806F5B5
:1015F0001050983007F059FEC0B2010006F6E40022
:1016000007F0A8F806F51050A83007F04EFEC0B25B
:10161000010016F50F6007F09DF806F51050B83080
:1016200007F043FEC0B2010006F6FC0007F092F896
:1016300042F21050815D06F6081007F08BF816F59F
:10164000F96007F061FE009042F20850805D0028CA
:1016500039D0022802D0C0F08880DEE006F51050B4
:10166000D83006F08AFEC0B200282BD0300000F03F
:101670004BFA42F2085001218155012106F614105F
:1016800007F068F816F5215001F090FF06F51C50A0
:10169000A83001F08BFF16F56C6006F045FD06F5ED
:1016A0009050C83006F040FD06F5B050D03006F03E
:1016B0003BFD06F5D050D83006F036FD16F5F75054
:1016C00006F032FDA9E016F5F96007F01DFE4001B5
:1016D0000CD016F5126006F0E6FFC0B2742801D0F7
:1016E000012000E0002090F0010000E00120C0B2E5
:1016F000002828D042F2085001218155012106F628
:10170000141007F027F816F5215001F04FFF06F5E9
:101710001C50A83001F04AFF16F56C6006F004FD7D
:1017200006F59050C83006F0FFFC06F5B050D030FA
:1017300006F0FAFC06F5D050D83006F0F5FC16F5A8
:10174000F75006F0F1FC06F6141006F0F1FE002842
:1017500001D0012000E00020C0B2002804D0002108
:1017600006F6141006F0F6FF57E016F5F96007F0DC
:10177000CBFD40010CD016F5126006F094FFC0B20C
:10178000742801D1012000E0002090F0010000E069
:101790000020C0B200282FD042F20850002181550D
:1017A000002106F6141006F0D5FF16F5215001F0C1
:1017B00007FF06F51C50A83001F002FF16F56C601B
:1017C00006F0EBFC06F59050C83006F0E6FC06F596
:1017D000B050D03006F0E1FC06F5D050D83006F01D
:1017E000DCFC16F5F75006F0D8FC00200D900DA992
:1017F00016F5EF6007F097FD06F6141006F098FE58
:10180000002801D1012000E00020C0B2002804D04F
:10181000012106F6141006F09DFF16F5126006F081
:1018200042FFC0B2CF2801D1012000E00020C0B2A9
:1018300000280AD000208DF830000CA916F512609F
:1018400007F07EFD300000F05FF916F51A6006F033
:101850006FFE040006F6486006F06AFE844201D07E
:10186000012000E00020C0B2002821D016F51A6146
:1018700006F6486006F084FF16F51A6006F058FE7A
:10188000002801D0012000E00020C0B200280FD0C5
:1018900006F6E81007F038FD42F20C51885142F28A
:1018A00010500021815506F51050F03006F05AFD19
:1018B00006F6486006F03CFE002801D0012000E05A
:1018C0000020C0B2002826D006F6E81007F01CFD64
:1018D00042F20C518959814201D0012000E00020E0
:1018E000C0B200280BD006F6E81007F00DFD42F25A
:1018F0000C51885106F51050F03006F033FD06F516
:101900001050F03006F039FDC0B2002803D042F28A
:1019100010500121815506F6C41006F009FE00287A
:1019200001D1012000E00020C0B2002804D006F55B
:101930001450303007F016FD06F51450383006F01C
:1019400086FDC0B2002800F0AA80306801F0DBFA02
:1019500009210268526B90470B900BA906F2E82010
:1019600007F0E1FC306801F0CEFA08210268526B02
:1019700090470A900AA906F2F02007F0D4FC3068DC
:1019800001F0C1FA07210268526B904701005748E5
:1019900007F0FAFC099009A906F2F82007F0C3FC49
:1019A000306801F0B0FA06210268526B90470100DE
:1019B0004F4807F0E9FC089008A906F2003007F04C
:1019C000B2FC306801F09FFA05210268526B904723
:1019D0000100484807F0D8FC079007A906F2083034
:1019E00007F0A1FC306801F08EFA04210268526B06
:1019F000904707F035FD404A404B07F0E9F807F003
:101A000059FD069006A906F2103007F08CFC3068EC
:101A100001F079FA03210268526B904701003848BF
:101A200007F0B2FC059005A906F2183007F07BFC20
:101A3000306801F068FA02210268526B9047010099
:101A4000304807F0A1FC049004A906F2203007F00A
:101A50006AFC306801F057FA01210268526B904726
:101A6000039003A906F2283007F05DFC306801F00E
:101A70004AFA00210268526B9047029002A906F2CE
:101A8000303007F050FC306801F03DFA0168896B96
:101A90008847019001A906F2383007F044FC16F59A
:101AA0001F6007F031FC42F6BC018959884201D021
:101AB000012000E00020C0B2002811D016F51F6000
:101AC00007F022FC42F6BC01885107F0C1FD04007A
:101AD00016F51F6007F018FC0100200007F0A9FDB3
:101AE00023B0BDE8F08300005CA702005A641142F5
:101AF000D12217410C021541DD2406819583224035
:101B0000FAFE0342E9A60C4210B5040004F50C509D
:101B1000283007F0C7FD04F50C50383007F0C2FD3F
:101B200004F50C50483007F0BDFD04F50C5058305A
:101B300007F0B8FD04F50C50683007F0B3FD04F56C
:101B40000C50783007F0AEFD04F50C50883007F0EB
:101B5000A9FD04F50C50983007F0A4FD04F50C50D5
:101B6000A83007F09FFD04F50C50B83007F09AFD3F
:101B700004F50C50C83007F095FD04F50C50D83032
:101B800007F090FD04F50C50E83007F08BFD04F5EC
:101B90000C50F83007F086FD04F51050083007F0BF
:101BA00081FD04F51050183007F07CFD04F510504D
:101BB000283007F077FD04F51050383007F072FD3B
:101BC00004F51050483007F06DFD04F51050583002
:101BD00007F068FD04F51050683007F063FD04F568
:101BE0001050783007F05EFD04F51050883007F093
:101BF00059FD04F51050983007F054FD04F51050CD
:101C0000A83007F04FFD04F51050B83007F04AFD3A
:101C100042F210500021015510BD10B5040004F22D
:101C2000681104F6783006F0ECFC04F2701114F53B
:101C3000386006F0E6FC04F2781104F6883006F00D
:101C4000E0FC04F2801114F5396006F0DAFC04F2CD
:101C5000403104F6983007F028FD04F2503114F5B5
:101C60003A6007F033FD04F2603104F6A83007F063
:101C70002DFD04F2703114F53B6007F027FD04F2EE
:101C8000803104F6B83007F021FD04F2883114F5F4
:101C90003C6007F01BFD04F2903104F6C83007F0F9
:101CA00015FD04F2983114F53D6007F00FFD04F2C4
:101CB000A03104F6D83007F009FD04F2B03114F574
:101CC0003E6007F003FD04F2B83104F6E83007F097
:101CD000FDFC04F2D83114F53F6007F0F7FC04F284
:101CE000E03104F6F83007F0F1FC04F2E83114F5C5
:101CF000406007F0EBFC04F2F03104F6084007F016
:101D0000E5FC14F5806114F5416007F0DFFC14F583
:101D1000816104F6184007F0D9FC14F5856114F5CB
:101D2000426007F0C2FC14F5876104F6284007F012
:101D3000CDFC14F5896114F5436007F0C7FC14F578
:101D40008B6104F6384007F0C1FC14F58D6114F581
:101D5000446007F0BBFC14F58E6104F6484007F0C0
:101D6000B5FC14F58F6114F5456007F0AFFC14F570
:101D7000906104F6584007F0A9FC14F5916114F540
:101D8000466007F0A3FC14F5936104F6684007F081
:101D90009DFC14F5946114F5476007F097FC14F569
:101DA000986104F6784007F091FC14F5996114F5F8
:101DB000486007F08BFC14F59A6104F6884007F040
:101DC00085FC14F59B6114F5496007F07FFC14F560
:101DD0009D6104F6984007F079FC14F59E6114F5B6
:101DE0004A6007F073FC14F5A26104F6A84007F0FE
:101DF0005CFC14F5A46114F54B6007F067FC14F566
:101E0000A66104F6B84007F061FC14F5A86114F56A
:101E10004C6007F05BFC14F5AA6104F6C84007F0BB
:101E200055FC14F5AB6114F54D6007F04FFC14F54B
:101E3000AC6104F6D84007F049FC14F5AD6114F527
:101E40004E6007F043FC14F5AE6104F6E84007F07D
:101E50003DFC14F5B06114F54F6007F037FC14F544
:101E6000B16104F6F84007F031FC14F5B56114F5E2
:101E7000506007F02BFC14F5B66104F6085007F02B
:101E800025FC14F5B76114F5516007F01FFC14F53B
:101E9000B86104F6185007F019FC14F5BA6114F58E
:101EA000526007F013FC14F5BB6104F6285007F0EC
:101EB0000DFC14F5BF6114F5536007F0F6FB14F543
:101EC000C16104F6385007F001FC14F5C36114F544
:101ED000546007F0FBFB14F5C56104F6485007F0A9
:101EE000F5FB14F5C76114F5556007F0EFFB14F529
:101EF000C86104F6585007F0E9FB14F5C96114F500
:101F0000566007F0E3FB14F5CA6104F6685007F069
:101F1000DDFB14F5CB6114F5576007F0D7FB14F522
:101F2000CD6104F6785007F0D1FB14F5CE6114F5BD
:101F3000586007F0CBFB14F5D26104F6885007F027
:101F4000C5FB14F5D36114F5596007F0BFFB14F518
:101F5000D46104F6985007F0B9FB14F5D56114F577
:101F60005A6007F0B3FB14F5D76104F6A85007F0E8
:101F7000ADFB14F5D86114F55B6007F0A7FB14F511
:101F8000DC6104F6B85007F090FB14F5DE6114F53F
:101F90005C6007F09BFB14F5E06104F6C85007F0A5
:101FA00095FB14F5E26114F55D6007F08FFB14F505
:101FB000E46104F6D85007F089FB14F5E56114F5E7
:101FC0005E6007F083FB14F5E66104F6E85007F065
:101FD0007DFB14F5E76114F55F6007F077FB14F5FE
:101FE000E86104F6F85007F071FB14F5EA6114F5A6
:101FF000606007F06BFB14F5EB6104F6086007F016
:1020000065FB14F5EF6114F5616007F05FFB14F5F3
:10201000F06104F6186007F059FB14F5F16114F54E
:10202000626007F053FB14F5F26104F6286007F0D4
:102030004DFB14F5F46114F5636007F047FB14F5EC
:10204000F56104F6386007F041FB14F51A6104F6F7
:10205000486006F095FB14F51D6104F6546006F027
:102060008FFB04F2542114F5666006F089FB04F23C
:10207000B42104F66C6006F083FB10BD2DE9FE432D
:1020800004000D0016009946DDF828800B9F4FF4E0
:102090009670029002A801F02DFCC4E90001C4F87A
:1020A0000890D4E90001CDE900013268290014F15B
:1020B000100007F055FB002214F1100114F160002C
:1020C00008F02EFBD4E90001CDE900017268290077
:1020D00014F1800007F044FB002214F1800114F198
:1020E000D00008F01DFBD4E90001CDE90001B26881
:1020F000290014F1F00007F033FB002214F1F00185
:1021000004F2401008F00CFBD4E90001CDE9000115
:10211000F268290004F2601007F022FB002204F2AA
:10212000601104F2B01008F0FBFAD4E90001CDE927
:1021300000013269290004F2D01007F011FB0022DF
:1021400004F2D01104F2202008F0EAFA210004F28F
:10215000402006F063F9C4F85082C4F85472D4F8F1
:10216000500206F0E5F9002801D0012000E000202F
:1021700084F85802002084F859027069C4F85C029F
:1021800094F85812D4F8540206F0E4FA94F858027D
:10219000002820D0D4F85C02D4F85C120968C96821
:1021A0008847002114F16C0006F0D4FA002114F1E4
:1021B000DC0006F0CFFA002104F24C1006F0CAFA57
:1021C000002104F2BC1006F0C5FA002104F22C2014
:1021D00006F0C0FA1FE0D4F85C02D4F85C1209687B
:1021E00009698847012114F16C0006F0B3FA012156
:1021F00014F1DC0006F0AEFA012104F24C1006F0F6
:10220000A9FA012104F2BC1006F0A4FA012104F29B
:102210002C2006F09FFA2000BDE8FE832DE9F04156
:1022200086B0040014F1100007F0C5FB14F1800023
:1022300007F0C1FB14F1F00007F0BDFB04F26010E1
:1022400007F0B9FB04F2D01007F0B5FB04F2402010
:1022500006F0FDF8C0B2002800F0008114F1600023
:1022600006F066F9050014F1D00006F061F90600E9
:1022700004F2401006F05CF9070004F2B01006F01A
:1022800057F9804604F2202006F052F916EA0501BB
:10229000394018EA0101014201D0012000E000208C
:1022A00084F8590214F1780008F056FA050014F188
:1022B000100007F03EFC06002DB2280008F060FA7E
:1022C000310007F061F8049004A9A06807F02BF82A
:1022D00014F1E80008F040FA050014F1800007F05E
:1022E00028FC06002DB2280008F04AFA310007F059
:1022F0004BF8039003A9A068083007F014F804F223
:10230000581008F029FA050014F1F00007F011FC4C
:1023100006002DB2280008F033FA310007F034F837
:10232000029002A9A068103006F0FDFF04F2C81068
:1023300008F012FA050004F2601007F0FAFB06003C
:102340002DB2280008F01CFA310007F01DF80190AA
:1023500001A9A068183006F0E6FF04F2382008F062
:10236000FBF9050004F2D01007F0E3FB06002DB2E4
:10237000280008F005FA310007F006F8009000A9DF
:10238000A068203006F0CFFFD4F8540206F0D0F851
:10239000002801D0012000E0002094F85812C0B2BB
:1023A000814201D0012000E00020C0B2002855D0B9
:1023B000D4F8540206F0BCF8002801D0012000E057
:1023C000002084F8580294F85812D4F8500206F00D
:1023D000C1F994F85802002820D0D4F85C02D4F84F
:1023E0005C120968C9688847002114F16C0006F086
:1023F000B1F9002114F1DC0006F0ACF9002104F27F
:102400004C1006F0A7F9002104F2BC1006F0A2F966
:10241000002104F22C2006F09DF91FE0D4F85C02A4
:10242000D4F85C12096809698847012114F16C002D
:1024300006F090F9012114F1DC0006F08BF901217E
:1024400004F24C1006F086F9012104F2BC1006F0EB
:1024500081F9012104F22C2006F07CF906B0BDE8D8
:10246000F08110B5040021606260A3600120207338
:1024700014F10C01206800F06DFEA168606806F0A0
:102480007FF9200010BD704738B50400207B00287C
:102490000ED1606806F04CF80500A06806F048F818
:1024A000854201D1012000E0002090F0010000E011
:1024B0000120C0B2002830D0206800F054FE90F017
:1024C0000100C0B2002828D100202073606806F007
:1024D0002FF80500A06806F02BF8854201D00120F6
:1024E00000E00020C0B2002803D06168A06806F0B8
:1024F00047F9606806F01CF8002801D0012000E0D0
:102500000020C0B2002804D00321206800F02EFE75
:1025100003E00121206800F029FE31BD70B5040000
:102520000E00150030003168C9688847C0B2002825
:1025300001D1012000E00020C0B2002804D030000A
:102540003168896A8847EDE7300004F0E4FBC0B2E7
:10255000002802D0280008F02DF9200070BD704737
:1025600030B58BB004000D00280000F0FCFDC0B2B7
:10257000002803D1280000F019FEF5E74FF4FA70A7
:10258000029002A801F0B6F9CDE9000100A904A863
:1025900005F0D0FE05F0E6FE04A805F0EEFEC0B2A0
:1025A000002803D1280000F001FEF5E720000BB061
:1025B00030BD704738B504000D00200008F018FC4D
:1025C00014F1080008F014FC14F1100008F010FCDD
:1025D00014F1180008F00CFC14F1200008F008FCBD
:1025E000A562A06A00F260102060A06A00F26C1080
:1025F0006060A06A00F27810A060A06A00F2841007
:10260000E060A06A00F290102061A06A00F29C10C5
:102610006061A06A00F2A810A061A06A00F2B41084
:10262000E061A06A00F2C0102062A06A00F2CC1043
:102630006062200032BD10B5040021606260A360BA
:1026400000202073002020610121A06800F21420E6
:1026500006F080F8A06800F2142005F069FF206100
:10266000200010BD10B50400207B002802D00128F6
:102670002FD05EE0A06800F2142005F059FF216918
:10268000814201D0012000E00020C0B200281FD00C
:10269000A06800F2142005F04BFF2061A06800F252
:1026A000142005F045FF002801D0012000E00020A3
:1026B000C0B200280AD0206821680968C969884723
:1026C000606861680968C969884701E00120207372
:1026D0002FE0206821680968096A8847C0B200288D
:1026E00004D1206821680968896988476068616841
:1026F0000968096A8847C0B2002804D16068616827
:10270000096889698847206821680968096A8847D3
:10271000C0B2002807D1606861680968096A884703
:1027200090F0010000E00020C0B2002801D000209D
:10273000207310BD0160704780B5DFF88007007816
:10274000002808D10021DFF87807FFF7F3FFDFF852
:102750006C0701210170DFF86C070078002808D1B0
:102760000021DFF86407FFF7E5FFDFF858070121D4
:102770000170DFF858070078002808D10021DFF841
:102780005007FFF7D7FFDFF8440701210170DFF89A
:1027900044070078002808D10021DFF83C07FFF744
:1027A000C9FFDFF830070121017001BD2DE9F043B9
:1027B0008BB004005FF0FF30009003230022DFF8AD
:1027C0001C17200008F04CFB5FF0FF300090032343
:1027D0000122DFF8081714F1100008F041FB5FF048
:1027E000FF30009003230222DFF8F01614F12000DE
:1027F00008F036FB5FF0FF30009003230322DFF880
:10280000DC1614F1300008F02BFB5FF0FF30009075
:1028100003230422DFF8C41614F1400008F020FB63
:102820005FF0FF30009003230522DFF8B41614F1A7
:10283000500008F015FB14F15000029014F1400014
:10284000019014F13000009014F1200314F11002F3
:10285000210014F1600008F0A9FB14F1600114F1EB
:10286000780008F0AFFB5FF0FF30009000230722F4
:10287000DFF8701614F1880008F0F2FA5FF0FF300C
:10288000009003230022DFF8601614F1980008F08E
:10289000E7FA1F2114F1780008F0B1FB14F1980356
:1028A000020014F1880114F1A80008F0ADFB5FF0FC
:1028B000FF30009000230122DFF8301614F1B4003D
:1028C00008F0CEFA5FF0FF30009003230322DFF818
:1028D000201614F1C40008F0C3FA5FF0FF30009036
:1028E00003230722DFF8041614F1D40008F0B8FA25
:1028F00014F1D40314F1C40214F1B40114F1E4008E
:1029000008F082FB5FF0FF30009003230122DFF824
:10291000D81514F1F00008F0A3FA052114F178009D
:1029200008F06DFB05000C2114F1780008F067FB3E
:1029300006000B2114F1780008F061FB07000E215E
:1029400014F1780008F05BFB80460D2114F178004B
:1029500008F055FB14F1F00102910190CDF80080D0
:102960003B003200290004F2001008F051FB5FF038
:10297000FF30009003230022DFF8741504F21810D2
:1029800008F06EFA5FF0FF30009003230122DFF8B9
:10299000601504F2281008F063FA5FF0FF30009031
:1029A00003230222DFF8481504F2381008F058FA21
:1029B00004F2381304F2281204F2181104F2481039
:1029C00008F032FB04F2481104F2541008F030FB16
:1029D000182114F1780008F012FB0500192114F1F8
:1029E000780008F00CFB06001A2114F1780008F0BA
:1029F00006FB0700172114F1780008F000FB804661
:102A0000052104F2541008F030FB8146042114F132
:102A1000780008F0F4FA0290CDF80490CDF8008028
:102A20003B003200290004F2641008F023FB14215B
:102A300014F1780008F0E3FA0500152114F178008C
:102A400008F0DDFA0600162114F1780008F0D7FA34
:102A50000700132114F1780008F0D1FA8046042110
:102A600004F2541008F001FB8146012114F17800B2
:102A700008F0C5FA0290CDF80490CDF800803B0034
:102A80003200290004F27C1008F0F4FA1D2114F140
:102A9000780008F0B4FA05001C2114F1780008F061
:102AA000AEFA06001B2114F1780008F0A8FA07001E
:102AB0001E2114F1780008F0A2FA8046032104F2E6
:102AC000541008F0D2FA8146002114F1780008F081
:102AD00096FA0290CDF80490CDF800803B003200C9
:102AE000290004F2941008F0C5FA102114F17800BE
:102AF00008F085FA0500112114F1780008F07FFA3A
:102B00000600122114F1780008F079FA07000A2172
:102B100014F1780008F073FA8046022104F2541090
:102B200008F0A3FA8146032114F1780008F067FA4F
:102B30000290CDF80490CDF800803B0032002900CF
:102B400004F2AC1008F096FA062114F1780008F0AF
:102B500056FA0500072114F1780008F050FA060033
:102B6000082114F1780008F04AFA0700092114F14D
:102B7000780008F044FA8046012104F2541008F06D
:102B800074FA8146022114F1780008F038FA0290B4
:102B9000CDF80490CDF800803B003200290004F20B
:102BA000C41008F067FA04F2C410019004F2AC10EB
:102BB000009004F2941304F27C1204F2641104F203
:102BC000DC1008F063FA5FF0FF300090032303226B
:102BD0005FF0402104F2F01008F042F95FF0FF309E
:102BE000009003230022C14904F2002008F038F9C4
:102BF0005FF0FF30009003230422BA4904F2102052
:102C000008F02EF95FF0FF30009003230222B9494B
:102C100004F2202008F024F95FF0FF300090032335
:102C20000522B04904F2302008F01AF95FF0FF30B5
:102C30000090032306225FF0402104F2402008F0B8
:102C40000FF95FF0FF30009003230722A34904F23D
:102C5000502008F005F95FF0FF30009003230322B5
:102C6000A44904F2602008F0FBF85FF0FF30009008
:102C7000032306229B4904F2702008F0F1F85FF06C
:102C8000FF300090032307225FF0402104F28020F0
:102C900008F0E6F85FF0FF30009003230722924926
:102CA00004F2902008F0DCF85FF0FF30009003237E
:102CB00005228F4904F2A02008F0D2F85FF0FF301F
:102CC0000090002304228A4904F2B02008F0C8F8DA
:102CD00004F2B020099004F2A020089004F29020A1
:102CE000079004F28020069004F27020059004F210
:102CF0006020049004F25020039004F240200290DF
:102D000004F23020019004F22020009004F21023FD
:102D100004F2002204F2F01104F2C02008F0C0F91D
:102D20006420039003A800F0E5FDCDE90001002335
:102D300001224CF2FF0104F2F82008F009FA6E4873
:102D4000C4F828036D4802906C4801906B480090CD
:102D500001230022D4F8281304F22C3009F0B2FD2C
:102D60005E4802905D4801905C480090002300227C
:102D7000D4F8281304F27C3009F0A4FD5FF07C50F5
:102D80000090D4F828030A2101FB00F200232C2133
:102D900004F2CC300AF0F2FB5FF07C500090D4F8E3
:102DA00028030A2101FB00F20023212104F2E43070
:102DB0000AF0E4FB0DF106000AF068FE00A80DF130
:102DC0000601062205F034FC04F2FC3000A90622BC
:102DD00005F02EFC0120019004F2FC3181B0684620
:102DE000062205F025FC08BC4FF49672012104F27E
:102DF00004400AF093FE05F015FC019000A801A91B
:102E0000042205F015FC04F24C4000A9042205F050
:102E10000FFC41F28E30A4F850041C230022A8219C
:102E2000C0200BF091FA019000A801A9042205F03E
:102E3000FFFB04F2524000A9042205F0F9FB41F225
:102E40008E30A4F856040A20009004F2524304F293
:102E50004C4204F2044114F58B600BF0BBFB04A858
:102E600004F24C41042205F0E3FB0A200290B4F87E
:102E70005604019004F252416846042205F0D8FB42
:102E8000B4F85034049A14F58B6114F5AE600DF06B
:102E900011FC5FF0FF30009000230622134914F567
:102EA000B66007F0DDFF0020C4F8C00504F29020F2
:102EB00008F061F820000BB0BDE8F0832B33002050
:102EC000903200202C330020983200202D33002037
:102ED000943200202A3300208C32002000700240FF
:102EE00000500240006000400060024000D00340FB
:102EF000005000400070004020A107000040024048
:102F000000F2DC10704700F2F820704700F22C301D
:102F1000704700F27C30704710F5AE60704700F2E9
:102F2000C020704700F200107047A8307047E430AE
:102F3000704700F2E430704700F2CC30704780B543
:102F40000F21783008F05BF802BD10F5B6607047CD
:102F500080B5DFF8B0040078002808D10021DFF840
:102F6000A804FFF7E7FBDFF89C0401210170DFF8FC
:102F70009C040078002808D10021DFF89404FFF7B2
:102F8000D9FBDFF8880401210170DFF8880400789C
:102F9000002808D10021DFF88004FFF7CBFBDFF821
:102FA000740401210170DFF874040078002808D14E
:102FB0000021DFF86C04FFF7BDFBDFF8600401219E
:102FC000017001BD10B586B0040021606260A3608D
:102FD000002020730020607414F114000DF03EFEF8
:102FE000002084F82400002084F8250040F6B83042
:102FF000019001A800F07EFCCDE9040104A914F1C0
:10300000280005F097F9200000F041FA6068616837
:1030100009688968884714F1280005F0A3F9206839
:10302000006821680968096889688847C0B2002873
:1030300012D114F1280005F0A0F9C0B20028EED09A
:1030400005F053FDDFF8DC1306F01CF8DFF8D813A9
:1030500006F00CF906202073206840682168496852
:103060000968C96888472068806821688968096894
:10307000C96888470A20009000A800F03BFCCDE911
:10308000020102A914F1280005F064F914F12800E6
:1030900005F068F9200006B010BD10B5040014F169
:1030A00014000DF0EBFD200010BD30B585B004001C
:1030B000002508E0290014F114000DF0E6FD006879
:1030C000012101706D1C14F114000DF0E2FD854228
:1030D00001D2012000E00020C0B20028EAD1207B0C
:1030E000012802D0207B042804D1A068A1680968C7
:1030F000C9698847002084F82400002084F825004E
:10310000200000F0C4F96068616809688968884730
:1031100020684068216849680968C968884720684C
:103120008068216889680968C96888470A20029010
:1031300002A800F0DFFBCDE9000100A914F128008E
:1031400005F008F914F1280005F00CF900202073AF
:1031500005B030BD02B50099002903D000A9143094
:103160000DF09CFD01BD90F82400704781B0ADF8D2
:1031700000109DF8011041739DF80010817301212A
:1031800080F82510002180F8241001B0704781B02C
:10319000C17B9DF801208DF80110007C9DF8001086
:1031A0008DF80000BDF8000001B0704730B58BB05D
:1031B0000400A068A1680968896B8847207B002803
:1031C0000CD0022859D02BD3042800F08D805ED378
:1031D000062800F00881C0F0D0800FE114F128002B
:1031E00005F0CBF8C0B2002819D0206880682168AB
:1031F00089680968096988474FF4FA70089008A837
:1032000000F078FBCDE9060106A914F1280005F0CD
:10321000A1F814F1280005F0A5F802202073EDE0D4
:10322000A068A168096849698847C0B2002801D12F
:10323000012000E00020C0B200281DD020684068B6
:10324000216849680968C9688847A068A168096851
:10325000C96988470120019001A800F04BFBCDE926
:10326000040104A914F1280005F074F814F12800F1
:1032700005F078F802202073C0E014F1280005F072
:103280007CF8C0B2002801D003202073B6E0A0680B
:10329000A1680968096A8847C0B200280DD1A068F2
:1032A000A168096849698847C0B2002801D0012097
:1032B00000E0002090F0010000E00020C0B20028F3
:1032C00011D0200000F0B4F8200000F0D2F8022362
:1032D00014F10D0214F10F01A068A5682D68ED6BC3
:1032E000A8470420207389E0A068A168096849699B
:1032F0008847C0B2002801D1012000E00020C0B200
:10330000002839D020684068216849680968C96880
:103310008847A068A1680968C9698847200000F04B
:10332000ADF800280AD0606861680968C9688847F4
:10333000012084F82400052020731DE0607C1428FF
:1033400016D2607C401C60744FF4FA70009000A8A4
:1033500000F0D0FACDE9020102A914F1280004F02E
:10336000F9FF14F1280004F0FDFF0220207303E0B0
:10337000002060740620207340E094F825000028A7
:1033800030D0A068A1680968096A8847C0B20028DF
:103390000DD1A068A168096849698847C0B20028B2
:1033A00001D0012000E0002090F0010000E00020AA
:1033B000C0B2002816D0002084F82500606861683B
:1033C000096889688847200000F032F8022214F169
:1033D0000D01A068A3681B681B69984700206074F2
:1033E000012020730AE005F080FB104905F04AFE39
:1033F0000D4905F03BFF2000FFF757FE0BB030BD35
:10340000000000002B330020903200202C330020DD
:10341000983200202D330020943200202A330020DF
:103420008C320020B08B0200CD840200E0930200B9
:1034300010B504000121A068A2681268126B9047C1
:103440000021A068A2681268926A90470021A068D3
:10345000A2681268D26A9047A068A1680968896961
:103460008847206840682168496809680969884771
:1034700010BD00214173022181737047007C10F060
:103480000200C0B2400890F00100C0B2704710B511
:1034900004000222002114F10D000DF022FC022292
:1034A000002114F10F000DF01CFC10BDF8B5040054
:1034B00015001E00069F21600220207114F10800F3
:1034C0000DF019FC14F118000DF025FC14F1280082
:1034D0000DF021FCA563E6632764002084F8440016
:1034E000002084F84500002084F84600002084F87D
:1034F000470014F108000DF01EFC14F118000DF047
:1035000029FC14F128000DF025FC14F14701206876
:10351000FFF720FE2000F2BD10B5040014F12800D2
:103520000DF027FC14F118000DF023FC14F1080035
:103530000DF026FC200010BD10B584B00C000194E5
:103540008DF8082001A908300DF021FC00208DF82D
:10355000000000A9200005F0F3FE1FBD30B583B0C8
:1035600004000D0000958DF80420DBB2002B05D07F
:1035700014F118000DF02EFC84F8440000A914F199
:1035800018000DF02CFC0021280005F0E3F837BDF1
:103590001CB50C0000948DF8042000A928300DF013
:1035A0001EFC0021200005F0D5F813BD002180F895
:1035B00046100179002902D0012180F8451070479A
:1035C000002180F845100179022902D0012180F8FC
:1035D00046107047F8B50400E06B04F0A9FF01281D
:1035E00001D1012000E00020C0B2002803D02068F3
:1035F000FFF75BFD0AE094F84700002806D0206C36
:10360000002803D00121206C05F0A4F894F84700AD
:1036100000280DD02079002802D02079012801D17E
:1036200000202071200000F009F9002084F84700F4
:103630002079002804D0022800F0838031D3A8E04C
:103640002068FFF790FD00282AD094F84600002853
:1036500016D0002084F846000021A06B05F07AF80F
:1036600094F8441014F118000DF0DCFB0021006800
:1036700005F070F8200000F08DF8022020710FE0B6
:10368000A06B04F055FF012801D1012000E00020CB
:10369000C0B2002804D0200000F07CF80120207186
:1036A00077E02068FFF75FFD002849D02068FFF72A
:1036B0006EFD050094F8441014F118000DF0B2FBF3
:1036C000060094F8441014F118000DF0ABFBADB2F5
:1036D000012190F9040011FA00F010EA05013068A8
:1036E00005F038F8002618E0F6B2310014F1280091
:1036F0000DF098FB0700F6B2310014F128000DF030
:1037000091FBADB2012190F9040011FA00F010EA2A
:103710000501386805F01EF8761C14F128000DF03C
:1037200059FBF6B2864201D2012000E00020C0B26F
:103730000028D9D10021A06B05F00CF800202071E1
:1037400027E02068FFF70FFD002822D094F84500FD
:10375000002805D0002084F845000020207118E0E2
:10376000A06B04F0E5FE012801D1012000E000205B
:10377000C0B200280DD00021A06B04F0EBFF94F83C
:10378000441014F118000DF04DFB0021006804F006
:10379000E1FFF1BDF8B504000025002616E0F6B201
:1037A000310014F108000DF041FB006804F07BFFCC
:1037B0000700FFB2F6B2310014F108000DF036FB3D
:1037C00090F9040017FA00F00543761C14F1080084
:1037D0000DF030FBF6B2864201D2012000E000205D
:1037E000C0B20028DBD1002615E0F6B2310014F19A
:1037F00018000DF017FB006804F09AFE0700F6B2FF
:10380000310014F118000DF00DFB90F9040017FAC7
:1038100000F00543761C14F118000DF0DBFAF6B247
:10382000864201D2012000E00020C0B20028DCD195
:10383000290089B22068FFF799FCF1BD38B5040072
:103840000021E06B04F086FF0021A06B04F082FFF2
:1038500000250DE0EDB2290014F108000DF0E6FAA4
:1038600000218DF8001000A9006805F069FD6D1CAD
:1038700014F108000DF0DEFAEDB2854201D201200C
:1038800000E00020C0B20028E4D100250AE0EDB23B
:10389000290014F118000DF0C5FA0021006804F0A9
:1038A00059FF6D1C14F118000DF094FAEDB2854229
:1038B00001D2012000E00020C0B20028E7D100259D
:1038C0000AE0EDB2290014F128000DF0ABFA002156
:1038D000006804F03FFF6D1C14F128000DF07AFA27
:1038E000EDB2854201D2012000E00020C0B20028E4
:1038F000E7D131BDF8B5040004F0C2FD2268D3174A
:103900000B48D0E90045A4FB020104FB031105FBB1
:103910000211084AD2E900454FF47A760027A6FB47
:10392000042306FB053307FB04330DF089FAF4BDCD
:1039300038320020A000002080B5DFF8880700782A
:10394000002808D10021DFF88007FEF7F3FEDFF83A
:10395000740701210170DFF874070078002808D18E
:103960000021DFF86C07FEF7E5FEDFF860070121B4
:103970000170DFF860070078002808D10021DFF827
:103980005807FEF7D7FEDFF84C0701210170DFF87A
:103990004C070078002808D10021DFF84407FEF723
:1039A000C9FEDFF838070121017001BD914002789E
:1039B0009A4302700278114301707047D2F10802F5
:1039C000D14002781A4002700278114301707047AA
:1039D0002DE9F14F88B00D000820B2FBF0F101FB9A
:1039E000102100910820B3FBF0F606FB1036D0083A
:1039F0000190DF085FF0000900240098B04270D108
:103A0000002E0BD00098002808D0129830180828F3
:103A100002D3D6F1080901E0DDF848901298B0EB26
:103A200009000821B0FBF1F404FB11041298B0EB7B
:103A30000900001B5FEAD0085FF0000AB9F1000F2F
:103A40001DD0002012997118082904D3494600207E
:103A50000DF08FFA06E049461298D0F10800801B5D
:103A60000DF087FA0199089A895C01407A5D32EA83
:103A700000007855785D084378555FF0010A002C06
:103A800023D02100D4F108000DF073FA019918EB4E
:103A9000010111EBD901089A895C014018EB07027A
:103AA0001AEB020218EB07031AEB03035B5D33EA20
:103AB0000000505518EB07001AEB000018EB070246
:103AC0001AEB0202525D1143415542460198089992
:103AD00040181AEB000178191AEB00000DF052FAA9
:103AE000F9E1002002900020059000208DF80C00E4
:103AF0005FF000080098B04235D20098B6EB00089D
:103B0000D8F1080100200DF034FA8DF80C00CDF842
:103B1000148000200290002E0DD0009800280AD0BA
:103B2000009812990818092803D30098D0F10809C1
:103B300001E0DDF84890129818EB0000B0EB0900A6
:103B4000002801D104002EE00821B0FBF1F202FBB5
:103B50001102002A01D1082425E00821B0FBF1F46C
:103B600004FB11041FE0009886421CD20098B0EBC1
:103B70000608414600200DF0FCF98DF80C00D8F144
:103B80000800059001200290002E04D00098002823
:103B900001D0D6F108091298B0EB09000821B0FB5A
:103BA000F1F404FB1104002006901298082804D3B5
:103BB0001298B0EB0900C008069000200490B9F1FB
:103BC000000F75D0012004900098864234D24146FF
:103BD000D8F108000DF0CDF98DF80D000098D0F166
:103BE000080100200DF0C5F90199089A11F802A00A
:103BF0005FF0000910EA0A0A3AFA08FA01980899EF
:103C0000401890F801B04146D8F108000DF0B1F924
:103C100010EA0B0BD8F108001BFA00FB5AEA09095D
:103C20005BEA0909785D9DF80D1008407855785DCC
:103C300059EA000078553BE00098B04238D201982C
:103C4000089910F801A00198089910F80190D6F190
:103C5000080140460DF08DF910EA0A0A1AFA08FA2E
:103C6000414600200DF085F910EA0909D8F1080055
:103C700039FA00F9D6F1080100200DF07AF9795DE2
:103C800031EA00007855785D5AEA000078554146DF
:103C9000D8F108000DF06DF97919497831EA000082
:103CA000791948707819407859EA000079194870F4
:103CB00000200790002C00F0D98006980199081880
:103CC000049911EB000906983818049911EB000AC1
:103CD0005FF0000B5FEA4800D0F10800029901FB99
:103CE000008084426AD20098B04223D22100D4F1ED
:103CF00008000DF03EF98346210001200DF039F94E
:103D0000089919F801100140D4F10800401EC14083
:103D10001AEB0500407830EA0B001AEB05025070F0
:103D20001AEB0500407808431AEB050148700120A2
:103D300007909BE00098864280F098800098129946
:103D40000818082829D2089819F800401298082263
:103D5000B0FBF2F101FB120112980822B0FBF2F362
:103D600003FB1203D3F10800009A801A0DF001F949
:103D700006001298D0F1080100200DF0FAF8344046
:103D800034FA08F41AF8051008400AF805001AF881
:103D9000050020430AF8050068E04146D8F1080014
:103DA0000DF0E7F883465B46DBB2059A089819F8F0
:103DB00000101AEB0500FFF7F9FD57E00098864266
:103DC0000DD29DF80C30059A029810EB0900089965
:103DD000401810F8011C1AEB0500FFF7EFFD5FEA31
:103DE0004800D0F10800029901FB0080A0423DD2BA
:103DF0000098B04210D2B4EB0801D4F108000DF0E5
:103E0000B8F883465B46DBB2059A089819F80010AB
:103E10001AEB0500FFF7CAFD0098864226D2B4F1DE
:103E2000080018EB0001D4F108000830B0EB0800DE
:103E30000DF09FF80600B4F1080018EB0001D4F172
:103E400008000DF096F8089919EB01014978314006
:103E5000D8F1080291401AF8052032EA00000AF869
:103E600005001AF8050008430AF80500002411E0CF
:103E700001980019049908183919049A56189DF8E0
:103E80000C30059A029908180899415C7019FFF7DF
:103E90008DFD641C0698079908188442E8D3002415
:103EA00016E0019800190499029A02FB01003919E1
:103EB000049A029B03FB02169DF80C30059A0899A0
:103EC000415C701C029E801B4019FFF777FD641C4B
:103ED00006988442E5D309B0BDE8F08F70B50400C0
:103EE0000D0016000DF07CF8C0B2002801D10120B1
:103EF00000E00020C0B200280ED0EDB2280006E09D
:103F0000011949780219035D53700155801CEDB207
:103F1000F6B271198842F3D370BD70B4039C049D4E
:103F20000E18904209D3984207D2B24205D2B3424A
:103F300003D32160801A28601DE0824208D2984293
:103F400006D2B34204D2191A2160801A286012E006
:103F5000904208D2B24206D29E4204D2B01A2060E9
:103F60000020286007E0824205D39E4203D3981ABE
:103F700020600020286070BC70472DE9F84F0600D3
:103F80000F0090469946DDF828A0DDF82CB0DDE959
:103F90000C4530000DF03AF8DFF84C0130604FF47A
:103FA0008271301D0DF036F8002070615FEAC800A4
:103FB000B0615FEAC900F061C6F820A0C6F824B07D
:103FC00019EB080010EB4A0010EB4B00B062C6F88A
:103FD0002C8019EB0800306319EB080010EB4A0045
:103FE000706319EB080010EB4A0010EB4B00B06354
:103FF000002086F83C00414616F140000DF00AF81A
:10400000494616F150000DF005F8594616F16000CA
:104010000DF016F8514616F170000DF011F8002061
:10402000C6F880000020C6F884000020C6F888008A
:104030000020C6F88C000020C6F890000020C6F8CA
:1040400094000020C6F898000020C6F89C000020CC
:10405000C6F8A000C6F8A470D6F8A41016F1A800FF
:104060000CF0F4F9002086F8100122002B0016F164
:10407000A8000CF023FA22002B0016F1A8000CF087
:1040800023FA3000BDE8F28F10B50400DFF85800C5
:10409000206014F170000CF0EAFF14F160000CF0E5
:1040A000E6FF14F150000CF0EDFF14F140000CF0AD
:1040B000E9FF201D0CF0E6FF20000CF0EEFF2000D1
:1040C00010BD00002B330020903200202C33002044
:1040D000983200202D330020943200202A33002013
:1040E0008C3200207047000010760200F0B583B0DB
:1040F00004000D0016001F00A06BB919884200D201
:10410000F7BD0020C4F880000020C4F8840000201F
:10411000C4F888000020C4F88C000020C4F8900087
:104120000020C4F894000020C4F898000020C4F8CF
:104130009C0014F18400019014F180000090E36A67
:10414000002239003000FFF7E8FE14F18C000190E6
:1041500014F188000090236BE26A39003000FFF709
:10416000DCFE14F19400019014F190000090636B58
:10417000226B39003000FFF7D0FE14F19C00019053
:1041800014F198000090A36B626B39003000FFF7C8
:10419000C4FED4F8800000281CD014F140000CF0BC
:1041A00080FFD4F88410D4F880205118884201D2BE
:1041B000012000E00020C0B20028A1D114F140008D
:1041C0000CF071FFD4F88020D4F88410091828006E
:1041D0000CF0D8FED4F88800002803D1D4F88C0065
:1041E00000281FD014F150000CF05BFFD4F88C10A5
:1041F000D4F888205118884201D2012000E0002024
:10420000C0B200287FF47CAF14F150000CF04BFFDB
:10421000D4F88820D4F88C100918D4F880004019FC
:104220000CF0B0FED4F89000002803D1D4F894002C
:10423000002824D0D4F88000D4F888100E1814F187
:1042400070000CF03BFF070014F170000CF041FF10
:10425000D4F89410D4F890205118B0EB510F01D23B
:10426000012000E00020C0B200287FF449AFD4F85C
:104270009020D4F89400C11970190CF083FED4F882
:104280009800002803D1D4F89C00002827D0D4F847
:104290008000D4F888100818D4F890100E1814F183
:1042A00060000CF00BFF070014F160000CF011FF30
:1042B000D4F89C10D4F898205118B0EB510F01D2CB
:1042C000012000E00020C0B200287FF419AFD4F82C
:1042D0009820D4F89C00C11970190CF053FE0FE718
:1042E000F0B583B004000D0016001F00A06BB919D3
:1042F000884200D2F7BD0020C4F880000020C4F836
:1043000084000020C4F888000020C4F88C0000203D
:10431000C4F890000020C4F894000020C4F898006D
:104320000020C4F89C0014F18400019014F1800076
:104330000090E36AD4F8842039003000FFF7EDFDE7
:1043400014F18C00019014F188000090236BE26A54
:1043500039003000FFF7E1FD14F19400019014F1F1
:1043600090000090636B226B39003000FFF7D5FDA1
:1043700014F19C00019014F198000090A36B626B03
:1043800039003000FFF7C9FDD4F8800000281CD0A8
:1043900014F140000CF085FED4F88410D4F880208D
:1043A0005118884201D2012000E00020C0B200284C
:1043B000A0D114F140000CF076FED4F88020290042
:1043C000D4F8843018180CF0DDFDD4F888000028EB
:1043D00003D1D4F88C0000281FD014F150000CF049
:1043E00060FED4F88C10D4F888205118884201D28D
:1043F000012000E00020C0B200287FF47BAF14F160
:1044000050000CF050FED4F88820D4F880104919E0
:10441000D4F88C3018180CF0B5FDD4F890000028B2
:1044200003D1D4F89400002824D0D4F88000D4F824
:1044300088100F1814F170000CF040FE060014F103
:1044400070000CF046FED4F89410D4F89020511867
:10445000B0EB510F01D2012000E00020C0B20028D3
:104460007FF448AFD4F890207919D4F894008019DB
:104470000CF088FDD4F89800002803D1D4F89C00F3
:10448000002827D0D4F88000D4F888100818D4F871
:1044900090100F1814F160000CF010FE060014F1DB
:1044A00060000CF016FED4F89C10D4F89820511837
:1044B000B0EB510F01D2012000E00020C0B2002873
:1044C0007FF418AFD4F898207919D4F89C0080199B
:1044D0000CF058FD0EE77CB505000C001600082E08
:1044E00001D3002076BDA86AA04201D20020F9E7DE
:1044F0000020C5F880000020C5F884000020C5F821
:1045000088000020C5F88C000020C5F8900000202D
:10451000C5F894000020C5F898000020C5F89C005C
:1045200015F18400019015F180000090EB6AD5F838
:10453000842001212000FFF7F0FC15F18C00019090
:1045400015F1880000902B6BEA6A01212000FFF72B
:10455000E4FC15F19400019015F1900000906B6B54
:104560002A6B01212000FFF7D8FC15F19C00019077
:1045700015F198000090AB6B6A6B01212000FFF7EA
:10458000CCFC0121D6F10800401E0CF0F2FC040026
:10459000082E80F0BC80D5F88000002803D1D5F823
:1045A000840000281ED015F140000CF07AFDD5F8EB
:1045B0008410D5F880205118884201D2012000E0F3
:1045C0000020C0B2002801D000208BE7D5F884106D
:1045D00015F140000CF080FD00782040C0B20CF0D6
:1045E0009FFD7FE7D5F88800002803D1D5F88C001F
:1045F00000281ED015F150000CF053FDD5F88C109A
:10460000D5F888205118884201D2012000E000200E
:10461000C0B2002801D0002064E7D5F88C1015F155
:1046200050000CF059FD00782040C0B20CF078FD2D
:1046300058E7D5F89000002803D1D5F89400002859
:104640002ED015F170000CF044FDD5F89410D5F87B
:1046500090205118B0EB510F01D2012000E0002052
:10466000C0B2002801D000203CE7002095F894104B
:10467000C90708D4D5F89400410815F170000CF072
:1046800057FD007807E0D5F89400410815F1700057
:104690000CF04EFD40782040C0B20CF041FD21E707
:1046A000D5F89800002803D1D5F89C0000282ED01A
:1046B00015F160000CF00DFDD5F89C10D5F8982090
:1046C0005118B0EB510F01D2012000E00020C0B220
:1046D000002801D0002005E7002095F89C10C907AC
:1046E00008D4D5F89C00410815F160000CF020FDBD
:1046F000007807E0D5F89C00410815F160000CF047
:1047000017FD40782040C0B20CF00AFDEAE6002018
:10471000E8E67CB504000D001600082E00D373BD3A
:10472000A06AA842FBD30020C4F880000020C4F88F
:1047300084000020C4F888000020C4F88C00002009
:10474000C4F890000020C4F894000020C4F8980039
:104750000020C4F89C0014F18400019014F1800042
:104760000090E36A002201212800FFF7D6FB14F134
:104770008C00019014F188000090236BE26A012103
:104780002800FFF7CAFB14F19400019014F1900087
:104790000090636B226B01212800FFF7BEFB14F130
:1047A0009C00019014F198000090A36B626B0121B2
:1047B0002800FFF7B2FB0121D6F10800401E0CF0E3
:1047C000D8FB0500082E80F0E780D4F88000002890
:1047D00003D1D4F88400002822D014F140000CF05A
:1047E00060FCD4F88410D4F880205118884201D29B
:1047F000012000E00020C0B2002890D1D4F884103D
:1048000014F140000CF068FC0178A9430170D4F861
:10481000841014F140000CF05FFC01782943017012
:10482000D4F88800002803D1D4F88C00002823D0C5
:1048300014F150000CF035FCD4F88C10D4F888201A
:104840005118884201D2012000E00020C0B20028A7
:104850007FF465AFD4F88C1014F150000CF03CFCE0
:104860000178A9430170D4F88C1014F150000CF0B9
:1048700033FC017829430170D4F89000002803D15B
:10488000D4F8940000283FD014F170000CF021FC03
:10489000D4F89410D4F890205118B0EB510F01D2F5
:1048A000012000E00020C0B200287FF438AF0026CD
:1048B00094F89400C00708D4D4F89400410814F187
:1048C00070000CF035FC067807E0D4F8940041083D
:1048D00014F170000CF02CFC4678AE432E4394F893
:1048E0009400C00708D4D4F89400410814F1700073
:1048F0000CF01EFC067007E0D4F89400410814F197
:1049000070000CF015FC4670D4F89800002803D114
:10491000D4F89C0000283FD014F160000CF0D9FBC3
:10492000D4F89C10D4F898205118B0EB510F01D254
:10493000012000E00020C0B200287FF4F0AE002685
:1049400094F89C00C00708D4D4F89C00410814F1E6
:1049500060000CF0EDFB067807E0D4F89C004108FD
:1049600014F160000CF0E4FB4678AE432E4394F85B
:104970009C00C00708D4D4F89C00410814F16000E2
:104980000CF0D6FB067007E0D4F89C00410814F147
:1049900060000CF0CDFB4670C1E67CB504000D0054
:1049A0001600082E00D373BDA06AA842FBD30020D6
:1049B000C4F880000020C4F884000020C4F88800F7
:1049C0000020C4F88C000020C4F890000020C4F837
:1049D00094000020C4F898000020C4F89C0014F152
:1049E0008400019014F180000090E36A002201210C
:1049F0002800FFF792FA14F18C00019014F188005E
:104A00000090236BE26A01212800FFF786FA14F177
:104A10009400019014F190000090636B226B0121CF
:104A20002800FFF77AFA14F19C00019014F1980025
:104A30000090A36B626B01212800FFF76EFA012141
:104A4000D6F10800401E0CF094FA0500082E80F004
:104A5000D380D4F88000002803D1D4F88400002843
:104A600019D014F140000CF01CFBD4F88410D4F8D9
:104A700080205118884201D2012000E00020C0B2FD
:104A8000002890D1D4F8841014F140000CF024FBDD
:104A90000178A9430170D4F88800002803D1D4F824
:104AA0008C0000281AD014F150000CF0FAFAD4F857
:104AB0008C10D4F888205118884201D2012000E0DF
:104AC0000020C0B200287FF46EAFD4F88C1014F12F
:104AD00050000CF001FB0178A9430170D4F890005C
:104AE000002803D1D4F8940000283ED014F17000BF
:104AF0000CF0EFFAD4F89410D4F890205118B0EBE1
:104B0000510F01D2012000E00020C0B200287FF444
:104B10004AAF002694F89400C00708D4D4F8940053
:104B2000410814F170000CF003FB067807E0D4F89C
:104B30009400410814F170000CF0FAFA4678AE4384
:104B400094F89400C00708D4D4F89400410814F1F4
:104B500070000CF0EDFA067007E0D4F894004108FC
:104B600014F170000CF0E4FA4670D4F898000028B4
:104B700003D1D4F89C0000283ED014F160000CF062
:104B8000A8FAD4F89C10D4F898205118B0EB510F23
:104B900001D2012000E00020C0B200287FF403AF62
:104BA000002694F89C00C00708D4D4F89C00410863
:104BB00014F160000CF0BCFA067807E0D4F89C0011
:104BC000410814F160000CF0B3FA4678AE4394F853
:104BD0009C00C00708D4D4F89C00410814F1600080
:104BE0000CF0A6FA067007E0D4F89C00410814F116
:104BF00060000CF09DFA4670D5E6F8B504000D0093
:104C0000201D0CF050FA03218180201D0CF04BFA7E
:104C100000F20706201D0CF046FA00F20907307872
:104C2000803838707D70201D0CF03DFA0100102096
:104C3000009038233A783800FEF7CAFEF1BD2DE91E
:104C4000F04782B00400D4F8A400D4F8A410096896
:104C5000496A884714F1A8000BF096FC94F83C00D0
:104C6000002808D0022800F01B8334D3042800F069
:104C7000988376D3C8E3D4F8A400D4F8A4100968C4
:104C800089698847C4F8A000D4F8A000002821D082
:104C9000D4F8A450201D0CF006FA02000723D4F823
:104CA000A01028002D682D69A8470500002D11D0FF
:104CB000201D0CF0F8F9D5F107032A18D4F8A0103C
:104CC00014F1A8000BF006FC012084F83C00200041
:104CD000FFF708FA98E314F1A8000BF025FCC0B226
:104CE000012801D1012000E00020C0B2002824D01A
:104CF000201D0CF0D8F906220021FFF7EFF8201D47
:104D00000CF0D1F90500A88800280FD0201D0CF068
:104D1000CAF9A9884B1EC21DD4F8A01014F1A8002E
:104D20000BF0D8FB032084F83C0002E0002084F85C
:104D30003C002000FFF7D6F912E014F1A8000BF0B8
:104D4000F3FBC0B2022801D1012000E00020C0B274
:104D5000002805D0002084F83C002000FFF7C2F9AD
:104D600052E314F1A8000BF0DFFBC0B2012801D11F
:104D7000012000E00020C0B2002800F07D82201D4C
:104D80000CF091F900F207000078012818D00228F1
:104D90000ED003281CD0042822D0052828D00628AD
:104DA0002ED0072834D00F2833D0102839D04CE02B
:104DB000201D0CF078F904220821FFF78FF844E059
:104DC000201D0CF070F904220821FFF787F83CE061
:104DD000201D0CF068F904220821FFF77FF834E069
:104DE000201D0CF060F904220821FFF777F82CE071
:104DF000201D0CF058F904220821FFF76FF824E079
:104E0000201D0CF050F904220821FFF767F81CE080
:104E10001BE0201D0CF047F904220821FFF75EF883
:104E200013E0201D0CF03FF904220821FFF756F88B
:104E3000201D0CF038F900F20705201D0CF033F9A5
:104E40006A790D21FFF74AF8FFE7201D0CF02BF9D6
:104E50000500201D0CF027F900F20700B0F80360F0
:104E6000B0F801700078012861D0022815D003281D
:104E700000F0A680042800F0DC80052800F01281F4
:104E8000062800F09081072800F0E5810F2800F047
:104E90005681102800F0A881E0E1B6B2002E41D082
:104EA000201D0CF000F900F20708B6B2082096FBAE
:104EB000F0F101FB1061002906D1B6B2082096FB83
:104EC000F0F088F8010006E0B6B2082096FBF0F09A
:104ED000401C88F8010098F80100C01CA88014F15B
:104EE00040000CF0DEF8C000BFB2B6B2F119884243
:104EF00001D2012000E00020C0B2002804D0002030
:104F000084F83C00BDE8F38714F140000CF0CBF8C6
:104F1000B6B200960023BFB23A0018F10201FEF7C4
:104F200057FD03E002212000FFF767FE9AE1B6B2C9
:104F3000002E40D0201D0CF0B6F800F20708B6B2E3
:104F4000082096FBF0F101FB1061002906D1B6B2F2
:104F5000082096FBF0F088F8010006E0B6B20820C1
:104F600096FBF0F0401C88F8010098F80100C01C86
:104F7000A88014F150000CF094F8C000BFB2B6B293
:104F8000F119884201D2012000E00020C0B20028BF
:104F900003D0002084F83C00B4E714F150000CF07A
:104FA00082F8B6B200960023BFB23A0018F10201AF
:104FB000FEF70EFD03E002212000FFF71EFE51E187
:104FC000B6B2002E30D0201D0CF06DF800F20708AC
:104FD0003000C0B2400088F8010014F170000CF0FD
:104FE0006DF8814618F1020A14F170000CF071F8A6
:104FF000BFB2B6B2F119884201D2012000E0002010
:10500000C0B2002803D0002084F83C007AE798F86A
:105010000120BFB219EB470150460BF0B3FFB6B207
:105020007000C01CA88003E002212000FFF7E5FD0E
:1050300018E1B6B2002E30D0201D0CF034F800F28A
:1050400007083000C0B2400088F8010014F1600089
:105050000CF034F8814618F1020A14F160000CF0EB
:1050600038F8BFB2B6B2F119884201D2012000E08F
:105070000020C0B2002803D0002084F83C0041E7A3
:1050800098F80120BFB219EB470150460BF07AFFA8
:10509000B6B27000C01CA88003E002212000FFF718
:1050A000ACFDDFE0201D0BF0FEFF00F20706B6F8B6
:1050B0000100082190FBF1F714F150000BF0F1FF13
:1050C000FFB2874201D3012000E00020C0B20028D7
:1050D00003D0002084F83C0014E70121B6F8010059
:1050E000082290FBF2F303FB1203D3F10800401EE9
:1050F0000BF03FFF8046B6F80300012814D1FFB241
:10510000390014F150000BF0E7FF017831EA080193
:105110000170FFB2390014F150000BF0DDFF01788F
:1051200058EA0101017009E0FFB2390014F15000A2
:105130000BF0D2FF017831EA0801017092E0B6B2BB
:10514000002E2BD0201D0BF0AEFF00F2070614F14D
:1051500050000BF0A6FFC000B6F80110B6F803200F
:105160005118884201D2012000E00020C0B200287E
:1051700003D0002084F83C00C4E614F150000BF08A
:1051800092FF0100B6F803000090B6F8013000224B
:10519000B01DFEF71DFC0620A88003E002212000C0
:1051A000FFF72BFD5EE0201D0BF07DFF00F20706F0
:1051B00014F170000BF08DFFB6F80110814201D39D
:1051C000012000E00020C0B2002803D0002084F8B5
:1051D0003C0097E6B6F8011014F170000BF0A8FF40
:1051E000B6F8031001803DE0B6B2002E2ED0201D8F
:1051F0000BF059FF00F2070614F170000BF05EFF90
:10520000070006F20608B6F801007179022291FB48
:10521000F2F111EB000914F170000BF05AFF484550
:1052200001D2012000E00020C0B2002803D00020FD
:1052300084F83C0066E672794146B6F8010017EB47
:1052400040000BF09FFE0620A88003E00221200012
:10525000FFF7D3FC06E00320A88003E00121200033
:10526000FFF7CBFC022084F83C002000FEF73AFF59
:10527000A888401E606112E014F1A8000BF054F9F8
:10528000C0B2022801D1012000E00020C0B20028F5
:1052900005D0002084F83C002000FEF723FFB3E097
:1052A000201D0BF000FF06220021FEF717FE201D37
:1052B0000BF0F9FE00F207000078012811D0022857
:1052C0000ED003280ED0042819D0052824D0062893
:1052D0002AD0072830D00F282FD0102835D03CE016
:1052E0003BE03AE0201D0BF0DEFE00F20705201D3A
:1052F0000BF0D9FE6A780921FEF7F0FD2DE0201DA4
:105300000BF0D1FE00F20705201D0BF0CCFE6A78F1
:105310000921FEF7E3FD20E0201D0BF0C4FE04226E
:105320000821FEF7DBFD18E0201D0BF0BCFE042277
:105330000821FEF7D3FD10E00FE0201D0BF0B3FEB7
:1053400004220821FEF7CAFD07E0201D0BF0ABFE8A
:1053500004220821FEF7C2FDFFE7201D0BF0A1FE8D
:105360006169C91D884201D2012000E00020C0B25D
:10537000002803D0002084F83C00C3E5201D0BF07A
:1053800092FE6169CB1D0200D4F8A01014F1A800B0
:105390000BF0CCF8042084F83C002000FEF7A2FEBD
:1053A00032E014F1A8000BF0ECF8C0B2012801D1F2
:1053B000012000E00020C0B2002812D0201D0BF018
:1053C00072FE0500201D0BF06CFE0200002128007B
:1053D0000BF087FC002084F83C002000FEF782FEE2
:1053E00012E014F1A8000BF0CCF8C0B2022801D1F1
:1053F000012000E00020C0B2002805D0002084F881
:105400003C002000FEF76EFE7CE5F8B504000D00C0
:1054100016001F0020000BF0B1FE14F108000BF085
:10542000ADFE14F110000BF0A9FE14F118000BF002
:10543000A5FE00230022002114F120000BF0A3FEA2
:1054400000230022002114F18C000BF0E9FE002360
:105450000022002114F1F8000BF02DFF00230022A0
:10546000002104F258100BF06AFF002300220021F3
:1054700004F280100BF085FF00230022002104F2CB
:10548000D8100BF0B8FF00230022002104F2C02046
:105490000BF0B1FF00230022002104F2A8300BF032
:1054A000AAFF00230022002114F592600BF0A3FF55
:1054B00000230022002114F5AF600BF09CFF0023B5
:1054C0000022002114F5CC600BF0DFFF3200290030
:1054D00020000CF03CF9002F00D038602000F2BD15
:1054E00038B5040002F0CCFF2268D3170748D0E992
:1054F0000045A4FB020104FB031105FB0211044C4F
:10550000D4E900230BF09CFC34BD00BF38320020EE
:10551000A0000020DFB5089CDDE90A67CDE902673D
:10552000E4B2009401F01FF904B0D0BD80B501F0E1
:1055300053F902BD80B5DFF80C0D0078002808D1C2
:105540000021DFF8040DFDF7F5F8DFF8F80C012174
:105550000170DFF8F80C0078002808D10021DFF88E
:10556000B00DFDF7E7F8DFF8E40C01210170DFF87A
:10557000D40D0078002808D10021DFF8980DFDF740
:10558000D9F8DFF8C00D0121017001BD2DE9F04708
:105590000400894692461D00089E099FDDF8288078
:1055A00020000CF032F9DFF8A00D2060C4F8049060
:1055B000C4F808A00020E06000202061C4F8148036
:1055C0000420A0616069401CE061012084F8200093
:1055D000032084F82100A16914F124000BF01AFDC6
:1055E000A16914F134000BF015FD00206064002067
:1055F000A0640020E0640020206500206065002099
:10560000A065A068A1680968C9688847EDB2002D47
:1056100008D0022D11D00AD3042D1AD013D3052D92
:105620001DD01FE00820E060802020611FE00820DE
:10563000E0604FF48070206119E00820E0604FF4D2
:105640000070206113E04020E0604FF48070206122
:105650000DE04020E0604FF40070206107E0E6605C
:10566000276104E04020E0604FF480702061E06832
:10567000A169B0FBF1F0E064E068A169B0FBF1F270
:1056800001FB1200606514F124000BF00CFDA16910
:105690000CF0C0F814F134000BF005FDA1690CF01A
:1056A000B9F82000BDE8F08710B5040060686168B3
:1056B000096889698847DFF8541D60686268126864
:1056C000526A90470121606862681268126B9047C5
:1056D0000021606862681268926A904700216068E1
:1056E00062681268D26A9047A068A168096809696F
:1056F000884710BD10B50400A068A1680968C96892
:105700008847606861680968C969884710BD70B5D5
:1057100004002000FFF7C8FF14F134000BF0C3FCB5
:1057200002210CF077F8002114F134000BF0D4FCC6
:1057300005210170656814F124000BF0B4FC06002B
:1057400014F134000BF0AFFC0200022331002800FA
:105750002C68E46BA04770BD38B504002000FFF74B
:10576000A3FF002114F134000BF0B6FC01210170FD
:10577000012114F134000BF0AFFC022101706568C7
:1057800014F134000BF08FFC0100022228002B687A
:105790001B69984731BD38B504002000FFF784FF2E
:1057A000002114F134000BF097FC062101706568AC
:1057B00014F134000BF077FC0100012228002B6863
:1057C0001B69984731BD80B5012124300BF084FC62
:1057D000007810F0010090F00100C0B202BD10B5D9
:1057E0008C24012124300BF077FC0078204201D07A
:1057F000012000E00020C0B210BD70B504000E0012
:1058000004F258052000FFF74FFF002114F1340087
:105810000BF062FC067000260BE0711C14F13400E2
:105820000BF05AFC6169891B491911F8011C0170C0
:10583000761C60698642F0D3656814F134000BF081
:1058400032FC0100E26928002B681B69984770BD93
:1058500010B50400DFF8F00A206014F134000BF0FA
:1058600011FC14F124000BF00DFC20000BF0F4FFF0
:10587000200010BD90F82030002B11D100290FD04E
:1058800003699A420CD2012380F82030072380F864
:1058900021304164C16801FB02F18165002101658D
:1058A000704790F82030002B11D100290FD00369E8
:1058B0009A420CD2012380F820300B2380F821304B
:1058C0008164C16801FB02F18165012101657047B6
:1058D000C06870470069704790F82000002802D027
:1058E000112802D003E0012002E0022000E00020A5
:1058F000704738B50400606861680968896B88473B
:1059000094F82000012825D0C0F0478203285CD0FD
:105910003BD3052800F0828065D3072800F0AB80D8
:10592000C0F09480092800F0F180C0F0C0800B28FE
:1059300000F05181C0F02F810D2800F08681C0F069
:1059400065810F2800F01182C0F0BE81102800F0A0
:105950001E8222E260686168096849698847C0B2AE
:10596000002807D1606861680968096A884790F073
:10597000010000E00020C0B2002805D02000FFF7A1
:10598000C6FE022084F8200007E2606861680968AA
:1059900049698847C0B2002801D1012000E00020F9
:1059A000C0B2002810D02000FFF7A4FE2000FFF7AF
:1059B0000AFFC0B2002804D094F8210084F8200027
:1059C00002E0012084F82000E7E12000FFF707FF54
:1059D000C0B2002803D0042084F8200002E0002098
:1059E00084F82000D9E160686168096849698847DE
:1059F000C0B2002807D1606861680968096A8847F1
:105A000090F0010000E00020C0B2002805D0200086
:105A1000FFF7C1FE052084F82000BEE160686168E0
:105A2000096849698847C0B2002801D1012000E017
:105A30000020C0B2002808D02000FFF75BFE200045
:105A4000FFF78AFE062084F82000A6E160686168FE
:105A5000096849698847C0B2002801D1012000E0E7
:105A60000020C0B2002805D02000FFF743FE002030
:105A700084F8200091E16068616809684969884795
:105A8000C0B2002807D1606861680968096A884760
:105A900090F0010000E00020C0B2002806D00321F1
:105AA0002000FFF7AAFE082084F8200075E1606856
:105AB0006168096849698847C0B2002801D101209E
:105AC00000E00020C0B200281FD0E06C00280ED1FA
:105AD000656814F124000BF0E6FA0100626D2800FD
